:040000006F10102D40
:10000400000000000000000090000020D403002045
:10001400A9BDF9F5700800200000000000000000F0
:100024007008002090000020000000000000000084
:10003400900000200000000090000020000000005C
:1000440090000020900000209000002090000020EC
:1000540090000020E40C00208A040020000000002E
:100064009000002090000020AC00002090000020B0
:100074008E010020900000209000002090000020BD
:1000840090000020900000209000002090000020AC
:1000940001A0411106C6972000E0E78080F2973066
:1000A40000E0E780E0E6EF007076F5B73737004010
:1000B400834747009946BD8B638FD702011122CE37
:1000C40026CC4ACA31476390E70237340040A14442
:1000D40017490000130989DD8347A40093F7F70F3C
:1000E400B9CB8147B5A011476397E7048147B73679
:1000F4000040A14521A8834757007300203003C660
:10010400860038003E972300C700850703C7A60072
:1001140013F6F70F1377F70F11CFE392B7FE2146CB
:100124002C0017450000130565D8978000E0E78090
:1001340060D811A075F67244E24452490561730017
:1001440020308346840038003E972300D70085077B
:100154000347A40013F6F70F1377F70F19CBE392B5
:1001640097FE21462C004A85978000E0E78080D4E2
:10017400A5B73DD2C5BF4111B7170040985F3AC635
:10018400945F3247E39CE6FE324541018280B71713
:100194000040130700032388E702854723A4F18C5A
:1001A400730020304111B7170040985F3AC6945F3E
:1001B4003247E39CE6FE324541018280B7F70700EF
:1001C4000111944B13078008F337078093F78708CE
:1001D4003EC20F100000B7170040130870052380BB
:1001E4000705930580FA2380B7040F10000003C6A7
:1001F400B7041376F60DA385C704238007041246BB
:10020400732606800F1000001376050255CEF336D0
:10021400078093F6860836C40F1000002380070574
:100224002380B7040F100000B70614007D89558D94
:1002340088C7010001000100010023800704A246D1
:10024400F3A606800F100000733707801377870822
:100254003AC60F100000238007052380B7040F104F
:1002640000000F1000003727004093061005A30379
:10027400D78023800704B247F3A707800F1000003C
:1002840093078008F3B7078093F787083ECE0F10D3
:100294000000B7170040130770052380E704130715
:1002A40080FA2380E7040F10000003C7B704136724
:1002B4000708A385E70423800704F247F3A7078010
:1002C4000F100000056182801376050459C273364D
:1002D40007801376860832C80F10000023800705B4
:1002E4002380B7040F100000370614001306060419
:1002F4007D89518D88C70100010001000100238020
:1003040007044246732606800F10000073370780E7
:10031400137787083ACA0F1000002380070523804B
:10032400B7040F100000A54793F6F60F639EF6007E
:10033400B727004013073005A383E780B7170040B1
:1003440023800704D2470DBFB727004013072005B9
:10035400E5B773370780137787083ACC0F1000008E
:10036400238007052380B7040F1000009847136704
:10037400070C98C723800704E247FDBD011181469D
:1003840001468145114506CECD2B93078008F3B76E
:10039400078093F787083EC60F100000B717004088
:1003A400130770052380E704130780FA2380E7040A
:1003B4000F10000003C76704136717002383E704C3
:1003C40023800704B247F3A707800F100000F24010
:1003D4000561828041118146014681451145712B99
:1003E40013078008F337078093F787083EC40F107C
:1003F4000000B7170040130670052380C704930656
:1004040080FA2380D7040F100000FD552396B7020D
:1004140023800704A245F3A505800F10000073375D
:100424000780137787083AC60F1000002380C7049B
:100434002380D7040F10000003C767041367170055
:100444002383E70423800704B247F3A707800F1030
:10045400000001A0BD473305F50201007D1575FDBF
:100464008280411122C426C206C6AA8401446317AD
:100474009400B24022449244410182800504130551
:10048400803E4204C13F4180DDB70111A307010052
:1004940022CE26CC4ACA4EC8378400408347640023
:1004A40093F7F70FA307F1008347F100898B638A61
:1004B4000734834774001307000393F70703638922
:1004C400E7088344740083477400BD8893F70703E7
:1004D40063820720130700026397E70617490000A9
:1004E40013094943639F04129747000083C7C75AFF
:1004F4009D83EDCB8347240293C707042301F402B1
:100504008347240293F7C70F93E727002301F402DC
:100514008327490117460000034606406378F60A1C
:10052400918F174700002321F740832789013E96C6
:100534009747000023ACC73E930500080145978008
:1005440000E0E7804077B787004009472383E7004E
:100554003784004083477400E207E18763D8072E9D
:10056400930720FC2301F402974400009384843A07
:1005740083A5840C2146174500001305E55197D047
:1005840000E0E780401B8387441863CA0700230008
:1005940004028347240293F7C70F2301F40237842C
:1005A400004083472402974500009385E54E0145AA
:1005B40093F7370F93E787002301F402978000E055
:1005C400E780A04289472303F40049A40326890154
:1005D4003E969747000023ABC7349747000023A5F6
:1005E400073499BF174700000347174B9547631B10
:1005F400F700834734000347090093F70708D98FAE
:10060400A301F4008347240293F7C70F93E727005D
:100614002301F4028347240293F7370F2301F402E2
:100624001DB791476398F4008347240393C70704D5
:100634002309F402154433D48402930700033304DA
:10064400F402939724003E94B787004093872702CF
:100654003E948347040093F7C70F93E727002300D2
:10066400F400E147B387F402CA97D84B03C64700A6
:10067400944F6379E6048C4B118FB296B2958CCB70
:10068400D8CB94CF88476376E60297D000E0E78022
:10069400800AE147B384F4028547CA9403C754002F
:1006A400630BF7008347040093F7C70F2300F4009C
:1006B40059BD3A86D9BF8347040093F7C70F93E720
:1006C4001700EDB73306D70090CF23AA070093E5B0
:1006D4000408ADB5154933D924039397240033098D
:1006E400E9023E99930724023E998347090093F750
:1006F400370F93E787002300F900B9EC83472402FE
:10070400174900001309092193C707082301F402BC
:10071400834484008325890C0325090D93F4F40F85
:10072400268697D000E0E78000010326890D8145E5
:10073400014526969747000023AAC72A8327490D17
:10074400858F174700002321F72A978000E0E78070
:100754002059E39A04DE7DBD8347740093F70704B0
:10076400E38307DE91476398F4008347240393C728
:1007740007082309F402B7870040614483C987004E
:10078400B3878402174400001304C41893F9F90FC3
:100794004E863E948325840C0325040D97D000E0F7
:1007A400E78060F98327040D0326840D0347440C76
:1007B400CE972328F40C8327440D4E96232CC40C87
:1007C400B3873741232AF40C63E3E90081EBA68560
:1007D4000145978000E0E780A050B5B30347540C6F
:1007E40085476309F7008347090093F7370F230010
:1007F400F90091BB8347090093F7370F93E747004C
:10080400FDB78347F100858B85C3A301040001452F
:10081400978000E0E780A0168347240293F7370F00
:100824002301F402854745B38347F100918B9DCBA7
:10083400834754000145918B8DC3978000E0E78086
:100844008011B787004011472383E7007244E244D4
:100854005249C249056173002030978000E0E78067
:10086400A00DC5B78347F10093F7F70FA9BB0000AC
:100874009305000273A0458082457390153492401D
:100884002242B2424243D2436244F2440255925558
:100894002256B2564257D2576258F25806499649E0
:1008A400264AB64A464BD64B664CF64C065D965DD8
:1008B400265EB65E465FD65F09617300203023036F
:1008C400048015472303E48001002302A48082806E
:1008D40083076480E3CE07FE2303048082808307BA
:1008E4006480E3CE07FE03454480828083076480EE
:1008F400E3CE07FE2302A4808280411126C44AC2AB
:100904004EC006C61377F50BAD47AA892E899544C8
:100914006306F70019456537653F8D444E854537B5
:10092400FD59FD1463983401B240A244124982492E
:1009340041018280135509011375F50F453F2209C2
:10094400CDB7011126CC06CEB704080051371545A2
:10095400BD37713769372AC6A53F324593771500ED
:1009640089EB136515001375F50FF240E244056138
:100974008280FD14E9FC0145CDBF397126DC4ADAD9
:100984004ED852D656D45AD25ED006DE62CE66CC4B
:10099400B7E700E07D5783AA070022C603AA4700F1
:1009A40023A0E71823A2E718B71700401307700520
:1009B4002380E704130780FA2380E70483C74704EE
:1009C400930B75FFB684E20793FBFB0F8546AA8958
:1009D4002E8B328937240040E187015763FA760170
:1009E4006308D5008946130700026313D500015735
:1009F400D98F93F7F70FB71C00402382FC041147EB
:100A04002303E4801305F00F5D3D094CD135636D7C
:100A14007C11B7050700DA9537870700795563F22B
:100A2400E504B3879500636EF702370B0800A94706
:100A340033EB65016399F90689E48144513D2685C8
:100A44000DA0DA850945553D05090345F9FFFD1457
:100A5400050B693D81C49377FB0FFDF7DD3569FD17
:100A64007D55B7170040130770052380E70413076B
:100A740080FA2380E70403C74704418B2382E704F9
:100A8400F250B7E700E023A0571123A24711E25424
:100A940032445259C259325AA25A125B825B724C86
:100AA400E24C21618280A5476395F90685691309A3
:100AB400F00FB3069900B3742B01B6941349F9FFF0
:100AC400B3749900856B33796901416B9387F9FF9E
:100AD400B3F7270199E363FC340193D94900C14773
:100AE400E3E637FF99BF0569C1697D19D9B71305D5
:100AF400800D63886901130500026384790113057D
:100B04001008CA85DD3B353D21DD4E99B38434415F
:100B1400D9B7DA852D45D533CA94E30099F205098E
:100B24007D3BA30FA9FED5BF9387F9FF93F7F70F7A
:100B34006361FC0C83C71C0413073008631FF704AC
:100B440037070800636BEB04B3079B00B70610007C
:100B540063F5D704334BEB0089476393F906898027
:100B6400D549E38C04ECDA850945413B1109032797
:100B7400C9FF91472320E48003076480E34E07FE06
:100B840023033481FD17EDFBFD14110B81C493770E
:100B9400FB0FE9FF7D3371F5E1B5B717004003C7DB
:100BA4005704B70708001377070219E3B78707004C
:100BB4007955E378FBEA33079B00E3FFE7F855B583
:100BC4008547E382F9F2DA852D45053B9389F4FFE5
:100BD400E38504E6293393F7390091EB83260480F7
:100BE4000327090093074900E39AE6E43E89CE848B
:100BF400F1BFB5476396F9001305900BC93135BDB4
:100C0400B1471305B00AE38BF9FE99476391F904E0
:100C1400B7050800B365BB002D45C53181448D4B34
:100C2400A149753963967401832704802320F90050
:100C34008504E39834FF8327048013172B0163553D
:100C440007002312F900D5BB2322F900FDB39D4709
:100C54006399F90281451305B0044531BD4423204D
:100C6400090023220900FD599D3993F77400CA979E
:100C740003C70700FD14398D2380A700E39634FFD2
:100C84006DBBA1476392F9046D398144630D0B0078
:100C94008D479304C0036308FB00930400056304B9
:100CA4008B01930440041375C507E30895D81945CF
:100CB400393139390545213126850D3909453D310B
:100CC4004931E31C05D669BB91476399F9001305C3
:100CD4006006F536F53E130590090DB7E38F09D488
:100CE400F154A9BB197106C212C416C61AC81ECA89
:100CF40022CC26CE2AD02ED232D436D63AD83EDAD8
:100D040042DC46DECAC0CEC2D2C4D6C6DAC8DECA07
:100D1400E2CCE6CEEAD0EED2F2D4F6D6FAD8FEDAB7
:100D24009385018C8841E700050092402242B2423B
:100D34004243D2436244F244025592552256B2567B
:100D44004257D2576258F25806499649264AB64A3B
:100D5400464BD64B664CF64C065D965D265EB65EFB
:100D6400465FD65F096173002030B7E700E098431F
:100D7400B706200023A0D718758F0F10000001C5F7
:100D840099C1814711E6B7E700E023A0E71082800C
:100D9400B386F50003C80600B306F5008507238073
:100DA4000601E317F6FEC5B737E700E01C43B706B4
:100DB40020002320D718F58F0F10000001C533073A
:100DC400C50011E637E700E02320F710828005050F
:100DD400A30FB5FEE31DE5FEF5B737E700E01C43BE
:100DE400B70620002320D718F58F0F10000001C587
:100DF40099C1014711EA37E700E02320F7100545C0
:100E040082800507E309E6FE3308E500B386E500C2
:100E14000348080083C60600E305D8FE37E700E070
:100E24002320F7100145828037E700E01C43B70612
:100E340020002320D718F58F0F10000001C53307B9
:100E4400C50019E637E700E02320F710014582804A
:100E540005058346F5FFE397B6FEE31BE5FE37E79A
:100E640000E02320F7100545828079719747000040
:100E7400938787C822D4804306D626D24AD04ECE42
:100E840052CC56CA5AC85EC669C037C9C901014B9B
:100E9400974900009389C9C51309F937174A000017
:100EA400130ACAC5974A0000938ACABF9744000030
:100EB400938484C98357240095E35C44631D0B0029
:100EC40017470000232AF7C2832BC4002285EF00B2
:100ED400502F5E84A9A82326FB00FDB783A7090031
:100EE40082971C443307F5406375F500D8401D8F85
:100EF4002A976361E9089747000023AD07BA835531
:100F0400240003450400978000E0E78020615C40F2
:100F14005844B9C70C44D040AE97BE8663E4B700CA
:100F240063E4C700B386C74014C4228B3A8459F0E3
:100F340097470000938707B79C4B09476373F708EB
:100F4400F917174700002327F7B6B25022549254DA
:100F54000259F249624AD24A424BB24B45618280FD
:100F640063170B009747000023A8E7B8B1BF2326F7
:100F7400EB0099BF03274A021DCF63E1A704338521
:100F8400A7408347040085E317470000034777B869
:100F94005917B307A7003E85D44063E4E70063E430
:100FA400D7003385D74083A70A016376F5009747B6
:100FB400000023A1A7B0228B404495BFD840BA9724
:100FC4007DBF9747000023A707AE41B797470000AE
:100FD400938707B79C4385C3411106C682979747F9
:100FE400000083C7C7B089E79747000023AA07B466
:100FF400B240410182809747000083C747AF91E721
:101004009747000023AE07B282808280411122C438
:10101400174400001304C4AB1C4006C626C24AC0D1
:1010240091C782979747000023A407AA9747000017
:1010340083C797B3858B174900001309A9B289CFD9
:101044008347790019476312F71097470000A38D6F
:1010540007B0F9295C4482971C4491C38297974452
:101064000000938424A9984017460000034696A3E1
:101074009747000083C707A393961700BA9683D6B1
:101084000600E5C29747000083C7C7A163E5C70E02
:1010940097470000238807A01C40639E07149747C6
:1010A40000009387E7A49C436387071497470000D5
:1010B400938787A9DC4317470000232DF79E7533D8
:1010C4009747000083C7B7AA6397071297470000A2
:1010D40083C7D7A991CF8347790093F7F70F89EB9B
:1010E40097470000A38407A8979000E0E78060F585
:1010F40097470000938787A0DC53638E070E9747BA
:1011040000009387279A9C4BFDC7834779001547B6
:101114006363F70E9747000083C747AA918BE1EFFB
:101124009747000083C7A79CF9E7904097460000C3
:1011340083C6569763C7D70C2244B24092440249EF
:101144004101178300E06700A364834779001D47CA
:10115400E314F7F097470000A38807A0D12E1C489A
:10116400DDBD850793F7F70F97460000238CF692B1
:10117400E3E0C7F001BF86073E97835507002310BD
:10118400070097470000239307969747000093872B
:10119400E7939C43174500000345C59013172500AA
:1011A400BA979C4382979747000083D727941747A1
:1011B40000000347278F93C7F7FF7D8D9317170010
:1011C40098403E97835707005D8D2310A7009747EB
:1011D400000083C7278D91C78507174700002303A5
:1011E400F78C174700000347E78B9747000083C736
:1011F400778BE37FF7E8B2402244924402494101ED
:101204008280139717003297035707006DF78507FD
:1012140015B737C700408326C720B707FCFFFD1763
:10122400F58F2326F72001000100974700009387DC
:101234006787C84F832787262326D7206A0593C745
:10124400F7FF99835D8D8280EFF05FD87300000013
:101254000000000097420000938262890383020029
:1012640023800200630F0300F32510342EC097057A
:1012740000009385A5FD73901534EF00204E730094
:10128400203086DCEF00804DE65082800000174756
:1012940000001307E78C1443411122C49C5E4AC02A
:1012A40006C6998326C2858B3A8417490000130920
:1012B40029AED1CB930700069CDE174700000347F5
:1012C400C78A93070008974400009384A489631B8A
:1012D400F700832709009C4393F70704174700008E
:1012E4002305F78883C7040093F707049DC3973742
:1012F40000009387E77F9C4382979747000023A1D0
:10130400A78883C7040093F7F70B17470000230B44
:10131400F78483C7440093F7070495E78547174785
:101324000000A303F78497470000938727869C4314
:101334003707020098C7130700FC9746000023856F
:10134400E6829848F8D318401C5F9183858B8DC33F
:101354001C5F93E707011CDF97470000938707830F
:101364009C4323A20706854717370000230EF77E08
:1013740083270900D8430583058B19C7D843759B78
:10138400D8C3D843799BD8C3B2402244924402497B
:1013940041018280ED3D730020309317D50063D363
:1013A4000702973700009387677E9C437D57B8D721
:1013B400973700009387076FDC4F850717370000C6
:1013C4002320F770937785009DCB9737000083C760
:1013D400877993E71700173700002306F7789307F8
:1013E40000F8173700002301F77897370000938738
:1013F400277798435C57F19B93E717005CD7937763
:1014040015008DC79737000083C7D77593E717007A
:1014140017370000A308F7749737000093874774C1
:1014240098435C57F19B93E717005CD7937765006B
:1014340095CB93774500173700001307A772CDCBE0
:101444008347070093E7170017370000230CF77052
:10145400973700009387C77098435C57F19B93E7D5
:1014640017005CD79317F50063D4070217470000F1
:101474000347C786418B973700009387A77E51C3E4
:1014840083C7870793E70702174700002308F784F9
:101494009317E50063D707029737000083C7C76C2B
:1014A400E207E18763D70700854717370000230D5C
:1014B400F76A973700009387676D9C4337070200EC
:1014C40098C79317C50063D4070217470000034762
:1014D400F780058B973700009387C77829C383C7A4
:1014E400970793E7270017370000A309F77E828048
:1014F4008347370093E7170017370000A305F76603
:1015040081BF03C7870789463D8B6308D70083C71C
:1015140087070D47BD8BE39DE7F69147B5B703C732
:101524009707118B69D783C7970793E7870065BF30
:101534009737000093878765944397370000938714
:10154400676203C70700058B11CB97370000238D13
:10155400076097370000A3890760828003C71700DC
:10156400058B65F7F85271FF83C75700DDB717374E
:1015740000001307E75E0328070083278803958389
:10158400858BADEF11C683270803BD832300F600C6
:101594009DC61C43985B4607935767016356070033
:1015A40093E707C0C207C18303970600C207C18738
:1015B40009C7BA970947B3C7E7022390F6008DCD50
:1015C4008345150095C99737000083C7075A93F7D9
:1015D400070413879500894585C33A958347050019
:1015E4000547994593F6F7066398E600E207E18715
:1015F400814563D30700B9452E8582808545EDBFBB
:10160400411126C206C622C49734000093840458AC
:101614003DED9440AE87F8527DFF37F400E03E85FF
:101624009737000023810754832704D1B285ED9BAB
:101634002328F4D0832704D193E787022328F4D006
:1016440073005010979000E0E780608C973700009B
:10165400938707519C43B70680009843558F98C3DE
:10166400D857719BD8D797370000A38F074E973769
:101674000000A389074E9C40094798C3832704D1DF
:1016840093E787002328F4D0730050100DA08D47F2
:101694006315F504973700009387874C9C43B7067E
:1016A40080009843558F98C3D857719BD8D79440DE
:1016B400173700001307074B83472700858B89EBF7
:1016C40083473700858BC1CB97370000238E0748AB
:1016D400B24022449244410182808547E319F5FCDB
:1016E400B7F700E003A707D16D9B23A8E7D003A7B2
:1016F40007D11367870223A8E7D0730050109840DE
:101704008177FD175447F58F5CC70F100000984090
:10171400B70702001CC7930700F81736000023051B
:10172400F644973700009387A7439C439C439D83CB
:10173400858B639FA700930760197CD354C737F741
:1017440000E0832707D193E787002328F7D02DBF34
:101754009307E01BDDB7FC52A5F39DBF973700004C
:101764009387C7429C438847D847798D09C988C75E
:101774009387C18D03A30700630303000283828060
:10178400173700001307C7408346B7019737000097
:1017940083C7D7424C4BB697FD8B33D7F5009736AA
:1017A4000000A387F63E97360000A389F640058B18
:1017B40015EF173700000347B740B3F7E702814638
:1017C40001471305000233D6E500058A1378F70FA5
:1017D40019CA6397D70097370000A38B073B828011
:1017E400850693F6F60F0507E31FA7FC828097375B
:1017F40000009387E72F9C43011122CC4AC806CEF0
:1018040026CA4EC68297973700009387673A804767
:1018140001496301A406BE8463668506018D1354E1
:1018240055009737000083C747381379F501636083
:10183400F4049739000093892931993703A8840067
:101844009736000083C66636139756004297158C68
:101854003A8683A54900636407016364B7003306CD
:10186400B7409737000023A9C734E378D4FC1604A3
:1018740033692401F24062444A85D2444249B24960
:1018840005618280973700009387072CDC433384FB
:101894008740229569B7973700009387272F98438D
:1018A4008967938707F47CD397370000938747337E
:1018B4009C4383A60709139656006358060083A623
:1018C400070913966600634406007453FDF2828090
:1018D4004111B7E700E022C480433707200006C661
:1018E400798C23A0E7180F10000011C199E5B7E720
:1018F40000E023A0871001457DA893073500C207A7
:10190400C183F19BC207C183130740036369F702D4
:1019140017370000130787340843173700001307ED
:10192400673314436392A602173700001307071D99
:10193400185B55DFC207DD8D054502974DBF17378C
:10194400000013076731C9BF035765002DEB035728
:1019540045006366F706B306F7402146637CD6026A
:1019640003280500938687001D8FAA9661171736F2
:101974000000035686132392E60023A00601239356
:10198400060014C12312F500130786FF97360000E2
:10199400239DE6102313B5009735000083D5E51089
:1019A400B387F540173700002311F710B7E700E0BD
:1019B40023A087102105B2402244410182800841BE
:1019C40095B7B7E700E08C433707200023A0E7185A
:1019D400F98D0F10000001E523A0B710828097371E
:1019E40000009387A72703A3070097370000938776
:1019F400672683A8070081469A8763F2170D03A818
:101A040007006361F50C636FA80A13878700636896
:101A1400E50A03D66700216705076317E60003C7D5
:101A2400218E05072381E18E1735000013058507F4
:101A340003D64700035765002393070032974207F4
:101A44004183173E00002312EE06638C67021733AE
:101A5400000013036320032303006304F30203D38E
:101A640066006310030283D7460023A00601210702
:101A74003E9621062392C600973700002397E7027B
:101A8400B6879843630D1703973600009386C61CE8
:101A940094426306D7028356670095E283D64700D3
:101AA400035647001843A106B2962392D70098C361
:101AB40083576500A107173700002318F7FEB7E71F
:0C1AC40000E019BFBE86C2870DBF000005
:101AD000971100209381018117510020130181D2B9
:101AE0001305400097E5FF1F9385C5511706002099
:101AF000130606FE63FAC5008322050023A05500E5
:101B000011059105E3EAC5FE17C500001305050C94
:101B1000970500209385C5FB1386018463FAC500F1
:101B20008322050023A0550011059105E3EAC5FEB7
:101B300013850184973500209385C5256377B5000B
:101B4000232005001105E36DB5FEFD42739002BC34
:101B50008D4273904280B72200009382828873A0E6
:101B6000023097E2FF1F9382E24993E232007390C2
:101B70005230970200009382820B739012347300EC
:101B800020303D432A876373C3029377F700BDEF8C
:101B9000ADE5937606FF3D8ABA960CC34CC30CC7DD
:101BA0004CC74107E36BD7FE11E28280B306C34006
:101BB0008A069702000096966780A6002307B70062
:101BC000A306B7002306B700A305B7002305B70097
:101BD000A304B7002304B700A303B7002303B7008F
:101BE000A302B7002302B700A301B7002301B70087
:101BF000A300B7002300B700828093F5F50F9396FA
:101C00008500D58D93960501D58D61B793962700F4
:101C10009702000096968682E78086FA9680C11722
:101C20001D8F3E96E374C3F8A5B74111054506C65E
:101C3000EF20E0541545EF10D00E1305800497E017
:101C4000FF1FE780E057EF104067EF10207EEFA006
:101C5000200EEF104024EF10801D852CEF00B06D9A
:101C600097E0FF1FE780204317C50000130505C458
:101C7000828017C500001305E5BA828091470145AF
:101C800063E9B7008A0597C700009387A7D0BE9580
:101C900088418280238001848280411106C622C44B
:101CA00026C24AC0B2842E89171400201304447936
:101CB000EF1000212686A28517250020130545C0B8
:101CC000EF60001F938741859043B240CA852696F6
:101CD0003305A640228622449244024988C39306D3
:101CE0000004014541016F70C05A4111014506C60B
:101CF000EF70800F814701C90145EF70A0101345B7
:101D000015009377F50FB24013F51700410182805B
:101D10009D47639FF5042391018623900186239EAE
:101D20000184239D018423960186239501862393B4
:101D3000018623920186238F0184411185479306F2
:101D4000000417260020130666BE8545014506C619
:101D50002384F186EF70E053B24093060004171617
:101D600000201306E66D8D45014541016F706052FC
:101D70008280411106C6EF10A0149387018603D715
:101D8000070003D7070017260020130626BA9386FC
:101D9000A1851A073297834507001D47639BE5021B
:101DA00005472386E18C03D7060083D6C185158FAE
:101DB00042074183A1466300D70483D70700B2409E
:101DC000930600049A073E968545014541016F70D0
:101DD000404C03D7070005072390E18603D707008F
:101DE000A1456394E5002390018603D7060005070B
:101DF000239DE1844DBFB2408547238FF18441018B
:101E0000828083D7C18685072396F18683D6C186D3
:101E1000A1471387C1866394F6002396018683D772
:101E2000618685072393F18683D6418683D76186B1
:101E3000638AF6028357070003570700172600201E
:101E40001306C6CE9A07931617001727002013070C
:101E5000E7ED3697835607003E9693051008014537
:101E60006F70A03685472384F1868280411122C499
:101E70003284A2851D461385C18206C6EFB0700B61
:101E80008347140003450400A207C98F03452400BB
:101E90004205C98F0345340062055D8D01C9EF20FD
:101EA00000482244B24041016F108001B2402244F8
:101EB00041018280411132859385C1821D4606C64B
:101EC000EFB03007B240410182800111280006CEF8
:101ED000EF20402597060020938686BF014797C5CF
:101EE00000009385E59D21453C00BA9783C7070014
:101EF0000507890613D64700BD8B2E96AE9703467D
:101F0000060083C70700238FC6FEA38FF6FEE31DDE
:101F1000A7FC13060040971500209385655A1725E6
:101F200000201305E59997070020238B07BAEF508F
:101F30003075EF30300297C500009385E594014578
:101F4000EF60705C972500209385859C0145EF60CC
:101F50001061938541820145EF60D0639385C18113
:101F60000145EF603063971500209385E5450145F5
:101F7000EF60D06EAA850145EF60705E9715002076
:101F8000938545460145EF60706DAA850145EF6078
:101F9000105D938541810145EF60D05F9385C180DD
:101FA0000145EF60305F170600001306A6D6B7851F
:101FB00000400145EF609066F240056182806D71DE
:101FC000232481102322911023202111CEDFD2DD82
:101FD00023261110D6DBDAD9DED79384A1851384AA
:101FE000C18517290020130969B497290020938916
:101FF000E993172A0020130A6AD303D704008357F2
:102000000400C207C183638EE70083D7418603D7EC
:102010006186998FC207C1831D47938A4186637386
:10202000F714E131EF00303BC93115E1930551015F
:102030000810EF00905201CD8C100810EF30606A4C
:102040009375F50F8810A30AB100EF00905683C76F
:10205000018499CBEF20002C938741849C431D8DF4
:10206000634405002380018449316304051E93877E
:10207000018483C7070093F7F70FB9E7130600043D
:10208000971500209385C53717250020130505E215
:10209000EF50B06D15C92AC6EF00906285472380C6
:1020A000F184EF202027B7975B00938707D8B246CB
:1020B0003E9523A2A18417160020130666349305CB
:1020C00030080145EF7060100D311DE99305610185
:1020D0000811EF00903C11C5834561010811EF2004
:1020E000602E930571012808EF00504111C9034784
:1020F00071019D476316F700624519C1EF20202248
:1021000093874185984301C79C4323AA018483C7D1
:10211000818599EF13060004971500209385457B70
:10212000171500201305C579EF503064238CA18466
:1021300083C5818589C91715002013056579EF20AE
:102140006028238C01848320C11003248110832400
:10215000411003290110FE596E5ADE5A4E5BBE5BD8
:1021600051618280138B218683570B0083570B00AC
:1021700003550B0083D5A1869A051A05CA954E957D
:10218000EF30205683D7A1868607938BA186D297FE
:102190002390A70083D70B0083D70B0083570B0036
:1021A00085072391F18683570B0021476314F700BD
:1021B00023910186835704008507239EF18483C7FA
:1021C000E1859DC783D7040003570400998FC20798
:1021D000C1832147638EE700238F018403D60186E4
:1021E0001A06930600044E9685450145EF70600A75
:1021F00083D70B0085072395F18683D70B002147F2
:102200006314F7002395018683D70A00850723927C
:10221000F18683C78186E38207DE9387618603D7D1
:102220000A0083D70700C207C183E388E7DC238461
:10223000018603D6C18683D7C1868607D29783D607
:1022400007001A064A96930510080145EF60F077DB
:102250006DB383C7C184B5E717250020130505C5F5
:10226000EF5070442A8401E523A40184B1BDEF201E
:10227000600A9307F00363E68702938781849C4397
:10228000630BF40023A48184F5679387074C3E9584
:1022900023A8A18415BD938701859C431D8DE3452B
:1022A00005E213060004971500209385651D172588
:1022B00000201305A5BFEF50504B2386A18423A413
:1022C000018483C5C184E38105E01715002013054F
:1022D000251BEF00B013E30905DE23860184EDB36F
:1022E000B7E700E03707400023A0E710828013879C
:1022F000018703230700B287630403040D476302C9
:10230000E502C547630AF5008547631BF502814670
:1023100001468145014502838146014681450545C7
:10232000DDBF89E901CA83461600838507000906D7
:102330000945D5B7E20581460146E1850D45E1BF76
:102340008280797122D4130600022A8481450A858D
:1023500006D697F0FF1FE78060A5C1472300F10074
:10236000B7477671938797123EC4B7575500938746
:1023700057553EC6970700009387A7F73EC89307B7
:10238000B0BFA3008100231EF100EF90E03F0A855B
:10239000EF80006D19E5238A8186B2502254456191
:1023A00082800545DDBF23A8B186238A0186930775
:1023B000700263E3A70071B70945828003C74187B4
:1023C000631AA700411106C6EF90003CB2400145D8
:1023D00041018280130770026363A7009DB709451E
:1023E00082801DC99387F5FF93F7F70F1307A00F9E
:1023F0006364F702011122CC06CE2EC62A84EF9028
:10240000A03822856244B245F2409306F00F1306CD
:10241000F00F05616F80C07E09458280411106C6BC
:10242000EF908036B2409306F00F1306F00F81450F
:10243000014541016F8010248D4763EAA70801110F
:102440002384018A22CC06CE09472E84631FE5022D
:10245000930780056399F60632C6EF007026B245F1
:10246000130680051725002013054599EFB0602C51
:102470002380818A6244F24085472388F18A03C51C
:10248000818B914505616F7020096311F502938777
:10249000C18A9C4305468945850723A6F18A624483
:1024A000F24003C5818B05616F70801011E5EF006C
:1024B00030210546A145E5B785476316F500054679
:1024C00093050010E9BFF24062440561828082807A
:1024D00083C7118B638D070A41119305000803C55B
:1024E000818BA388018A06C6EF7000239387418BF6
:1024F0009C4309476398E70203C54189C135914769
:102500000546894503C5818B23AAF18AEF70400AED
:102510001306003293050002B24003C5818B4101CE
:102520006F70000919476394E70485471727002057
:102530002309F7D89387418983C70700172700200D
:10254000A301F7D8938781899043D443972700202C
:102550009387C7D690C7D4C7EF00902C19E1EF003E
:1025600070199D4723AAF18A0546894575B7214709
:102570006386E700D91705476368F7009D4723AADC
:10258000F18AA38A0186CDB7B24041018280828060
:10259000411106C6613519C9B2402384018A03C5B9
:1025A000818B0D46894541016F708000B24085479F
:1025B0002384F18A41018280011122CC26CA4AC8B3
:1025C000AE842A89328481451306400417250020F1
:1025D000130585893EC236C63AC442C006CEEFF026
:1025E0004FDA3746415022470248B2461306764535
:1025F0009727002023A0C786054697270020238D14
:10260000C78497270020A389278597270020238642
:10261000E78497270020A38207859727002023AF10
:1026200097829727002023AD87829727002023AB2E
:10263000D782924799CB630A08004286BE85172548
:10264000002013056582EFB0C00EB7A71C81B70646
:102650000001938757DC0147171500201305857F7C
:102660009386361913064005B305E50083C50500BA
:102670000507AD8FB387D702E318C7FEF240624467
:10268000172700202322F782D24442490561828025
:10269000197193970501A2DC86DEA6DACAD8CED6D8
:1026A000C1872E8463D00702EF60504D19C1EF60DF
:1026B000D0472165218DF6506654D6544659B659F7
:1026C0000961828093F705048DC3EF00D02219E9D8
:1026D000EF00007F130600149305000403C5818BEF
:1026E000EF60106D13450404F9B793F74500638C50
:1026F000072C83C7018B638807224800EF10503EE8
:1027000013068005971500209385456F2800EFB0CC
:10271000400212459387018A03C907002388018A72
:10272000EF10103E2247B747415062099387774523
:10273000135989416315F7040347C10085476310A6
:10274000F7048344F1009307000463EA9702764696
:10275000B7A71C81B7060001938757DC0147938612
:1027600036199305400528003A95034505000507ED
:10277000A98FB387D702E318B7FE6304F600894533
:1027800079A8EF0050176310050E1387418B1C4387
:102790008546BA896390D7020347D1006315F718BD
:1027A000930790FD83C4818B635EF9068945268576
:1027B000EF60905603A7090091476316F716034789
:1027C000D1008D476311F71613890189424783278A
:1027D0000900631AF7149384818952479440E247B1
:1027E0006393E614D8406310F7140347E10083C7EE
:1027F0004189631AF7129305000203C5818BEF60CC
:10280000B0719040D440832509008147014803C737
:10281000418911455533994723AAF18A854503C556
:10282000818B59A05246E246B367D600C1D3034715
:10283000E100930560029307F7FF93F7F70FE3E7D3
:10284000F5F6C245238AE18823ACC18823A8B18864
:1028500023AED188814701480945B93B894723AA5E
:10286000F18A8545A9B78347D1000D476391E704F5
:1028700097270020938787A4D24690476247E310AA
:10288000D6F0D447E39DE6EEC245814717270020E6
:10289000034737A31145014883C4818B313BA947C6
:1028A00023AAF18A85452685EF601047ADA8154714
:1028B000639EE70697270020938747A052469847D4
:1028C000E246E31EC7EADC47E39BD7EA83C7218BD6
:1028D000E39707EA9387818842499C436310F90292
:1028E00003C8C188630C0800971700209387074925
:1028F0000147CA851945C931A14739BF83C7218A14
:10290000E39F07E626866C08171500201305054B84
:10291000EFA03062A380918A23A421898547238177
:10292000F18AEF00E0591345440071B31D476396E7
:10293000E7049727002093876798D246904762471D
:10294000E31FD6E2DC47E39CE7E2E38A04E283C7C5
:10295000218BE39607E283C72188E39207E226866C
:102960006C08171500201305653DEFA0905CA3804F
:10297000918885472381F1886DB7A546E391D7E01B
:10298000972700209387879352468C47E246E39827
:10299000C5DEDC47E395D7DEE393E4DE83C7218B16
:1029A000E39F07DC83C70188E39B07DC1D466C08B7
:1029B00013858187EFA0F0579D47A38FF186854748
:1029C0002380F1888DB793F71500A9C793050008F8
:1029D00003C5818BEF6050542384018A854793059A
:1029E0008005171500201305E546A388F18AEFF04E
:1029F0005F9F83C7818B11E94146930500083E859F
:102A0000EF60103B134514007DB1A388018A0D4689
:102A10008545F5B793F7250089C79D3E13452400EA
:102A200059B993F7850081CB6534137474F7131586
:102A30000401418149B193F7051095C3930500083E
:102A400003C5818BA388018AEF60104D0D46854533
:102A500003C5818BEF60D0351374F4E7C9BF93F7DA
:102A6000050889C7B53413450408B1B193F70520AB
:102A7000B9CFEF00406811CD83C7118B014591EBB1
:102A800083C7218B99E79387418B8843651513355D
:102A900015009387C18A984301C79C4323A6018AE6
:102AA0009387418A984301C79C4323A2018A09C5A1
:102AB00083C7818A91E3E93C130600029305002055
:102AC00003C5818BEF60D02E13450420EDB693F73C
:102AD000050113C50501E39007BE93F70502014503
:102AE000E38B07BC9387418B984391476314F702AC
:102AF000EFF0DF8C854723AAF18A8146938781898D
:102B00000147894503C5818B94C3D8C3238A0188B3
:102B1000EF6090201345040279BE2384018A138755
:102B2000418A1C43054693050020850703C5818B18
:102B30001CC36F60F027411106C66D211705000008
:102B4000130545B5EF607069238CA18A6D23814719
:102B500009C59717002083C7D7769705000093858E
:102B6000E58D3E85EFF03F8411C101A01306000200
:102B70009305002003C5818B2384018AEF605023D5
:102B80009D2B83C7818B0DC917170020130707736F
:102B90008346770089453E85238AD188104754476C
:102BA0001387818910C354C31D4723AAE18AEF60AC
:102BB000B016B24041013DAE930500043E85EF6082
:102BC000B015B240854723AAF18A03C5818B894598
:102BD00041016F607014411122C406C62A840DC1E0
:102BE00083C7218B91EF83C7218A99CB2381018AE7
:102BF0009D47894503C5818B23AAF18AEF60D011D7
:102C00002389818AB240224441018280011122CC71
:102C100006CE2AC62EC4C5212A8405CDB247A5CF2B
:102C200022489306F0031307F8FF1377F70F63E4C6
:102C3000E60603C7218B19E71387418B14431D4711
:102C4000638EE60083C75187014481E78547A38AE5
:102C5000F1862285F24062440561828013874188B3
:102C600018439716002093866665904693051700D3
:102C7000D44623A2B18801472145EFF0FF93AD4729
:102C80000D46854503C5818B23AAF18AA38A018657
:102C9000EF6010127DBF01446DBF83C72188A1CFB3
:102CA000814739C9B1C9011126CAAA84680006CE74
:102CB00022CC4AC82E84EF10A06203C911884A862C
:102CC00097150020938585072685EFA0902632452D
:102CD0002300240123810188EF108062894503C508
:102CE000818BEF607003F24062448547D2444249D1
:102CF0003E850561828081473E85828083C7018849
:102D0000B1CB814729C9A1C9011126CAAA8468008B
:102D100006CE22CC4AC82E84EF10805C03C9F1870E
:102D20004A86938581872685EFA0B020324523000F
:102D3000240123800188EF10A05C894503C5818BA5
:102D4000EF60807DF24062448547D24442493E852F
:102D50000561828081473E85828083C7218AB9C709
:102D6000814731C5A9C5011126CAAA84680006CECB
:102D700022CC4AC82E84EF10A05603C9118A4A8675
:102D800097150020938585032685EFA0901A32457C
:102D9000230024012381018AEF108056F24062440F
:102DA0008547D24442493E850561828081473E8500
:102DB0008280411122C426C24AC006C62A89AE8436
:102DC0001D2E2A8421CD630209069387F4FF93F711
:102DD000F70F1307F003636AF7042686CA851715F1
:102DE00000201305A5F9EFA0D014971600209386B4
:102DF000E64C9385818890468C41D4462386918801
:102E0000CA87014719452688EFF00FFBA147854582
:102E100003C5818B23AAF18AEF6000702285B2403E
:102E2000224492440249410182800144C5BF4111BC
:102E3000C145014506C6EF10002A37170040832719
:102E4000870C8D451305000893E707082324F70C2A
:102E5000EF10001E85454145EF10801DEF10204FFB
:102E60000145EF10E05195450545EF100053B24084
:102E7000B7E700E03707000423A0E710130600407F
:102E8000971500209385850317150020130505026B
:102E900041016F40F07E371700408327C70C411176
:102EA000B706800006C6D58F2326F70C8D4537055B
:102EB0008000EF10E017B240A38C018A41018280AC
:102EC000371700408327870C4111B706800006C6DC
:102ED000D58F2324F70CEF10E043B7C72D0093875D
:102EE000076C3E9523AEA18AB2408547A38CF18A38
:102EF00041018280371700408327C70CB706800046
:102F0000D58F2326F70CA38C018A828083C7918BEF
:102F10008DCB411106C6EF10E03F9387C18B9C43D8
:102F20001D8D634D0500371700408327C70CB7067A
:102F30008000D58F2326F70CA38C018AB240410173
:102F40008280828061468145171500201305053770
:102F50006FE03FC33787B8ED13060501FD57130730
:102F600007326315C50013C5F7FF82800505834648
:102F7000F5FFB58FA14693D51700858BB307F040B9
:102F8000F98FFD16AD8FE5FAE9BF14413747445775
:102F9000130707156395E604544141114166A206E3
:102FA00022C406C6A18205062A8401476394C6028C
:102FB0008346750013066002FD1693F6F60F636BE9
:102FC000D60014455045D18E91C669371848098FEF
:102FD00013371700B24022443A85410182800147ED
:102FE0003A8582804111E146171600201306062D0E
:102FF00081452D4506C697E0FF1FE780409819C51B
:1030000091378947B2403E854101828017150020E3
:103010001305C52A9D3F814775F52D378547DDB7D7
:10302000397126DA06DE22DC9714002083C4642975
:1030300085476390F40C1714002013042428834759
:10304000740013076002FD1793F7F70F6363F70A25
:103050001C445844D98FD1CF6146A2850A85EFA080
:10306000406DB7474457938707150A853EC0231222
:103070009100CD35B7F707002AC803C70701A54758
:103080006313F70001A09306001001468145254512
:1030900097E0FF1FE780A08E914731E5E1460A8661
:1030A0008145294597E0FF1FE780608D954705ED35
:1030B000E146300881452D4597E0FF1FE780208CD1
:1030C000894715E161468A852808EFA02064994761
:1030D00019E928085D3D994719C561462C082285E4
:1030E000EFA020658147F2506254D2543E852161A1
:1030F00082808D47CDBF171500201305251C71B5A3
:10310000114541AD411193962500AA852D4506C66E
:1031100097E0FF1FE780A086B24001454101828011
:10312000011122CC06CE3714004026CA4AC84EC62A
:1031300052C483447405034AB40583498405034992
:103140009405EF00F07A8347A40593F4F40F137A03
:10315000FA0F93E71700230DF40493F9F90F13798D
:10316000F90FB717004003C7A705058B6DFF03D5FF
:10317000C705A38D4705238C3705A38C2705A38B93
:103180009704F2406244D2444249B249224A05615E
:10319000828041119397050122C406C6C1872E84FF
:1031A00063DD0700EF60801D19C1EF600018216525
:1031B000218DB2402244410182809397250101452F
:1031C000E3D907FEEF70800B253FEFF01F9537F630
:1031D0000200130606E0896503C5418CEF60403D9F
:1031E0000965F9B72D71232A9110FD74E98C232C00
:1031F000811023282111232631112A84AE89328996
:10320000930600100A86A6852D45232E111097D00F
:10321000FF1FE780C0761315440151810A051396FC
:103220002900CA850A9597E0FF1FE78040B4A6856C
:1032300085660146254597D0FF1FE78040740A86C2
:10324000A68593060010294597D0FF1FE7802073BD
:103250008320C11103248111832441110329011109
:103260008329C11015618280B7F7070003C70701E2
:10327000411106C622C426C24AC0A547631AF700F8
:103280009537B2402244924402490145410182806F
:1032900013942500AA843289A286AA850146254571
:1032A00097D0FF1FE780A06DA2864A86A685294594
:1032B00097D0FF1FE780A06CE9B71D71494697A51D
:1032C00000009385656E17A500001305257E86CE48
:1032D00097E0FF1FE780A0B011E101A0B7F600E082
:1032E000795798CAFD57DCCA0567B7E700E023A005
:1032F000E7101306F00290C223A0E71801000100B6
:1033000017E7FF1F130747F523A0E18C4157A38A56
:10331000E740130600048145080897E0FF1FE78097
:10332000E0A897F7FF1F9387278A3EC8896793878E
:103330000780231AF1009D673ECCB70701059387EC
:1033400007103ECEED472310F10285472301F1021D
:1033500097070000938747DBBEC29707000093875B
:10336000E7F0BEC48567938757D12312F102971700
:103370000000938767FA3ED8B7F50700970700006B
:10338000938747DA3EDC814697070000938787D70B
:103390003000E10519453EDE97D0FF1FE780205E33
:1033A00018088147994630003E9603460600850777
:1033B0000507A30BC700E398D7FEC24791C7035781
:1033C000410185676373F70001A08307410263D75A
:1033D000070493078008F3B7078093F787083EC474
:1033E0000F100000B7170040130770052380E70493
:1033F000130780FA2380E7040F100000B847B706D0
:10340000100013670718B8C79853558F98D32380B7
:103410000704A247F3A707800F1000000808EF6019
:10342000805F11C101A0F64025618280411117051E
:103430000000130545D606C622C4EF60005A138467
:10344000418C2300A4001928034504002244B24003
:1034500013060032896541016F608015797106D6C7
:1034600013078008F337078093F787083EC20F10D1
:103470000000B7170040930570052380B7041306BA
:1034800080FA2380C7040F10000083C6F70293F66A
:10349000A60FA387D702238007049246F3A60680CF
:1034A0000F10000073370780137787083AC40F1096
:1034B00000002380B7042380C7040F10000003C757
:1034C000F70213672700A387E70223800704A247B8
:1034D000F3A707800F1000000545692815318147C3
:1034E00001478146054685451305407ED928680079
:1034F0005146814597E0FF1FE780408BB707C0A882
:103500003EC8B787E803938707D03ECA680097D7BD
:10351000FF1F938787C63EC6EF60E074B2504561D7
:103520008280371700408347E7041205411193F763
:10353000F708C98F93F7F70F93068008F3B6068054
:1035400093F6860836C60F10000093067005230018
:10355000D704930680FA2300D7040F100000230736
:10356000F70423000704B247F3A707800F100000F9
:1035700041018280B717004003C7E7020D8941115E
:103580001377C70F498F93068008F3B6068093F62A
:10359000860836C60F100000930670052380D704F6
:1035A000930680FA2380D7040F1000002387E702D8
:1035B00023800704B247F3A707800F1000004101E2
:1035C000828041112A83014E930E407E130F001911
:1035D000930F400663E56E1293080019130340062B
:1035E000B3781503854E0D4FA14F337365020D89D6
:1035F0001335150063EFBE121308F6FF7946729873
:103600004208135808013307C70213D61700BE0734
:1036100032976146B3F6C60213068070B386C602BF
:103620003697A166F58F42075D8FB716004083C7B6
:10363000F60293F70708A303F1000346710083C75E
:10364000F60293F70708E394C7FE83477100B716A5
:10365000004093F7F70F6388071293078008F3B7CA
:10366000078093F787083EC40F100000B71700408B
:10367000930670052380D704930680FA2380D7042D
:103680000F10000023AA070383C6170393E606085A
:10369000A388D70223800704A247F3A707800F104F
:1036A00000001166B71700407D16D45BC85F938594
:1036B0004703A98EF18EF5FA93068008F3B60680CB
:1036C00093F6860836C60F10000093067005238017
:1036D000D704930680FA2380D7040F10000098C106
:1036E00003C7170313670704A388E70223800704AF
:1036F000B247F3A707800F100000410182807D13BD
:103700003368E3039308E016630E08003368F3039D
:103710009308D016630808009378330093B8180014
:103720009388D81633081E01131E0801135E0E017C
:1037300055B56393E50305486386080001486303B4
:1037400003002A8871087298FD15131E0801C2052E
:10375000135E0E01C18179BD13F8150063F4BF003B
:103760007908D5B713381800E5BF83C7F60293F779
:103770000708A303F1000346710083C7F60293F71D
:103780000708E394C7FE8347710093F7F70FF1DF53
:10379000E9B531714AD966CB06DF22DD26DB4ED78B
:1037A00052D556D35AD15ECF62CD6AC96EC7AA8CA4
:1037B00002D8EF00F02E2A8993078008F3B707801C
:1037C00093F787083EDA0F100000B7170040130781
:1037D00070052380E704130780FA2380E7040F10A5
:1037E000000003C7F7021377770FA387E70203C729
:1037F000F70213678700A387E70223800704D257E5
:10380000F3A707800F1000000545AD33130780C1F3
:103810003347E902116A93070AE893065002BD692B
:10382000930BA004814A014B130480089304700594
:103830007D1AB347F9023307D7023EC0FD873ECC5D
:10384000938709A69309803E3347F7023AC27D87E2
:103850003AC4334739038549B399990193D939401B
:10386000B306D702B30B7703B3C6F602B3CBFB02A2
:1038700036C6FD8636C893D6FB4136CEB7460F0016
:10388000938606243349D9028566938606FAB39651
:103890009601B389E902130760553309D9029306EB
:1038A0000010B389E9023349D902B3C9F90293166A
:1038B000390036CA37190040FD8636D0930D090409
:1038C00093D7F9413ED2F336048093F6860836DC6E
:1038D0000F100000930770052380FD00930680FA07
:1038E0002380DD000F1000008346390593F6860F14
:1038F000A309D9048346390593E61600A309D90420
:1039000023800D00E256F3A606800F100000130C72
:1039100080FA116DF336048093F6860836DE0F10B8
:103920000000930770052380FD0023808D010F1098
:10393000000083463905216693E60602A309D904EF
:1039400083560905B3E6A6012318D9048356090551
:10395000D18E2318D90423800D00F256F3A60680D9
:103960000F1000008346390593F60602638B061894
:1039700003463905218A6DDE0818EF00701673368C
:10398000048013768608B2C20F10000023809D00C9
:1039900023808D010F100000B717004003C63705C4
:1039A0001376F60DA389C70403C63705136606020E
:1039B000A389C704835609052166B3E6A601231827
:1039C000D90483560905D18E2318D90423800D000C
:1039D0009646F3A606800F1000008346390593F63D
:1039E00006026387061483463905A18AEDFE97C057
:1039F000FF1FE780607BAA8636D497C0FF1FE78051
:103A0000A07AA256E30AD5FE835609054255B3E6CD
:103A1000A6012318D904EF00B00E83463905A18A08
:103A2000EDDE035609058346290582473376CA0031
:103A3000B306DA0293D5F641B296B388F640E24770
:103A400033B8C6002E983308F840A247B3B6160123
:103A50003308D84063C70701631DF800924763FA33
:103A60001701C247634DF80E63950701B24763E83B
:103A7000F80E894663E7660FF2469315180013D3D4
:103A8000F8015E8613951800B365B30042D646D49C
:103A9000EF90C0503258050B137BFB0F63470001BA
:103AA00063120838A258638F083613081500B3361E
:103AB000A800B69513D6F5013298B336C800AE9675
:103AC00013581800FE06B3E6060173360480137619
:103AD0008608B2C60F10000023809D0023808D0150
:103AE0000F1000000356C902B296C206C182231607
:103AF000D90223800D00B646F3A606800F10000001
:103B000011BDF336048093F68608B6C00F1000008E
:103B100023809D0023808D010F100000834639050E
:103B200093E60602A309D90423800D0086463DB51D
:103B3000F336048093F68608B6C40F100000238085
:103B40009D0023808D010F1000008346390593E608
:103B50000602A309D90423800D00A6469DBDE30DEE
:103B60000BF0F336048093F68608B6C80F100000F9
:103B7000930680FA23809D002380DD000F10000053
:103B80008346390593F5FC0F93F6860FA309D904F4
:103B900083463905CD8EA309D90423800D00C6467E
:103BA000F3A606800F100000130580FA03463905BE
:103BB000930639051D8A631496297336048013769B
:103BC0008608B2CC0F100000130680FA23809D00F7
:103BD0002380CD000F10000003C606001376F60DFB
:103BE0002380C60003C60600136606022380C600B3
:103BF000835609051166D18E2318D9048356090509
:103C00002166D18E2318D90423800D00E646F3A641
:103C100006800F100000130680FA8346390593F6DC
:103C200006026388062483463905130C3905A18AE8
:103C3000FDDA08187525F336048093F68608B6D0A9
:103C40000F100000930680FA23809D002380DD0082
:103C50000F10000083460C00116693F6F60D23004A
:103C6000DC0083460C0093E606022300DC0083564A
:103C70000905D18E2318D904835609052166D18EF2
:103C80002318D90423800D008656F3A606800F1052
:103C90000000130680FA8346390593F60602638511
:103CA000062083463905A18AEDFE97C0FF1FE780F5
:103CB000A04F2A8C97C0FF1FE780004FE30C85FFC1
:103CC0008356090511664255D18E2318D9040D2D4E
:103CD0008346390513063905A18AFDDAF3360480D7
:103CE00093F68608B6D40F100000930680FA23805E
:103CF0009D002380DD000F1000008346060093F630
:103D0000F60D2300D60023800D00A656F3A60680EC
:103D10000F1000008356090503462905D247B376E4
:103D2000DA003306CA021305800C9355F641369625
:103D3000330DF6408257333CD6002E9C3336A60115
:103D4000330CFC40330CCC403308850392564E862E
:103D5000B335A5033305A503C295EF902024634630
:103D60008001631E0C16630C0D1613061500333507
:103D7000A6002E959356F5013696B335D600AA9532
:103D80009396F50105828585D18E6346B000639DCB
:103D9000051A638B061A0356C90215823305D6002D
:103DA0003336C500B2956348B0006391052413060D
:103DB000F00F637DA622894663F3561593078008AA
:103DC000F3B7078093F78708BED60F1000003717A8
:103DD0000040930770052300F704930780FA23003F
:103DE000F7040F1000008356C70289678117D58F2B
:103DF000C207C1832316F70223000704B657F3A7AF
:103E000007800F100000FA506A54DA544A59BA5920
:103E10002A5A9A5A0A5BFA4B6A4CDA4C4A4DBA4D06
:103E2000296182801308F5FF3335A800FD152E9512
:103E30001356F5013298B336C800AA9651B1F3363D
:103E4000048093F68608B6CA0F10000023809D00F8
:103E50002380AD000F10000083463905CD8EA309E5
:103E6000D90423800D00D646F3A606800F1000006B
:103E700035BBF336048093F68608B6CE0F100000EB
:103E800023809D002380CD000F100000834639055C
:103E900093E60602A309D90423800D00F646F3A693
:103EA00006800F10000095BBF336048093F6860859
:103EB000B6D20F10000023809D002380CD000F108C
:103EC00000008346390593E60602A309D90423803E
:103ED0000D009656F3A606800F1000006DBB9306EA
:103EE000F5FF33B5A600FD152E959355F501AE9659
:103EF000B3B5B600AA951396F501858269B5F33678
:103F0000048093F68608B6D80F100000930680FA56
:103F100023809D002380DD000F1000008356C9021E
:103F20000566011693F6F60FD18EC206C1822316DE
:103F3000D90223800D00C656F3A606800F1000009C
:103F4000850A93FAFA0F41B233E6B60045C203562A
:103F5000C9023305D0403338A000B305B040B38563
:103F6000054115826345B000D1E16371A608894619
:103F700063F0560593078008F3B7078093F7870827
:103F8000BEDA0F100000B71700401307700523803A
:103F9000E704130780FA2380E7040F10000003D71B
:103FA000C7027D8B2396E70223800704D65781BD85
:103FB000F336048093F68608B6DC0F1000009306F3
:103FC00080FA23809D002380DD000F1000008356BF
:103FD000C9020566011693F6F60FD18EC206C1829C
:103FE0002316D90223800D00E656B9B7930780083F
:103FF000F3B7078093F78708BEDE0F10000037176E
:104000000040930770052300F704930780FA23000C
:10401000F7040F1000000356C70293975600B2979B
:10402000C207C1832316F70223000704F657C1BB5A
:10403000914763EEB70217A70000130727988A0578
:10404000BA959C41BA978287B717004003A7470DDE
:104050001345F5FF698F23AAE70C03A7070D698FA6
:1040600023A8E70C03A7070C798D23A0A70C828057
:10407000B717004083A6470D1347F5FFF98E23AA13
:10408000D70C83A6070D558D23A8A70C83A6070C74
:10409000758F23A0E70C8280B717004003A7470D58
:1040A000498F23AAE70C03A7070D1345F5FF45BF6A
:1040B000B717004083A6470D1347F5FF758F23AA56
:1040C000E70C03A7070C598D4DB7B717004003A79E
:1040D000470D498FEDB7B717004003D7870109C5D2
:1040E000D98D239CB700828093C5F5FFF98DD5BF8C
:1040F000B717004003C777051377E70FA38BE704D3
:10410000130700F8A38DE7043D47238CE70413074A
:104110005003A38CE70403C7A7051377D70F238D9C
:10412000E70482804111B7F5070022C481462A8442
:104130002A86E105194506C697D0FF1FE78020842F
:10414000834714000347040083462400A207D98F45
:1041500003473400B2402207558FBA9703475400F3
:10416000834644002207558FBA97C207C1832303B1
:10417000F400A183A303F4002244410182807971F9
:1041800022D43714004026D24AD003592402835443
:10419000040206D64209C2044ECE52CC56CA135966
:1041A0000901C1802DE11379F9F793F4F49F4209D5
:1041B000C20413590901C18093078008F3B707802F
:1041C00093F787083EC40F10000093077005230083
:1041D000F404930780FA2300F4040F100000231165
:1041E00024032310940223000404A247F3A70780AA
:1041F0000F100000B250225492540259F249624A00
:10420000D24A45618280B7F5070081463000B1058A
:10421000194597C0FF1FE7808076A24713972701B3
:10422000E34A07FC1369090893E4044093098008F2
:10423000F3B7098093F787083EC00F100000930A78
:10424000700523005405130A80FA230044050F105B
:104250000000231124032310940223000404824746
:10426000F3A707800F100000294597C0FF1FE780C4
:10427000A01EF3B9098093F989084EC20F100000FF
:1042800023005405230044050F1000008357040247
:1042900093E707202310F402230004049247B9B7E0
:1042A000B71700408847420541819377050491EB99
:1042B0009377F5013755E801130505803345F5027D
:1042C00082809377050C130700046397E7009377C8
:1042D000F50137459C1CCDB72165130505D08280BB
:1042E00037E700E01C435443A183E206D58F1CC18D
:1042F000FD572320F7182322F7180F1000008280A3
:1043000013178500B7E700E023A0E710618123A21F
:10431000A7108280B7F700E08847CC478280411120
:1043200022C406C62A84AD3F2947B307E502B2403E
:104330008D83B3D7870222449507B3D7E702373777
:104340000040C207C1832316F700410182807165D6
:1043500041111305052006C6D937B73700401307AA
:1043600070F82381E7000D47A381E70013070004DD
:10437000A380E70005472387E700B2404101828020
:1043800037370040834727001A0593F7F703C98F93
:1043900093F7F70F2301F7008280B737004003C778
:1043A000170019C9D98DA380B70003C70700136789
:1043B00087002380E700828093C5F5FFF98DA380F5
:1043C000B7008280B73700402147B736004091E1FF
:1043D000828003C6B700E30CC7FE05050346F5FF60
:1043E000FD15C2052384C600C181D5B7B7170040AB
:1043F00003A7070A89651377F7BF23A0E70A83A6F7
:10440000070A7D771306F7FFF18E23A0D70A03A6CC
:10441000470BF976FD16758E23AAC70A03A6070B6C
:104420001307F77F4D8E23A8C70A03A6070AF18E4C
:1044300023A0D70A83A6470B056613060680F98ECC
:1044400023AAD70A83A6070BD18E23A8D70A83A64F
:10445000070A758F23A0E70A03A7070AF176FD165E
:10446000758F23A0E70A03A7070AE176FD16758F6B
:1044700023A0E70A8280B77772009387F70D63FD68
:10448000A700854717070020A306F7E4854717070D
:1044900000202323F7E4828097070020A38C07E203
:1044A000B7C7C9019387F737AA9733D5A702114732
:1044B0008547E30EE5FC79158D47B357F502C1BF7B
:1044C000597186D6A2D4A6D2CAD0CECED2CCD6CA64
:1044D000DAC8DEC6E2C4E6C2EAC06EDE8347050083
:1044E0007D4793C607086363D702EF309018B65034
:1044F000265496540659F649664AD64A464BB64B58
:10450000264C964C064DF25D65618280138715003E
:104510003AC42380F50075472E846374F7006F104A
:10452000601B179700001307A74A8A07BA979C4396
:10453000AA84BA978287834715001307000F638EFA
:10454000E7066360F7020D47638CE7021147638B50
:10455000E704014537090200A300A40009094A95B0
:1045600079B71307E00F6382E7061307F00FE392B2
:10457000E7FE930700042381F500A3810500A1A0B5
:1045800017D7FF1F1307C75493872500938635015C
:104590000306070085070507A38FC7FEE39AF6FE0B
:1045A00045454DBF1946979500009385A5611305B4
:1045B0002400EF900018194571BFCD472381F50005
:1045C0008547A381F500094571B7A1472381F5000F
:1045D000054549B703471500370902008547050916
:1045E00063F8E700FD57A380F5004165050585BF29
:1045F000A3800500DDBF8347150099CB054763897C
:10460000E7000947638CE7088147A300F400BDAECB
:10461000854717070020230FF7CAB717004003A7E5
:10462000870A85668965558F23A4E70A03A7070AC9
:10463000558F23A0E70A03A6870A938606804D8E2E
:1046400023A4C70A03A7070A4D8F23A0E70A03A6DE
:10465000870A7D771307F77F798E23A4C70A03A6FD
:10466000470B798E23AAC70A03A6070BD18E23A86E
:10467000D70A83A6070A758F23A0E70A03A7070AAC
:10468000F176FD16758F23A0E70A03A7070AE176E6
:10469000FD16758F23A0E70A854785BF1707002001
:1046A000230AF7C2B717004003A7870A8566896502
:1046B000558F23A4E70A03A7070A558F23A0E70A0B
:1046C00003A6870A938606804D8E23A4C70A03A7F4
:1046D000070A4D8F23A0E70A03A6870A91654D8E2E
:1046E00023A4C70A03A7070A4D8F23A0E70A03A63E
:1046F000870A7D771307F77F798E23A4C70A03A65D
:10470000470B798E23AAC70A03A6070BD18E23A8CD
:10471000D70A83A6070A758F23A0E70A03A7070A0B
:10472000E176FD16758F23A0E70A8947F9BD970743
:104730000020238107BA05495539A300040075B547
:104740008347250003471500A207D98F5147B38738
:10475000E7023ED6B257FD173ED6B257E5FFA3009B
:10476000040037090200050949B523810500A3802B
:10477000050009499DBD03464500834635000347B2
:1047800025002206558E834655001378170083476F
:104790001500C206558E83466500E206D18E630E73
:1047A000080013F6170063000612B715004003A6B1
:1047B000850A0565498E23A4C50A93782700638E70
:1047C000080013F6270063060610B715004003A67D
:1047D000850A0965498E23A4C50A13734700630E31
:1047E000030013D62700058A7DCAB715004003A62B
:1047F000850A1165498E23A4C50A131E8701135E1D
:104800008E41635F0E0013D6770065C637150040F2
:104810000326050AFD759385F57F6D8E2320C50A55
:10482000ADC213D5170093DE270013DF570093D5D1
:1048300077003716004013770702854F630808009A
:104840008326460AB182858AE39AF6FE63880800C9
:104850008326460AB582858AE312D5FE63080300E3
:104860008326460AB982858AE39ADEFC19C3E317D8
:10487000FFFD63580E008326460AAD82858AE39FBA
:10488000D5FAB715004003A6450A83A7450A83A6B3
:10489000450A03A7450A83A5450AB183898B9181FF
:1048A00093F505083182CD8F058AB182D18F918A27
:1048B0003183D58F218BD98F93E70702A300F400B2
:1048C000370906004DB53716004085652326B60A20
:1048D000EDB53716004089652326B60AFDBD3715AC
:1048E00000400326850AF175FD156D8E2324C50A47
:1048F00029B70566B71500401306068023A6C50A2A
:1049000003A5050A498E23A0C50A19BF83C7240041
:1049100003451500A207C98F03C534004205C98F9E
:1049200003C5440062055D8D19E5FD57A380F500C0
:10493000370904000DBDEFF01FB4A3000400CDBF84
:10494000034915009305250063140900130900109D
:104950004A851D09EF00D06313593900A3000400F4
:10496000050942091369190049B18347150013F776
:10497000370089830507858B970600202388E696F4
:1049800017070020A304F796A38005004169E1BB47
:10499000A3800500034A1500797C938B25009307BB
:1049A0002500054B05497D5D3714004089697D1C54
:1049B0007D1A6316AA014209336969013DB103C535
:1049C0000700938A17009374F50399E09304000499
:1049D000931C85019D0493DC8C418D8063D30C0472
:1049E0008327840AB3E737012324F40A8327040AC0
:1049F000B3F787012320F40A5E86D685EF00F061C5
:104A0000631A0A002326340B8327040AB3E737010D
:104A10002320F40A050963DD0C00A69B269BD6879C
:104A200041BF2326340B8327040AB3E73701D9B7E4
:104A3000A69A2699EDB7A3800500034A1500938A2C
:104A400025009307250085490549FD5B7D1A6316FE
:104A50007A0142093369390149BE83C40700138BC7
:104A6000170013F4F40319E01304000426851D0451
:104A70005686DA850D80EF10503BE20413071400D0
:104A8000E184B3078B003A99E3D204FCA29AA2997D
:104A900075BF03491500170700201307A7833A863F
:104AA0009707002023852785BA858146814785059C
:104AB000090663EE2601170600201306A68181462B
:104AC0000507090663E02603A300040051BD3385F2
:104AD000D400034525008506A38DA5002311F60209
:104AE000AA97F1B78345B70185068D8F2319F60282
:104AF000C1BF17F7FF1F0347E77D89476315F70419
:104B00008347150017F7FF1FA303F77E17F7FF1F53
:104B10000347E77D63F9E7023945EF200025EF10F1
:104B20001041935785002301A400A301F4004169BB
:104B3000935705016181A30004002302F400A3023E
:104B4000A40015095DB4FD57C9B48347150017F7D4
:104B5000FF1F2307F7788347350003472500A20787
:104B6000D98F17F7FF1F231FF77683475500034799
:104B70004500A207D98F17F7FF1F2316F776A3006A
:104B8000040037090500C5B6930715003ECA17FD96
:104B9000FF1F034D2D74854797FDFF1F938D8D7368
:104BA0006306FD0289476309FD3A0347250013099F
:104BB0003500631E0774D247A300040023010400DC
:104BC0003309F94042091369290005B4930C3500F3
:104BD000834B2500138935002386018C014B014C42
:104BE000014502C8894A9389C18C054A639B0B041D
:104BF00085466318D50263090C3297F4FF1F83D4EE
:104C0000646E094A9389C18C6C103945EF00D0510C
:104C10006319452F99C403C70900FD141377F70FD3
:104C200065D7C2472301A400A300F400D247B3878D
:104C3000FC4013950701A2473309F9403369250168
:104C40006DB283C40C0093871C003EC693F624000B
:104C5000638D061E63090C0893F6140117FDFF1FF0
:104C6000035D4D68639F46036C102685EF00D04BB3
:104C7000631A550563080D0083C609007D1D93F670
:104C8000F60FFDD2B24C83C60C0013F62600630863
:104C90000626C18A63950626850CFD1BE3950BFE4F
:104CA00081BF6C103945EF003048631C5501630823
:104CB0000D0003C709007D1D1377F70F7DD3014C4D
:104CC000D1B7014CE31045FDB256110913D6860049
:104CD000230ED9FEA30EC9FE13D60601E182230FCF
:104CE000C9FEA30FD9FE13F6040197F6FF1F83D662
:104CF000665F93F5140069C203CD2C0003C61C0047
:104D000093875C00220D3366CD0003CD3C003EC688
:104D1000420D336DCD0003C64C0097FCFF1F83DCB2
:104D20008C5C6206336DA6019DC18145268536CC1B
:104D3000EF00903F631B5501E246A9D683C70900E7
:104D4000FD1693F7F70FF5D335BFE31D45F317F8BD
:104D5000FF1F035828596C10268542CCEF00D03C29
:104D6000AA876316550362486308080083C60900D2
:104D70007D1893F6F60FE5D283A64D013256F18EDB
:104D80006308DD0213E507011375F50FE5BD83A583
:104D90004D01B256ED8EE31145FFE30FDDFCE38DCF
:104DA0000CFC83C60900FD1C93F6F60FCDD2E9B7C3
:104DB000E39A47ED014B0DA8B1C5E31D0CFE8145FB
:104DC000268536CCEF005036631C5501E246E38859
:104DD00006EE83C70900FD1693F7F70FEDD35DB517
:104DE000E31245EB014B054CC2479386FBFF850759
:104DF0003EC883C7090093F7F70FE39507E8B68B22
:104E0000B24CEDB36C10268536CCEF00F031631C4C
:104E10005501E246E38806E683C70900FD1693F7CD
:104E2000F70FEDD385B5E31F45E5B257110993D6CA
:104E30008700230EF9FEA30ED9FE93D60701E18366
:104E4000230FD9FEA30FF9FEB5B763060C0417FDB7
:104E5000FF1F035D2D496C103945EF00F02C631BDB
:104E60005501E3010DE283C609007D1D93F6F60F9F
:104E7000FDD209BDE31845E1325711099356870069
:104E8000230EE9FEA30ED9FE935607016183230F7B
:104E9000D9FEA30FE9FE83C62C0003C71C0093872D
:104EA0005C00A206D98E03C73C003EC693F70402FD
:104EB0004207D98E03C74C006207558F3AD681CB83
:104EC00097F7FF1F23A2E742014C054531BF17FCAE
:104ED000FF1F035C2C416C102685EF00F024631B40
:104EE0005501E3010CDA83C709007D1C93F7F70F26
:104EF000FDD3F1B3E31545DD054B014CF5B5950C3C
:104F000069BB0547E31FE5D0325711099356870067
:104F1000230EE9FEA30ED9FE935607016183230FEA
:104F2000D9FEA30FE9FEF5B9E30D0BCE97F4FF1FF1
:104F300083D4443B094A9389C18C81453945EF00AC
:104F4000B01EE31045CFE38E04CC03C70900FD1467
:104F50001377F70F7DD3F1B12386018C83471500BA
:104F60001389350017F7FF1FA303F73817F7FF1F43
:104F70000347E73763F8E738930C3500034C250007
:104F800001478149014502C8094B938AC18C854B71
:104F900063120C06BA840547631EE5022947638540
:104FA000E4002945EF10705C97F4FF1F83D484332D
:104FB000094A638509309389C18C6C103945EF200B
:104FC0006037631E453199C403C70900FD14137788
:104FD000F70F65D7C24722472301A400A300F400BE
:104FE000D2473309E940B387FC40C20733E92701C0
:104FF0006FF0AFDF03CA0C0093871C003EC69374AA
:105000001A0093762A00A904638E061C638B090894
:1050100097F6FF1F83D6062D6318970213760A01B1
:1050200005E66C1052853ACE36CCEF20A0307247A0
:1050300063186505E24699C603C60A00FD16137695
:10504000F60F65D2BA84C1A0A9476307F7002945C6
:1050500036CCEF109051E246B6896C103945EF20FE
:10506000602D631D6501638A091A03C70A00FD19D3
:105070001377F70F7DD3A944814971A0294781494E
:10508000E31275FDB256110913D68600230ED9FE20
:10509000A30EC9FE13D60601E182230FC9FEA30F9A
:1050A000D9FE93760A01E5C683C62C0003C61C0010
:1050B000A206558E83C63C00C206D18E03C64C00A4
:1050C0006206B367D6003ECC93875C003EC697FC71
:1050D000FF1F83DC4C216385E4002685EF10F04838
:1050E00017F7FF1F03570720814552853ACEEF205F
:1050F000602463196503724719C783C70A007D17C7
:1051000093F7F70FF5D3B24C03C70C009376270043
:105110006384061A418B6311071A850C7D1CE31505
:105120000CFE95BDE31175FF17F7FF1F0357871B93
:105130006C1052853ACEEF20E01FAA87631C6501F0
:10514000724719C783C70A007D1793F7F70FEDD38E
:10515000EA8715A083A64D013257758F631D75012F
:10516000E246638AE60063880C0003C70A00FD1C60
:105170001377F70F55DBB25603A74D01758FE24643
:105180006387E61213E507011375F50FADBF63934F
:1051900009126385E4002685EF10303D97FCFF1F60
:1051A00083DC4C1481455285EF20C018631B6501D8
:1051B000E3840CEC83C70A00FD1C93F7F70FFDD3C3
:1051C00099B7E31275F58549C2479306FCFF850739
:1051D0003EC883C70A0093F7F70F95F72687368CEA
:1051E000B24C7DB3638F0904A9476305F7002945D5
:1051F000EF10B03797F6FF1F83D6C60E6C103945F7
:1052000036CCEF202013631C6501E24699C603C724
:105210000A00FD161377F70F75D3A944EDB5E31E09
:1052200075FF3257110993568700230EE9FEA30E2E
:10523000D9FE935607016183A30FE9FE230FD9FE20
:10524000294703C62C0083C61C0093875C002206F6
:10525000558E83C63C003EC693770A02C206558E21
:1052600083C64C00E206D18E36D689CB97F7FF1F56
:1052700023ACD706BA8481490545B9B76385E400F4
:105280002685EF10902E97F9FF1F83D9A9056C1082
:105290005285EF20200A631B6501E38609E683C778
:1052A0000A00FD1993F7F70FFDD3F9B38149E30D18
:1052B00075F191BDBA8409BF950C8DB59389C18CE8
:1052C00081453945EF200007E31645D1E38404D03A
:1052D00003C70900FD141377F70F7DD3E5B9054720
:1052E000E31AE5CE3257110993568700230EE9FEE3
:1052F000A30ED9FE935607016183230FD9FEA30F96
:10530000E9FEC9B9930C250002C80145E1B1834704
:10531000090093F6270091C6C18B81E705097D1727
:1053200049B81509EDBF97F7FF1F83C7A7FA0547CF
:10533000638DE70009476389E718A380050023818F
:105340000500A38105000D4955A82386018C034A59
:1053500035008347250013894500220A336AFA0085
:1053600063040A2E834A450093F72A00A1E3930BB6
:1053700055008149094C938CC18C054D17FBFF1FCB
:10538000035B4BF663103A11894AFD5B138AC18CAB
:1053900081453945512B631855057D1B63057B05F8
:1053A00083470A0093F7F70FE5D735A893F71A005C
:1053B000E1C797F9FF1F83D9E9F2894B138BC18CA1
:1053C000814556859523631C7501638E09008347CB
:1053D0000B00FD1993F7F70FE5D7814929A0854701
:1053E0008149630BF508A247A300340193D98900D2
:1053F00023013401A301A4003309F94083C7440009
:1054000037050400898BE39B078203C5340083C7FB
:10541000240022055D8D05054A056FF03F827D1A47
:10542000E31375FDB2571109850913D78700A30E41
:10543000E9FE13D70701230EF9FE230FE9FEE183EE
:10544000A30FF9FEE3010AFA63167A0193F71A0033
:1054500091C3B94A17FBFF1F035BCBE86C1056855D
:10546000E121E31E95FBE3000BF883470C007D1B55
:1054700093F7F70FE5D785BF8149854B894C138C8E
:10548000C18CD9B703C71B0083C70B00910B220740
:105490005D8F83C7EBFFC2075D8F83C7FBFFE2070A
:1054A000D98F3ED66C1056854121631B8501E30CD4
:1054B0000BF283C70C007D1B93F7F70FE5D725B7D9
:1054C000E313A5F385095DBD2386018C8347150091
:1054D0001389450017F7FF1FA30BF7E017F7FF1F0E
:1054E0000347E7E063F2E716034A350083472500E8
:1054F000220A336AFA0063090A14834B450093FABF
:105500001B00A90A5685EF10500693F72B005E8BFF
:10551000B9EB138B54008149894C138DC18C854D97
:1055200003471B0083470B0017FCFF1F035C8CDB4A
:1055300022075D8F83472B00110BC2075D8F8347C6
:10554000FBFFE207D98F3ED66C105E85EF10905EB0
:10555000631B950BE3090CE883470D007D1C93F753
:10556000F70FFDD349B597F9FF1F83D9A9D7894C08
:10557000138CC18C81455E85EF10D05B631B950158
:10558000E38309E683470C00FD1993F7F70FFDD37A
:10559000A9B585478149E318F5E4854B294D094CA8
:1055A000938CC18C63187A01394B6385AA01294514
:1055B000EF10A07B97FDFF1F83DDCDD26C105A85C5
:1055C000EF105057631B8501E38F0DE083C70C007C
:1055D000FD1D93F7F70FFDD339B57D1AE31575E17E
:1055E000B2571109850913D78700A30EE9FE13D717
:1055F0000701230EF9FE230FE9FEE183A30FF9FE55
:10560000E3120AFACDB3E310B5DF8509E31A3AF1E4
:10561000A9476385FA002945EF10207517FAFF1F87
:10562000035A4ACC094B938AC18C81453945EF1006
:105630007050E31A65DBE3080ADA83C70A007D1AB3
:1056400093F7F70FFDD345B3014541BB97F7FF1F14
:1056500083C747C80547638AE7000947638BE702AA
:10566000FD57A300F4006FF0CFD103473500834707
:1056700025006C1022075D8F83474500C2075D8FB0
:10568000834755000145E207D98F3ED6712C6FF054
:105690000FCF8347150017F7FF1FA30AF7C417F7AB
:1056A000FF1F0347C7C4E3FDE7FA2145EF10E06B96
:1056B00003C5340083C7240022055D8D83C74400E1
:1056C000C207C98F03C5540062055D8DEF10202A03
:1056D0006FF0EFCAFD5741652300F40005056FE048
:1056E0001FE1834605001306F0076393C606011108
:1056F00022CC4AC84EC652C456C206CE26CA238001
:10570000D5008344150037040200416A13092500BF
:1057100093892500A38095000904FD5A7D1AFD1484
:10572000639C54012285F2406244D2444249B2490A
:10573000224A924A05618280CE854A85EFE05FD891
:10574000935705012A94337545013E99AA99C1BF23
:105750006FE01FD7411106C697F7FF1F938787B7E2
:105760001307400698CB37450F000547239CE700F9
:1057700013050524238007002386070023AA0700BA
:10578000238D0700EFE03FCFB24041016FE01FC61D
:1057900041C5B716004041111306F5FF0148014706
:1057A00097F8FF1F938808B31383C60A896F056FA4
:1057B000856E7D5E630D08047D1893771700A9C779
:1057C00083A7860AB3E7F70123A4F60A83A7480054
:1057D0002320D3013EC6B247FD173EC6B247E5FFC0
:1057E00083A7860A03A54800B3E7E70123A4F60AC6
:1057F0002AC4A247FD173EC4A247E5FF7D160583D4
:10580000E31AC6FB410182802320F301C1B703C71D
:1058100005001D48850555B782809376F503411133
:1058200099E293060004137505083DCDB7180040B2
:105830002148814517F5FF1F1305C5A9138FC80A15
:10584000856E056E2320CF015C413EC29247FD1755
:105850003EC29247E5FF83A7480A03A7880AB5839B
:105860003367D70123A4E80A0323450013F7170081
:105870001AC08247FD173EC08247E5FF8581931716
:1058800077007D18DD8DFD1663090800C5FEB3D7CE
:1058900005012300F600410182802300B6000506C1
:1058A000FDDA8145214879BF37180040938E1500F5
:1058B00003C60500214717F5FF1F1305A5A1930592
:1058C000C80A096E0563856893771600A9C7832700
:1058D000880AB3E7C7012324F80A23A015015C4115
:1058E0003EC6B247FD173EC6B247E5FF8327880A8A
:1058F000B3E767002324F80A5C413EC4A247FD17C2
:105900003EC4A247E5FF7D170582FD1601CBC1D637
:1059100093771600CDFF23A0C501C1B7ADDE03C646
:105920000E002147850E4DB717F7FF1F0347979AC3
:105930009376150063000722B717004003A6870A75
:10594000096885683366060123A4C70A23A6170BD6
:1059500003A7870A3367170123A4E70A639906623E
:1059600023A6070B3717004005662326C70A8326A0
:10597000870A9357150013F81700D18E2324D70AEE
:10598000630608648326870A0966D18E2324D70A12
:105990003717004005682326070B8326870A13560E
:1059A000250093781600B3E606012324D70AB297A0
:1059B000638E085E8326870A0966D18E2324D70A60
:1059C0003717004005662326C70A8326870A13581F
:1059D000350093781800D18E2324D70AAA976383C1
:1059E000085C8326870A0966D18E2324D70A3717D5
:1059F000004005662326C70A8326870AC297858B3F
:105A0000D18E2324D70A638B07588327870A896698
:105A1000D58F2324F70AB7170040056623A6C70AC7
:105A200003A7870A0968518F23A4E70A23A6070B57
:105A300023A6C70A03A7870A97F6FF1F83C6068B0C
:105A4000518F23A4E70A83A8870A3687B3E80801A1
:105A500023A4170B23A6C70A83A8870A33E6C80026
:105A600023A4C70A03A6870A3366060123A4C70A2C
:105A700003A6070A79787D183376060123A0C70AA2
:105A80008DC2371600401303C60A856805682320B7
:105A900003018327860A7D17B3E717012324F60A3B
:105AA0007DF7B7170040056623A6C70A03A8470A73
:105AB00003A7870A054E1358D800518F23A4E70A7D
:105AC00023A6C70A03A7470A83A8870A13781800E2
:105AD0003183B3E8C80023A4170B23A6C70A83A801
