:040000006F109037B6
:100004000000000000000000900000209E0400207A
:10001400A9BDF9F518090020000000000000000047
:1000240018090020900000200000000000000000DB
:10003400900000200000000090000020000000005C
:1000440090000020900000209000002090000020EC
:10005400900000208C0D00205405002000000000BA
:100064009000002090000020AC00002076010020C9
:1000740058020020900000209000002090000020F2
:1000840090000020900000209000002090000020AC
:1000940001A0411106C6972000E0E780800C97304C
:1000A40000E0E78060C9EF10E000F5B737370040A3
:1000B400834747009946BD8B638FD702011122CE37
:1000C40026CC4ACA31476390E70237340040A14442
:1000D400174900001309C9B08347A40093F7F70F29
:1000E400B9CB8147B5A011476397E7048147B73679
:1000F4000040A14521A8834757007300203003C660
:10010400860038003E972300C700850703C7A60072
:1001140013F6F70F1377F70F11CFE392B7FE2146CB
:100124002C00174500001305A5AB978000E0E7807D
:10013400A0D511A075F67244E244524905617300DA
:1001440020308346840038003E972300D70085077B
:100154000347A40013F6F70F1377F70F19CBE392B5
:1001640097FE21462C004A85978000E0E780C0D1A5
:10017400A5B73DD2C5BF37370040834747409946AE
:10018400BD8B638FD702011122CE26CC4ACA3147D8
:100194006390E70237340040A14417490000130973
:1001A40029A58347A44093F7F70FB9CB8147B5A09E
:1001B40011476397E7048147B7360040A14521A85A
:1001C400834757407300203003C6864038003E976B
:1001D4002300C700850703C7A64013F6F70F13775C
:1001E400F70F11CFE392B7FE21462C00174500000C
:1001F400130505A0978000E0E78000C911A075F6FB
:100204007244E244524905617300203083468440BD
:1002140038003E972300D70085070347A44013F610
:10022400F70F1377F70F19CBE39297FE21462C00B3
:100234004A85978000E0E78020C5A5B73DD2C5BFB9
:100244004111B7170040985F3AC6945F3247E39C68
:10025400E6FE324541018280B717004013070003D0
:100264002388E702854723AEF188730020304111CB
:10027400B7170040985F3AC6945F3247E39CE6FEA6
:10028400324541018280B7F707000111944B1307EF
:100294008008F337078093F787083EC20F100000E9
:1002A400B71700401308700523800705930580FAEB
:1002B4002380B7040F10000003C6B7041376F60DAD
:1002C400A385C704238007041246732606800F10F3
:1002D40000001376050255CEF336078093F68608A0
:1002E40036C40F100000238007052380B7040F10C5
:1002F4000000B70614007D89558D88C701000100F0
:100304000100010023800704A246F3A606800F1013
:10031400000073370780137787083AC60F10000070
:10032400238007052380B7040F1000000F1000007E
:100334003727004093061005A303D78023800704C2
:10034400B247F3A707800F10000093078008F3B7A4
:10035400078093F787083ECE0F100000B7170040C0
:10036400130770052380E704130780FA2380E7044A
:100374000F10000003C7B70413670708A385E70439
:1003840023800704F247F3A707800F1000000561DC
:1003940082801376050459C2733607801376860863
:1003A40032C80F100000238007052380B7040F1004
:1003B400000037061400130606047D89518D88C792
:1003C4000100010001000100238007044246732656
:1003D40006800F10000073370780137787083ACA26
:1003E4000F100000238007052380B7040F100000BE
:1003F400A54793F6F60F639EF600B7270040130750
:100404003005A383E780B717004023800704D24751
:100414000DBFB727004013072005E5B773370780E2
:10042400137787083ACC0F10000023800705238038
:10043400B7040F10000098471367070C98C7238070
:100444000704E247FDBD011181460146814511457E
:1004540006CEC12B93078008F3B7078093F787086C
:100464003EC60F100000B717004013077005238025
:10047400E704130780FA2380E7040F10000003C782
:100484006704136717002383E70423800704B24734
:10049400F3A707800F100000F2400561828041112C
:1004A4008146014681451145AD2B13078008F3377A
:1004B400078093F787083EC40F100000B717004069
:1004C400130670052380C704930680FA2380D7049B
:1004D4000F100000FD552396B70223800704A245A0
:1004E400F3A505800F100000733707801377870882
:1004F4003AC60F1000002380C7042380D7040F10CE
:10050400000003C76704136717002383E7042380ED
:100514000704B247F3A707800F10000001A0BD47EE
:100524003305F50201007D1575FD8280411122C459
:1005340026C206C6AA84014463179400B24022442A
:1005440092444101828005041305803E4204C13F68
:100554004180DDB70111A307010022CE26CC4ACA8F
:100564004EC8378400408347640093F7F70FA3070E
:10057400F1008347F100898B638007368347740059
:100584001307000393F707036389E70883447400A0
:1005940083477400BD8893F7070363880720130714
:1005A40000026397E70617490000130929136395AE
:1005B40004149747000083C7A72A9D83FDCF834770
:1005C400240293C707042301F4028347240293F708
:1005D400C70F93E727002301F40283274901174635
:1005E40000000346E60F637EF60A918F174700006A
:1005F4002320F710832789013E969747000023ABF9
:10060400C70E930500080145978000E0E7808063EA
:10061400B787004009472383E700378400408347B6
:100624007400E207E18763D70706930720FC2301E0
:10063400F402974400009384640A83A5840C214641
:10064400174500001305C52197D000E0E780000698
:100654008387441863CA07002300040283472402E3
:1006640093F7C70F2301F402378400408347240221
:10067400974500009385C51E014593F7370F93E70F
:1006840087002301F402978000E0E780E02E894789
:100694002303F4007244E2445249C24905617300E1
:1006A4002030032689013E969747000023A4C704FF
:1006B4009747000023AE0702A9B717470000034776
:1006C400371A9547631BF700834734000347090033
:1006D40093F70708D98FA301F4008347240293F703
:1006E400C70F93E727002301F4028347240293F7FB
:1006F400370F2301F40229BF91476398F40083471D
:10070400240393C707042309F402154433D4840251
:10071400930700033304F402939724003E94B787AD
:100724000040938727023E948347040093F7C70F42
:1007340093E727002300F400E147B387F402CA9744
:10074400D84B03C64700944F6379E6048C4B118F52
:10075400B296B2958CCBD8CB94CF88476376E60219
:1007640097D000E0E78080F4E147B384F402854742
:10077400CA9403C75400630BF7008347040093F73C
:10078400C70F2300F40069B53A86D9BF8347040034
:1007940093F7C70F93E71700EDB73306D70090CF51
:1007A40023AA070093E50408B9BD154933D92403E6
:1007B400939724003309E9023E99930724023E9952
:1007C4008347090093F7370F93E787002300F90065
:1007D400B9EC8347240217490000130929F093C791
:1007E40007082301F402834484008325890C03252C
:1007F400090D93F4F40F268697D000E0E78000EB10
:100804000326890D8145014526969747000023A3B9
:10081400C7FA8327490D858F17470000232AF7F865
:10082400978000E0E780A044E39404DE7DBD834725
:10083400740093F70704E38D07DC91476398F40091
:100844008347240393C707082309F402B7870040AA
:10085400614483C98700B3878402174400001304EA
:10086400E4E793F9F90F4E863E948325840C03251F
:10087400040D97D000E0E78060E38327040D03268E
:10088400840D0347440CCE972328F40C8327440D8E
:100894004E96232CC40CB3873741232AF40C63E30C
:1008A400E90081EBA6850145978000E0E780203CC4
:1008B40085B30347540C85476309F7008347090050
:1008C40093F7370F2300F900A1B38347090093F787
:1008D400370F93E74700FDB78347F100858B85C346
:1008E400A30104000145978000E0E78020028347CC
:1008F400240293F7370F2301F402854751BB834742
:10090400F100918B89C783475400914751B38347C2
:10091400F10093F7F70FADBB9305000273A0458078
:1009240082457390153492402242B2424243D243EC
:100934006244F244025592552256B2564257D25757
:100944006258F25806499649264AB64A464BD64B4F
:10095400664CF64C065D965D265EB65E465FD65FD7
:100964000961730020302303048015472303E480C6
:1009740001002302A480828083076480E3CE07FE03
:1009840023030480828083076480E3CE07FE03454B
:100994004480828083076480E3CE07FE2302A48020
:1009A4008280411126C44AC24EC006C61377F50B95
:1009B400AD47AA892E8995446306F7001945653722
:1009C400653F8D444E854537FD59FD1463983401C8
:1009D400B240A2441249824941018280135509015F
:1009E4001375F50F453F2209CDB7011126CC06CE6C
:1009F400B704080051371545BD37713769372AC622
:100A0400A53F32459377150089EB136515001375DF
:100A1400F50FF240E24405618280FD14E9FC0145D2
:100A2400CDBF397126DC4ADA4ED852D656D45AD2C2
:100A34005ED006DE62CE66CCB7E700E07D5783AABF
:100A4400070022C603AA470023A0E71823A2E71839
:100A5400B7170040130770052380E704130780FAD3
:100A64002380E70483C74704930B75FFB684E2072A
:100A740093FBFB0F8546AA892E8B328937240040CD
:100A8400E187015763FA76016308D50089461307A5
:100A940000026313D5000157D98F93F7F70FB71CE2
:100AA40000402382FC0411472303E4801305F00F64
:100AB4005D3D094CD135636D7C11B7050700DA95AE
:100AC40037870700795563F2E504B3879500636EB1
:100AD400F702370B0800A94733EB65016399F90660
:100AE40089E48144513D26850DA0DA850945553DAB
:100AF40005090345F9FFFD14050B693D81C493778E
:100B0400FB0FFDF7DD3569FD7D55B7170040130771
:100B140070052380E704130780FA2380E70403C7E2
:100B24004704418B2382E704F250B7E700E023A097
:100B3400571123A24711E25432445259C259325A2E
:100B4400A25A125B825B724CE24C21618280A547FF
:100B54006395F90685691309F00FB3069900B37418
:100B64002B01B6941349F9FFB3749900856B33795B
:100B74006901416B9387F9FFB3F7270199E363FC9C
:100B8400340193D94900C147E3E637FF99BF0569AA
:100B9400C1697D19D9B71305800D638869011305EF
:100BA40000026384790113051008CA85DD3B353DD5
:100BB40021DD4E99B3843441D9B7DA852D45D53337
:100BC400CA94E30099F205097D3BA30FA9FED5BFA2
:100BD4009387F9FF93F7F70F6361FC0C83C71C0439
:100BE40013073008631FF70437070800636BEB042F
:100BF400B3079B00B706100063F5D704334BEB0033
:100C040089476393F9068980D549E38C04ECDA8536
:100C14000945413B11090327C9FF91472320E4807B
:100C240003076480E34E07FE23033481FD17EDFBC5
:100C3400FD14110B81C49377FB0FE9FF7D3371F52C
:100C4400E1B5B717004003C75704B7070800137787
:100C5400070219E3B78707007955E378FBEA3307FE
:100C64009B00E3FFE7F855B58547E382F9F2DA859F
:100C74002D45053B9389F4FFE38504E6293393F777
:100C8400390091EB83260480032709009307490068
:100C9400E39AE6E43E89CE84F1BFB5476396F90052
:100CA4001305900BC93135BDB1471305B00AE38B69
:100CB400F9FE99476391F904B7050800B365BB00D1
:100CC4002D45C53181448D4BA14975396396740115
:100CD400832704802320F9008504E39834FF8327C5
:100CE400048013172B01635507002312F900D5BBA9
:100CF4002322F900FDB39D476399F9028145130549
:100D0400B0044531BD442320090023220900FD59C4
:100D14009D3993F77400CA9703C70700FD14398DF2
:100D24002380A700E39634FF6DBBA1476392F904C7
:100D34006D398144630D0B008D479304C003630830
:100D4400FB009304000563048B01930440041375B2
:100D5400C507E30895D81945393139390545213195
:100D640026850D3909453D314931E31C05D669BB5A
:100D740091476399F90013056006F536F53E1305AE
:100D840090090DB7E38F09D4F154A9BB197106C2B8
:100D940012C416C61AC81ECA22CC26CE2AD02ED2F7
:100DA40032D436D63AD83EDA42DC46DECAC0CEC2A7
:100DB400D2C4D6C6DAC8DECAE2CCE6CEEAD0EED2D7
:100DC400F2D4F6D6FAD8FEDA938541898841E70051
:100DD400050092402242B2424243D2436244F2446A
:100DE400025592552256B2564257D2576258F2587B
:100DF40006499649264AB64A464BD64B664CF64CAB
:100E0400065D965D265EB65E465FD65F0961730039
:100E14002030B7E700E09843B706200023A0D71896
:100E2400758F0F10000001C599C1814711E6B7E71E
:100E340000E023A0E7108280B386F50003C8060013
:100E4400B306F500850723800601E317F6FEC5B750
:100E540037E700E01C43B70620002320D718F58F9E
:100E64000F10000001C53307C50011E637E700E0A5
:100E74002320F71082800505A30FB5FEE31DE5FED0
:100E8400F5B737E700E01C43B70620002320D71846
:100E9400F58F0F10000001C599C1014711EA37E72A
:100EA40000E02320F710054582800507E309E6FEEC
:100EB4003308E500B386E5000348080083C606004E
:100EC400E305D8FE37E700E02320F71001458280D0
:100ED40037E700E01C43B70620002320D718F58F1E
:100EE4000F10000001C53307C50019E637E700E01D
:100EF4002320F7100145828005058346F5FFE3971B
:100F0400B6FEE31BE5FE37E700E02320F7100545B6
:100F140082807971974700009387879A22D480430F
:100F240006D626D24AD04ECE52CC56CA5AC85EC62F
:100F340069C037C9C901014B974900009389C99712
:100F44001309F937174A0000130ACA97974A000091
:100F5400938ACA91974400009384849B8357240006
:100F640095E35C44631D0B0017470000232AF794A4
:100F7400832BC4002285EF00502F5E84A9A823266A
:100F8400FB00FDB783A7090082971C443307F54093
:100F94006375F500D8401D8F2A976361E908974768
:100FA400000023AD078C835524000345040097807B
:100FB40000E0E780004E5C405844B9C70C44D04080
:100FC400AE97BE8663E4B70063E4C700B386C74048
:100FD40014C4228B3A8459F09747000093870789F9
:100FE4009C4B09476373F708F91717470000232739
:100FF400F788B250225492540259F249624AD24AB2
:10100400424BB24B4561828063170B009747000047
:1010140023A8E78AB1BF2326EB0099BF03274A021E
:101024001DCF63E1A7043385A7408347040085E30C
:10103400174700000347778A5917B307A7003E856F
:10104400D44063E4E70063E4D7003385D74083A743
:101054000A016376F5009747000023A1A782228B3B
:10106400404495BFD840BA977DBF9747000023A757
:10107400078041B797470000938707899C4385C33E
:10108400411106C682979747000083C7C78289E744
:101094009747000023AA0786B24041018280974700
:1010A400000083C7478191E79747000023AE078478
:1010B40082808280411122C4173400001304C47D4D
:1010C4001C4006C626C24AC091C7829797370000C3
:1010D40023A4077C9747000083C79785858B17490E
:1010E40000001309A98489CF834779001947631243
:1010F400F71097470000A38D0782F9295C44829773
:101104001C4491C38297973400009384247B9840B5
:1011140017360000034696759737000083C7077596
:1011240093961700BA9683D60600E5C29737000057
:1011340083C7C77363E5C70E973700002388077218
:101144001C40639E0714973700009387E7769C43FF
:1011540063870714973700009387877BDC4317372F
:101164000000232DF77075339737000083C7B77CD1
:10117400639707129737000083C7D77B91CF8347C4
:10118400790093F7F70F89EB97370000A384077A68
:10119400979000E0E78040E29737000093878772DA
:1011A400DC53638E070E973700009387276C9C4BA4
:1011B400FDC78347790015476363F70E973700002F
:1011C40083C7477C918BE1EF9737000083C7A76EF5
:1011D400F9E790409736000083C6566963C7D70C79
:1011E4002244B240924402494101178300E067005F
:1011F4008351834779001D47E314F7F097370000C4
:10120400A3880772D12E1C48DDBD850793F7F70F1D
:1012140097360000238CF664E3E0C7F001BF86072D
:101224003E97835507002310070097370000239348
:101234000768973700009387E7659C4317350000DC
:101244000345C56213172500BA979C4382979737C5
:10125400000083D72766173700000347276193C729
:10126400F7FF7D8D9317170098403E97835707002B
:101274005D8D2310A7009737000083C7275F91C7B0
:101284008507173700002303F75E1737000003476D
:10129400E75D9737000083C7775DE37FF7E8B240E7
:1012A40022449244024941018280139717003297E5
:1012B400035707006DF7850715B737C70040832626
:1012C400C720B707FCFFFD17F58F2326F720010081
:1012D40001009737000093876759C84F83278726F3
:1012E4002326D7206A0593C7F7FF99835D8D8280F3
:1012F400EFF05FD873000000000000009732000098
:101304009382625B0383020023800200630F030065
:10131400F32510342EC0970500009385A5FD739026
:101324001534EF00204E7300203086DCEF00804D32
:10133400E65082800000173700001307E75E14436D
:10134400411122C49C5E4AC006C6998326C2858B7D
:101354003A841749000013092980D1CB930700066A
:101364009CDE173700000347C75C930700089734D7
:1013740000009384A45B631BF700832709009C434C
:1013840093F70704173700002305F75A83C70400AF
:1013940093F707049DC3973700009387E7519C4355
:1013A40082979737000023A1A75A83C7040093F7B5
:1013B400F70B17370000230BF75683C7440093F746
:1013C400070495E7854717370000A303F7569737B7
:1013D4000000938727589C433707020098C71307D8
:1013E40000FC973600002385E6549848F8D318404B
:1013F4001C5F9183858B8DC31C5F93E707011CDF02
:1014040097370000938707559C4323A20706854717
:1014140017370000230EF75083270900D8430583AC
:10142400058B19C7D843759BD8C3D843799BD8C3B8
:10143400B24022449244024941018280ED3D73004E
:1014440020309317D50063D30702973700009387A2
:1014540067509C437D57B8D797370000938707415F
:10146400DC4F8507173700002320F7429377850068
:101474009DCB9737000083C7874B93E71700173737
:1014840000002306F74A930700F8173700002301EA
:10149400F74A973700009387274998435C57F19B95
:1014A40093E717005CD7937715008DC79737000033
:1014B40083C7D74793E7170017370000A308F746F9
:1014C400973700009387474698435C57F19B93E70F
:1014D40017005CD79377650095CB93774500173752
:1014E40000001307A744CDCB8347070093E71700F9
:1014F40017370000230CF742973700009387C74241
:1015040098435C57F19B93E717005CD79317F5005A
:1015140063D40702173700000347C758418B973736
:1015240000009387A75051C383C7870793E7070237
:10153400173700002308F7569317E50063D707020F
:101544009737000083C7C73EE207E18763D70700E8
:10155400854717370000230DF73C97370000938722
:10156400673F9C433707020098C79317C50063D4AD
:101574000702173700000347F752058B973700001F
:101584009387C74A29C383C7970793E72700173769
:101594000000A309F75082808347370093E71700C0
:1015A40017370000A305F73881BF03C787078946AB
:1015B4003D8B6308D70083C787070D47BD8BE39D29
:1015C400E7F69147B5B703C79707118B69D783C768
:1015D400970793E7870065BF97370000938787379E
:1015E4009443973700009387673403C70700058B3C
:1015F40011CB97370000238D073297370000A3895A
:101604000732828003C71700058B65F7F85271FF14
:1016140083C75700DDB7173700001307E7300328E7
:101624000700832788039583858BADEF11C6832735
:101634000803BD832300F6009DC61C43985B460740
:10164400935767016356070093E707C0C207C18336
:1016540003970600C207C18709C7BA970947B3C7EA
:10166400E7022390F6008DCD8345150095C9973781
:10167400000083C7072C93F7070413879500894557
:1016840085C33A95834705000547994593F6F706C0
:101694006398E600E207E187814563D30700B94513
:1016A4002E8582808545EDBF411126C206C622C41F
:1016B400973400009384042A3DED9440AE87F85299
:1016C4007DFF37F400E03E8597370000238107262D
:1016D400832704D1B285ED9B2328F4D0832704D13A
:1016E40093E787022328F4D073005010978000E01A
:1016F400E780407997370000938707239C43B70618
:1017040080009843558F98C3D857719BD8D7973783
:101714000000A38F072097370000A38907209C406F
:10172400094798C3832704D193E787002328F4D07B
:10173400730050100DA08D476315F5049737000012
:101744009387871E9C43B70680009843558F98C3A0
:10175400D857719BD8D79440173700001307071D3B
:1017640083472700858B89EB83473700858BC1CB63
:1017740097370000238E071AB24022449244410155
:1017840082808547E319F5FCB7F700E003A707D18A
:101794006D9B23A8E7D003A707D11367870223A86B
:1017A400E7D07300501098408177FD175447F58FA8
:1017B4005CC70F1000009840B70702001CC79307CE
:1017C40000F8173600002305F616973700009387B4
:1017D400A7159C439C439D83858B639FA700930718
:1017E40060197CD354C737F700E0832707D193E708
:1017F40087002328F7D02DBF9307E01BDDB7FC52E9
:10180400A5F39DBF973700009387C7149C4388476F
:10181400D847798D09C988C79387018B03A307002B
:101824006303030002838280173700001307C71283
:101834008346B7019737000083C7D7144C4BB6973C
:10184400FD8B33D7F50097360000A387F610973643
:101854000000A389F612058B15EF17370000034724
:10186400B712B3F7E702814601471305000233D6E6
:10187400E500058A1378F70F19CA6397D7009737DD
:101884000000A38B070D8280850693F6F60F0507EB
:10189400E31FA7FC8280973700009387E7019C43EE
:1018A400011122CC4AC806CE26CA4EC68297973763
:1018B40000009387670C804701496301A406BE8436
:1018C40063668506018D135455009737000083C75E
:1018D400470A1379F5016360F4049739000093898A
:1018E4002903993703A884009736000083C6660845
:1018F400139756004297158C3A8683A54900636472
:1019040007016364B7003306B7409737000023A983
:10191400C706E378D4FC160433692401F240624418
:101924004A85D2444249B249056182809737000012
:10193400938707FEDC4333848740229569B7973742
:1019440000009387270198438967938707F47CD322
:1019540097370000938747059C4383A6070913968E
:1019640056006358060083A607091396660063446D
:1019740006007453FDF282804111B7E700E022C4EF
:1019840080433707200006C6798C23A0E7180F1080
:10199400000011C199E5B7E700E023A087100145D5
:1019A4007DA893073500C207C183F19BC207C18399
:1019B400130740036369F70217370000130787060C
:1019C4000843173700001307670514436392A60200
:1019D40017370000130707EF185B55DFC207DD8DCB
:1019E400054502974DBF1737000013076703C9BFAA
:1019F400035765002DEB035745006366F706B306EE
:101A0400F7402146637CD6020328050093868700AD
:101A14001D8FAA96611717360000035686E5239298
:101A2400E60023A006012393060014C12312F50047
:101A3400130786FF97360000239DE6E22313B500C3
:101A44009735000083D5E5E2B387F54017370000EA
:101A54002311F7E2B7E700E023A087102105B24085
:101A6400224441018280084195B7B7E700E08C43E6
:101A74003707200023A0E718F98D0F10000001E5B7
:101A840023A0B7108280973700009387A7F903A398
:101A9400070097370000938767F883A807008146FB
:101AA4009A8763F2170D03A807006361F50C636F4F
:101AB400A80A138787006368E50A03D667002167CD
:101AC40005076317E60003C7618B0507238BE18ACB
:101AD40017350000130585D903D647000357650061
:101AE40023930700329742074183173E00002312D5
:101AF400EED8638C670217330000130363F20323E9
:101B040003006304F30203D366006310030283D764
:101B1400460023A0060121073E9621062392C60013
:101B2400973700002397E7D4B6879843630D1703CC
:101B3400973600009386C6EE94426306D702835616
:101B4400670095E283D64700035647001843A10671
:101B5400B2962392D70098C383576500A10717371D
:101B640000002318F7D0B7E700E019BFBE86C2878C
:041B74000DBF0000A1
:101B7800971100209381018717510020130101C894
:101B88001305400097E5FF1F93854547170600207A
:101B9800130606FE63FAC5008322050023A055003C
:101BA80011059105E3EAC5FE17E500001305058553
:101BB800970500209385C5FB1386818463FAC500C9
:101BC8008322050023A0550011059105E3EAC5FE0F
:101BD8001385818497350020938505F86377B500D0
:101BE800232005001105E36DB5FEFD42739002BC8C
:101BF8008D4273904280B72200009382828873A03E
:101C0800023097E2FF1F9382623F93E232007390A3
:101C18005230970200009382820B73901234730043
:101C280020303D432A876373C3029377F700BDEFE3
:101C3800ADE5937606FF3D8ABA960CC34CC30CC734
:101C48004CC74107E36BD7FE11E28280B306C3405D
:101C58008A069702000096966780A6002307B700B9
:101C6800A306B7002306B700A305B7002305B700EE
:101C7800A304B7002304B700A303B7002303B700E6
:101C8800A302B7002302B700A301B7002301B700DE
:101C9800A300B7002300B700828093F5F50F939651
:101CA8008500D58D93960501D58D61B7939627004C
:101CB8009702000096968682E78086FA9680C1177A
:101CC8001D8F3E96E374C3F8A5B74111054506C6B6
:101CD800EF20A0381545EF1020681305800497E021
:101CE800FF1FE780005AEF00F07617D500001305B4
:101CF80065D0EFB0F03717D60000130626D297D577
:101D08000000938565D217D500001305A5D2EFB062
:101D1800902417D5000013056552EFB0703517D51C
:101D28000000130565D2EFB0B034EF10C03AEF10E1
:101D38004053EF90D076EF001078EF00306B17D556
:101D480000001305E5D2EFB0B032212EEF00904D20
:101D580097E0FF1FE780A03317D50000130545FE65
:101D6800828017D50000130525F58280914701452B
:101D780063E9B7008A0597D700009387E725BE95E2
:101D880088418280238401848280011106CE22CC7E
:101D980026CA32C6AE84EF00B0743246171400204B
:101DA8001304C477A285172500201305258BEF603F
:101DB800E00C22866244F240A685D24493060004D1
:101DC800014505616F70C043411122C426C206C691
:101DD800B2844AC02E841306F00F99C003C60500CA
:101DE80093178601E18797D600009386E6F763CAC2
:101DF80007001317260097D700009387A7C8BA973C
:101E080094432687AA8517D50000130565F6EFB019
:101E18009014A29417D900001309C9F7631D940000
:101E28002244B2409244024917D50000130505F731
:101E380041016FB0F023834504004A850504EFB0E3
:101E48009011E9BF411122C426C22E84B284AA850A
:101E580017D500001305C5F44AC006C6A294EFB012
:101E6800900F17D900001309E9F2631D940022446A
:101E7800B2409244024917D50000130525F24101EA
:101E88006FB0101F834504004A850504EFB0B00CFD
:101E9800E9BF9D47639FF504239901842398018432
:101EA8002396018423950184239E0184239D018424
:101EB800239B0184239A0184238701844111854748
:101EC80093060004171600201306067C8545014575
:101ED80006C6238CF184EF70A032B240930600044A
:101EE80017160020130686639145014541016F705E
:101EF80020318280011132C606CEEF00705E83D792
:101F08000185324613971700972700209387C797B4
:101F1800BA972390C70083D70185171600201306A8
:101F2800A6769A07B29783C507009D471387018550
:101F38009386A184639BF50285472380F18A83D722
:101F4800060083D6C184958FC207C183A1466380EA
:101F5800D70483570700F240930600049A073E9679
:101F68008545014505616F70A029835707008507DE
:101F78002398F18483570700A1456394F5002398BB
:101F8800018483D7060085072395F1844DBFF2406D
:101F980085472387F1840561828083D7C1858507BA
:101FA800239EF18483D6C185A1471387C185639495
:101FB800F600239E018483D761858507239BF184DE
:101FC80083D6418583D76185638AF60283570700E4
:101FD80003570700172600201306068C9A07931646
:101FE800170017270020130727AB369783560700DB
:101FF8003E969305100801456F7000148547238CA1
:10200800F1848280411122C43284A2851D46138541
:10201800C18206C6EFB0C0688347140003450400B8
:10202800A207C98F034524004205C98F0345340020
:1020380062055D8D01C9EF2080212244B240410133
:102048006F00104AB240224441018280411132851A
:102058009385C1821D4606C6EFB08064B240410137
:1020680082800111280006CEEF1090799706002093
:10207800938606B0014797D500009385A5CD2145E5
:102088003C00BA9783C707000507890613D647009F
:10209800BD8B2E96AE970346060083C70700238F95
:1020A800C6FEA38FF6FEE31DA7FC130600109715C6
:1020B80000209385A54A171500201305255A970770
:1020C8000020238F07AAEF501059EF30006697D5EC
:1020D80000009385A5C40145EF60503B971500208B
:1020E8009385C5580145EF60F03F938541820145CE
:1020F800EF60B0429385C1810145EF6010429715AA
:1021080000209385253A0145EF60304CAA850145AA
:10211800EF60503D971500209385853A0145EF60A3
:10212800D04AAA850145EF60F03B9385418101457E
:10213800EF60B03E9385C1800145EF60103E170601
:102148000000130646D5B78500400145EF60F0430F
:10215800F240056182801571A2CDA6CBCAC9CEC74F
:10216800D2C586CFD6C3DAC1138AA1841384C184A9
:102178009714002093844451171900201309C9713A
:10218800972900209389499103570A00835704002F
:10219800C207C183638EE70083D7418503D7618572
:1021A800998FC207C1831D47938A4185637CF70CC9
:1021B8000145EF60D03BEF00D0120145EF60303BA6
:1021C80015E19305F1018800EF00101501CD0C0110
:1021D8008800EF30604E9375F50F0801A30FB1002A
:1021E800EF001019130600020C1017150020130534
:1021F800E546EF5050542A8411CD2A860C1017D585
:1022080000001305E5AA3D3993150401C1810810A2
:10221800EF20400E0145EF60903539C983C78184AE
:10222800A1EB13060004971500209385252B17258D
:1022380000201305659AEF5010501DC92A8697157E
:1022480000209385A5292AC617D50000130585A661
:10225800D53EEF00F028B246854717160020130632
:10226800E6279305400801452384F184EF60D06C8C
:10227800FE406E44DE444E49BE492E4A9E4A0E4BED
:102288002D61828083D5218583D7218513971700F7
:10229800971700209387475FBA9703D607009A05D8
:1022A800A69517D50000130525A0393E03D521852D
:1022B80083D5A1859A051A05CA952695EF30C03FA2
:1022C80083D7A1858607CE972390A70083D5A185BC
:1022D80083D7A1858607CE9703D607009A05CA95A6
:1022E80017D500001305859CC53483D7218585073C
:1022F8002399F18403D72185A147138BA185631402
:10230800F700239901848357040085072396F184F5
:1023180083C7E1849DC783570A0003570400998F38
:10232800C207C1832147638EE7002387018403D650
:1023380001851A0693060004269685450145EF6037
:10234800306C83570B008507239DF18483570B005E
:1023580021476314F700239D018483D70A0085076A
:10236800239AF18483C78185E38007E29387618597
:1023780003D70A0083D70700C207C183E386E7E0D3
:10238800238C018403D6C18583D7C1858607CE9760
:1023980083D607001A064A96930510080145EF6090
:1023A800B059DDB3B7E700E03707400023A0E710D6
:1023B80082801387018603230700B287630E030216
:1023C8000D476302E502C547630AF50085476315B3
:1023D800F502814601468145014502838146014651
:1023E80081450545DDBF89E901CA83461600838515
:1023F800070009060945D5B78280797122D41306EA
:1024080000022A8481450A8506D697F0FF1FE780D7
:10241800E0A3C1472300F100B7477671938797126D
:102428003EC4B7575500938757553EC697070000D7
:10243800938767F83EC89307B0BFA3008100231EA7
:10244800F100EF90402B0A85EF80605819E5238250
:102458008186B2502254456182800545DDBF23A0A4
:10246800B186238201869307700263E3A70071B7E0
:102478000945828003C74186631AA700411106C631
:10248800EF906027B2400145410182801307700236
:102498006363A7009DB7094582801DC99387F5FF2F
:1024A80093F7F70F1307A00F6364F702011122CC0B
:1024B80006CE2EC62A84EF90002422856244B245B7
:1024C800F2409306F00F1306F00F05616F80206A43
:1024D80009458280411106C6EF90E021B24093067B
:1024E800F00F1306F00F8145014541016F80700F11
:1024F80089476310F50493078005639AF604411130
:1025080022C417150020130525622E84B2851306F0
:10251800800506C6EFB0C01823808188224485470D
:10252800A381F188B24003C5C188914541016F601C
:10253800907509E5A14503C5C188D5BF85476318CE
:10254800F5000D46854503C5C1886F60507D8280C2
:10255800011122CC26CA4AC8AE842A893284814510
:1025680013064004171500201305C5623EC236C67F
:102578003AC442C006CEEFF0CFEA37464150224770
:102588000248B246130676459717002023AAC75E6D
:102598000546971700202387C75E97170020A38357
:1025A800275F971700202380E75E97170020A38CEA
:1025B800075D9717002023A9975C9717002023A78A
:1025C800875C9717002023A5D75C924799CB630AAD
:1025D80008004286BE85171500201305A55BEFB0DD
:1025E800200CB7A71C81B7060001938757DC014769
:1025F800171500201305C55893863619130640058C
:10260800B305E50083C505000507AD8FB387D7027D
:10261800E318C7FEF240624417170020232CF75A2C
:10262800D244424905618280197193970501A2DC61
:1026380086DEA6DACAD8CED6C1872E8463D0070232
:10264800EF60B04A19C1EF6030452165218DF65021
:102658006654D6544659B6590961828093F70504E1
:102668008DC3EF00500B19E9EF00806713060014C3
:102678009305000403C5C188EF60706A134504041C
:10268800F9B793F74500638C072483C731886385BE
:1026980007244800EF109032130680059715002094
:1026A800938585482800EFA0B07F1245938701885D
:1026B80083C40700A3810188EF1050322247B7472F
:1026C8004150E20493877745E1846315F704034793
:1026D800C10085476310F7040349F100930700041C
:1026E80063EA27037646B7A71C81B70600019387DC
:1026F80057DC0147938636199305400528003A951B
:10270800034505000507A98FB387D702E318B7FE6D
:102718006304F60089456DA0EF00E07F631F050E96
:10272800138781881C438546BA896396D702034775
:10273800D1006313F71A9307F0FC63D6F408A68553
:1027480017D5000013058591EFB0E000894503C552
:10275800C188EF60505303A709009147631EF7161D
:102768000347D1008D476319F7161389018742473C
:10277800832709006312F716938481875247944090
:10278800E247639BE614D8406318F7140347E10057
:1027980083C741876312F7149305000203C5C188F4
:1027A800EF60706E9040D44083250900814701484E
:1027B80003C741871145693B994723A4F18885459B
:1027C80003C5C18861A85246E246B367D600BDDF9B
:1027D8000349E100130760029307F9FF93F7F70F26
:1027E800E366F7F6C24523ACC18623AED18623A89B
:1027F800B186238A21874A87014881470945893B51
:102808008947A6854A8617D500001305258723A47E
:10281800F188EFA0507485451DBF8347D1000D474F
:102828006391E7049727002093874785D24690470E
:102838006247E311D6EED447E39EE6ECC2458147F2
:10284800172700200347F7831145014883C4C1882F
:102858000133A94723A4F18885452685EF60B04256
:10286800A5A81547E398E7EA9727002093870781EB
:1028780052469847E246E31FC7E8DC47E39CD7E89F
:1028880083C74188E39807E893878186C2449C43BD
:102898006390F40203C8C186630C080097170020F0
:1028A800938787200147A68519455D31A14731B730
:1028B80083C72188E39007E64A866C08171500202D
:1028C80013058522EFA0D05DA380218923A49186DA
:1028D80085472381F1882921134544008DBB93F74F
:1028E800150095C393058005171500201305452984
:1028F8006D3619C50D46854503C5C188EF60304260
:1029080013451400A9B393F7250081CFE13619C503
:102918000D46894503C5C188EF6070401345240002
:102928003DB393F78500638A070A938781889C43A0
:1029380009476398E70203C541872D3E91478945BA
:1029480003C5C18823A4F188EF60F0331306003271
:102958009305000203C5C188EF60703C13458400ED
:10296800FDB119476396E706854717170020230A24
:10297800F7709387418783C70700938481879040C6
:10298800D44017170020A30EF76E971700209387DF
:10299800E76E90C7D4C76D210DE5AD2E9440D040A9
:1029A80083C5418717C5000013050570EFA0B05A0D
:1029B8009D47894503C5C18823A4F188EF60B02CE1
:1029C80071BF17C500001305E570EFA0706ACDB799
:1029D800F59B2147E394E7F8E1BF93F7050113C599
:1029E8000501E39607C693F705020145E38107C68B
:1029F80093878188984391476313F702A53C8547DD
:102A080023A4F1888146938781870147894503C5B7
:102A1800C18894C3D8C3238A0186EF60D0261345A2
:102A2800040235B1411106C622C4E92E170500007B
:102A38001305C5BFEF6050712386A188E929814736
:102A480009C59717002083C7D763970500009385AA
:102A580065AA3E85EFF0BFA001C917C500001305A0
:102A6800E558EFA0F06001A07D2183C7C18821C58A
:102A78001717002013078760834677001384818720
:102A88008945238AD186104754473E851D4754C03F
:102A980010C023A4E188EF60101FAD2C14405040F3
:102AA8002244B24083C5418717C500001305C555A8
:102AB80041016FA0504A930500043E85EF60B01CA9
:102AC8008547894503C5C18823A4F188EF60B01BF9
:102AD8002244B24017C500001305C55541016FA037
:102AE8003059411122C406C62A840DC183C74188C2
:102AF80091EF83C7218899CB238101889D47894518
:102B080003C5C18823A4F188EF60F0172382818868
:102B1800B24022444101828083C72188B9C78147D6
:102B280031C5A9C5011126CAAA84680006CE22CCDF
:102B38004AC82E84EF10806803C911884A86971501
:102B48000020938565FA2685EFA09035324523004D
:102B5800240123810188EF106068F24062448547B0
:102B6800D24442493E850561828081473E85828004
:102B7800411122C426C24AC006C62A89AE84612EE3
:102B88002A8421CD630209069387F4FF93F7F70F90
:102B98001307F003636AF7042686CA851715002011
:102BA800130585F0EFA0D02F971600209386064DC9
:102BB8009385818690468C41D44623869186CA8720
:102BC800014719452688EFF0BF98A147854503C5F9
:102BD800C18823A4F188EF60100B2285B2402244FB
:102BE80092440249410182800144C5BF4111C14557
:102BF800014506C6EF10E03B371700408327870CD6
:102C08008D451305000893E707082324F70CEF10F8
:102C1800E02F85454145EF10602FEF1040660145D4
:102C2800EF10006995450545EF10206AB240B7E7F7
:102C380000E03707000423A0E710130600409715AB
:102C48000020938565FB171500201305E5F8410161
:102C58006F506020371700408327870A411106C646
:102C680093E707202324F70A8D4513050020EF106A
:102C7800801F854513050010EF10E01EEF10006D52
:102C88000145EF10C06F95450545EF10E070B24063
:102C9800B7E700E03707000823A0E710130600088D
:102CA8009715002093854535171500201305C5F3A2
:102CB80041016F50401A371700408327C70C411154
:102CC800B706800006C6D58F2326F70C8D45370535
:102CD8008000EF10A023B240A386018841018280C2
:102CE800371700408327870C4111B706800006C6B6
:102CF800D58F2324F70CEF10A04FB7C72D0093876B
:102D0800076C3E9523A8A188B2408547A386F18821
:102D180041018280371700408327C70CB70680001F
:102D2800D58F2326F70CA3860188828083C7D18894
:102D38008DCB411106C6EF10A04B938701899C43A8
:102D48001D8D634D0500371700408327C70CB70654
:102D58008000D58F2326F70CA3860188B240410155
:102D68008280828061468145171500201305053150
:102D78006FE03FEB3787B8ED13060501FD571307E2
:102D880007326315C50013C5F7FF82800505834622
:102D9800F5FFB58FA14693D51700858BB307F04093
:102DA800F98FFD16AD8FE5FAE9BF1441374744574F
:102DB800130707156395E604544141114166A206BD
:102DC80022C406C6A18205062A8401476394C60266
:102DD8008346750013066002FD1693F6F60F636BC3
:102DE800D60014455045D18E91C669371848098FC9
:102DF80013371700B24022443A85410182800147C7
:102E08003A8582804111E1461716002013060627ED
:102E180081452D4506C697E0FF1FE78040C019C5CC
:102E280091378947B2403E854101828017150020BD
:102E38001305C5249D3F814775F52D378547DDB7B7
:102E4800397126DA06DE22DC9714002083C4642355
:102E580085476390F40C1714002013042422834739
:102E6800740013076002FD1793F7F70F6363F70AFF
:102E78001C445844D98FD1CF6146A2850A85EFA05A
:102E88003002B7474457938707150A853EC0231277
:102E98009100CD35B7F707002AC803C70701A54732
:102EA8006313F70001A093060010014681452545EC
:102EB80097E0FF1FE780A0B6914731E5E1460A8613
:102EC8008145294597E0FF1FE78060B5954705EDE7
:102ED800E146300881452D4597E0FF1FE78020B483
:102EE800894715E161468A852808EFA00079994746
:102EF80019E928085D3D994719C561462C082285BE
:102F0800EFA0007A8147F2506254D2543E85216185
:102F180082808D47CDBF171500201305251671B582
:102F280011455DA5411193962500AA852D4506C634
:102F380097E0FF1FE780A0AEB240014541018280C3
:102F4800011122CC06CE3714004026CA4AC84EC604
:102F580052C483447405034AB4058349840503496C
:102F68009405EF10A0068347A40593F4F40F137A91
:102F7800FA0F93E71700230DF40493F9F90F137967
:102F8800F90FB717004003C7A705058B6DFF03D5D9
:102F9800C705A38D4705238C3705A38C2705A38B6D
:102FA8009704F2406244D2444249B249224A056138
:102FB800828041119397050122C406C6C1872E84D9
:102FC80063DD0700EF60603219C1EF60E02C216516
:102FD800218DB24022444101828093972501014509
:102FE800E3D907FEEF706020253F37F6020013068D
:102FF80006E0896503C58189EF6060520965C9BF2C
:103008002D71232A9110FD74E98C232C811023281B
:103018002111232631112A84AE89328993060010A2
:103028000A86A6852D45232E111097E0FF1FE780FD
:10303800009F1315440151810A0513962900CA857A
:103048000A9597E0FF1FE78080DCA6858566014624
:10305800254597E0FF1FE780809C0A86A685930692
:103068000010294597E0FF1FE780609B8320C1116E
:103078000324811183244111032901118329C110DB
:1030880015618280B7F7070003C70701411106C61B
:1030980022C426C24AC0A547631AF7009537B24032
:1030A800224492440249014541018280139425003B
:1030B800AA843289A286AA850146254597E0FF1F82
:1030C800E780E095A2864A86A685294597E0FF1FF6
:1030D800E780E094E9B71D71494697C500009385DC
:1030E800250117C500001305651586CE97E0FF1F5B
:1030F800E780E0D801E917C500001305A500EFA097
:10310800207701A0B7F600E0795798CAFD57DCCAC6
:103118000567B7E700E023A0E7101306F00290C2A6
:1031280023A0E7180100010017E7FF1F1307C71CBA
:1031380023AAE1884157A38AE74013060004814582
:10314800080897E0FF1FE78060D097F7FF1F938775
:1031580067B53EC8896793870780231AF1009D6782
:103168003ECCB7070105938707103ECEED472310E5
:10317800F10285472301F102970700009387C7DA18
:10318800BEC297070000938727F0BEC48567938760
:1031980057D12312F102971700009387A7053ED84D
:1031A800B7F50700970700009387C7D93EDC81462B
:1031B80097070000938707D73000E10519453EDEE1
:1031C80097E0FF1FE780A0851808814799463000DF
:1031D8003E960346060085070507A30BC700E3983C
:1031E800D7FEC24791C70357410185676373F7004C
:1031F80001A08307410263D7070493078008F3B748
:10320800078093F787083EC40F100000B7170040E7
:10321800130770052380E704130780FA2380E70467
:103228000F100000B847B706100013670718B8C793
:103238009853558F98D323800704A247F3A7078094
:103248000F1000000808EF60E073AA8501C917C5D0
:103258000000130565ECEFA0005001A0F6402561C1
:1032680082804111170500001305E5D406C622C463
:10327800EF60806D138481892300A4001928034519
:1032880004002244B24013060032896541016F6090
:103298000029797106D613078008F337078093F75A
:1032A80087083EC20F100000B7170040930570054D
:1032B8002380B704130680FA2380C7040F10000088
:1032C80083C6F70293F6A60FA387D70223800704C5
:1032D8009246F3A606800F10000073370780137715
:1032E80087083AC40F1000002380B7042380C7045E
:1032F8000F10000003C7F70213672700A387E70230
:1033080023800704A247F3A707800F100000054594
:1033180069283931814701478146054685451305A6
:10332800407ED92868005146814597E0FF1FE78015
:10333800E0B1B707C0A83EC8B787E803938707D0AE
:103348003ECA680097D7FF1F938747EF3EC6EF60D6
:103358007008B25045618280371700408347E70400
:103368001205411193F7F708C98F93F7F70F9306E2
:103378008008F3B6068093F6860836C60F1000005C
:10338800930670052300D704930680FA2300D70418
:103398000F1000002307F70423000704B247F3A720
:1033A80007800F10000041018280B717004003C753
:1033B800E7020D8941111377C70F498F93068008DB
:1033C800F3B6068093F6860836C60F1000009306FB
:1033D80070052380D704930680FA2380D7040F1042
:1033E80000002387E70223800704B247F3A707807A
:1033F8000F1000004101828041112A83014E930E73
:10340800407E130F0019930F400663E56E12930870
:10341800001913034006B3781503854E0D4FA14FCD
:10342800337365020D891335150063EFBE12130857
:10343800F6FF794672984208135808013307C70205
:1034480013D61700BE0732976146B3F6C6021306B5
:103458008070B386C6023697A166F58F42075D8FE6
:10346800B716004083C7F60293F70708A303F100D5
:103478000346710083C7F60293F70708E394C7FE73
:1034880083477100B716004093F7F70F6388071258
:1034980093078008F3B7078093F787083EC40F1097
:1034A8000000B7170040930670052380D7049306E1
:1034B80080FA2380D7040F10000023AA070383C6CD
:1034C800170393E60608A388D70223800704A247B8
:1034D800F3A707800F1000001166B71700407D168C
:1034E800D45BC85F93854703A98EF18EF5FA9306DE
:1034F8008008F3B6068093F6860836C60F100000DB
:10350800930670052380D704930680FA2380D70496
:103518000F10000098C103C7170313670704A38897
:10352800E70223800704B247F3A707800F100000C3
:10353800410182807D133368E3039308E016630E2C
:1035480008003368F3039308D016630808009378DB
:10355800330093B818009388D81633081E01131E39
:103568000801135E0E0155B56393E50305486386AC
:1035780008000148630303002A8871087298FD1542
:10358800131E0801C205135E0E01C18179BD13F82F
:10359800150063F4BF007908D5B713381800E5BFE4
:1035A80083C7F60293F70708A303F10003467100E7
:1035B80083C7F60293F70708E394C7FE83477100B1
:1035C80093F7F70FF1DFE9B531714AD966CB06DF1A
:1035D80022DD26DB4ED752D556D35AD15ECF62CDE7
:1035E8006AC96EC7AA8C02D8EF0050392A89930796
:1035F8008008F3B7078093F787083EDA0F100000BA
:10360800B7170040130770052380E704130780FAF3
:103618002380E7040F10000003C7F7021377770F22
:10362800A387E70203C7F70213678700A387E702A8
:1036380023800704D257F3A707800F100000054521
:10364800AD33130780C13347E902116A93070AE8CB
:1036580093065002BD69930BA004814A014B1304E1
:103668008008930470057D1AB347F9023307D7021F
:103678003EC0FD873ECC938709A69309803E334719
:10368800F7023AC27D873AC4334739038549B3996B
:10369800990193D93940B306D702B30B7703B3C660
:1036A800F602B3CBFB0236C6FD8636C893D6FB417D
:1036B80036CEB7460F00938606243349D90285666D
:1036C800938606FAB3969601B389E9021307605503
:1036D8003309D90293060010B389E9023349D902A4
:1036E800B3C9F9029316390036CA37190040FD8666
:1036F80036D0930D090493D7F9413ED2F3360480AE
:1037080093F6860836DC0F100000930770052380B7
:10371800FD00930680FA2380DD000F100000834629
:10372800390593F6860FA309D9048346390593E62C
:103738001600A309D90423800D00E256F3A60680DB
:103748000F100000130C80FA116DF336048093F605
:10375800860836DE0F100000930770052380FD00F1
:1037680023808D010F10000083463905216693E6FA
:103778000602A309D90483560905B3E6A60123184E
:10378800D90483560905D18E2318D90423800D0046
:10379800F256F3A606800F1000008346390593F60B
:1037A8000602638B061803463905218A6DDE081860
:1037B800EF00D0207336048013768608B2C20F104B
:1037C800000023809D0023808D010F100000B71793
:1037D800004003C637051376F60DA389C70403C650
:1037E800370513660602A389C704835609052166AF
:1037F800B3E6A6012318D90483560905D18E2318E8
:10380800D90423800D009646F3A606800F10000009
:103818008346390593F606026387061483463905FD
:10382800A18AEDFE97D0FF1FE78020A4AA8636D490
:1038380097D0FF1FE78060A3A256E30AD5FE835600
:1038480009054255B3E6A6012318D904EF0010195B
:1038580083463905A18AEDDE035609058346290505
:1038680082473376CA00B306DA0293D5F641B29698
:10387800B388F640E24733B8C6002E983308F840BC
:10388800A247B3B616013308D84063C70701631DC2
:10389800F800924763FA1701C247634DF80E639523
:1038A8000701B24763E8F80E894663E7660FF246F8
:1038B8009315180013D3F8015E8613951800B365A5
:1038C800B30042D646D4EF9040643258050B137BC0
:1038D800FB0F6347000163120838A258638F08364C
:1038E80013081500B336A800B69513D6F50132981B
:1038F800B336C800AE9613581800FE06B3E60601A4
:103908007336048013768608B2C60F100000238031
:103918009D0023808D010F1000000356C902B29646
:10392800C206C1822316D90223800D00B646F3A62B
:1039380006800F10000011BDF336048093F6860848
:10394800B6C00F10000023809D0023808D010F104A
:1039580000008346390593E60602A309D9042380AB
:103968000D0086463DB5F336048093F68608B6C446
:103978000F10000023809D0023808D010F10000090
:103988008346390593E60602A309D90423800D006E
:10399800A6469DBDE30D0BF0F336048093F686082A
:1039A800B6C80F100000930680FA23809D0023807C
:1039B800DD000F1000008346390593F5FC0F93F6E0
:1039C800860FA309D90483463905CD8EA309D904E6
:1039D80023800D00C646F3A606800F1000001305CD
:1039E80080FA03463905930639051D8A631496291A
:1039F8007336048013768608B2CC0F1000001306C5
:103A080080FA23809D002380CD000F10000003C69C
:103A180006001376F60D2380C60003C6060013665B
:103A280006022380C600835609051166D18E231825
:103A3800D904835609052166D18E2318D904238019
:103A48000D00E646F3A606800F100000130680FA64
:103A58008346390593F606026388062483463905AA
:103A6800130C3905A18AFDDA0818892FF33604806A
:103A780093F68608B6D00F100000930680FA2380CC
:103A88009D002380DD000F10000083460C001166A6
:103A980093F6F60D2300DC0083460C0093E606023D
:103AA8002300DC0083560905D18E2318D9048356D8
:103AB80009052166D18E2318D90423800D00865666
:103AC800F3A606800F100000130680FA8346390516
:103AD80093F606026385062083463905A18AEDFE22
:103AE80097C0FF1FE78060782A8C97C0FF1FE78088
:103AF800C077E30C85FF8356090511664255D18EC0
:103B08002318D904E12D8346390513063905A18AFE
:103B1800FDDAF336048093F68608B6D40F10000059
:103B2800930680FA23809D002380DD000F1000009B
:103B38008346060093F6F60D2300D60023800D0079
:103B4800A656F3A606800F10000083560905034603
:103B58002905D247B376DA003306CA021305800C6A
:103B68009355F6413696330DF6408257333CD600CE
:103B78002E9C3336A601330CFC40330CCC40330862
:103B8800850392564E86B335A5033305A503C29522
:103B9800EF90A03763468001631E0C16630C0D1668
:103BA800130615003335A6002E959356F501369663
:103BB800B335D600AA959396F50105828585D18EF1
:103BC8006346B000639D051A638B061A0356C90243
:103BD80015823305D6003336C500B2956348B00068
:103BE800639105241306F00F637DA622894663F3CB
:103BF800561593078008F3B7078093F78708BED652
:103C08000F10000037170040930770052300F704D2
:103C1800930780FA2300F7040F1000008356C702A9
:103C280089678117D58FC207C1832316F70223003E
:103C38000704B657F3A707800F100000FA506A541C
:103C4800DA544A59BA592A5A9A5A0A5BFA4B6A4CB0
:103C5800DA4C4A4DBA4D296182801308F5FF333595
:103C6800A800FD152E951356F5013298B336C800F5
:103C7800AA9651B1F336048093F68608B6CA0F1097
:103C8800000023809D002380AD000F1000008346B4
:103C98003905CD8EA309D90423800D00D646F3A695
:103CA80006800F10000035BBF336048093F68608B3
:103CB800B6CE0F10000023809D002380CD000F108A
:103CC80000008346390593E60602A309D904238038
:103CD8000D00F646F3A606800F10000095BBF336DC
:103CE800048093F68608B6D20F10000023809D004A
:103CF8002380CD000F1000008346390593E60602A5
:103D0800A309D90423800D009656F3A606800F1048
:103D180000006DBB9306F5FF33B5A600FD152E9583
:103D28009355F501AE96B3B5B600AA951396F5016D
:103D3800858269B5F336048093F68608B6D80F10E5
:103D48000000930680FA23809D002380DD000F1079
:103D580000008356C9020566011693F6F60FD18E48
:103D6800C206C1822316D90223800D00C656F3A6C7
:103D780006800F100000850A93FAFA0F41B233E665
:103D8800B60045C20356C9023305D0403338A000F7
:103D9800B305B040B385054115826345B000D1E154
:103DA8006371A608894663F0560593078008F3B740
:103DB800078093F78708BEDA0F100000B717004096
:103DC800130770052380E704130780FA2380E704AC
:103DD8000F10000003D7C7027D8B2396E7022380CC
:103DE8000704D65781BDF336048093F68608B6DCFF
:103DF8000F100000930680FA23809D002380DD00C9
:103E08000F1000008356C9020566011693F6F60FD7
:103E1800D18EC206C1822316D90223800D00E65630
:103E2800B9B793078008F3B7078093F78708BEDE12
:103E38000F10000037170040930770052300F704A0
:103E4800930780FA2300F7040F1000000356C702F7
:103E580093975600B297C207C1832316F70223002F
:103E68000704F657C1BB914763EEB70217B70000C6
:103E78001307872C8A05BA959C41BA978287B7178A
:103E8800004003A7470B1345F5FF698F23AAE70AEC
:103E980003A7070B698F23A8E70A03A7070A798DE9
:103EA80023A0A70A8280B717004083A6470B1347B1
:103EB800F5FFF98E23AAD70A83A6070B558D23A8E9
:103EC800A70A83A6070A758F23A0E70A8280B71777
:103ED800004003A7470B498F23AAE70A03A7070B4C
:103EE8001345F5FF45BFB717004083A6470B134797
:103EF800F5FF758F23AAE70A03A7070A598D4DB75F
:103F0800B717004003A7470B498FEDB7914763EEFA
:103F1800B70217B70000130767238A05BA959C41B3
:103F2800BA978287B717004003A7470D1345F5FFD7
:103F3800698F23AAE70C03A7070D698F23A8E70C4D
:103F480003A7070C798D23A0A70C8280B717004020
:103F580083A6470D1347F5FFF98E23AAD70C83A62E
:103F6800070D558D23A8A70C83A6070C758F23A0D2
:103F7800E70C8280B717004003A7470D498F23AA93
:103F8800E70C03A7070D1345F5FF45BFB71700401A
:103F980083A6470D1347F5FF758F23AAE70C03A7E0
:103FA800070C598D4DB7B717004003A7470D498F28
:103FB800EDB7B717004003D7870109C5D98D239CF2
:103FC800B700828093C5F5FFF98DD5BFB7170040BC
:103FD80003C777051377E70FA38BE704130700F8E8
:103FE800A38DE7043D47238CE70413075003A38CF4
:103FF800E70403C7A7051377D70F238DE70482804B
:104008004111B7F5070022C481462A842A86E105B2
:10401800194506C697D0FF1FE78060A083471400A4
:104028000347040083462400A207D98F03473400BE
:10403800B2402207558FBA9703475400834644007D
:104048002207558FBA97C207C1832303F400A183BF
:10405800A303F400224441018280797122D43714E9
:10406800004026D24AD0035924028354040206D6BB
:104078004209C2044ECE52CC56CA13590901C18016
:104088002DE11379F9F793F4F49F4209C204135907
:104098000901C18093078008F3B7078093F7870861
:1040A8003EC40F100000930770052300F404930723
:1040B80080FA2300F4040F100000231124032310B6
:1040C800940223000404A247F3A707800F100000FE
:1040D800B250225492540259F249624AD24A456176
:1040E8008280B7F5070081463000B105194597D0A1
:1040F800FF1FE780C092A24713972701E34A07FCF6
:104108001369090893E4044093098008F3B7098008
:1041180093F787083EC00F100000930A700523002C
:104128005405130A80FA230044050F1000002311D8
:10413800240323109402230004048247F3A7078072
:104148000F100000294597C0FF1FE780003DF3B915
:10415800098093F989084EC20F1000002300540506
:10416800230044050F1000008357040293E707203B
:104178002310F402230004049247B9B7B71700408C
:104188008847420541819377050491EB9377F501C0
:104198003755E801130505803345F502828093778A
:1041A800050C130700046397E7009377F50137457B
:1041B8009C1CCDB72165130505D0828037E700E048
:1041C8001C435443A183E206D58F1CC1FD5723200D
:1041D800F7182322F7180F100000828013178500A4
:1041E800B7E700E023A0E710618123A2A71082802F
:1041F800B7F700E08847CC478280814737370040CF
:10420800A14663C4C700328582800345B740E38E68
:10421800A6FE3385F5000345050085072304A7405E
:10422800CDB79387C1839C43171700201307C79204
:104238003E95636CE500172700201307273C63664B
:10424800A70023AEA1823E858280FD57EDBF4111B4
:1042580022C406C62A841D372947B307E502B2409F
:104268008D83B3D7870222449507B3D7E702373740
:104278000040C207C1832316F7004101828071659F
:1042880041111305052006C6D937B7370040130773
:1042980070F82381E7000D47A381E70013070004A6
:1042A800A380E70005472387E700B24041018280E9
:1042B80037370040834727001A0593F7F703C98F5C
:1042C80093F7F70F2301F7008280B737004003C741
:1042D800170019C9D98DA380B70003C70700136752
:1042E80087002380E700828093C5F5FFF98DA380BE
:1042F800B7008280B73700402147B736004091E1C8
:10430800828003C6B700E30CC7FE05050346F5FF28
:10431800FD15C2052384C600C181D5B7411122C449
:1043280006C62A84A13D2947B307E502B2408D831A
:10433800B3D7870222449507B3D7E702373700403F
:10434800C207C1832316F74041018280716541117C
:104358001305052006C6D937B7370040130770F88C
:104368002381E7400D47A381E74013070004A3809A
:10437800E74005472387E740B2404101828037374D
:104388000040834727401A0593F7F703C98F93F72F
:10439800F70F2301F7408280B737004003C7174063
:1043A80019C9D98DA380B74003C707401367870091
:1043B8002380E740828093C5F5FFF98DA380B7403D
:1043C8008280B717004003A7070A89651377F7BFEC
:1043D80023A0E70A83A6070A7D771306F7FFF18E65
:1043E80023A0D70A03A6470BF976FD16758E23AAD4
:1043F800C70A03A6070B1307F77F4D8E23A8C70A22
:1044080003A6070AF18E23A0D70A83A6470B0566E1
:1044180013060680F98E23AAD70A83A6070BD18E26
:1044280023A8D70A83A6070A758F23A0E70A03A73C
:10443800070AF176FD16758F23A0E70A03A7070A76
:10444800E176FD16758F23A0E70A8280B7777200A0
:104458009387F70D63FDA700854717070020A30B77
:10446800F7C28547170700202328F7C282809707DD
:104478000020A38107C2B7C7C9019387F737AA9756
:1044880033D5A70211478547E30EE5FC79158D471B
:10449800B357F502C1BF597186D6A2D4A6D2CAD0E5
:1044A800CECED2CCD6CADAC8DEC6E2C4E6C2EAC0EC
:1044B8006EDE834705007D4793C607086363D7020E
:1044C800EF309018B650265496540659F649664A65
:1044D800D64A464BB64B264C964C064DF25D656166
:1044E8008280138715003AC42380F50075472E840F
:1044F8006374F7006F10601B17B70000130747C6F7
:104508008A07BA979C43AA84BA978287834715007B
:104518001307000F638EE7066360F7020D47638C8D
:10452800E7021147638BE704014537090200A3003E
:10453800A40009094A9579B71307E00F6382E706D3
:104548001307F00FE392E7FE930700042381F500B9
:10455800A3810500A1A017D7FF1F130767619387E1
:104568002500938635010306070085070507A38FF5
:10457800C7FEE39AF6FE45454DBF194697B50000BC
:10458800938505E713052400EF908011194571BF45
:10459800CD472381F5008547A381F500094571B70B
:1045A800A1472381F500054549B703471500370999
:1045B80002008547050963F8E700FD57A380F50069
:1045C8004165050585BFA3800500DDBF834715004C
:1045D80099CB05476389E7000947638CE70881475A
:1045E800A300F400BDAE8547170700202304F7AAEF
:1045F800B717004003A7870A85668965558F23A4E6
:10460800E70A03A7070A558F23A0E70A03A6870A24
:10461800938606804D8E23A4C70A03A7070A4D8FE9
:1046280023A0E70A03A6870A7D771307F77F798E09
:1046380023A4C70A03A6470B798E23AAC70A03A691
:10464800070BD18E23A8D70A83A6070A758F23A044
:10465800E70A03A7070AF176FD16758F23A0E70A74
:1046680003A7070AE176FD16758F23A0E70A854799
:1046780085BF17070020230FF7A0B717004003A72F
:10468800870A85668965558F23A4E70A03A7070A61
:10469800558F23A0E70A03A6870A938606804D8EC6
:1046A80023A4C70A03A7070A4D8F23A0E70A03A676
:1046B800870A91654D8E23A4C70A03A7070A4D8F61
:1046C80023A0E70A03A6870A7D771307F77F798E69
:1046D80023A4C70A03A6470B798E23AAC70A03A6F1
:1046E800070BD18E23A8D70A83A6070A758F23A0A4
:1046F800E70A03A7070AE176FD16758F23A0E70AE4
:104708008947F9BD97070020238607980549553939
:10471800A300040075B58347250003471500A207C9
:10472800D98F5147B387E7023ED6B257FD173ED619
:10473800B257E5FFA300040037090200050949B58F
:1047480023810500A380050009499DBD0346450056
:1047580083463500034725002206558E83465500BB
:104768001378170083471500C206558E83466500E7
:10477800E206D18E630E080013F6170063000612D6
:10478800B715004003A6850A0565498E23A4C50A06
:1047980093782700638E080013F627006306061037
:1047A800B715004003A6850A0965498E23A4C50AE2
:1047B80013734700630E030013D62700058A7DCACA
:1047C800B715004003A6850A1165498E23A4C50ABA
:1047D800131E8701135E8E41635F0E0013D67700A8
:1047E80065C6371500400326050AFD759385F57FD4
:1047F8006D8E2320C50AADC213D5170093DE27009E
:1048080013DF570093D57700371600401377070258
:10481800854F630808008326460AB182858AE39A91
:10482800F6FE638808008326460AB582858AE31265
:10483800D5FE630803008326460AB982858AE39A6F
:10484800DEFC19C3E317FFFD63580E008326460AF2
:10485800AD82858AE39FD5FAB715004003A6450ABD
:1048680083A7450A83A6450A03A7450A83A5450ADF
:10487800B183898B918193F505083182CD8F058AA3
:10488800B182D18F918A3183D58F218BD98F93E7CC
:104898000702A300F400370906004DB5371600409B
:1048A80085652326B60AEDB53716004089652326A7
:1048B800B60AFDBD371500400326850AF175FD15BA
:1048C8006D8E2324C50A29B70566B715004013065F
:1048D800068023A6C50A03A5050A498E23A0C50A92
:1048E80019BF83C7240003451500A207C98F03C554
:1048F80034004205C98F03C5440062055D8D19E582
:10490800FD57A380F500370904000DBDEFF01FB473
:10491800A3000400CDBF03491500930525006314C7
:104928000900130900104A851D09EF00D0631359C7
:104938003900A3000400050942091369190049B1A7
:104948008347150013F7370089830507858B97F68A
:10495800FF1F238DE67417F7FF1FA309F774A380C1
:1049680005004169E1BBA3800500034A1500797C75
:10497800938B250093072500054B05497D5D37146A
:10498800004089697D1C7D1A6316AA0142093369B2
:1049980069013DB103C50700938A17009374F503B5
:1049A80099E093040004931C85019D0493DC8C41D9
:1049B8008D8063D30C048327840AB3E7370123244B
:1049C800F40A8327040AB3F787012320F40A5E86D2
:1049D800D685EF00F061631A0A002326340B83277B
:1049E800040AB3E737012320F40A050963DD0C0044
:1049F800A69B269BD68741BF2326340B8327040A10
:104A0800B3E73701D9B7A69A2699EDB7A380050071
:104A1800034A1500938A250093072500854905490F
:104A2800FD5B7D1A63167A0142093369390149BE73
:104A380083C40700138B170013F4F40319E013045D
:104A4800000426851D045686DA850D80EF10503B3C
:104A5800E20413071400E184B3078B003A99E3D208
:104A680004FCA29AA29975BF0349150017F7FF1F06
:104A7800130747623A8697F7FF1F238A2763BA8589
:104A8800814681478505090663EE260117F6FF1F53
:104A98001306466081460507090663E02603A3005E
:104AA800040051BD3385D400034525008506A38D38
:104AB800A5002311F602AA97F1B78345B701850629
:104AC8008D8F2319F602C1BF17F7FF1F0347875CB5
:104AD80089476315F7048347150017F7FF1FA308D5
:104AE800F75C17F7FF1F0347875C63F9E70239454F
:104AF800EF200025EF101041935785002301A400F3
:104B0800A301F4004169935705016181A3000400E2
:104B18002302F400A302A40015095DB4FD57C9B42B
:104B28008347150017F7FF1F230CF75683473500F7
:104B380003472500A207D98F17F7FF1F2314F7563D
:104B48008347550003474500A207D98F17F7FF1F72
:104B5800231BF754A300040037090500C5B69307C3
:104B680015003ECA17FDFF1F034DCD52854797FD1F
:104B7800FF1F938D2D526306FD0289476309FD3A95
:104B88000347250013093500631E0774D247A300A5
:104B98000400230104003309F9404209136929007C
:104BA80005B4930C3500834B250013893500238009
:104BB800018A014B014C014502C8894A9389018A3F
:104BC800054A639B0B0485466318D50263090C32BA
:104BD80097F4FF1F83D4044D094A9389018A6C1006
:104BE8003945EF00D0516319452F99C403C709000F
:104BF800FD141377F70F65D7C2472301A400A3005C
:104C0800F400D247B387FC4013950701A247330944
:104C1800F940336925016DB283C40C0093871C00E9
:104C28003EC693F62400638D061E63090C0893F6AE
:104C3800140117FDFF1F035DED46639F46036C10CB
:104C48002685EF00D04B631A550563080D0083C60F
:104C580009007D1D93F6F60FFDD2B24C83C60C00F9
:104C680013F6260063080626C18A63950626850C76
:104C7800FD1BE3950BFE81BF6C103945EF003048F2
:104C8800631C550163080D0003C709007D1D1377D8
:104C9800F70F7DD3014CD1B7014CE31045FDB25657
:104CA800110913D68600230ED9FEA30EC9FE13D60A
:104CB8000601E182230FC9FEA30FD9FE13F60401F2
:104CC80097F6FF1F83D6063E93F5140069C203CDFD
:104CD8002C0003C61C0093875C00220D3366CD00B0
:104CE80003CD3C003EC6420D336DCD0003C64C00DB
:104CF80097FCFF1F83DC2C3B6206336DA6019DC128
:104D08008145268536CCEF00903F631B5501E2466E
:104D1800A9D683C70900FD1693F7F70FF5D335BF5A
:104D2800E31D45F317F8FF1F0358C8376C10268595
:104D380042CCEF00D03CAA8763165503624863084B
:104D4800080083C609007D1893F6F60FE5D283A6FE
:104D58004D013256F18E6308DD0213E50701137524
:104D6800F50FE5BD83A54D01B256ED8EE31145FF64
:104D7800E30FDDFCE38D0CFC83C60900FD1C93F6F4
:104D8800F60FCDD2E9B7E39A47ED014B0DA8B1C5AF
:104D9800E31D0CFE8145268536CCEF005036631C9A
:104DA8005501E246E38806EE83C70900FD1693F72E
:104DB800F70FEDD35DB5E31245EB014B054CC24748
:104DC8009386FBFF85073EC883C7090093F7F70F53
:104DD800E39507E8B68BB24CEDB36C10268536CC5C
:104DE800EF00F031631C5501E246E38806E683C70D
:104DF8000900FD1693F7F70FEDD385B5E31F45E5D9
:104E0800B257110993D68700230EF9FEA30ED9FED7
:104E180093D60701E183230FD9FEA30FF9FEB5B797
:104E280063060C0417FDFF1F035DCD276C10394581
:104E3800EF00F02C631B5501E3010DE283C6090066
:104E48007D1D93F6F60FFDD209BDE31845E13257F3
:104E5800110993568700230EE9FEA30ED9FE935637
:104E680007016183230FD9FEA30FE9FE83C62C0037
:104E780003C71C0093875C00A206D98E03C73C00B9
:104E88003EC693F704024207D98E03C74C00620757
:104E9800558F3AD681CB97F7FF1F23A7E720014C00
:104EA800054531BF17FCFF1F035CCC1F6C1026851E
:104EB800EF00F024631B5501E3010CDA83C70900F6
:104EC8007D1C93F7F70FFDD3F1B3E31545DD054BD3
:104ED800014CF5B5950C69BB0547E31FE5D0325782
:104EE800110993568700230EE9FEA30ED9FE9356A7
:104EF80007016183230FD9FEA30FE9FEF5B9E30D7E
:104F08000BCE97F4FF1F83D4E419094A9389018AC9
:104F180081453945EF00B01EE31045CFE38E04CC40
:104F280003C70900FD141377F70F7DD3F1B1238070
:104F3800018A834715001389350017F7FF1FA30857
:104F4800F71617F7FF1F0347871663F8E738930C20
:104F58003500034C250001478149014502C8094B2A
:104F6800938A018A854B63120C06BA840547631E2F
:104F7800E50229476385E4002945EF10705C97F442
:104F8800FF1F83D42412094A638509309389018A53
:104F98006C103945EF206037631E453199C403C74B
:104FA8000900FD141377F70F65D7C247224723017D
:104FB800A400A300F400D2473309E940B387FC40BA
:104FC800C20733E927016FF0AFDF03CA0C009387EC
:104FD8001C003EC693741A0093762A00A904638EB7
:104FE800061C638B090897F6FF1F83D6A60B631868
:104FF800970213760A0105E66C1052853ACE36CC34
:10500800EF20A030724763186505E24699C603C6CB
:105018000A00FD161376F60F65D2BA84C1A0A94717
:105028006307F700294536CCEF109051E246B68960
:105038006C103945EF20602D631D6501638A091ADC
:1050480003C70A00FD191377F70F7DD3A9448149D7
:1050580071A029478149E31275FDB256110913D68B
:105068008600230ED9FEA30EC9FE13D60601E182DF
:10507800230FC9FEA30FD9FE93760A01E5C683C69E
:105088002C0003C61C00A206558E83C63C00C2062F
:10509800D18E03C64C006206B367D6003ECC938718
:1050A8005C003EC697FCFF1F83DCECFF6385E400D1
:1050B8002685EF10F04817F7FF1F0357A7FE814515
:1050C80052853ACEEF20602463196503724719C7E9
:1050D80083C70A007D1793F7F70FF5D3B24C03C7C0
:1050E8000C00937627006384061A418B6311071A14
:1050F800850C7D1CE3150CFE95BDE31175FF17F7B4
:10510800FF1F035727FA6C1052853ACEEF20E01F95
:10511800AA87631C6501724719C783C70A007D17F0
:1051280093F7F70FEDD3EA8715A083A64D01325701
:10513800758F631D7501E246638AE60063880C007B
:1051480003C70A00FD1C1377F70F55DBB25603A7F8
:105158004D01758FE2466387E61213E50701137563
:10516800F50FADBF639309126385E4002685EF1040
:10517800303D97FCFF1F83DCECF281455285EF2020
:10518800C018631B6501E3840CEC83C70A00FD1C8F
:1051980093F7F70FFDD399B7E31275F58549C24721
:1051A8009306FCFF85073EC883C70A0093F7F70FED
:1051B80095F72687368CB24C7DB3638F0904A947CF
:1051C8006305F7002945EF10B03797F6FF1F83D620
:1051D80066ED6C10394536CCEF202013631C650151
:1051E800E24699C603C70A00FD161377F70F75D371
:1051F800A944EDB5E31E75FF325711099356870090
:10520800230EE9FEA30ED9FE935607016183A30F6F
:10521800E9FE230FD9FE294703C62C0083C61C00CC
:1052280093875C002206558E83C63C003EC6937762
:105238000A02C206558E83C64C00E206D18E36D6C7
:1052480089CB97F7FF1F23A1D7E6BA848149054583
:10525800B9B76385E4002685EF10902E97F9FF1FF4
:1052680083D949E46C105285EF20200A631B65013D
:10527800E38609E683C70A00FD1993F7F70FFDD304
:10528800F9B38149E30D75F191BDBA8409BF950C55
:105298008DB59389018A81453945EF200007E316CA
:1052A80045D1E38404D003C70900FD141377F70F31
:1052B8007DD3E5B90547E31AE5CE32571109935670
:1052C8008700230EE9FEA30ED9FE935607016183DA
:1052D800230FD9FEA30FE9FEC9B9930C250002C814
:1052E8000145E1B18347090093F6270091C6C18BB8
:1052F80081E705097D1749B81509EDBF97F7FF1F25
:1053080083C747D90547638DE70009476389E718CD
:10531800A380050023810500A38105000D4955A838
:105328002380018A034A35008347250013894500F5
:10533800220A336AFA0063040A2E834A450093F767
:105348002A00A1E3930B55008149094C938C018AEB
:10535800054D17FBFF1F035BEBD463103A11894A15
:10536800FD5B138A018A81453945512B6318550520
:105378007D1B63057B0583470A0093F7F70FE5D785
:1053880035A893F71A00E1C797F9FF1F83D989D188
:10539800894B138B018A814556859523631C7501BA
:1053A800638E090083470B00FD1993F7F70FE5D7C4
:1053B800814929A085478149630BF508A247A300C5
:1053C800340193D9890023013401A301A4003309CE
:1053D800F94083C7440037050400898BE39B0782A3
:1053E80003C5340083C7240022055D8D05054A05E1
:1053F8006FF03F827D1AE31375FDB25711098509D5
:1054080013D78700A30EE9FE13D70701230EF9FE71
:10541800230FE9FEE183A30FF9FEE3010AFA6316FD
:105428007A0193F71A0091C3B94A17FBFF1F035B70
:105438006BC76C105685E121E31E95FBE3000BF862
:1054480083470C007D1B93F7F70FE5D785BF81498C
:10545800854B894C138C018AD9B703C71B0083C7B6
:105468000B00910B22075D8F83C7EBFFC2075D8F8F
:1054780083C7FBFFE207D98F3ED66C1056854121C2
:10548800631B8501E30C0BF283C70C007D1B93F7AC
:10549800F70FE5D725B7E313A5F385095DBD23808D
:1054A800018A834715001389450017F7FF1FA300DA
:1054B800F7C017F7FF1F034787BF63F2E716034AD2
:1054C800350083472500220A336AFA0063090A1463
:1054D800834B450093FA1B00A90A5685EF10500626
:1054E80093F72B005E8BB9EB138B54008149894CE1
:1054F800138D018A854D03471B0083470B0017FC5A
:10550800FF1F035C2CBA22075D8F83472B00110B0A
:10551800C2075D8F8347FBFFE207D98F3ED66C1029
:105528005E85EF10905E631B950BE3090CE88347DB
:105538000D007D1C93F7F70FFDD349B597F9FF1FB1
:1055480083D949B6894C138C018A81455E85EF1051
:10555800D05B631B9501E38309E683470C00FD19C3
:1055680093F7F70FFDD3A9B585478149E318F5E40B
:10557800854B294D094C938C018A63187A01394B64
:105588006385AA012945EF10A07B97FDFF1F83DDE6
:105598006DB16C105A85EF105057631B8501E38F6E
:1055A8000DE083C70C00FD1D93F7F70FFDD339B548
:1055B8007D1AE31575E1B2571109850913D78700DC
:1055C800A30EE9FE13D70701230EF9FE230FE9FE08
:1055D800E183A30FF9FEE3120AFACDB3E310B5DFB6
:1055E8008509E31A3AF1A9476385FA002945EF10BE
:1055F800207517FAFF1F035AEAAA094B938A018AF2
:1056080081453945EF107050E31A65DBE3080ADA83
:1056180083C70A007D1A93F7F70FFDD345B30145F9
:1056280041BB97F7FF1F83C7E7A60547638AE700D3
:105638000947638BE702FD57A300F4006FF0CFD151
:1056480003473500834725006C1022075D8F834789
:105658004500C2075D8F834755000145E207D98F92
:105668003ED6712C6FF00FCF8347150017F7FF1F39
:10567800A30FF7A217F7FF1F034767A3E3FDE7FA96
:105688002145EF10E06B03C5340083C724002205D1
:105698005D8D83C74400C207C98F03C554006205E6
:1056A8005D8DEF10202A6FF0EFCAFD57416523008A
:1056B800F40005056FE01FE1834605001306F007B7
:1056C8006393C606011122CC4AC84EC652C456C2BC
:1056D80006CE26CA2380D50083441500370402006D
:1056E800416A1309250093892500A38095000904C0
:1056F800FD5A7D1AFD14639C54012285F2406244D0
:10570800D2444249B249224A924A05618280CE85F2
:105718004A85EFE05FD8935705012A943375450110
:105728003E99AA99C1BF6FE01FD7411106C697F7E6
:10573800FF1F938727961307400698CB37450F001E
:105748000547239CE70013050524238007002386CB
:10575800070023AA0700238D0700EFE03FCFB240E0
:1057680041016FE01FC641C5B7160040411113063D
:10577800F5FF0148014797F8FF1F9388A891138305
:10578800C60A896F056F856E7D5E630D08047D18F6
:1057980093771700A9C783A7860AB3E7F70123A45D
:1057A800F60A83A748002320D3013EC6B247FD1757
:1057B8003EC6B247E5FF83A7860A03A54800B3E7BC
:1057C800E70123A4F60A2AC4A247FD173EC4A2474C
:1057D800E5FF7D160583E31AC6FB4101828023207D
:1057E800F301C1B703C705001D48850555B7828079
:1057F8009376F503411199E29306000413750508A1
:105808003DCDB71800402148814517F5FF1F130506
:105818006588138FC80A856E056E2320CF015C4109
:105828003EC29247FD173EC29247E5FF83A7480A4A
:1058380003A7880AB5833367D70123A4E80A03239B
:10584800450013F717001AC08247FD173EC082476C
:10585800E5FF8581931777007D18DD8DFD166309B7
:105868000800C5FEB3D705012300F6004101828078
:105878002300B6000506FDDA8145214879BF3718AF
:105888000040938E150003C60500214717F5FF1F3A
:10589800130545809305C80A096E056385689377E3
:1058A8001600A9C78327880AB3E7C7012324F80A83
:1058B80023A015015C413EC6B247FD173EC6B2475C
:1058C800E5FF8327880AB3E767002324F80A5C41C9
:1058D8003EC4A247FD173EC4A247E5FF7D170582D7
:1058E800FD1601CBC1D693771600CDFF23A0C501C5
:1058F800C1B7ADDE03C60E002147850E4DB717E7C9
:10590800FF1F034737799376150063000722B717FF
:10591800004003A6870A096885683366060123A440
:10592800C70A23A6170B03A7870A3367170123A4FF
:10593800E70A6399066223A6070B37170040056636
:105948002326C70A8326870A9357150013F81700DA
:10595800D18E2324D70A630608648326870A09663A
:10596800D18E2324D70A3717004005682326070B52
:105978008326870A1356250093781600B3E6060196
:105988002324D70AB297638E085E8326870A09669E
:10599800D18E2324D70A3717004005662326C70A65
:1059A8008326870A1358350093781800D18E23244C
:1059B800D70AAA976383085C8326870A0966D18E6B
:1059C8002324D70A3717004005662326C70A8326EB
:1059D800870AC297858BD18E2324D70A638B0758F1
:1059E8008327870A8966D58F2324F70AB7170040CB
:1059F800056623A6C70A03A7870A0968518F23A447
:105A0800E70A23A6070B23A6C70A03A7870A97E670
:105A1800FF1F83C6A669518F23A4E70A83A8870AB4
:105A28003687B3E8080123A4170B23A6C70A83A85F
:105A3800870A33E6C80023A4C70A03A6870A336681
:105A4800060123A4C70A03A6070A79787D183376C6
:105A5800060123A0C70A8DC2371600401303C60AE1
:105A680085680568232003018327860A7D17B3E725
:105A780017012324F60A7DF7B7170040056623A609
:105A8800C70A03A8470A03A7870A054E1358D80070
:105A9800518F23A4E70A23A6C70A03A7470A83A8A6
:105AA800870A137818003183B3E8C80023A4170BBA
:105AB80023A6C70A83A8470A03A3870A098B93D892
:105AC800B80093F848003366C3003367170123A46E
