:040000006F005060DD
:100004000000000000000000900000206A050020AD
:10001400A9BDF9F5900000200000000000000000D8
:10002400900000209000002000000000000000006C
:10003400900000200000000090000020000000005C
:1000440090000020900000209000002090000020EC
:1000540090000020900000205A06002000000000BC
:100064009000002090000020920000204201002017
:1000740090000020900000209000002090000020BC
:1000840090000020F2010020900000209000002049
:1000940001A037370040834747009946BD8B6388EA
:1000A400D702011122CE26CC3147639AE7003734B8
:1000B4000040A1448347A400B9C701468DA011475D
:1000C4006393E7040146B7370040214721A88347DB
:1000D40057007300203083C587003400B296238014
:1000E400B600050683C6A70081CEE316E6FE2146C8
:1000F4002C00138581E8975000E0E78040F421A0AC
:100104001376F60F75F67244E244056173002030ED
:10011400034784003C00B2972380E7000506834729
:10012400A40081CFE31696FE21462C00138581E8B6
:10013400975000E0E780A0F0B5BF1376F60F3DDAE4
:10014400EDB737370040834747409946BD8B6388F6
:10015400D702011122CE26CC3147639AE700373407
:100164000040A1448347A440B9C701468DA011476C
:100174006393E7040146B7370040214721A883472A
:1001840057407300203083C587403400B2962380E3
:10019400B600050683C6A74081CEE316E6FE2146D7
:1001A4002C00138581E7975000E0E78040E921A007
:1001B4001376F60F75F67244E2440561730020303D
:1001C400034784403C00B2972380E7000506834739
:1001D400A44081CFE31696FE21462C00138581E7C7
:1001E400975000E0E780A0E5B5BF1376F60F3DDA3F
:1001F400EDB737470040834747809946BD8B6388F6
:10020400D702011122CE26CC3147639AE700374446
:100214000040A1448347A480B9C701468DA011477B
:100224006393E7040146B7470040214721A8834769
:1002340057807300203083C587803400B2962380B2
:10024400B600050683C6A78081CEE316E6FE2146E6
:100254002C00138581E6975000E0E78040DE21A062
:100264001376F60F75F67244E2440561730020308C
:10027400034784803C00B2972380E7000506834748
:10028400A48081CFE31696FE21462C00138581E6D7
:10029400975000E0E780A0DAB5BF1376F60F3DDA99
:1002A400EDB773270080218B9387418601CB732799
:1002B400008098C398435D9B731007800100010080
:1002C40037170040930670052300D704930680FA7D
:1002D4002300D704010001008346B70493F6F60D0A
:1002E400A305D70423000704F32600809843218B39
:1002F400558F7310078023A2018601000100137734
:100304000502630C071073270080218B01CB732730
:10031400008098C398435D9B73100780010001001F
:1003240037170040930670052300D704930680FA1C
:100334002300D70401000100B70614007D89558D00
:1003440008C7010001000100010023000704F3268F
:1003540000809843218B558F7310078023A2018658
:100364000100010073270080218B01CB73270080DB
:1003740098C398435D9B73100780010001003717F1
:100384000040930670052300D704930680FA2300E7
:10039400D7040100010001000100B7260040130644
:1003A4001005A383C68023000704F3260080984326
:1003B400218B558F7310078023A201860100010051
:1003C40073270080218B01CB7327008098C3984347
:1003D4005D9B7310078001000100371700409306EE
:1003E40070052300D704930680FA2300D704010084
:1003F40001008346B70493E60608A305D704230047
:100404000704732700809C43A18BD98F73900780C6
:1004140023A201860100010082801377050445C3ED
:1004240073270080218B01CB7327008098C39843E6
:100434005D9B73100780010001003717004093068D
:1004440070052300D704930680FA2300D704010023
:100454000100B7061400938606047D89558D08C7EC
:10046400010001000100010023000704F3260080BD
:100474009843218B558F7310078023A201860100B6
:10048400010073270080218B01CB7327008098C360
:1004940098435D9B731007800100010037170040EB
:1004A400930670052300D704930680FA2300D7042B
:1004B40001000100B726004013062005DDB57327AF
:1004C4000080218B01CB7327008098C398435D9BE8
:1004D4007310078001000100371700409306700570
:1004E4002300D704930680FA2300D70401000100F7
:1004F400144793E6060C14C77DB5411181460146A5
:100504008145114506C67923F3270080A18B138703
:10051400418681CBF32700801CC31C43DD9B739071
:10052400078001000100B71700409306700523807F
:10053400D704930680FA2380D7040100010083C600
:10054400670493E616002383D70423800704F32665
:1005540000801C43A18BD58F7390078023A2018652
:1005640001000100B240410182808146014681457B
:1005740011450D2373270080218B9387418601CB7E
:100584007327008098C398435D9B73100780010014
:10059400010037170040930670052300D704930623
:1005A40080FA2300D70401000100FD562316D70268
:1005B40023000704F32600809843218B558F731082
:1005C400078023A201860100010073270080218B8C
:1005D40001CB7327008098C398435D9B73100780F9
:1005E4000100010037170040930670052300D7046B
:1005F400930680FA2300D7040100010083466704B0
:1006040093E616002303D70423000704732700800E
:100614009C43A18BD98F7390078023A2018601008C
:10062400010001A0BD473305F50201007D1575FDEC
:100634008280411122C426C206C6AA8401446317DB
:100644009400B2402244924441018280050413057F
:10065400803E4204C13F4180DDB77971A3070100A8
:1006640022D626D44AD24ED052CE37840040834775
:10067400640093F7F70FA307F1008347F100898B18
:10068400638C0730834774001307000393F7070351
:10069400638FE7068344740083477400BD8893F72F
:1006A40007036382071E13070002639DE70413898F
:1006B400815163910412834749189D83F9CF83477D
:1006C400240293C707042301F4028347240293F707
:1006D400C70F93E727002301F402032749010346C8
:1006E4004900832789016373E60A118F3E96232A02
:1006F400E900232CC900930500080145975000E048
:10070400E780006EB787004009472383E7003784FA
:10071400004083477400E207E18763D1070693072B
:1007240020FC2301F4029384815183A5840C214687
:100734001385C169970000E0E78000788387441837
:1007440063CA0700230004028347240293F7C70FF8
:100754002301F40237840040834724029385C1694E
:10076400014593F7370F93E787002301F40297506D
:1007740000E0E780E03C89472303F4003254A254AC
:1007840012598259724A4561730020303306F700CA
:10079400232CC90023A60152B9BF03475918954712
:1007A400631BF700034734008347090013770708E6
:1007B400D98FA301F4008347240293F7C70F93E76B
:1007C40027002301F4028347240293F7370F230100
:1007D400F4020DBF91476398F4008347240393C741
:1007E40007042309F402154433D484029307000355
:1007F4003304F402939724003E94B7870040938710
:1008040027023E948347040093F7C70F93E727001A
:100814002300F400E147B387F402CA97D84B03C618
:100824004700944F6379E6048C4B118FB296B295CE
:100834008CCBD8CB94CF88476376E602970000E050
:10084400E7808067E147B387F402CA9703C757007C
:100854008547630BF7008347040093F7C70F230012
:10086400F4004DB53A86D9BF8347040093F7C70F08
:1008740093E71700EDB73306D70090CF23AA0700FC
:1008840093E504089DBD154933D9240393972400A7
:100894003309E9023E99930724023E9983470900EC
:1008A40093F7370F93E787002300F900A9E88347FC
:1008B40024021389815993C707082301F40283444E
:1008C4008400832589040325090593F4F40F2686FF
:1008D400970000E0E780405E0326890583274905E9
:1008E40081452696858F0145232CC904232AF904C2
:1008F400975000E0E7800051E39604E0E9B58347B0
:10090400740093F70704E38F07DE91476398F400BC
:100914008347240393C707082309F402B7870040D9
:1009240083C98700E147B387F402138A815193F99D
:10093400F90F4E863E9A13040A082C44284897005F
:1009440000E0E78060573C48304C03474A0CCE97A0
:100954003CC87C484E9630CCB38737417CC863E3AF
:10096400E90081EBA6850145975000E0E7808049C6
:1009740051BB03475A0C85476309F70083470900B5
:1009840093F7370F2300F900B5BB8347090093F7AA
:10099400370F93E74700FDB78347F100858B85C385
:1009A400A30104000145975000E0E780E01283476B
:1009B400240293F7370F2301F402854775BB83475D
:1009C400F100918B89C783475400914775B38347DE
:1009D400F10093F7F70F4DB3230304801547230366
:1009E400E48001002302A480828083076480E3CE34
:1009F40007FE23030480828083076480E3CE07FE1E
:100A040003454480828083076480E3CE07FE23028B
:100A1400A4808280411126C44AC24EC006C6137700
:100A2400F50BAD47AA892E8995446306F70019454D
:100A34006537653F8D444E854537FD59FD146398F0
:100A44003401B240A24412498249410182801355C3
:100A540009011375F50F453F2209CDB7011126CCC5
:100A640006CEB704080051371545BD3771376937CD
:100A74002AC6A53F32459377150089EB1365150007
:100A84001375F50FF240E24405618280FD14E9FC20
:100A94000145CDBF397126DC4ADA4ED852D656D438
:100AA4005AD25ED006DE62CE66CCB7E700E07D5750
:100AB40083AA070022C603AA470023A0E71823A29B
:100AC400E718B7170040130770052380E7041307DE
:100AD40080FA2380E70483C74704930B75FFB68429
:100AE400E20793FBFB0F8546AA892E8B32893724B4
:100AF4000040E187015763FA76016308D50089460F
:100B0400130700026313D5000157D98F93F7F70F2A
:100B1400B71C00402382FC0411472303E48013051F
:100B2400F00F5D3D094CD135636D7C11B7050700AD
:100B3400DA9537870700795563F2E504B3879500A2
:100B4400636EF702370B0800A94733EB650163991D
:100B5400F90689E48144513D26850DA0DA850945CD
:100B6400553D05090345F9FFFD14050B693D81C495
:100B74009377FB0FFDF7DD3569FD7D55B717004011
:100B8400130770052380E704130780FA2380E70422
:100B940003C74704418B2382E704F250B7E700E020
:100BA40023A0571123A24711E25432445259C25987
:100BB400325AA25A125B825B724CE24C21618280EF
:100BC400A5476395F90685691309F00FB3069900E3
:100BD400B3742B01B6941349F9FFB3749900856B70
:100BE40033796901416B9387F9FFB3F7270199E3DF
:100BF40063FC340193D94900C147E3E637FF99BF49
:100C04000569C1697D19D9B71305800D6388690128
:100C1400130500026384790113051008CA85DD3BBE
:100C2400353D21DD4E99B3843441D9B7DA852D455C
:100C3400D533CA94E30099F205097D3BA30FA9FEBD
:100C4400D5BF9387F9FF93F7F70F6361FC0C83C754
:100C54001C0413073008631FF70437070800636B8D
:100C6400EB04B3079B00B706100063F5D704334BBE
:100C7400EB0089476393F9068980D549E38C04EC3A
:100C8400DA850945413B11090327C9FF9147232010
:100C9400E48003076480E34E07FE23033481FD17D9
:100CA400EDFBFD14110B81C49377FB0FE9FF7D333A
:100CB40071F5E1B5B717004003C75704B70708003B
:100CC4001377070219E3B78707007955E378FBEA3E
:100CD40033079B00E3FFE7F855B58547E382F9F254
:100CE400DA852D45053B9389F4FFE38504E6293332
:100CF40093F7390091EB83260480032709009307B7
:100D04004900E39AE6E43E89CE84F1BFB547639691
:100D1400F9001305900BC93135BDB1471305B00A6D
:100D2400E38BF9FE99476391F904B7050800B365AD
:100D3400BB002D45C53181448D4BA149753963965E
:100D44007401832704802320F9008504E39834FF89
:100D54008327048013172B01635507002312F9001E
:100D6400D5BB2322F900FDB39D476399F902814560
:100D74001305B0044531BD44232009002322090092
:100D8400FD599D3993F77400CA9703C70700FD14F2
:100D9400398D2380A700E39634FF6DBBA14763928E
:100DA400F9046D398144630D0B008D479304C0032E
:100DB4006308FB009304000563048B01930440045F
:100DC4001375C507E30895D81945393139390545EF
:100DD400213126850D3909453D314931E31C05D6BC
:100DE40069BB91476399F90013056006F536F53E32
:100DF400130590090DB7E38F09D4F154A9BB000082
:100E04009711002093814181176100201301419FB4
:100E14001305400097F5FF1F9385851E17060020D4
:100E2400130606FE63FAC5008322050023A05500BD
:100E340011059105E3EAC5FE176500001305458D0C
:100E4400970500209385C5FB1386818463FAC5004A
:100E54008322050023A0550011059105E3EAC5FE90
:100E64001385818497150020938545216377B50008
:100E7400232005001105E36DB5FEFD42739002BC0D
:100E84008D427390428089629382828873A002307B
:100E940097F2FF1F9382C21693E23200739052308E
:100EA400970200009382620373901234730020301F
:100EB4002A8309CA83830500230073007D16050372
:100EC40085056DFA82802A8311C62300B3007D163E
:100ED400050365FE82804111154506C6EF00605F7B
:100EE4001305800497F0FF1FE780A03B4D2BD92901
:100EF40025232924F52C9D2BF5BF17550000130538
:100F0400E5708280175500001305056A82809147B9
:100F1400014563E9B7008A05975700009387875A0C
:100F2400AE9788438280238401848280411106C65F
:100F340031239387A18503D7070003D707001386BE
:100F440081C6938661851A073297834507001D473A
:100F5400639BE50205472384E18603D7060083D615
:100F64004185158F42074183A1466304D70483D783
:100F74000700B240930600049A073E968545014552
:100F840041016F50404403D70700050742074183DE
:100F94002390E70083D5070021476394E500239D50
:100FA400018403D706000507420741832390E60026
:100FB4006DB7B24085472389F184410182800111D4
:100FC40006CE22CC32C62E8495293246938581A141
:100FD4001385818CEF402006A2856244F24093067B
:100FE4000004138681A1014505616F50C03D9D47F2
:100FF400639BF504239C0184239D0184239A01842B
:10100400239B0184239701842398018423950184DD
:1010140023960184238901844111854793060004A2
:10102400138681C68545014506C6A384F184EF5025
:101034008039B24093060004138681A1914501458D
:1010440041016F504038828083D7E184850723971C
:10105400F18483D6E184A1471387E1846394F60085
:101064002397018483D7A18485072395F18483D6AC
:10107400C18483D7A1846385F6028357070083560E
:101084000700138781A59A078606369783560700BB
:10109400138681A63E969305100801456F50201FC4
:1010A4008547A384F1848280411122C43284A285BD
:1010B4001D461385018206C6E53B0347140083479A
:1010C40004000345340022075D8F83472400620532
:1010D400C207D98F5D8D09C52244B2404101B9AB25
:1010E400B2402244410182804111328593850182BC
:1010F4001D4606C6753BB2404101828001118146FE
:10110400300081451D4506CE97000020E780809879
:1011140039E1170700201307A7CE1756000013065E
:10112400A635A1453C00AA9783C707000505090712
:1011340093D64700BD8BB296B29783C6060083C789
:101144000700230FD7FEA30FF7FEE31DB5FC970797
:101154000020238F07CA13060010970500209385EB
:1011640025D91385818CEF30906AEF1060759755FF
:1011740000009385A5310145EF40904A9385C18ACB
:101184000145EF40B04E938581810145EF403051D8
:10119400938501810145EF40905093850189014574
:1011A400EF40305AAA850145EF40504C9385418762
:1011B4000145EF401059AA850145EF40304B970592
:1011C40000209385E5C50145EF40704D970500204B
:1011D400938585C40145EF40904CF240170600000A
:1011E400130626E1B7850040014505616F40B05103
:1011F4001D71A6CACAC8CEC6D2C4D6C286CEA2CCD7
:10120400DAC05EDE1389618593844185938981A662
:10121400138A81C6938A81A50357090083D70400E2
:10122400630EF70083D7C18403D7A184998FC207C3
:10123400C1831D47938BC1846379F70613060002AB
:101244000C081385818CEF30B06911C59315050125
:10125400C181080859290145EF407049630205140A
:1012640083C78184639E0712130600049385819DBE
:10127400138581E8EF30D066630405122AC67D2AFF
:101284006644B246F640D6444649B649264A964A8A
:10129400064BF25B85472384F1841386819D930575
:1012A4004008014525616F40907E138481858357F2
:1012B4000400835704000355040083D501859A056F
:1012C4001A05CE955295EF10005983D701858607EC
:1012D400138B0185D6972390A70083570B00835760
:1012E4000B00835704008507C207C1832310F40051
:1012F40003570400A1476314F700239C018483D798
:1013040004008507C207C1832390F40083C72185A5
:101314009DC78357090003D70400998FC207C1836F
:101324002147638EE7002389018403D6A1851A0629
:1013340093060004529685450145EF50C008835733
:101344000B008507C207C1832310FB0003570B0062
:10135400A1476314F7002398018483D70B00850702
:10136400C207C1832390FB0083C79184E38607EA05
:1013740003D70B0083D7A184E300F7EAA384018495
:1013840003D6E18483D7E1848607D69783D6070002
:101394001A064E96930510080145EF40506FADBDF7
:1013A400F6406644D6444649B649264A964A064B10
:1013B400F25B25618280B7E700E03707400023A095
:1013C400E71082804111C145014506C63924B7178B
:1013D40000409387870C98438D45130500081367D5
:1013E400070898C3A12A85454145892A4124014516
:1013F4007D2495450545C924B240B7E700E0370789
:10140400000423A0E71013060040938581E91385A7
:1014140081E841016F30B03FB71700409387870CD4
:1014240098434111856606C6558F98C38D45056559
:101434003122B240238E018441018280B7170040DB
:101444009387C70C98434111856606C6558F98C388
:101454004120B7C72D009387076C3E9523A0A18632
:10146400B2408547238EF1844101828083C7C185C0
:1014740095C7411106C6A92883A701861D8D634C13
:101484000500B71700409387870C98438566558FEE
:1014940098C3238E0184B240410182808280B7F7D1
:1014A40000E0795690CBFD56D4CB37E600E0856555
:1014B4002320B6101307F00298C39843B7060080A0
:1014C400F516758F98C32320B61801000100828099
:1014D4008DA2B717004083C7E704120593F7F708F6
:1014E400C98F93F7F70F73270080218B938641866A
:1014F40001CB7327008098C298425D9B73100780CC
:101504000100010037170040130670052300C704CB
:10151400130680FA2300C704010001002307F7041F
:1015240023000704732700809C42A18BD98F7390FA
:10153400078023A20186010001008280914763EAAB
:10154400B708975700009387A70D8A05BE95984161
:101554003E97B71700409387470D0287944313457E
:10156400F5FF37170040E98E94C39306070D9C429C
:10157400E98F9CC29307070C9843798D88C38280B6
:1015840090439346F5FF37170040758E90C31306BA
:10159400070D1C42C98F1CC29307070C9843F98E90
:1015A40094C38280944337170040C98E94C3930632
:1015B400070D9C421345F5FF65BF94431347F5FFA0
:1015C400758F98C3B71700409387070C9843498FCA
:1015D40098C382809843498FEDB7371700408357EB
:1015E400870109C5CD8F231CF700828093C5F5FFC1
:1015F400ED8FD5BFB71700409847931707011377AE
:101604000704C18309EBFD8B3755E80113050580F9
:101614003345F502828013F7070C93060004631622
:10162400D700FD8B37459C1CD5B72165130505D024
:101634008280B7F700E08847CC478280411122C4FA
:1016440006C62A84453F2947B307E502B2408D8385
:10165400B3D7870222449507B3D7E7023737004050
:10166400C207C1832316F7004101828071654111CD
:101674001305052006C6D937B7370040130770F89D
:101684002381E7000D47A381E70013070004A3802B
:10169400E70005472387E700B240410182803737DE
:1016A4000040834727001A0593F7F703C98F93F780
:1016B400F70F2301F700828019CDB737004003C725
:1016C40017004D8FA380E70003C707001367870047
:1016D4002380E7008280373700408347170093C593
:1016E400F5FFED8FA300F7008280AA95C205C181A2
:1016F40037370040A1463736004093170501C183B0
:101704006393B70082800348B700E30BD8FE834796
:10171400050005052304F600CDB7B717004013866E
:10172400470B1842F5769386F67F758F18C2138699
:10173400070B18428D6693860680558F18C29387CF
:10174400070A9843C1769386F63F758F98C38280C3
:10175400B77772009387F70D63E8A702B7C7C9018B
:101764009387F737AA9733D5A702114785476306AE
:10177400E50079158D47B357F50281461387812912
:10178400A300D7005CC3828085468547C5BF8347D5
:1017940005007D4793C607086364D7006F30500681
:1017A4005971A2D41387150086D6A6D2CAD0CECE3C
:1017B400D2CCD6CADAC8DEC6E2C4E6C2EAC06EDE5D
:1017C4003AC62380F50075472E846374F7006F10C2
:1017D4006007975600009386E6E51397270036972F
:1017E4001843AA8936970287034715009306000F0A
:1017F400630BD70863EEE6028D46630BD70491466C
:10180400630AD706370702000907A300F4003385EB
:10181400E700B650265496540659F649664AD64A05
:10182400464BB64B264C964C064DF25D6561828064
:101834009306E00F630CD7041306F00F930600041D
:10184400E312C7FCA301F4002301D40089475DBF60
:1018540017F7FF1F1307C75A93872500938635018F
:101864000306070085070507A38FC7FEE39AF6FE64
:10187400C54749BF19469385018413052400EFF039
:101884002FE3994741B7CD4685476DBFA1472381D3
:10189400F500854785BF8347150093B72700FD17DB
:1018A40093F7F70FA300F4003705020039A8834724
:1018B40015000547637DF70009476381E706814703
:1018C40093F7F70FA300F4004165050545A8238CA1
:1018D400E128B71700401386870A18428D6593865E
:1018E400070A4D8F18C298424D8F98C20C427D77DB
:1018F4001307F77FF98D0CC29385470B90419387AB
:10190400070B798E90C190438565938505804D8E34
:1019140090C39C42F98F9CC285475DB7238CF12804
:10192400B71700401386870A18429D654D8F18C269
:101934001387070A1443CD8E14C30C42FD76938695
:10194400F67FF58D0CC29385470B90419387070B67
:10195400F18E94C19443056613060680D18E94C318
:101964001C43DD769386F67FF58F1CC3894789BFB8
:10197400238C01285D330545A3000400C167850756
:101984003E9541BD8347250003471500A207D98F23
:101994005147B387E7023ED6B257FD173ED6B2573A
:1019A400E5FF09B723810500A38005000945F9B7C0
:1019B40083C6490083C7390003471500A206DD8E9C
:1019C40083C759000345250083C86900C207D58F22
:1019D400E20813761500B3E8F80009CE93771700F0
:1019E40063850712B71700409387870A9443856578
:1019F400CD8E94C39375250091CD93772700638C86
:101A04000710B71700409387870A94430968B3E621
:101A1400060194C313784500630F0800935627000A
:101A2400B7170040858A9387870AE5CE94431163EC
:101A3400B3E6660094C313138501135383416350C3
:101A4400030293577700E5C7B71700409387070A47
:101A540094437D7E130EFE7FB3F6C60194C3638464
:101A6400080613750502135E1700935E2700135FC3
:101A7400570093587700B7160040854F01CA9387E3
:101A8400460A9C43B183858BE31AF7FE81C9938789
:101A9400460A9C43B583858BE312FEFE6309080066
:101AA4009387460A9C43B983858BE399FEFC19C14D
:101AB400E316FFFD635903009387460A9C43AD83F5
:101AC400858BE39DF8FA371700401307470A0C4348
:101AD4001C43104314431843B183898B1183137738
:101AE4000708D98F13D7C500058BD98F1357C600A4
:101AF400118BD98F13D7C600218BD98F93E7070297
:101B0400A300F40037050600C9B3B7170040856683
:101B140023A6D70AC5B5B7170040896623A6D70AF6
:101B2400D5BD944371737D13B3F6660021B7856602
:101B3400B71700409386068023A6D70A9387070A1F
:101B440003AE0700B366DE0011BF034725008347D9
:101B5400150022075D8F8347350003454500C20702
:101B6400D98F62055D8D9307F00F19C1D536814772
:101B7400A300F4003705040089BB834415009305D2
:101B8400250099E0930400102685EF00F056138594
:101B940074000D81A30004000505420513651500BA
:101BA400F1BB834715009386812913F73700898396
:101BB400858B0507A38CF600238CE600814719B3B7
:101BC400A380050003471500797B938A25009306BB
:101BD4002500054C8547371A004089697D1B930C05
:101BE400F7FF11E7139507013365850141BB03C571
:101BF4000600938B16001377F50319E3130700040B
:101C04001D071359370013178501618713841700C3
:101C14006353070413078A0A1C4393040A0A56866B
:101C2400B3E737011CC39C40DE85B3F767019CC052
:101C3400EF00F05463880C00A287CA9A4A9C668716
:101C4400DE8671BF9307CA0A23A037019C40B3E71D
:101C540037019CC0D5B793040A0A23263A0B9C404B
:101C64005686DE85B3E737019CC0130DCA0AEF0020
:101C7400105163980C0023203D019C40B3E73701C9
:101C84009CC0CA9BB30789005DBFA3800500034ABB
:101C94001500938A25009307250085490544631799
:101CA4000A001315040133653501C9B903C90700D6
:101CB400138B17009374F90399E0930400044A8585
:101CC4009D045686DA858D80EF10303262091387C1
:101CD400140013598941B3079B003A9463540900D3
:101CE400A69AA6997D1A65BF834715001387812993
:101CF400BA85230DF7003A85014681460505890515
:101D0400636EF600938581290146050789056362A0
:101D1400F602A30004001385170041B53388C900F7
:101D2400034828000506A30D05012391D502C29698
:101D3400F1B70345B7010506898E2399D502F1B79A
:101D44009387812983C6070009476391E604034703
:101D54001500A38DE70083C7A7016379F70239450E
:101D6400EF20A01AEF10D039935785002301A40067
:101D7400A301F400935705016181A302A400416506
:101D8400A30004002302F4001505CDBE9307F00F51
:101D940015BE83471500138781292306F70083475F
:101DA400350083462500A207D58F2318F700834703
:101DB400550083464500A207D58F2319F700A300D9
:101DC40004003705050011B69384812903CB040070
:101DD400930715003ECA85476306FB0289476304DF
:101DE400FB3683462500930735006395066C5247FE
:101DF400A3000400230104003385E7404205136572
:101E04002500ADBE2384018683472500930B35004E
:101E1400938C35003EC4014C014D014502CC894AE6
:101E240093898186054AA24785EB0546631AC52C2A
:101E340063070D2E83D404018949138981866C10AC
:101E44003945EF001045631B352989C483460900D1
:101E5400FD14F5D609456DA403C90B0093871B0037
:101E64003EC813762900630B061A03D604016306E1
:101E74000D0693751901B28D639045036C104A8564
:101E8400EF003041631A550363860D0003C6090051
:101E9400FD1D6DD6094561A8328D6C103945EF00E2
:101EA400503F631A5501E3070DFE03C609007D1D6B
:101EB4006DD6014DC5B7014D631B45073256910CD4
:101EC40093558600238ECCFEA38EBCFE935506014B
:101ED4006182238FBCFEA38FCCFE1376090183DDC0
:101EE40004019378190045CA83C52B0003C61B005F
:101EF400A205D18D03C63B0042064D8E83C54B001F
:101F0400E205B3E7C5003ECE93875B003EC883DBA2
:101F140024016382080281454A85EF009037631AE1
:101F2400550163860D0083C70900FD1DEDD7C24B23
:101F34004DA2E31E45FF83DD04016C104A85EF00CA
:101F44005035AA876313550363860D0083C50900C2
:101F5400FD1DE5D5D048B25572476D8E6309C702A1
:101F640093E7070113F5F70FD9B703A84401B25556
:101F7400B3F50501E31045FFF2476388B7006386B4
:101F84000B0083C70900FD1BDDD7DA87E1B7E31037
:101F940045FB014C15A863840804E31C0DFE938BD8
:101FA400818681454A85EF00D02E09466319C50014
:101FB400638F0D0E83C70B00FD1DE5D78DBF8547CD
:101FC400E317F5F6014C054DE24785073ECC83C780
:101FD4000900B1FFA247C24BFD173EC4A9B56C105E
:101FE4004A85EF00102B63195501E3820DF483C772
:101FF4000900FD1DEDD725BFE31B45F3B257910C36
:1020040013D68700238EFCFEA38ECCFE13D60701C5
:10201400E183238FCCFEA38FFCFEA5BF63020D04D6
:1020240083DD04016C103945EF00B02663195501B6
:10203400E38F0DEE03C60900FD1D6DD6CDBDE3187B
:1020440045EFB256910C13D68600238EDCFEA38E88
:10205400CCFE13D60601E182238FCCFEA38FDCFED7
:1020640083C62B0003C61B0093875B00A206D18E98
:1020740003C63B003EC8937709024206558E83C6C9
:102084004B00E206D18E36D689C7D4C8014D05452A
:1020940025BF03DD04016C104A85EF00901F631A0D
:1020A4005501E3060DE883C709007D1DEDD7014DF9
:1020B400BDBDE31E45FF054C014D39B703C60B00FA
:1020C4009375260091C9418A01EA850BA247FD1741
:1020D4003EC4A247E5F791BB950BCDBF854663117E
:1020E400D502B256910C13D68600238EDCFEA38E45
:1020F400CCFE13D60601E182238FCCFEA38FDCFE37
:10210400E2472301A400A300F400D2473385FB4037
:10211400B24742053387FC40598D6FF03F86E30197
:102124000CFE83D40401894913898186814539458C
:10213400EF003016E31635FDE38E04D08346090024
:10214400FD14EDD601BB238401868347150003C724
:10215400A40113893500A38DF40063F8E734834C9C
:102164002500930D35008146014D014502C8894B78
:10217400938A8186054C63900C04B689854663195D
:10218400D52EA9466385D9002945EF10105883D46C
:102194000401094A93898186630C0D2E6C1039451C
:1021A400EF2060316314452B89C403C70900FD1473
:1021B40075D7094575AC03CA0D0093871D003EC44D
:1021C40093791A0013762A00A9096300061A631189
:1021D4000D0613760A016307061483C52D0003C692
:1021E4001D00A205D18D03C63D0042064D8E83C558
:1021F4004D00E205B3E7C5003ECC93875D003EC4C5
:1022040083DD24016385D9004E85EF10105083D7F8
:102214000401814552853ECEEF20E0296314750BFD
:10222400F24789C783C60A00FD17E5D6A24D31A43B
:1022340003D604016397D90293750A019DE16C10DA
:10224400528536CE32CCEF200027F2466315750551
:10225400624609C683C50A007D16F5D1B6890945CB
:10226400F1B7A9476387F600294532CCEF10F0494E
:102274006246328D6C103945EF20E023631B7501F3
:1022840063090D5C83C60A007D1DEDD6A946014D88
:10229400F1B7A946014D6317851B32569355860045
:1022A4002300C900A300B9009355060161822301EC
:1022B400B900A301C90013760A019305490025C298
:1022C4002E8921BFE31485F783D604016C1052854F
:1022D40036CEEF20401EAA87631A7501F24689C6DE
:1022E40083C70A00FD16FDD3DA8739A8D048B25651
:1022F400F18E631B850162476308D70063860D0076
:1023040083C60A00FD1DE9D2D44832566247F18ED5
:102314006306D71093E7070113F5F70F01BF6312A4
:102324000D102E89638536014E85EF10103E03DDB6
:10233400040181455285EF200018631A7501E307F3
:102344000DEE83C70A007D1DEDD7014DC5B5E31E13
:1023540085FF054DC24785073EC883C70A00EDE7E0
:10236400A24DFD1CCE86054539B5630B0D04A94766
:102374006385F6002945EF10503983D604016C10AB
:10238400394536CCEF202013631A7501E24689C61D
:1023940003C60A00FD1665D6A94949BDE31E85FF9B
:1023A4003257110993568700230EE9FEA30ED9FE76
:1023B400935607016183230FD9FEA30FE9FEA946B3
:1023C40003C72D0003C61D0093875D002207518FAC
:1023D40003C63D003EC493770A024206598E03C7E2
:1023E4004D006207518F3AD689C7D8C8B689014DC6
:1023F40095B76385D9004E85EF10303103DD0401B4
:102404006C105285EF20200B63197501E3000DE277
:1024140083C70A007D1DEDD70DBF014DE30C85F385
:1024240031B5B6892E893DB783C60D0013F6260053
:1024340001CAC18A91E6850DFD1CE3970CFE3DBBE4
:10244400950DDDBFB689DDB30545CDB305476311F1
:10245400E5023257110993568700230EE9FEA30EB5
:10246400D9FE935607016183230FD9FEA30FE9FE1A
:10247400C2472301A400A300F400D2473385FD40E2
:10248400B24742053309F940336525016FF00FCF98
:1024940081453945EF202002E31C45FDE38B04D040
:1024A40003C70900FD146DD729B3930D250002C895
:1024B40001457DBF03C707001376270011C6418B72
:1024C40001E78507FD1615B29507EDBF138981292C
:1024D400834709000547638DE70009476386E716CC
:1024E400A380050023810500A38105008D445DA818
:1024F40023840186834735000347250093844500E0
:10250400A207B3EBE700638F0B12834A4500035A1B
:10251400090193F72A00B1E7130C5500014A894CCD
:10252400138D8186854D83471C0003470C00035B94
:102534000901A207D98F03472C00110C42075D8FB4
:102544008347FCFFE207D98F3ED66C105685912352
:102554006314950D630E0B0283470D007D1BF5D7A5
:1025640005A893F71A00DDC3094C138B81868145B6
:1025740056850523631A8501630C0A0083470B0003
:102584007D1AF5D7014A29A08547014A6300F50859
:10259400A3004401135A8A0023014401B247A30152
:1025A400A4009D8C83C74900898B63840720B707E7
:1025B400040033E597006FF06FBCE31B85FDB25751
:1025C4009104050A13D78700A38EE4FE13D70701ED
:1025D400238EF4FE238FE4FEE183A38FF4FEE389CC
:1025E4000BFAFD1B63960B0093F71A0091C3B94ACB
:1025F400035B09016C1056856929E310A5FDE30905
:102604000BF883C70C007D1BF5D759B7014A094D58
:10261400938C8186054CF1B7E31CB5F7050AE39466
:102624004BF103590901094B938A81868145394548
:102634008D21E31F65F5E30D09F483C70A007D19B5
:10264400F5D7B9B701453DBF2384018683471500FB
:102654000347A90193844500A30DF90063F9E71426
:10266400034A350083472500220A336AFA006300CF
:102674000A14834A450013FB1A00290B5A85EF10EC
:10268400D00893F72A00B9E7138C5900814D894C7F
:10269400138D818683471C0003470C00835B09016B
:1026A400A207D98F03472C00110C42075D8F834783
:1026B400FCFFE207D98F3ED66C105685EF10B05F51
:1026C40085466319950B638B0B0683470D00FD1B31
:1026D400E5D7ADA0835D0901094C938B81868145C3
:1026E4005685EF10505D631A850163890D0483C715
:1026F4000B00FD1DEDD7814D91A08547814D631FD2
:10270400F502A94C894B138C8186054D7D1A6318FB
:102714000A0063059B012945EF10207FB94A8357BE
:1027240009016C1056853EC4EF10F058631F750103
:10273400A24789C703470C00FD1765D793D78D00BF
:10274400A300B4012301F40091BDE319A5FFB2571E
:102754009104850D13D78700A38EE4FE13D70701D8
:10276400238EF4FE238FE4FEE183A38FF4FEE31FA4
:102774000AF8E9B7E314D5FC850DE31DBAF1A947BE
:102784006305FB002945EF10407803590901894A84
:10279400138A818681453945EF10F051E31055FBCA
:1027A400E30E09F883470A007D19EDD741BF0145BF
:1027B40099B783C7390003C72900A207D98F8507B2
:1027C400CA07C5BB9387812903C707008546630AE7
:1027D400D7008946630BD702FD57A300F4006FF0BE
:1027E4004FDE83473500034725006C10A207D98FBD
:1027F4000347450042075D8F834755000145E207C3
:10280400D98F3ED679246FF08FDB03471500A38D53
:10281400E70083C7A701E371F7FC2145EF10E06EE1
:1028240003C7390083C7290003C5590022075D8FF8
:1028340083C749006205C207D98F5D8DEF10E02D73
:102844006FF0EFD7FD5741652300F40005056FE0F5
:102854005FFCA94621B4834605001306F007639F75
:10286400C604011122CC4AC84EC652C406CE26CA9A
:102874002380D5008344150037040200416A1309FC
:10288400250093892500A380950009047D1A91E809
:10289400F24022856244D2444249B249224A056147
:1028A4008280CE854A85EFE09FEE935705012A94F6
:1028B400337545013E99AA99FD14D1BF6FE03FEDF0
:1028C400411106C6938781291307400637450F0037
:1028D40098CB1305052405472380070023860700AA
:1028E40023AA0700239CE700238D0700EFE05FE69F
:1028F400B24041016FE07FE251C1B716004041117F
:102904001306F5FF01480147938881291383C60AFA
:10291400896F056F856E7D5E630D08047D1893775E
:102924001700A9C783A7860AB3E7F70123A4F60A09
:1029340083A748002320D3013EC6B247FD173EC6F5
:10294400B247E5FF83A7860A03A54800B3E7E7017A
:1029540023A4F60A2AC4A247FD173EC4A247E5FFF2
:102964007D160583E31AC6FB410182802320F3010F
:10297400C1B703C705001D48850555B78280937606
:10298400F503411113750508BDE6930600042DC532
:102994001385812937180040856F056F138E86FFD4
:1029A400B6888145930EC80A23A0EE015C413EC25D
:1029B4009247FD173EC29247E5FF8327480A032743
:1029C400880AB5833367F7012324E80A0323450003
:1029D40013F717001AC08247FD173EC08247E5FF70
:1029E4009317770085811387F8FFDD8D6303EE0865
:1029F40041CBBA8855BF49FD3716004003C70500CF
:102A0400938E1500138581299305C60A096E056303
:102A14008568138886FF93771700A1C78327860AE2
:102A2400B3E7C7012324F60A23A015015C413EC67F
:102A3400B247FD173EC6B247E5FF8327860AB3E7D0
:102A440067002324F60A5C413EC4A247FD173EC436
:102A5400A247E5FFFD16058363880601CDFE41010B
:102A6400828023A0C501C9B7FDDA850E03C7FEFF26
:102A74004DB72300B6000506E3030EFEF28639BF08
:102A8400B387D8409D07B3D5F5002300B6004101B4
:102A940082801387812983471700AA86137615003D
:102AA40063800722B717004003A5870A8968056871
:102AB4003365150123A4A70A23A6070B03A5870AD8
:102AC4003365050123A4A70A631B066223A6170B1B
:102AD4003716004005682326060B0325860A93D77C
:102AE400160093F81700336505012324A60A6380B2
:102AF40008700325860A0968336505012324A60A9C
:102B04003716004085682326160B0325860A13D83A
:102B1400260013731800336515012324A60AC297EF
:102B24006303036C0325860A0968336505012324BE
:102B3400A60A3716004005682326060B0325860AD5
:102B440093D8360013F31800336505012324A60A2D
:102B5400B6976307035C0325860A09683365050194
:102B64002324A60A3716004005682326060B0325EE
:102B7400860AC697858B336505012324A60A638DCF
:102B840007588327860A0965C98F2324F60AB717CD
:102B94000040056823A6070B03A6870A89683366E5
:102BA400060123A4C70A23A6170B23A6070B03A514
:102BB400870A034687013365050123A4A70A03A3F3
:102BC400870A32853363130123A4670A23A6070BFC
:102BD40003A3870A3368030123A4070B03A8870A06
:102BE4003368180123A4070B03A8070AF978FD1812
:102BF4003378180123A0070B0DC237180040130EB9
:102C0400C80A0563856823201E018327880A7D1569
:102C1400B3E767002324F80A7DF5B7170040056879
:102C240023A6070B03A3470A03A5870A1353D3005C
:102C34003365050123A4A70A23A6070B03A5470AA6
:102C440083A8870A137313003181B3E8080123A40E
:102C5400170B23A6070B83A8470A09893365650068
:102C64000963B3F868006387084C83A5870AB3E552
:102C7400050123A4B70A6301055A136545003717F4
:102C84000040130616021308C70A856585662320CB
:102C9400D8008327870A7D16CD8F2324F70A65FA87
:102CA40089662326D70A8327070A1375F50FD58F5C
:102CB4002320F70A8327870AD58F2324F70A8280E3
:102CC400B717004003A5870A8968032847003365BE
:102CD400150123A4A70A0565317123A6A70A42C1D9
:102CE4008A47FD173EC18A47E5FF37150040832711
:102CF400850A032847008568B3E717012324F50AEA
:102D040042C39A47FD173EC39A47E5FF6310063E48
:102D1400B7170040096623A6C70A5C43371600406C
:102D240005652326A60A3EC5AA47FD173EC5AA4740
:102D3400E5FF371600408327860A48430568B3E752
:102D440007012324F60A2AC7BA47FD173EC7BA4724
:102D5400E5FF13D61600937716006389073A3715F3
:102D640000408327850A0968B3E707012324F50A8D
:102D74005C433715004005682326050B3EC9CA4746
:102D8400FD173EC9CA47E5FF371500408327850A6A
:102D9400032847008568B3E717012324F50A42CBCB
:102DA400DA47FD173ECBDA47E5FF93D7260013F544
:102DB40017003E9663070544371500408327850AAC
:102DC4000968B3E707012324F50A5C43371500407B
:102DD40005682326050B3ECDEA47FD173ECDEA479D
:102DE400E5FF371500408327850A032847008568D7
:102DF400B3E717012324F50A42CFFA47FD173ECF64
:102E0400FA47E5FF13D536009377150036966384A9
:102E1400073E371800408327880A8968B3E71701FB
:102E24002324F80A5C433718004085682326180BCE
:102E34003ED18A57FD173ED18A57E5FF3718004027
:102E44008327880A832847000563B3E767002324A0
:102E5400F80A46D39A57FD173ED39A57E5FFB307AE
:102E6400A600858B6382072C371600408327860AC9
:102E74000965C98F2324F60A5C43371600400565AB
:102E84002326A60A3ED5AA57FD173ED5AA57E5FF25
:102E9400371600408327860A48430568B3E70701CD
:102EA4002324F60A2AD7BA57FD173ED7BA57E5FFA7
:102EB4005043B7170040096523A6A70A056523A652
:102EC400A70A32D9CA57FD173ED9CA57E5FF3716A4
:102ED40000408327860A48430568B3E70701232493
:102EE400F60A2ADBDA57FD173EDBDA57E5FFB71798
:102EF400004003A6870A096848433366060123A4F1
:102F0400C70A056623A6C70A2ADDEA57FD173EDD70
:102F1400EA57E5FF371600408327860A48430568C9
:102F2400B3E707012324F60A2ADFFA57FD173EDF29
:102F3400FA57E5FFB717004003A6870A09657978B1
:102F4400498E23A4C70A03A5070A034687017D18EF
:102F54003375050123A0A70A328521C23718004022
:102F6400930EC80A056E05635C4323A06E00BEDCA5
:102F7400E657FD17BEDCE657E5FF8327880A83285A
:102F84004700B3E7C7012324F80AC6DEF657FD1746
:102F9400BEDEF657E5FF7D1561F95C433715004049
:102FA40005682326050BBED08657FD17BED086576D
:102FB400E5FFB717004003A3470A03A5870A0328C0
:102FC40047008568336515011353D30023A4A70A6A
:102FD40013731300C2D29657FD17BED29657E5FF5E
:102FE4005C433715004005682326050BBED4A6575D
:102FF400FD17BED4A657E5FFB717004083A8470ABC
:1030040003A5870A03284700056E3365C50193D8D5
:10301400D80023A4A70A93F81800C2D6B657FD1700
:10302400BED6B657E5FF5C43371500400568232636
:10303400050B8608BED8C657FD17BED8C657E5FF90
:10304400B717004003A5470A03A8870A032E4700C1
:10305400856E3368D801358123A4070B0589F2DA1C
:10306400D657FD17BEDA5658E31C08FE0A05336529
:1030740015013365650085476308F5349307E5FF5B
:10308400F59B93051602638D0720B7160040138342
:10309400C60A856805685C43232003013EC4A24731
:1030A400FD173EC4A247E5FF83A7860A5043B3E752
:1030B400170123A4F60A32C6B247FD173EC6B2472B
:1030C400E5FFFD15E9F9B7170040896623A6D70A7D
:1030D40003A7070A1375F50F558F23A0E70A03A763
:1030E400870A558F23A4E70A296182803716004096
:1030F4008327860A0965C98F2324F60A39B903A6EA
:10310400870A3366160123A4C70AD9B2B717004049
:10311400096523A6A70AA9B989672326F60A85BCE7
:1031240009652326A60A3DBCB7170040096623A6F5
:10313400C70A99B303A3870A054E3368030123A47E
:10314400070B6316C50D13F82600631008540DC24F
:1031540037150040130EC50A0563856823201E0138
:103164008327850A7D16B3E767002324F50A7DF6D5
:103174003716004009632326660A8328060A1305C6
:103184000002B7170040B3E868002320160B9041F3
:10319400856893751600EDC583A5870A7D15329859
:1031A400B3E5650023A4B70A23A6170B83A5870AF2
:1031B4000582B3E5150123A4B70A61FD137818004D
:1031C4006310085EB7170040096623A6C70AB7173D
:1031D4000040856523A6B70A03A6870A05454D8ED8
:1031E40023A4C70A99A309652326A60A99B20965E7
:1031F4002326A60A31B2B7170040096823A6070B95
:1032040015B1B7170040096523A6A70A7DBE8947F3
:10321400E317F5A6094511A01145034E9701630E66
:103224000E2A93F7260063900754631A062AB717E9
:103234000040896623A6D70A03A7070A558F23A04F
:10324400E70A0967B7160040B717004023A6E70A44
:103254001388C60A13071002856505662320C80073
:1032640083A7860A7D17CD8F23A4F60A65FB37173B
:1032740000408327870A8966D58F2324F70A828032
:1032840023A6670A23A6170B83A5870A7D15329800
:10329400B3E5150123A4B70A0582E31C05EE39BF83
:1032A400034397016302030C93F72600ADEF5DEE31
:1032B400B7170040096623A6C70A83A6070AD18E5A
:1032C40023A0D70A896637160040B717004023A603
:1032D400D70A1303C60A93061002856805685C437F
:1032E400232003013EC8C247FD173EC8C247E5FF7D
:1032F4008327860A4C43B3E717012324F60A2ECA10
:10330400D247FD173ECAD247E5FFFD16E9FA371743
:1033140000408327870A89661375F50FD58F232408
:10332400F70A296182803718004093051002130FB1
:10333400C80A856E056E5C432320CF013ED08257B8
:10334400FD173ED08257E5FF8327880A832847006C
:10335400B3E7D7012324F80A46D29257FD173ED289
:103364009257E5FFFD15E1F9630B0644B7150040DC
:10337400938EC50A056E85685C4323A01E013ECC6E
:10338400E247FD173ECCE247E5FF83A7850A032801
:103394004700B3E7C70123A4F50A42CEF247FD175D
:1033A4003ECEF247E5FF7D1661FAB7170040896506
:1033B40023A6B70A03A6070A4D8E23A0C70AE3086B
:1033C40003F4898AA9F6FDBD93F8260063970814CF
:1033D40021C237150040930EC50A056E05635C4390
:1033E40023A06E00BEC08647FD17BEC08647E5FF1A
:1033F4008327850A03284700B3E7C7012324F50A76
:10340400C2C29647FD17BEC29647E5FF7D1661FA14
:10341400B7170040096323A6670A03A6070A3715EE
:103424000040130800023366660023A0C70A9041D7
:103434001303C50A096F856E056E93751600D9C905
:103444008327850AB3E7E7012324F50A4C432320A5
:10345400C3012EDCE257FD173EDCE257E5FF83276C
:10346400850A4C43B3E7D7012324F50A2EDEF2572D
:10347400FD173EDEF257E5FF7D18B2980582E31E84
:1034840008FA93F71800638607323716004083273B
:10349400860A8965CD8F2324F60A5C4337160040DB
:1034A40085652326B60A3ED8C257FD173ED8C257B3
:1034B400E5FF371600408327860A4C430565C98F0C
:1034C4002324F60A2EDAD257FD173EDAD257E5FF47
:1034D4000545B9A22320E30195BF630D062E3717D6
:1034E40000409308C70A0568856523A0B8008327B0
:1034F400870A7D16B3E707012324F70A7DF60966D8
:103504002326C70A8327070AD18F2320F70AE3005B
:103514000ED6898AE39D06D42DB337130040814823
:10352400130E00029302C30A856F056F5C4323A048
:10353400E201BECCE647FD17BECCE647E5FF032516
:10354400430A8327830A832E47003581B3E7F701B3
:103554002324F30A0589F6CEF647FD17BECEF647B7
:10356400E5FF93D818009317F5017D1E2A98B3E858
:103574001701E31D0EFA5C4337150040056323264B
:10358400650ABEC8C647FD17BEC8C647E5FFB717DC
:10359400004003A5470A03A3870A032E4700856E4C
:1035A4003363D301358123A4670A0589F2CAD64758
:1035B400FD17BECAD647E5FF334505010589330526
:1035C400A0401D89050599C123A0150121C2B71585
:1035D4000040138EC50A056385685C4323201E01E1
:1035E400BEC4A647FD17BEC4A647E5FF83A7850A48
:1035F40003284700B3E7670023A4F50AC2C6B64709
:10360400FD17BEC6B647E5FF7D1661FAB717004041
:10361400896523A6B70A03A6070A4D8E23A0C70A05
:1036240093F6060899C223A0012A8346C700A1C6BF
:1036340037160040B7170040896523A6B70A13035D
:10364400C60A856805685C43232003013ED4A2575B
:10365400FD173ED4A257E5FF8327860A4C43B3E700
:1036640017012324F60A2ED6B257FD173ED6B257B9
:10367400E5FFFD16E9FA371700408327870A8966B4
:10368400D58F2324F70A296182803713004001482B
:10369400130E00029302C30A056F856F23A0F20183
:1036A4008327430A0325830A13581800B583858B9F
:1036B4003365E501939EF7012324A30A7D1EBE987A
:1036C40033E80E01E31C0EFC2326E30B8327430A95
:1036D4000325830AB583B3C7F800858BB368E50176
:1036E400B307F04013F577002324130B050599C1A4
:1036F40023A005010DC2B71500401383C50A8568D0
:1037040005682320030183A7850A7D16B3E7170103
:1037140023A4F50A7DF6B7170040896523A6B70AE6
:1037240003A6070A4D8E23A0C70A93F6060899C27A
:1037340023A0012A0347C700E30B07B20966B716A3
:103744000040B717004023A6C70A1388C60A856538
:1037540005662320C80083A7860A7D17CD8F23A47E
:10376400F60A65FB29B6B715004013071002138348
:10377400C50A856805682320030183A7850A7D1788
:10378400B3E7170123A4F50A7DF7E31A06D4096702
:1037940023A6E50A83A7050AD98F23A0F50AC1BC8D
:1037A400371600408327860A8965CD8F2324F60ABD
:1037B40039BCB7170040096623A6C70AF9B9B71779
:1037C4000040896623A6D70A03A7070A558F23A0BA
:1037D400E70A35BEB7170040896623A6D70A03A7B0
:1037E400070A558F23A0E70A59B4011126CC22CE2B
:1037F400937FF503B28493770504639D0F0AEDCBA1
:10380400930F0004371700408327870A8966D58FF2
:103814002324F70A03C80500F1731374050893827F
:10382400150093888129B7160040FD131166056FB2
:10383400856E93771800138E8FFF7E8581451383E1
:10384400C60AB5C383A7860AD18F23A4F60A83A721
:1038540048002320D3013EC6B247FD173EC6B247F7
:10386400E5FF83A7460A03A7860ABD833367E701FA
:1038740023A4E60A13F7170083A748003EC4A2470F
:10388400FD173EC4A247E5FF931777008581130710
:10389400F5FF13581800DD8D6305EE0215CF9377FD
:1038A40018003A85C5F383A7860AB3F7770023A4E3
:1038B400F60A71BFA1FBB7170040096723A6E70A00
:1038C40091BF19E415C38502BA8F03C8F2FF95B7F7
:1038D4002380B4008504FDB701C8B307F5419D07F3
:1038E400B3D5F5002380B4007244E24405618280BC
:1038F400B7170040096723A6E70A930F000419BF0E
:10390400B717004003A7870A938581290966D44124
:10391400518F23A4E70A0567397123A6E70A36CA3B
:10392400D247FD173ECAD247E5FF37170040832729
:10393400870AD4410566D18F2324F70A36C8C247C3
:10394400FD173EC8C247E5FFD841B7170040896656
:1039540023A6D70A856623A6D70A3AC6B247FD1717
:103964003EC6B247E5FF371700408327870AD44194
:103974000566D18F2324F70A36C4A247FD173EC437
:10398400A247E5FFDC413717004085662326D70AA6
:103994003EC29247FD173EC29247E5FF37170040EB
:1039A4008327870AD4410566D18F2324F70A36C0BA
:1039B4008247FD173EC0024565FD03C7B5011DCF13
:1039C400B71600401383C60A85680568DC412320C6
:1039D40003013ECEF247FD173ECEF247E5FF83A733
:1039E400860AD041B3E7170123A4F60A32CCE24792
:1039F400FD173ECCE247E5FF7D1769FBB716004093
:103A04007D46138EC60A05638568DC4123201E01AA
:103A14003ED29257FD173ED29257E5FF83A7460A3E
:103A240003A7860A03A84500BD833367670023A460
:103A3400E60A42D013F717008257FD173ED082578B
:103A4400E5FF9317F701C98F7D1613D5170055FEAF
:103A5400B717004003A7870A0966D441518F23A4EE
:103A6400E70A056723A6E70A36DEF257FD173EDEAE
:103A7400F257E5FF371700408327470A8326870A52
:103A8400D0410568B3E606012324D70ABD8313F7A2
:103A9400170032DCE257FD173EDCE257E5FFD44164
:103AA4009317F7010566371700402326C70A5D8D73
:103AB40036DAD257FD173EDAD257E5FF3717004002
:103AC4008327870AD4410566D18F2324F70A36D881
:103AD400C257FD173ED8C257E5FFD841B71700407B
:103AE400896623A6D70A856623A6D70A3AD6B2578B
:103AF400FD173ED6B257E5FF371700408327870AE4
:103B0400D4410566D18F2324F70A36D4A257FD1772
:103B14003ED4A257E5FF21618280B717004003A776
:103B2400870A938681298965D0424D8F23A4E70AA9
:103B34000567597123A6E70A32CAD247FD173ECA60
:103B4400D247E5FF371700408327870AD0428565AF
:103B5400CD8F2324F70A32C8C247FD173EC8C24797
:103B6400E5FFD842B7170040096623A6C70A0566D1
:103B740023A6C70A3AC6B247FD173EC6B247E5FFB9
:103B8400371700408327870AD0428565CD8F2324C9
:103B9400F70A32C4A247FD173EC4A247E5FFDC4240
:103BA4003717004005662326C70A3EC29247FD1711
:103BB4003EC29247E5FF371700408327870AD04269
:103BC4008565CD8F2324F70A32C08247FD173EC096
:103BD4008247E5FF03C8B60142876300080437162D
:103BE4000040130EC60A05638568DC4223201E01CB
:103BF4003ECEF247FD173ECEF247E5FF8327860A05
:103C0400CC42B3E767002324F60A2ECCE247FD1723
:103C14003ECCE247E5FF7D1769FBB717004003A7D9
:103C2400870A71767D16CC42718F23A4E70A056753
:103C340023A6E70A2EDAD257FD173EDAD257E5FF5C
:103C4400371700408327870AD0428565CD8F232408
:103C5400F70A32D8C257FD173ED8C257E5FFDC42F7
:103C64003717004005662326C70A3ED6B257FD170C
:103C74003ED6B257E5FF371700408327870AD04264
:103C84008565CD8F2324F70A32D4A257FD173ED47D
:103C9400A257E5FFDC423717004005662326C70A12
:103CA4003ED29257FD173ED29257E5FF3717004098
:103CB4008327870AD0428565CD8F2324F70A32D023
:103CC4008257FD173ED08257E5FF37170040F17E3B
:103CD4007D46FD1E116F130EC70A05638568937731
:103CE40015006383071A8327870AB3E7E7012324B0
:103CF400F70ADC4223201E013EDEF257FD173EDEAA
:103D0400F257E5FF8327870ACC42B3E767002324F1
:103D1400F70A2EDCE257FD173EDCE257E5FF7D167D
:103D2400058155FE03C7A601854705893307074169
:103D3400630CF71663110516B715004083A7850AAF
:103D440071767D16F18F23A4F50ADC423716004004
:103D540085652326B60ABEC29647FD17BEC296479E
:103D6400E5FF371600408327860ACC420565C98FD4
:103D74002324F60AAEC08647FD17BEC08647E5FF7A
:103D840079171DCF371600409308C60A05680565E4
:103D9400DC4223A0A800BEC6B647FD17BEC6B64780
:103DA400E5FF8327860ACC42B3E707012324F60AFA
:103DB400AEC4A647FD17BEC4A647E5FF7D1769FB41
:103DC400B717004003A7870A8965D0424D8F23A403
:103DD400E70A056723A6E70AB2CAD647FD17BECA93
:103DE400D647E5FF371700408327870AD042856509
:103DF400CD8F2324F70AB2C8C647FD17BEC8C647ED
:103E0400E5FFDC423717004005662326C70ABED605
:103E1400B657FD17BED6B657E5FF371700408327C0
:103E2400870AD0428565CD8F2324F70AB2D4A657DA
:103E3400FD17BED4A657E5FFD842B7170040096660
:103E440023A6C70A056623A6C70ABAD29657FD1742
:103E5400BED29657E5FF371700408327870AD4421E
:103E64000566D18F2324F70AB6D08657FD17BED036
:103E74008657E5FF371700408327870A9166D58F59
:103E84002324F70A656182808327870AB3F7D70161
:103E94002324F70AB9BD371600408327860A9165A3
:103EA400CD8F2324F60A55B5B717004003A7870A18
:103EB4000966518F23A4E70A03A7870A31E17176C3
:103EC4007D16718F23A4E70ADC423717004005668C
:103ED4002326C70ABECEF647FD17BECEF647E5FF3A
:103EE400371700408327870AD0428565CD8F232466
:103EF400F70AB2CCE647FD17BECCE647E5FF11B79B
:103F04001166518F23A4E70AC1B713878129834718
:103F140017006388071AB717004083A6870A8968C1
:103F24000566B3E6160123A4D70A23A6C70A83A607
:103F3400870A0348B701D18E23A4D70A23A6C70A48
:103F440083A5870A930688008606D18D23A4B70A21
:103F540023A6170B23A6C70A83A5870ABA9683D676
:103F64004601D18D23A4B70A23A6C70A83A5870ACD
:103F74004D8E23A4C70A03A6870A91654D8E23A4F8
:103F8400C70A8DC2371600401303C60A85688565C3
:103F94002320B3008327860AFD16B3E717012324E1
:103FA400F60AFDF6B307070183C6C701FD16B9CAB1
:103FB400F178B7170040FD18056611630DA083A5BD
:103FC400870AFD160581B3E5650023A4B70A23A675
:103FD400C70A83A5870AD18D23A4B70A85C693751A
:103FE4001500F1FD83A5870AFD160581B3F51501BA
:103FF40023A4B70A23A6C70A83A5870AD18D23A4BD
:10400400B70AF1FE930708018607BA9703D7470159
:1040140005896308073C6312054837160040832767
:10402400860AF176FD16F58F2324F60AB7170040A9
:10403400056623A6C70A83A6870A7D17D18E23A403
:10404400D70A83A6870A1166D18E23A4D70A19CF6B
:10405400B71600401385C60A8565056610C183A797
:10406400860A7D17CD8F23A4F60A6DFBB71700408F
:1040740003A7870A09668566518F23A4E70A23A646
:10408400D70A03A7870A558F23A4E70AB717004066
:10409400056723A6E70A83A6870AD98E23A4D70A2D
:1040A400896623A6D70A23A6E70A83A6870A558F1B
:1040B40023A4E70A03A7870A9166558F23A4E70A76
:1040C4008280B717004083A6870A89655043CD8E46
:1040D40023A4D70A85661D7123A6D70AB2C08647D2
:1040E400FD17BEC08647E5FFB716004083A7860AC2
:1040F40050438565CD8F23A4F60AB2C29647FD17B7
:10410400BEC29647E5FF5C43B7160040056623A68A
:10411400C60ABEC4A647FD17BEC4A647E5FFB71628
:10412400004083A7860A50438565CD8F23A4F60AF1
:10413400B2C6B647FD17BEC6B647E5FF5443B71728
:104144000040096623A6C70A056623A6C70AB6C89F
:10415400C647FD17BEC8C647E5FFB716004083A78C
:10416400860A50438565CD8F23A4F60AB2CAD64782
:10417400FD17BECAD647E5FF5C43B7160040056687
:1041840023A6C60ABECCE647FD17BECCE647E5FF2C
:10419400B716004083A7860A50438565CD8F23A4B4
:1041A400F60AB2CEF647FD17BECEF647E5FF034842
:1041B400B701B715004003A6850A93078800860750
:1041C400BA9783D647019167D18F23A4F50A9DCE70
:1041D40037160040130EC60A056385685C43232026
:1041E4001E013EDCE257FD173EDCE257E5FF832764
:1041F400860A4C43B3E767002324F60A2EDEF257FF
:10420400FD173EDEF257E5FFFD16E9FAB307070195
:1042140003C6C7017D1629CEB7160040F17EFD1EE8
:10422400116F138EC60A0563856893771500638141
:10423400072483A7860AB3E7E70123A4F60A5C43AD
:1042440023201E013ED8C257FD173ED8C257E5FFB2
:1042540083A7860A4C43B3E7670023A4F60A2EDA41
:10426400D257FD173EDAD257E5FF7D16058155FE7C
:10427400930708018607BA9783D647010589638D9A
:104284000618631E051EB715004083A7850A7176BC
:104294007D16F18F23A4F50A5C433716004085652B
:1042A4002326B60A3ED4A257FD173ED4A257E5FFF3
:1042B400371600408327860A4C430565C98F23249B
:1042C400F60A2ED6B257FD173ED6B257E5FF37167B
:1042D40000408327860A9165FD16CD8F2324F60AB4
:1042E4008DCE9308C60A056805655C4323A0A80023
:1042F4003ED08257FD173ED08257E5FF8327860ABA
:104304004C43B3E707012324F60A2ED29257FD1734
:104314003ED29257E5FFFD16E9FAB717004083A68F
:10432400870A89655043CD8E23A4D70A856623A6C0
:10433400D70A32CCE247FD173ECCE247E5FFB71679
:10434400004083A7860A50438565CD8F23A4F60ACF
:1043540032CEF247FD173ECEF247E5FF5C43B71677
:104364000040056623A6C60A3EC08247FD173EC02C
:104374008247E5FFB716004083A7860A5043856548
:10438400CD8F23A4F60A32C29247FD173EC292474C
:10439400E5FF5443B7170040096623A6C70A05661C
:1043A40023A6C70A36C4A247FD173EC4A247E5FFA9
:1043B400B716004083A7860A58430566D18F23A405
:1043C400F60A3AC6B247FD173EC6B247E5FF3717AD
:1043D40000408327870A9166D58F2324F70A256135
:1043E4008280B717004003A7870A8966558F23A4E4
:1043F400E70A03A7870A5DE9F176FD16758F23A402
:10440400E70AB7170040856623A6D70A03A7870AD9
:10441400558F23A4E70A9DB9B717004083A6870ADE
:104424000966D18E23A4D70A83A6870A35E171765B
:104434007D16F18E23A4D70A5C43B71600400566A7
:1044440023A6C60A3EC8C247FD173EC8C247E5FFB9
:10445400B716004083A7860A50438565CD8F23A4F1
:10446400F60A32CAD247FD173ECAD247E5FFFDB568
:1044740083A7860AB3F7D70123A4F60AC9B337166C
:1044840000408327860A9165CD8F2324F60A29B537
:104494001166D18E23A4D70A45B7B716004083A767
:1044A400860A1166D18F23A4F60A49B69166558F00
:1044B40023A4E70AB9B713878129834717002A86FB
:1044C4006382071CB717004083A6870A096805653D
:1044D400B3E6060123A4D70A23A6A70A83A6870A5C
:1044E4000343B701C98E23A4D70A23A6070B23A627
:1044F400A70A03A8870A9A863368A80023A4070B8F
:1045040023A6A70A03A8870A3365A80023A4A70A39
:104514006302030237150040130EC50A8568056857
:1045240023200E018327850AFD16B3E717012324F0
:10453400F50AFDF693571600858B6394074A3715E1
:1045440000408327850AF176FD16F58F2324F50AAA
:10455400B7170040856823A6170B03A8470A03A5CD
:10456400870A935626001358E8003365150123A4DF
:10457400A70A858A137828006385066083A6870ABC
:104584001165C98E23A4D70AB7160040056E23A669
:10459400C60B83A7460A83A8860A13553600BD8333
:1045A400B3E8C801858B23A4160B0589B3E707017B
:1045B400630D056C03A5860A11683365050123A400
:1045C400A60AB7160040056523A6A60A83A8460ACC
:1045D4002168B3F80801638E085A83A5860A93E715
:1045E4004700C98D23A4B60AB716004083A5860ADE
:1045F40009650568C98D23A4B60A23A6060B83A5FD
:10460400860A13F5F70FB3E5050123A4B60AB71616
:104614000040856523A6B60A03A8860A1376060811
:104624003368B80023A4060B096823A6060B23A647
:10463400B60A03A8860AB365B80023A4B60A83A5FC
:10464400860A1168B3E5050123A4B60A19C223A09A
:10465400012A8346C7001387F6FF6386063AB71616
:1046640000409388C60A056885657D5623A0B80076
:1046740083A7860A7D17B3E7070123A4F60AE31785
:10468400C7FE8280B717004083A6870A096848439B
:10469400B3E6060123A4D70A8566717123A6D70A57
:1046A4002ACDEA47FD173ECDEA47E5FFB71600409D
:1046B40083A7860A48430568B3E7070123A4F60ADB
:1046C4002ACFFA47FD173ECFFA47E5FF5443B71701
:1046D4000040096523A6A70A056523A6A70A36D1C3
:1046E4008A57FD173ED18A57E5FFB716004083A7C6
:1046F400860A48430568B3E7070123A4F60A2AD3C8
:104704009A57FD173ED39A57E5FF5C43B71600400E
:10471400056523A6A60A3ED5AA57FD173ED5AA5776
:10472400E5FFB716004083A7860A48430568B3E748
:10473400070123A4F60A2AD7BA57FD173ED7BA575A
:10474400E5FF0348B701C28663010804371500403A
:10475400930EC50A056E05635C4323A06E003EC933
:10476400CA47FD173EC9CA47E5FF8327850A832840
:104774004700B3E7C7012324F50A46CBDA47FD1700
:104784003ECBDA47E5FFFD16E1FA93571600858B19
:1047940063920726371500408327850AF176FD16B4
:1047A400F58F2324F50A5C43B7160040056523A65C
:1047B400A60ABEDCE657FD17BEDCE657E5FFB717D1
:1047C400004083A6470A03A5870A83284700056398
:1047D40033656500BD8223A4A70A858AC6DEF65721
:1047E400FD17BEDEF657E5FF93572600858B13931E
:1047F4001600638E0736B716004083A7860A116534
:10480400C98F23A4F60A5C43B7160040056523A6A6
:10481400A60A3EC18A47FD173EC18A47E5FFB7177E
:10482400004003A5470A83A6870A83284700056E2C
:10483400B3E6C6013D8123A4D70A058946C39A4736
:10484400FD173EC39A47E5FF93573600858B638671
:104854000730B716004083A7860A9168B3E71701AB
:1048640023A4F60A5C43B7160040856823A6160BFA
:104874003EC5AA47FD173EC5AA47E5FFB716004047
:1048840083A7460A83A8860A032E4700856EB3E8E9
:10489400D80123A4160BBD8393F6170072C7BA4739
:1048A400FD173EC7BA48E39C08FE93972600B3E77A
:1048B40067005D8D85476309F514B717004083A62B
:1048C400870A09684C43B3E6060123A4D70A856620
:1048D40023A6D70AAED8C657FD17BED8C657E5FFDC
:1048E400B716004083A7860A4C430568B3E707015F
:1048F40023A4F60AAEDAD657FD17BEDAD657E5FF7B
:104904005C43B7160040856523A6B60A3EC8C24775
:10491400FD173EC8C247E5FFB716004083A7860AC5
:104924004C430568B3E7070123A4F60A2ECAD2470D
:10493400FD173ECAD247E5FF5443B71700408965C7
:1049440023A6B70A856523A6B70A36CCE247FD1726
:104954003ECCE247E5FFB716004083A7860A4C43E6
:104964000568B3E7070123A4F60A2ECEF247FD1724
:104974003ECEF247E5FFB716004083A7860A91654D
:1049840013760608CD8F23A4F60A19C223A0012AA0
:104994008347C7009386F7FFA9C337160040130E59
:1049A400C60A056385687D585C4323201E013EC406
:1049B400A247FD173EC4A247E5FF8327860A4C435E
:1049C400B3E767002324F60A2EC6B247FD173EC696
:1049D400B247E5FFFD16E39906FD1375F50F4D612A
:1049E4008280B716004083A7860A1165C98F23A465
:1049F400F60AB9BEB716004083A7860A1165C98FA7
:104A040023A4F60A4DB3828093772600639807287F
:104A14008C41B7160040F17FFD48FD1F9162138F52
:104A2400C60A856E056E93F715006389074683A74A
:104A3400860AB3E7570023A4F60A5C432320CF0178
:104A4400BEC08647FD17BEC08647E5FF83A7860A1A
:104A540003234700B3E7D70123A4F60A9AC2964773
:104A6400FD17BEC29647E5FFFD188581E39D08FA50
:104A74008346A70185478589B38606416387F65037
:104A840063950542371800408327880AF175FD15A0
:104A9400ED8F2324F80A5C43B7150040056823A66C
:104AA400050B3EDCE257FD173EDCE257E5FFB71588
:104AB400004083A7850A032847008568B3E71701E8
:104AC40023A4F50A42DEF257FD173EDEF257E5FF56
:104AD400F916A1C2B7150040138EC50A056385688F
:104AE4005C4323201E013ED8C257FD173ED8C2574F
:104AF400E5FF83A7850A03284700B3E7670023A4DB
:104B0400F50A42DAD257FD173EDAD257E5FFFD1611
:104B1400E1FAB717004083A6870A09684C43B3E655
:104B2400060123A4D70A856623A6D70A2ED4A25742
:104B3400FD173ED4A257E5FFB716004083A7860AA7
:104B44004C430568B3E7070123A4F60A2ED6B257EF
:104B5400FD173ED6B257E5FF65B3B718004083A7EB
:104B6400880AF176FD16F58F23A4F80AE5B93715FE
:104B740000408327850AF176FD16F58F2324F50A74
:104B840059B183A6870A71757D15E98E23A4D70AC6
:104B9400E5BA03A8860A054E3365A80023A4A60A2D
:104BA400E394C7A593772600639E0722F178944186
:104BB400B7170040FD45FD180565116E15A003A843
:104BC400870AFD1585823368C80123A4070B23A631
:104BD400A70A03A8870A3368A80023A4070B95C56E
:104BE40013F81600E31D08FC03A8870AFD15858247
:104BF4003378180123A4070B23A6A70A03A8870A5E
:104C04003368A80023A4070BE1FD8347A70185456A
:104C1400858AB38767406382B72E6392062A371565
:104C240000408326850AF175FD15ED8E2324D50AEF
:104C3400B7160040056523A6A60A83A5860AF917B8
:104C4400C98D23A4B60A85C3B71500409388C50A45
:104C5400056823A0A80083A6850AFD17B3E606010C
:104C640023A4D50AFDF7B717004083A6870A096570
:104C74008565C98E23A4D70A23A6B70A83A6870A03
:104C8400CD8E23A4D70A054559B203A5860A7178A7
:104C94007D183375050123A4A60A25B237130040F5
:104CA4007D4E9302C30A856F056F5C4323A0E20126
:104CB400BED4A657FD17BED4A657E5FF8327430AE3
:104CC4008326830A832E4700BD83B3E6F60123249B
:104CD400D30AF6D693F61700B657FD17BED6B657C5
:104CE400E5FF9397F601B3E717017D1E93D81700EC
:104CF400E31D0EFA8346A7018547B3860641638AFE
:104D0400F6225C433718004005632326680ABED0A8
:104D14008657FD17BED08657E5FFB717004003A39B
:104D2400470A03A8870A032E4700856E3368D80113
:104D34001353F30023A4070B13731300F2D29657F3
:104D4400FD17BED29657E5FFF916A1C237180040E9
:104D5400930FC80A056F856E5C4323A0DF01BECCA8
:104D6400E647FD17BECCE647E5FF8327880A032EF6
:104D74004700B3E7E7012324F80AF2CEF647FD170C
:104D8400BECEF647E5FFFD16E1FAB717004083A64D
:104D9400870A096E03284700B3E6C60123A4D70A8D
:104DA400856623A6D70AC2C8C647FD17BEC8C6472C
:104DB400E5FFB716004083A7860A03284700056E5F
:104DC400B3E7C70123A4F60AC2CAD647FD17BECA71
:104DD400D647E5FFE38605B29317F301B3E717015E
:104DE4009CC139BE371500407D48130FC50A056EB6
:104DF400856E2320DF018327450A8326850A7D18D3
:104E0400BD83B3E6C601FE07B3E717012324D50A21
:104E140093D81700E31F08FC8347A7018546B3878F
:104E240067406387D70A2326C50B0328450A8326D0
:104E3400850AF9171358F800B3E6C6012324D50AE6
:104E4400137818008DC337150040930EC50A056EFC
:104E5400056323A06E008326850AFD17B3E6C60109
:104E64002324D50AFDF7B717004083A6870A0963F0
:104E74000565B3E6660023A4D70A23A6A70A83A67A
:104E8400870AC98E23A4D70AE38F05DE9317F80196
:104E9400B3E717019CC105456FF06FF783A7860A36
:104EA400B3F7F70123A4F60A49BEB715004083A758
:104EB400850A1168B3E7070123A4F50AE9BEB7150B
:104EC400004083A6850A1165C98E23A4D50A8DB333
:104ED4008327850A8966D58F2324F50A2326C50BE3
:104EE4000328450A8327850A1358F800B3E7C70146
:104EF400137818002324F50A41BFB717004083A58F
:104F0400870A0965C98D23A4B70AFDC283A6870A47
:104F14009165CD8E23A4D70AB7170040856523A6D3
:104F2400B70A83A6870A0545CD8E23A4D70A6FF056
:104F34000FEEB717004083A6870A096303284700CA
:104F4400B3E6660023A4D70A856623A6D70AC2C49B
:104F5400A647FD17BEC4A647E5FFB717004003A345
:104F6400470A83A6870A03284700056EB3E6C601ED
:104F74001353F30023A4D70A13731300C2C6B6470E
:104F8400FD17BEC6B647E5FFB1B5B717004083A607
:104F9400870A0968B3E6060123A4D70A83A6870A09
:104FA400B1C19165CD8E23A4D70A5C43B7160040E6
:104FB400856523A6B60A3ED08257FD173ED0825798
:104FC400E5FFB716004083A7860A4C430568B3E79C
:104FD400070123A4F60A2ED29257FD173ED2925708
:104FE400E5FF39BAF175FD15ED8E23A4D70A75BF17
:104FF40083A6870AF175FD15ED8E23A4D70A29BF70
:1050040083470500416505052380F5008280AA8752
:105014007D558DC385C10547637EC7001307F6FF21
:10502400798E09EA23A0070023A2070098C7CCC7FA
:1050340001458280828001111C4522CC40411841E7
:1050440026CA3E94050406CE4AC8198CAA84637302
:10505400860032847D8F8507998F228963F38700C8
:105064003E89C8444A862EC63A95EFB07FE4B245DD
:10507400C84433062441CA95EFB09FE39C40F240F4
:105084002285A29762449CC04249D2440561828031
:105094004111584122C4004126C206C64AC0198C97
:1050A400AA84AE866373860032849C4422897D8FF1
:1050B4008507998F63F387003E89CC444A863685F9
:1050C400BA95EFB0FFDECC44330624414A95EFB0E5
:1050D4003FDEB2402285224492440249410182804B
:1050E400411122C406C62A8465375C40B240AA979F
:1050F4005CC0224441018280011152C4130AC023BE
:10510400330A450356C2930AF00826CA9384C12D74
:1051140022CC4AC84EC606CE5AC0B30A55032A84C6
:10512400AE8932898147269A83464A1763ECD700B1
:10513400F2406244D2444249B249224A924A024B62
:10514400056182803387FA00130787040A072697CC
:105154005843630C0904130AC023330A4403930A13
:10516400F008B30A5403269A138B170011E78346F9
:105174004A179377FB0F19A85C47F5DB0346290010
:1051840003478701630EE6009377FB0FE3F2D7FA38
:105194003387FA00130787040A0726975843E9B7A9
:1051A4004A86CE8522858297D9B7138B170031C7DB
:1051B4005C479DE71307C0233307E4029377FB0F93
:1051C400269703474717E3F5E7F61307F008330775
:1051D400E4023E97130787040A0726975843F1B75A
:1051E4000146CE852285829703474A179377FB0FA2
:1051F400E3F0E7F43387FA00F1BF9377FB0F2DB7A1
:1052040003C7550083C6450083C725002207558F71
:105214004111139687011378F77F06C62D8761869F
:105224000D8B9386C12D63580602314693F7F70719
:10523400B387C7021306C0233306C502B297B697D5
:10524400239D0717A38CE716EF001074B2401335A3
:105254001500410182803146B387C7021306C0237B
:105264003306C502B297B697239D071DA38CE71C8E
:10527400E1BF9307C0233307F5029387C12DB2859D
:10528400BA979847D4473A968D8E90C7D4C789C6A3
:10529400930500086F00B07F03C7470111C7238A35
:1052A400070081460146EDB703D7670011CB83871A
:1052B400070063D707008146014681456F10A0109F
:1052C40082805D71A2C4A6C2CAC04EDE62D486C604
:1052D40052DC56DA5AD85ED666D26AD06ECE83CA0B
:1052E4000500930700022A8413FC0A06AE89B284DF
:1052F40036896306FC5A93070004630BFC6263025D
:105304000C020145B640264496440649F259625AB5
:10531400D25A425BB25B225C925C025DF24D6161E7
:10532400828093FA3A008546638CDA348947638530
:10533400FA50E3980AFC03C71900A54783D5250052
:10534400E3E1E7FC9716000093864636931727009F
:10535400B6979C43B69782871C421387C12D23803E
:1053640007009307C023B307F502BA9783C7E71171
:1053740081CB144283C7060093E717002380F6000D
:105384009307C023B307F4023E978347071281CBE8
:1053940098408347070093E727002300F7009C40C9
:1053A400A38007008947B1A285476393F5028D4620
:1053B4009387C12D6311D7021307C0233307E50276
:1053C400BA972380B71283A78723A545228582979E
:1053D400232009000DA21307C0233307E502A945C2
:1053E400BA972380071283A78723CDB71307C02357
:1053F4003307E5029387C12D93F5F50FBA97A38E72
:10540400B710EF009056E9B793D78500FD1793F7CF
:10541400F70F3947E367F7EE171700001307872BD9
:105424008A07BA979C43BA978287EF00B05513074F
:10543400C0233307E4029387C12DBA972381A712AF
:105444009C4F9C438297E30E05EA8347050089A09D
:105454009307C023B307F5021384C12D3E941C4C5B
:1054640003452412DC438297E30D05E883473500A6
:1054740003472500A207D98F034775001983058BBD
:10548400230FE410034775001583058BA30FE41065
:1054940088C085A01307C0233307E5029387C12D75
:1054A40093F9F50F9306E00EBA97984F6397D900D6
:1054B4005C4BE38807E4884349BF184B03C52712B4
:1054C400CE8502972A84E30E05E263980902984088
:1054D40091478D462300F7009840A300D7009840D9
:1054E400834605002301D700984083461500A30195
:1054F400D7002320F900054531B5EF007076131766
:1055040005014183930717008607C207C1839306E9
:105514000010E3E8F6DE94400D462380F600944044
:10552400A380C6000946814693950601C181E3F232
:10553400E5FC8C403305D40003450500B29585068F
:105544002380A5008C40B295A38005000906E9BF1D
:105554001307C0233307E5029387C12DBA97984FE9
:1055640003C5271258470297E30D05D88347350032
:1055740003472500A207D98F21BF1307C023330790
:10558400E5029387C12DBA979C4F9C53E38B07D6B2
:105594008843DC43F5BD1307C0233307E502938733
:1055A400C12D1442BA9783C7C7112380F6008547DB
:1055B40089B793F7F50F138CC12D91EB9307C02393
:1055C400B307F502B309FC00238E091011B5930744
:1055D400C023B307F50293F4F50F814A014A130B74
:1055E400F00F930BF00F914C154D894DE297984FA6
:1055F40003C5271258430297AA89014583C70900A6
:10560400A1C383C71900638197056382A705639FBC
:10561400B70103CB5900639B640103CA390083C7F4
:105624002900814A220A336AFA00054583C7090022
:10563400BE9983C70900BE9AE3E24AFDE3000AFC6F
:1056440019ED2320090075B983CB3900C5B7E39F51
:1056540064FDE39D0BFCCE8522855D36C1BF9307B7
:10566400C023B307F4029D45014622853E9C230EC8
:105674009C10A3000C12493483278C239D45B9B395
:10568400130AC023330A4503138BC12D83DB250082
:1056940083DC45005A9A83278A0103452A12DC4396
:1056A40082978347CA11E38E07C403C71900A9462A
:1056B40013F8FC0F6308D71263E5E60251CF99474C
:1056C400E311F7C413D78B0093071002631EF70C82
:1056D4009305F00F01478147914813031002094EC7
:1056E4007DA0AD47E31FF7C003CC2900B3070A012F
:1056F40003452A122382871783278A0183CB490013
:10570400014ADC438149130BF00F8297AA84930A60
:10571400F00F814C114D954D094783C70400638FE9
:10572400070E83C714006388A70D6380B70F639ABD
:10573400E70083C9340083C72400014AA209B3E9FE
:10574400F90083C70400BE9483C704003E9AE3664D
:105754003AFDE38409FCD9A09C402380070081B171
:105764008346150063891603638A66026399C6013A
:105774008347350003472500A207D98F0147329597
:105784008346050036976364F700E39C07B6034637
:10579400050079F6BDB683452500D5B7E311B8FEFB
:1057A40088C083470500B1B393072002E31BF7B415
:1057B4001307C0233307E402B307EB0083C647177C
:1057C400E301DCB403A7471209CB03468701631640
:1057D40006011C4B9CC05C4B29BB050C137CFC0FC5
:1057E4009107F9BF429A9C4003474A162380E70079
:1057F4002320590109B303CB240083CA3400E39264
:105804006BF5E3105CF5A68C2DBFE39C6BF3631D75
:105814000C0083C524002285EF00D01C6686A145B8
:105824002285EFF07F8D6DB6E31D5CF1A6852285A0
:10583400EFF01F9D094731B71307C0233307E50273
:105844009387C12D83D54500BA9783C7C711E38ACF
:1058540007AA83C7190093F5F50F6384D7020D4790
:105864006388E702E39F07A81306F100EF00F02125
:105874000347F1009C40E30207EE05472380E7005D
:1058840039BE83D72900E39E07DAEF00F01BA5B1E8
:1058940083D72900E39707DAEF00301715BE93FA90
:1058A4003A008547639BFA041307C0233307E502D4
:1058B4009387C12DBA9703C6471701476314C700DE
:1058C4007D551DA083A6471285C603A80600630163
:1058D400080283C5860183C64900639BD500CA8636
:1058E4002686CE85228502981345F5FF7D8119BC55
:1058F40005071377F70F9107D1B78947E393FAA008
:105904001307C0233307E5029387C12DBA9703C653
:1059140047170147E306C7FA83A6471289C603A8B7
:105924004600E31E08FA05071377F70F9107DDB762
:105934009307C023B307F502138BC12DDA97984F51
:105944005C4BB9C703C6150083C647006316D60669
:1059540003D745009146630CD7009546E313D79AC5
:1059640003D72500DC470A07BA97984311A0984744
:105974008347170083460700A207D58F8346270075
:10598400C206DD8E8347370098C0E207D58F95B6EF
:105994001C4F9DC303C6150083C66700631ED60053
:1059A40083D645001D47E39EE69403D747009C43F6
:1059B4009CC02320E90081B65C4F99C783C61900B7
:1059C40003C707006382E602930AC023B30A5403A1
:1059D400930BF008014AB30B7403DA9A83C74A178E
:1059E4006366FA047D55BDA083D649000947E39A4E
:1059F400E69003C7670083C6570003C62700220743
:105A0400558F83C677002206C206D98E03C7870046
:105A14006207558F83C61700558E83C6370083C728
:105A24004700C206D18EE207D58F59B7B3874B0121
:105A3400938787048A07DA97DC4389E7050A137A90
:105A4400FA0F69BF9C47FDDBCA862686CE85228570
:105A540082976DF50505058975B035CA9307C0238E
:105A6400B307F5021388C12D3287411122C406C63B
:105A74002A84B305F8009045D4453A96998E90C58A
:105A8400D4C5A1E21387C70193860701A1074297F2
:105A9400C2963306F80098C5EFF0BF8209E9228563
:105AA4002244B2409305000841016F00007622852C
:105AB4002244B240814601469305000841016F002B
:105AC400007D2244B240814541016F00D00F8280A5
:105AD400011122CC26CA2A849304C023B30494025D
