:040000006F00105D20
:10000400000000000000000090000020EE0400202A
:10001400A9BDF9F5900000200000000000000000D8
:10002400900000209000002000000000000000006C
:10003400900000200000000090000020000000005C
:1000440090000020900000209000002090000020EC
:100054009000002090000020E20500200000000035
:100064009000002090000020920000205401002005
:1000740090000020900000209000002090000020BC
:1000840090000020900000209000002090000020AC
:1000940001A037370040834747009946BD8B638DE5
:1000A400D702011122CE26CC4ACA3147639EE7000B
:1000B40037340040A144138901E68347A40093F731
:1000C400F70FA9CB8147A5A011476395E7048147A2
:1000D400B7360040A14521A883475700730020305C
:1000E40003C6860038003E972300C700850703C770
:1000F400A60013F6F70F1377F70F01CFE392B7FEBD
:1001040021462C00138501E6975000E0E780A011FA
:1001140011A065FA7244E24452490561730020302B
:100124008346840038003E972300D70085070347A1
:10013400A40013F6F70F1377F70F19CBE39297FE8A
:1001440021462C004A85975000E0E780C00DB5B7E2
:100154002DD6C5BF37370040834747409946BD8BEE
:10016400638DD702011122CE26CC4ACA3147639E41
:10017400E70037340040A144138901E78347A440D2
:1001840093F7F70FA9CB8147A5A011476395E7041F
:100194008147B7360040A14521A8834757407300E3
:1001A400203003C6864038003E972300C7008507E9
:1001B40003C7A64013F6F70F1377F70F01CFE392A7
:1001C400B7FE21462C00138501E7975000E0E78035
:1001D400800511A065FA7244E24452490561730036
:1001E40020308346844038003E972300D70085079B
:1001F4000347A44013F6F70F1377F70F19CBE392D5
:1002040097FE21462C004A85975000E0E780A00124
:10021400B5B72DD6C5BF73270080218B9387C185C1
:1002240009CB7327008023AEE18498435D9B731050
:100234000780010001003717004093067005230072
:10024400D704930680FA2300D704010001008346F3
:10025400B70493F6F60DA305D70423000704F32689
:1002640000809843218B558F7310078023AE01843F
:100274000100010013770502630F07107327008044
:10028400218B09CB7327008023AEE18498435D9BC7
:1002940073100780010001003717004093067005B2
:1002A4002300D704930680FA2300D7040100010039
:1002B400B70614007D89558D08C7010001000100AF
:1002C400010023000704F32600809843218B558FF7
:1002D4007310078023AE018401000100732700809E
:1002E400218B09CB7327008023AEE18498435D9B67
:1002F4007310078001000100371700409306700552
:100304002300D704930680FA2300D70401000100D8
:1003140001000100B726004013061005A383C68020
:1003240023000704F32600809843218B558F731014
:10033400078023AE01840100010073270080218B14
:1003440009CB7327008023AEE18498435D9B73102F
:100354000780010001003717004093067005230051
:10036400D704930680FA2300D704010001008346D2
:10037400B70493E60608A305D704230007047327EC
:1003840000809C43A18BD98F7390078023AE018496
:100394000100010082801377050455C37327008090
:1003A400218B09CB7327008023AEE18498435D9BA6
:1003B4007310078001000100371700409306700591
:1003C4002300D704930680FA2300D7040100010018
:1003D400B7061400938606047D89558D08C701006D
:1003E40001000100010023000704F3260080984364
:1003F400218B558F7310078023AE01840100010007
:1004040073270080218B09CB7327008023AEE184FE
:1004140098435D9B7310078001000100371700406B
:10042400930670052300D704930680FA2300D704AB
:1004340001000100B726004013062005C5B5732747
:100444000080218B09CB7327008023AEE18498437D
:100454005D9B73100780010001003717004093066D
:1004640070052300D704930680FA2300D704010003
:100474000100144793E6060C14C75DB5411181468B
:1004840001468145114506C6E92BF3270080A18B5F
:100494009386C18589CBF327008023AEF1849C42E7
:1004A400DD9B7390078001000100B717004013071C
:1004B40070052380E704130780FA2380E704010012
:1004C400010003C76704136717002383E70423802D
:1004D4000704732700809C42A18BD98F73900780F7
:1004E40023AE018401000100B240410182808146B3
:1004F400014681451145B523F3270080A18B13875D
:10050400C18589CBF327008023AEF1841C43DD9B96
:100514007390078001000100B7170040930670052F
:100524002380D704930680FA2380D70401000100B6
:10053400FD562396D70223800704F32600801C432C
:10054400A18BD58F7390078023AE01840100010035
:10055400F3270080A18B89CBF327008023AEF1849D
:100564001C43DD9B7390078001000100B717004016
:10057400930670052380D704930680FA2380D7045A
:100584000100010083C6670493E616002383D704A1
:1005940023800704F32600801C43A18BD58F73901E
:1005A400078023AE01840100010001A0BD4733058B
:1005B400F50201007D1575FD8280411122C426C219
:1005C40006C6AA84014463179400B24022449244AC
:1005D4004101828005041305803E4204C13F4180ED
:1005E400DDB70111A307010022CE26CC4ACA4EC8AA
:1005F400378400408347640093F7F70FA307F100A3
:100604008347F100898B638007368347740013079F
:10061400000393F707036389E7088344740083475F
:100624007400BD8893F7070363880720130700024B
:100634006397E706172900001309C9866395041414
:100644009727000083C7479E9D83FDCF83472402DD
:1006540093C707042301F4028347240293F7C70FC7
:1006640093E727002301F40283274901172600009A
:1006740003468683637EF60A918F17270000232D95
:10068400F782832789013E969727000023A8C78213
:10069400930500080145976000E0E780008FB78765
:1006A400004009472383E7003784004083477400F0
:1006B400E207E18763D70706930720FC2301F402CE
:1006C400971400009384047E83A5840C2146172587
:1006D400000013056595976000E0E780C0E9838713
:1006E400441863CA0700230004028347240293F7D3
:1006F400C70F2301F402378400408347240297255F
:10070400000093856592014593F7370F93E78700BF
:100714002301F402975000E0E780A05A894723039D
:10072400F4007244E2445249C24905617300203026
:10073400032689013E969717000023A1C7789717CF
:10074400000023AB0776A9B7172700000347D78D0E
:100754009547631BF700834734000347090093F769
:100764000708D98FA301F4008347240293F7C70F26
:1007740093E727002301F4028347240293F7370FFA
:100784002301F40229BF91476398F40083472403AB
:1007940093C707042309F402154433D4840293074E
:1007A40000033304F402939724003E94B787004077
:1007B400938727023E948347040093F7C70F93E778
:1007C40027002300F400E147B387F402CA97D84B0B
:1007D40003C64700944F6379E6048C4B118FB2969D
:1007E400B2958CCBD8CB94CF88476376E6029760DA
:1007F40000E0E78040D8E147B384F4028547CA9417
:1008040003C75400630BF7008347040093F7C70F33
:100814002300F40069B53A86D9BF8347040093F7EF
:10082400C70F93E71700EDB73306D70090CF23AA7D
:10083400070093E50408B9BD154933D924039397F8
:1008440024003309E9023E99930724023E99834721
:10085400090093F7370F93E787002300F900B9ECF9
:1008640083472402171900001309C96393C70708B3
:100874002301F402834484008325890C0325090D94
:1008840093F4F40F2686976000E0E780C0CE032639
:10089400890D8145014526969717000023A0C76E50
:1008A4008327490D858F171700002327F76C97506E
:1008B40000E0E780E06FE39404DE7DBD83477400CD
:1008C40093F70704E38D07DC91476398F4008347AB
:1008D400240393C707082309F402B787004061443F
:1008E40083C98700B3878402171400001304845B50
:1008F40093F9F90F4E863E948325840C0325040D49
:10090400976000E0E78020C78327040D0326840D49
:100914000347440CCE972328F40C8327440D4E96AA
:10092400232CC40CB3873741232AF40C63E3E90076
:1009340081EBA6850145975000E0E780606785B3A9
:100944000347540C85476309F7008347090093F76D
:10095400370F2300F900A1B38347090093F7370F3A
:1009640093E74700FDB78347F100858B85C3A30157
:1009740004000145975000E0E780202E83472402BD
:1009840093F7370F2301F402854751BB8347F100E6
:10099400918B89C783475400914751B38347F10032
:1009A40093F7F70FADBB2303048015472303E480BB
:1009B40001002302A480828083076480E3CE07FEC3
:1009C40023030480828083076480E3CE07FE03450B
:1009D4004480828083076480E3CE07FE2302A480E0
:1009E4008280411126C44AC24EC006C61377F50B55
:1009F400AD47AA892E8995446306F70019456537E2
:100A0400653F8D444E854537FD59FD146398340187
:100A1400B240A2441249824941018280135509011E
:100A24001375F50F453F2209CDB7011126CC06CE2B
:100A3400B704080051371545BD37713769372AC6E1
:100A4400A53F32459377150089EB1365150013759F
:100A5400F50FF240E24405618280FD14E9FC014592
:100A6400CDBF397126DC4ADA4ED852D656D45AD282
:100A74005ED006DE62CE66CCB7E700E07D5783AA7F
:100A8400070022C603AA470023A0E71823A2E718F9
:100A9400B7170040130770052380E704130780FA93
:100AA4002380E70483C74704930B75FFB684E207EA
:100AB40093FBFB0F8546AA892E8B3289372400408D
:100AC400E187015763FA76016308D5008946130765
:100AD40000026313D5000157D98F93F7F70FB71CA2
:100AE40000402382FC0411472303E4801305F00F24
:100AF4005D3D094CD135636D7C11B7050700DA956E
:100B040037870700795563F2E504B3879500636E70
:100B1400F702370B0800A94733EB65016399F9061F
:100B240089E48144513D26850DA0DA850945553D6A
:100B340005090345F9FFFD14050B693D81C493774D
:100B4400FB0FFDF7DD3569FD7D55B7170040130731
:100B540070052380E704130780FA2380E70403C7A2
:100B64004704418B2382E704F250B7E700E023A057
:100B7400571123A24711E25432445259C259325AEE
:100B8400A25A125B825B724CE24C21618280A547BF
:100B94006395F90685691309F00FB3069900B374D8
:100BA4002B01B6941349F9FFB3749900856B33791B
:100BB4006901416B9387F9FFB3F7270199E363FC5C
:100BC400340193D94900C147E3E637FF99BF05696A
:100BD400C1697D19D9B71305800D638869011305AF
:100BE40000026384790113051008CA85DD3B353D95
:100BF40021DD4E99B3843441D9B7DA852D45D533F7
:100C0400CA94E30099F205097D3BA30FA9FED5BF61
:100C14009387F9FF93F7F70F6361FC0C83C71C04F8
:100C240013073008631FF70437070800636BEB04EE
:100C3400B3079B00B706100063F5D704334BEB00F2
:100C440089476393F9068980D549E38C04ECDA85F6
:100C54000945413B11090327C9FF91472320E4803B
:100C640003076480E34E07FE23033481FD17EDFB85
:100C7400FD14110B81C49377FB0FE9FF7D3371F5EC
:100C8400E1B5B717004003C75704B7070800137747
:100C9400070219E3B78707007955E378FBEA3307BE
:100CA4009B00E3FFE7F855B58547E382F9F2DA855F
:100CB4002D45053B9389F4FFE38504E6293393F737
:100CC400390091EB83260480032709009307490028
:100CD400E39AE6E43E89CE84F1BFB5476396F90012
:100CE4001305900BC93135BDB1471305B00AE38B29
:100CF400F9FE99476391F904B7050800B365BB0091
:100D04002D45C53181448D4BA149753963967401D4
:100D1400832704802320F9008504E39834FF832784
:100D2400048013172B01635507002312F900D5BB68
:100D34002322F900FDB39D476399F9028145130508
:100D4400B0044531BD442320090023220900FD5984
:100D54009D3993F77400CA9703C70700FD14398DB2
:100D64002380A700E39634FF6DBBA1476392F90487
:100D74006D398144630D0B008D479304C0036308F0
:100D8400FB009304000563048B0193044004137572
:100D9400C507E30895D81945393139390545213155
:100DA40026850D3909453D314931E31C05D669BB1A
:100DB40091476399F90013056006F536F53E13056E
:0C0DC40090090DB7E38F09D4F154A9BBCE
:100DD000971100209381018117610020130181A2E6
:100DE0001305400097F5FF1F9385C52117060020C6
:100DF000130606FE63FAC5008322050023A05500F2
:100E000011059105E3EAC5FE17650000130545AD20
:100E1000970500209385C5FB1386018463FAC500FE
:100E20008322050023A0550011059105E3EAC5FEC4
:100E300013850184971500209385851F6377B5007E
:100E4000232005001105E36DB5FEFD42739002BC41
:100E50008D4273904280B72200009382828873A0F3
:100E6000023097F2FF1F9382E21993E232007390EF
:100E70005230970200009382820B739012347300F9
:100E800020303D432A876373C3029377F700BDEF99
:100E9000ADE5937606FF3D8ABA960CC34CC30CC7EA
:100EA0004CC74107E36BD7FE11E28280B306C34013
:100EB0008A069702000096966780A6002307B7006F
:100EC000A306B7002306B700A305B7002305B700A4
:100ED000A304B7002304B700A303B7002303B7009C
:100EE000A302B7002302B700A301B7002301B70094
:100EF000A300B7002300B700828093F5F50F939607
:100F00008500D58D93960501D58D61B79396270001
:100F10009702000096968682E78086FA9680C1172F
:100F20001D8F3E96E374C3F8A5B74111054506C66B
:100F3000EF0020711545EF00005E1305800497F067
:100F4000FF1FE780802D692B55291923012CE52CE3
:100F5000A92BF5BF17550000130545798280175559
:100F600000001305257082809147014563E9B700B1
:100F70008A05976700009387E785BE958841828040
:100F8000238001848280011106CE22CC26CA32C67B
:100F9000AE84DD2132461384418EA285138541A2A1
:100FA000EF40202822866244F240A685D244930670
:100FB0000004014505616F5020549D47639BF50473
:100FC0002395018423940184239201842391018435
:100FD000239A018423990184239701842396018411
:100FE000238301844111854793060004138601A5DC
:100FF0008545014506C62388F184EF50E04FB24095
:10100000930600041386418E9145014541016F50BE
:10101000A04E8280411106C685219387818403D723
:10102000070003D70700138601A5938621841A07BA
:101030003297834507001D47639BE50205472380E0
:10104000E18603D7060083D64184158F420741838A
:10105000A1466300D70483D70700B240930600047B
:101060009A073E968545014541016F50E04803D7F8
:10107000070005072394E18403D70700A145639483
:10108000E5002394018403D7060005072391E1843A
:101090004DBFB24085472383F1844101828083D7CD
:1010A00041858507239AF18483D64185A14713871B
:1010B00041856394F600239A018483D7E1848507F0
:1010C0002397F18483D6C18483D7E1846386F602B3
:1010D0008357070003570700138601C59A07931625
:1010E0001700138701E53697835607003E96930550
:1010F000100801456F50E03385472388F1848280D2
:10110000411122C43284A2851D461385C18206C6C0
:10111000EF5020468347140003450400A207C98FFF
:10112000034524004205C98F0345340062055D8DE7
:1011300019C5EF00206D2244B240410135AEB240E6
:10114000224441018280411132859385C1821D462E
:1011500006C6EF500042B240410182800111814633
:10116000300081451D4506CE97000020E780A08F06
:1011700039E1170700201307A7C51756000013060B
:101180002658A1453C00AA9783C707000505090713
:1011900093D64700BD8BB296B29783C6060083C72D
:1011A0000700230FD7FEA30FF7FEE31DB5FC97073B
:1011B0000020238707C213060010938541921385F0
:1011C00041A2EF40A003EF10301A9755000093851D
:1011D000A54F0145EF40F05F938541A30145EF40E6
:1011E0009064938541820145EF4010679385C181EA
:1011F0000145EF4070669385C1860145EF40D06F91
:10120000AA850145EF403062938581880145EF4012
:10121000B06EAA850145EF4010619385418101457B
:10122000EF4090639385C1800145EF40F06217065F
:1012300000001306C6D8B78500400145EF4050684E
:10124000F240056182801D71A2CCA6CACAC8CEC672
:10125000D2C486CED6C2DAC05EDE938421841384E3
:101260004184138901C5938901A5138A01E503D738
:10127000040083570400C207C183638EE70083D74D
:10128000C18403D7E184998FC207C1831D47938A24
:10129000C1846377F706130600020C08138541A288
:1012A000EF40C00311C593150501C1810808F52B56
:1012B0000145EF40705F15C983C701849DE71306A0
:1012C00000049385418A138501E6EF40200111CD8A
:1012D0002AC65D22B24685471386418A9305400897
:1012E00001452380F184EF50C014F6406644D64493
:1012F0004649B649264A964A064BF25B25618280EA
:10130000138BA18483570B0083570B0003550B00ED
:1013100083D521859A051A05CA954E95EF10A07DB3
:1013200083D721858607938B2185D2972390A700A9
:1013300083D70B0083D70B0083570B0085072395BA
:10134000F18483570B0021476314F7002395018430
:101350008357040085072392F18483C761849DC766
:1013600083D7040003570400998FC207C183214724
:10137000638EE7002383018403D681841A069306D3
:1013800000044E9685450145EF50001783D70B00AA
:1013900085072399F18483D70B0021476314F70055
:1013A0002399018483D70A0085072396F18483C794
:1013B0000185E38E07EA9387E18403D70A0083D788
:1013C0000700C207C183E384E7EA2388018403D6C8
:1013D000418583D741858607D29783D607001A06B1
:1013E0004A96930510080145EF50A00449B5B7E7A8
:1013F00000E03707400023A0E71082804111C1457B
:10140000014506C61524371700408327870C8D45F4
:101410001305000893E707082324F70C9D22854550
:1014200041458522012901453D29954505458929E3
:10143000B240B7E700E03707000423A0E710130627
:101440000040938501E8138501E641016F30105B90
:10145000371700408327C70C4111B706800006C626
:10146000D58F2326F70C8D4537058000192AB24009
:10147000238B018441018280371700408327870C2A
:101480004111B706800006C6D58F2324F70C5920DA
:10149000B7C72D009387076C3E9523ACA184B2405B
:1014A0008547238BF1844101828083C7618585CB89
:1014B000411106C68520938781859C431D8D634D10
:1014C0000500371700408327C70CB7068000D58F6B
:1014D0002326F70C238B0184B24041018280828055
:1014E000B7F700E0795690CBFD56D4CB37E600E055
:1014F00085652320B6101307F00298C39843B706FA
:10150000008093C6D6FF758F98C32320B6180100BC
:1015100001008280DDA4B717004083C7E7041205ED
:1015200093F7F708C98F93F7F70F73270080218B84
:101530009386C18509CB7327008023AEE18498424E
:101540005D9B7310078001000100371700401306F0
:1015500070052300C704130680FA2300C7040100A6
:1015600001002307F70423000704732700809C422F
:10157000A18BD98F7390078023AE018401000100F5
:101580008280914763EEB702175700001307C72503
:101590008A05BA959C41BA978287B717004003A77E
:1015A000470D1345F5FF698F23AAE70C03A7070D25
:1015B000698F23A8E70C03A7070C798D23A0A70C3C
:1015C0008280B717004083A6470D1347F5FFF98EB9
:1015D00023AAD70C83A6070D558D23A8A70C83A695
:1015E000070C758F23A0E70C8280B717004003A774
:1015F000470D498F23AAE70C03A7070D1345F5FFF5
:1016000045BFB717004083A6470D1347F5FF758FF9
:1016100023AAE70C03A7070C598D4DB7B717004055
:1016200003A7470D498FEDB7B717004003D78701D0
:1016300009C5D98D239CB700828093C5F5FFF98D2C
:10164000D5BF0111B717004022CC26CA83D4270288
:1016500003D4070206CEC20442044AC8C1804180B6
:1016600025ED93F4F4F71374F49FC2044204C1808F
:101670004180F3270080A18B1387C18589CBF32795
:10168000008023AEF1841C43DD9B73900780010032
:101690000100B7170040930670052380D704930616
:1016A00080FA2380D7040100010023919702239040
:1016B000870223800704F32600801C43A18BD58F6B
:1016C0007390078023AE018401000100F240624460
:1016D000D244424905618280B7F507008146300057
:1016E000B105194597F0FF1FE780E037A247139730
:1016F0002701E34D07FC93E4040813640440F32737
:101700000080A18B1389C18591CBF327008023AE84
:10171000F18483270900DD9B73900780010001009D
:10172000B7170040130770052380E704130780FAFA
:101730002380E70401000100239197022390870290
:10174000238007047327008083270900A18BD98F8A
:101750007390078023AE018401000100294597F0B2
:10176000FF1FE780E0E4F3270080A18B91CBF327F4
:10177000008023AEF18483270900DD9B73900780EE
:1017800001000100B7170040130770052380E7042C
:10179000130780FA2380E7040100010003D7070242
:1017A000136707202390E702238007047327008034
:1017B00083270900A18BD98F21B7B717004088472D
:1017C000420541819377050491EB9377F5013755F5
:1017D000E801130505803345F50282809377050CF7
:1017E000130700046397E7009377F50137459C1CC6
:1017F000CDB72165130505D08280B7F700E0884793
:10180000CC478280411122C406C62A847D372947ED
:10181000B307E502B2408D83B3D787022244950710
:10182000B3D7E70237370040C207C1832316F7005A
:1018300041018280716541111305052006C6D93723
:10184000B7370040130770F82381E7000D47A381E5
:10185000E70013070004A380E70005472387E7009C
:10186000B2404101828037370040834727001A0584
:1018700093F7F703C98F93F7F70F2301F7008280DF
:10188000B737004003C7170019C9D98DA380B70027
:1018900003C70700136787002380E700828093C592
:1018A000F5FFF98DA380B7008280B737004021474C
:1018B000B736004091E1828003C6B700E30CC7FE53
:1018C00005050346F5FFFD15C2052384C600C18149
:1018D000D5B7B717004003A7070A89651377F7BF85
:1018E00023A0E70A83A6070A7D771306F7FFF18E88
:1018F00023A0D70A03A6470BF976FD16758E23AAF7
:10190000C70A03A6070B1307F77F4D8E23A8C70A44
:1019100003A6070AF18E23A0D70A83A6470B056604
:1019200013060680F98E23AAD70A83A6070BD18E49
:1019300023A8D70A83A6070A758F23A0E70A03A75F
:10194000070AF176FD16758F23A0E70A03A7070A99
:10195000E176FD16758F23A0E70A8280B7777200C3
:101960009387F70D63F9A7008547A380F128854782
:1019700023A2F1288280A3800128B7C7C9019387D9
:10198000F737AA9733D5A70211478547E302E5FE4B
:1019900079158D47B357F502E1BF597186D6A2D4A8
:1019A000A6D2CAD0CECED2CCD6CADAC8DEC6E2C45F
:1019B000E6C2EAC06EDE834705007D4793C607088E
:1019C0006363D702EF30B002B650265496540659DE
:1019D000F649664AD64A464BB64B264C964C064DBF
:1019E000F25D65618280138715003AC42380F5009B
:1019F00075472E846374F7006F10000F17570000AF
:101A00001307C7DF8A07BA979C43AA84BA978287CD
:101A1000834715001307000F638EE7066360F70224
:101A20000D47638CE7021147638BE70401453709D3
:101A30000200A300A40009094A9579B71307E00F33
:101A40006382E7061307F00FE392E7FE93070004B3
:101A50002381F500A3810500A1A017F7FF1F13073D
:101A600027379387250093863501030607008507EE
:101A70000507A38FC7FEE39AF6FE45454DBF1946FD
:101A800097550000938545E513052400EF40702E1F
:101A9000194571BFCD472381F5008547A381F50026
:101AA000094571B7A1472381F500054549B70347AB
:101AB0001500370902008547050963F8E700FD575F
:101AC000A380F5004165050585BFA3800500DDBF46
:101AD0008347150099CB05476389E7000947638A67
:101AE000E7088147A300F400A5A685472380F128D5
:101AF000B717004003A7870A85668965558F23A419
:101B0000E70A03A7070A558F23A0E70A03A6870A57
:101B1000938606804D8E23A4C70A03A7070A4D8F1C
:101B200023A0E70A03A6870A7D771307F77F798E3C
:101B300023A4C70A03A6470B798E23AAC70A03A6C4
:101B4000070BD18E23A8D70A83A6070A758F23A077
:101B5000E70A03A7070AF176FD16758F23A0E70AA7
:101B600003A7070AE176FD16758F23A0E70A8547CC
:101B700095BF2380F128B717004003A7870A856621
:101B80008965558F23A4E70A03A7070A558F23A069
:101B9000E70A03A6870A938606804D8E23A4C70A08
:101BA00003A7070A4D8F23A0E70A03A6870A9165BA
:101BB0004D8E23A4C70A03A7070A4D8F23A0E70A67
:101BC00003A6870A7D771307F77F798E23A4C70AB8
:101BD00003A6470B798E23AAC70A03A6070BD18E4B
:101BE00023A8D70A83A6070A758F23A0E70A03A7AD
:101BF000070AE176FD16758F23A0E70A8947DDB550
:101C0000238001280549F131A300040065BD834705
:101C1000250003471500A207D98F5147B387E70274
:101C20003ED6B257FD173ED6B257E5FFA3000400DB
:101C300037090200050979B523810500A380050055
:101C4000094949B503464500834635000347250049
:101C50002206558E834655001378170083471500DA
:101C6000C206558E83466500E206D18E630E0800DB
:101C700013F6170063000612B715004003A6850A85
:101C80000565498E23A4C50A93782700638E080052
:101C900013F6270063060610B715004003A6850A51
:101CA0000965498E23A4C50A13734700630E030018
:101CB00013D62700058A7DCAB715004003A6850AFA
:101CC0001165498E23A4C50A131E8701135E8E4138
:101CD000635F0E0013D6770065C6371500400326F4
:101CE000050AFD759385F57F6D8E2320C50AADC26B
:101CF00013D5170093DE270013DF570093D5770025
:101D00003716004013770702854F630808008326C3
:101D1000460AB182858AE39AF6FE63880800832624
:101D2000460AB582858AE312D5FE6308030083263E
:101D3000460AB982858AE39ADEFC19C3E317FFFDE0
:101D400063580E008326460AAD82858AE39FD5FA42
:101D5000B715004003A6450A83A7450A83A6450A8E
:101D600003A7450A83A5450AB183898B918193F521
:101D700005083182CD8F058AB182D18F918A318356
:101D8000D58F218BD98F93E70702A300F400370981
:101D900006004DB53716004085652326B60AEDB519
:101DA0003716004089652326B60AFDBD3715004069
:101DB0000326850AF175FD156D8E2324C50A29B702
:101DC0000566B71500401306068023A6C50A03A5BD
:101DD000050A498E23A0C50A19BF83C724000345FD
:101DE0001500A207C98F03C534004205C98F03C57A
:101DF000440062055D8D19E5FD57A380F5003709A4
:101E000004000DBDA13EA3000400D5BF0349150089
:101E10009305250063140900130900104A851D0964
:101E2000EF00105813593900A300040005094209B6
:101E30001369190041B98347150013F737008983E7
:101E40000507858B238CE128A38CF128A38005004E
:101E50004169CDB3A3800500034A1500797C938BBB
:101E6000250093072500054B05497D5D371400408B
:101E700089697D1C7D1A6316AA01420933696901CB
:101E800091B103C50700938A17009374F50399E095
:101E900093040004931C85019D0493DC8C418D8088
:101EA00063D30C048327840AB3E737012324F40A9D
:101EB0008327040AB3F787012320F40A5E86D685B8
:101EC000EF007056631A0A002326340B8327040A96
:101ED000B3E737012320F40A050963DD0C00A69B54
:101EE000269BD68741BF2326340B8327040AB3E7FA
:101EF0003701D9B7A69A2699EDB7A3800500034A02
:101F00001500938A25009307250085490549FD5B47
:101F10007D1A63167A0142093369390165B683C4B3
:101F20000700138B170013F4F40319E013040004E3
:101F300026851D045686DA850D80EF10502CE204AC
:101F400013071400E184B3078B003A99E3D204FC31
:101F5000A29AA29975BF03491500138701283A86F2
:101F6000238D2129BA85814681478505090663ECC1
:101F700026011386012881460507090663E026032A
:101F8000A300040065B53385D4000345250085060C
:101F9000A38DA5002311F602AA97C1BF8345B701FF
:101FA00085068D8F2319F602C1BF03C70128894713
:101FB0006311F70483471500A38DF12803C7A129F6
:101FC00063F9E7023945EF200016EF1050339357BD
:101FD00085002301A400A301F40041699357050182
:101FE0006181A30004002302F400A302A4001509E8
:101FF000D1BCFD57C5BC834715002386F128834714
:10200000350003472500A207D98F2398F12883477D
:10201000550003474500A207D98F2399F128A30053
:1020200004003709050039B1930715003ECA03CDF6
:1020300001288547938D01286306FD0289476307C0
:10204000FD38034725001309350063160770D24792
:10205000A3000400230104003309F9404209136975
:1020600029008DB4930C3500834B2500138935006E
:1020700023800186014B014C014502C8894A93899E
:102080000186054A63990B0485466316D5026309E8
:102090000C3083D40129094A938901866C10394593
:1020A000EF00D048631B452D99C403C70900FD14F8
:1020B0001377F70F65D7C2472301A400A300F400EC
:1020C000D247B387FC4013950701A2473309F94073
:1020D00033692501C5BA83C40C0093871C003EC632
:1020E00093F624006385061E63070C0893F614011B
:1020F00003DD0129639F46036C102685EF00104322
:10210000631A550563080D0083C609007D1D93F60B
:10211000F60FFDD2B24C83C60C0013F62600630CFA
:102120000624C18A63990624850CFD1BE3950BFEEA
:10213000A1BF6C103945EF00703F631C5501630867
:102140000D0003C709007D1D1377F70F7DD3014CE8
:10215000D1B7014CE31045FDB256110913D68600E4
:10216000230ED9FEA30EC9FE13D60601E182230F6A
:10217000C9FEA30FD9FE13F6040183D6012993F5F6
:1021800014004DCE03CD2C0003C61C0093875C00C9
:10219000220D3366CD0003CD3C003EC6420D336DAB
:1021A000CD0003C64C0083DC21296206336DA601F5
:1021B0009DC18145268536CCEF005037631B550104
:1021C000E246A9DA83C70900FD1693F7F70FF5D3A6
:1021D00091B7E31145F503D801296C10268542CC4F
:1021E000EF00D034AA8763165503624863080800DD
:1021F00083C609007D1893F6F60FE5D283A64D013C
:102200003256F18E6308DD0213E507011375F50FF1
:1022100011B783A54D01B256ED8EE31145FFE30FD3
:10222000DDFCE38D0CFC83C60900FD1C93F6F60F64
:10223000DDD2E9B7E39047EF014B0DA8B1C5E31D2F
:102240000CFE8145268536CCEF00502E631C5501CF
:10225000E246E38E06EE83C70900FD1693F7F70FFB
:10226000EDD34DBDE31845EB014B054CC2479386BA
:10227000FBFF85073EC883C7090093F7F70FE39B71
:1022800007E8B68BB24CFDBB6C10268536CCEF0050
:10229000F029631C5501E246E38E06E683C7090078
:1022A000FD1693F7F70FEDD3B5B5E31545E7B25734
:1022B000110993D68700230EF9FEA30ED9FE93D6FB
:1022C0000701E183230FD9FEA30FF9FEB5B763041D
:1022D0000C0403DD01296C103945EF003025631B28
:1022E0005501E3090DE283C609007D1D93F6F60F43
:1022F000FDD20DB5E31045E332571109935687001F
:10230000230EE9FEA30ED9FE935607016183230F26
:10231000D9FEA30FE9FE83C62C0003C71C009387D8
:102320005C00A206D98E03C73C003EC693F70402A8
:102330004207D98E03C74C006207558F3AD691C722
:1023400023AAE128014C054515B703DC01296C10CF
:102350002685EF00B01D631B5501E30D0CDA83C722
:1023600009007D1C93F7F70FFDD3D5B3E31145DFCB
:10237000054B014CE5BD950C4DBB0547E31DE5D272
:102380003257110993568700230EE9FEA30ED9FE9A
:10239000935607016183230FD9FEA30FE9FE21BBEA
:1023A000E30B0BD083D40129094A93890186814527
:1023B0003945EF00B017E31045D1E38E04CE03C7D3
:1023C0000900FD141377F70F7DD3F5B12380018643
:1023D0008347150013893500A38DF12803C7A12970
:1023E00063F6E736930C3500034C2500014781491D
:1023F000014502C8094B938A0186854B63100C0680
:10240000BA840547631CE50229476385E400294532
:10241000EF10705183D40129094A6385092E9389ED
:1024200001866C103945EF20A02B631E452F99C4FF
:1024300003C70900FD141377F70F65D7C24722477A
:102440002301A400A300F400D2473309E940B38775
:10245000FC40C20733E927016FF0CFE603CA0C0046
:1024600093871C003EC693741A0093762A00A90431
:102470006384061C6389090883D6012963189702BF
:1024800013760A0105E66C1052853ACE36CCEF2061
:102490002025724763186505E24699C603C60A00FF
:1024A000FD161376F60F65D2BA8465A8A9476307AF
:1024B000F700294536CCEF101047E246B6896C107C
:1024C0003945EF20E021631D65016380091A03C7C8
:1024D0000A00FD191377F70F7DD3A944814951A054
:1024E00029478149E31275FDB256110913D68600BA
:1024F000230ED9FEA30EC9FE13D60601E182230FD7
:10250000C9FEA30FD9FE93760A01F1CE83C62C0033
:1025100003C61C00A206558E83C63C00C206D18E9F
:1025200003C64C006206B367D6003ECC93875C00BE
:102530003EC683DC21296385E4002685EF10B03E8A
:1025400003D70129814552853ACEEF2060196319DE
:102550006503724719C783C70A007D1793F7F70F02
:10256000F5D3B24C03C70C0093762700638A061894
:10257000418B63170718850C7D1CE3150CFE51B5C4
:10258000E31175FF03D701296C1052853ACEEF2075
:102590002015AA87631C6501724719C783C70A0003
:1025A0007D1793F7F70FEDD3EA8715A083A64D01AA
:1025B0003257758F631D7501E246638AE6006388B2
:1025C0000C0003C70A00FD1C1377F70F45DFB25656
:1025D00003A74D01758FE246638FE61013E50701EF
:1025E0001375F50FBDBF639B09106385E400268555
:1025F000EF10703383DC012981455285EF20400EB6
:10260000631B6501E38C0CEC83C70A00FD1C93F788
:10261000F70FFDD3B9B7E31675F58549C2479306A1
:10262000FCFF85073EC883C70A0093F7F70F95FBA9
:102630002687368CB24CD9B3638D0904A94763054C
:10264000F7002945EF10302E83D601296C1039454B
:1026500036CCEF20E008631C6501E24699C603C74B
:102660000A00FD161377F70F75D3A944DDBDE31EED
:1026700075FF3257110993568700230EE9FEA30E0A
:10268000D9FE935607016183A30FE9FE230FD9FEFC
:10269000294703C62C0083C61C0093875C002206D2
:1026A000558E83C63C003EC693770A02C206558EFD
:1026B00083C64C00E206D18E36D699C723AAD1280C
:1026C000BA848149054599BF6385E4002685EF10EA
:1026D000902583D901296C105285EF206000631B7F
:1026E0006501E38009E883C70A00FD1993F7F70F36
:1026F000FDD3EDB38149E30375F3A5B5BA8439BFC2
:10270000950C9DBD9389018681453945EF10507D1B
:10271000E31645D3E38404D203C70900FD141377FD
:10272000F70F7DD321BB0547E31AE5D032571109D6
:1027300093568700230EE9FEA30ED9FE9356070198
:102740006183230FD9FEA30FE9FECDB9930C2500B9
:1027500002C80145E5B18347090093F6270091C6F9
:10276000C18B81E705097D17CDB01509EDBF83C782
:1027700001280547638DE70009476383E718A380B5
:10278000050023810500A38105000D4975A0238064
:102790000186034A35008347250013894500220A34
:1027A000336AFA0063020A2C834A450093F72A0031
:1027B00095EF930B55008149094C938C0186054D8B
:1027C00003DB0129631C3A0F894AFD5B138A0186EA
:1027D00081453945A12B631655057D1B63037B0598
:1027E00083470A0093F7F70FE5D725A893F71A0058
:1027F000E1C383D90129894B138B01868145568515
:102800003523631C7501638E090083470B00FD1996
:1028100093F7F70FE5D7814929A0854781496309D7
:10282000F508A247A300340193D98900230134019C
:10283000A301A4003309F94083C74400370504000D
:10284000898BE397078803C5340083C724002205DA
:102850005D8D05054A056FF0BF877D1AE31375FD91
:10286000B2571109850913D78700A30EE9FE13D7C4
:102870000701230EF9FE230FE9FEE183A30FF9FE02
:10288000E3010AFA63167A0193F71A0091C3B94A71
:1028900003DB01296C1056855129E31095FDE302F5
:1028A0000BF883470C007D1B93F7F70FE5D795BF17
:1028B0008149854B894C138C0186E9B703C71B00FE
:1028C00083C70B00910B22075D8F83C7EBFFC20705
:1028D0005D8F83C7FBFFE207D98F3ED66C1056850C
:1028E000B121631B8501E30E0BF283C70C007D1B36
:1028F00093F7F70FE5D735B7E315A5F38509C9B504
:10290000238001868347150013894500A38DF12894
:1029100003C7A12963FAE714034A3500834725005A
:10292000220A336AFA0063010A14834B450093FAC2
:102930001B00A90A5685EF10007F93F72B005E8BD2
:10294000A9EB138B54008149894C138D0186854D69
:1029500003471B0083470B0003DC012922075D8F1F
:1029600083472B00110BC2075D8F8347FBFFE207F4
:10297000D98F3ED66C105E85EF1090566317950B7D
:10298000E3010CEA83470D007D1C93F7F70FFDD39D
:1029900049BD83D90129894C138C018681455E8507
:1029A000EF101054631B9501E38D09E683470C007B
:1029B000FD1993F7F70FFDD3B9BD85478149E312A0
:1029C000F5E6854B294D094C938C018663187A01F5
:1029D000394B6385AA012945EF10E07483DD012995
:1029E0006C105A85EF10D04F631B8501E38B0DE20D
:1029F00083C70C00FD1D93F7F70FFDD31DB57D1A9E
:102A0000E31175E3B2571109850913D78700A30EA7
:102A1000E9FE13D70701230EF9FE230FE9FEE18338
:102A2000A30FF9FEE3140AFAEDBBE31CB5DF850939
:102A3000E3103AF3A9476385FA002945EF10A06E29
:102A400003DA0129094B938A018681453945EF1044
:102A50003049E31865DDE3060ADC83C70A007D1A06
:102A600093F7F70FFDD375BB014575B383C70128F5
:102A70000547638AE7000947638BE702FD57A30018
:102A8000F4006FF00FDA03473500834725006C1020
:102A900022075D8F83474500C2075D8F834755003E
:102AA0000145E207D98F3ED651246FF04FD78347B7
:102AB0001500A38DF12803C7A129E3F1E7FC214507
:102AC000EF10606603C5340083C7240022055D8DC6
:102AD00083C74400C207C98F03C5540062055D8DDA
:102AE000EF1060256FF0AFD3FD5741652300F40070
:102AF00005056FE07FED834605001306F00763933D
:102B0000C606011122CC4AC84EC652C456C206CED1
:102B100026CA2380D5008344150037040200416A89
:102B20001309250093892500A38095000904FD5A07
:102B30007D1AFD14639C54012285F2406244D24404
:102B40004249B249224A924A05618280CE854A852D
:102B5000EFE0BFE4935705012A94337545013E9990
:102B6000AA99C1BF6FE07FE3411106C69387012890
:102B70001307400698CB37450F000547239CE70015
:102B800013050524238007002386070023AA0700D6
:102B9000238D0700EFE09FDCB24041016FE07FD35F
:102BA00051C1B716004041111306F5FF0148014716
:102BB000938801281383C60A896F056F856E7D5E31
:102BC000630D08047D1893771700A9C783A7860AA9
:102BD000B3E7F70123A4F60A83A748002320D30113
:102BE0003EC6B247FD173EC6B247E5FF83A7860A39
:102BF00003A54800B3E7E70123A4F60A2AC4A247C5
:102C0000FD173EC4A247E5FF7D160583E31AC6FB08
:102C1000410182802320F301C1B703C705001D488D
:102C2000850555B782809376F503411199E29306A5
:102C30000004137505082DCDB718004021488145C3
:102C400013850128138FC80A856E056E2320CF01D6
:102C50005C413EC29247FD173EC29247E5FF83A703
:102C6000480A03A7880AB5833367D70123A4E80A73
:102C70000323450013F717001AC08247FD173EC013
:102C80008247E5FF8581931777007D18DD8DFD165E
:102C900063090800C5FEB3D705012300F600410112
:102CA00082802300B6000506FDDA8145214879BF00
:102CB00037180040938E150003C605002147138581
:102CC00001289305C80A096E056385689377160085
:102CD000A9C78327880AB3E7C7012324F80A23A0DA
:102CE00015015C413EC6B247FD173EC6B247E5FF3F
:102CF0008327880AB3E767002324F80A5C413EC4AF
:102D0000A247FD173EC4A247E5FF7D170582FD16C9
:102D100001CBD1D693771600CDFF23A0C501C1B753
:102D2000BDDE03C60E002147850E4DB703C711282F
:102D300093761500630E0720B717004003A6870A95
:102D4000096885683366060123A4C70A23A6170B02
:102D500003A7870A3367170123A4E70A6393066270
:102D600023A6070B3717004005662326C70A8326CC
:102D7000870A9357150013F81700D18E2324D70A1A
:102D8000630008648326870A0966D18E2324D70A44
:102D90003717004005682326070B8326870A13563A
:102DA000250093781600B3E606012324D70AB297CC
:102DB0006388085E8326870A0966D18E2324D70A92
:102DC0003717004005662326C70A8326870A13584B
:102DD000350093781800D18E2324D70AAA97638DE3
:102DE000085A8326870A0966D18E2324D70A371703
:102DF000004005662326C70A8326870AC297858B6B
:102E0000D18E2324D70A638507588327870A8966CA
:102E1000D58F2324F70AB7170040056623A6C70AF3
:102E200003A7870A0968518F23A4E70A23A6070B83
:102E300023A6C70A03A7870A83C68129518F23A423
:102E4000E70A83A8870A3687B3E8080123A4170B8B
:102E500023A6C70A83A8870A33E6C80023A4C70AA3
:102E600003A6870A3366060123A4C70A03A6070A36
:102E700079787D183376060123A0C70A8DC23716EC
:102E800000401303C60A85680568232003018327D1
:102E9000860A7D17B3E717012324F60A7DF7B717D3
:102EA0000040056623A6C70A03A8470A03A7870AA6
:102EB000054E1358D800518F23A4E70A23A6C70A4A
:102EC00003A7470A83A8870A137818003183B3E859
:102ED000C80023A4170B23A6C70A83A8470A03A385
:102EE000870A098B93D8B80093F848003366C3006B
:102EF0003367170123A4C70A336707016303C77D3C
:102F00009307E7FFF59B138616026387075AB717E7
:102F100000409385C70A8568056823A0050183A63C
:102F2000870A7D161385870AB3E6160123A4D70AFC
:102F30006DF6896694C103A6070A1377F70F558EBD
:102F400023A0C70A83A7870AD58F1CC13A85828030
:102F5000371700400326870A93870128896803A84A
:102F60004700336616012324C70A056631712326FC
:102F7000C70A42C10A477D173AC10A4765FF37169B
:102F800000400327860A03A84700856833671701B6
:102F90002324E60A42C31A477D173AC31A4765FF3E
:102FA000638A0640B716004003A7860A0966518F58
:102FB00023A4E60AD843B7160040056623A6C60A2E
:102FC0003AC52A477D173AC52A4765FFB71600401C
:102FD00003A7860AD04305683367070123A4E60ADE
:102FE00032C73A477D173AC73A4765FF135715006E
:102FF00093761700638A063A371600408326860ABE
:103000000968B3E606012324D60AD44337160040E4
:1030100005682326060B36C9CA46FD1636C9CA46B8
:10302000E5FE371600408326860A03A84700856818
:10303000B3E616012324D60A42CBDA46FD1636CB78
:10304000DA46E5FE9356250013F616003697630917
:103050000638371600408326860A0968B3E606015B
:103060002324D60AD4433716004005682326060BCE
:1030700036CDEA46FD1636CDEA46E5FE3716004067
:103080008326860A03A847008568B3E61601232431
:10309000D60A42CFFA46FD1636CFFA46E5FE13565B
:1030A0003500937616002A9763860632371800405B
:1030B0008326880A8968B3E616012324D80AD443F4
:1030C0003718004085682326180B36D18A56FD161E
:1030D00036D18A56E5FE371800408326880A83A831
:1030E00047000563B3E666002324D80A46D39A5600
:1030F000FD1636D39A56E5FE3297058B6306072CEC
:10310000B716004003A7860A0966518F23A4E60A72
:10311000D843B7160040056623A6C60A3AD52A57F3
:103120007D173AD52A5765FFB716004003A7860AD0
:10313000D04305683367070123A4E60A32D73A571C
:103140007D173AD73A5765FFD443371700400966D1
:103150002326C70A05662326C70A36D94A577D178C
:103160003AD94A5765FFB716004003A7860AD043ED
:1031700005683367070123A4E60A32DB5A577D1737
:103180003ADB5A5765FF371700408326870A0968DC
:10319000D043B3E606012324D70A85662326D70A3F
:1031A00032DD6A577D173ADD6A5765FFB716004072
:1031B00003A7860AD04305683367070123A4E60AFC
:1031C00032DF7A577D173ADF7A5765FF37170040AD
:1031D0008326870A09667978D18E2324D70A0326A5
:1031E000070A7D1883C68129337606012320C70A82
:1031F0003686A1C237180040930EC80A056E0563D3
:10320000D84323A06E00BADC66577D17BADC665738
:1032100065FF0327880A83A847003367C701232473
:10322000E80AC6DE76577D17BADE765765FF7D164B
:1032300061FAD8433716004005682326060BBAD03A
:1032400006577D17BAD0065765FF3716004003278B
:10325000460A0328860A03A34700856833681801D5
:1032600035832324060B937817009AD216567D16C1
:10327000B2D2165765FFD84337160040056823269B
:10328000060BBAD426567D16B2D4265765FF3717DB
:1032900000400326470A0328870A03A34700056E58
:1032A0003368C8012324070B3582137716009AD69A
:1032B00036567D16B2D6365665FE03A84700371639
:1032C000004005632326660AC2D813161700465825
:1032D0007D18C2D8465765FF371800400327480AB3
:1032E0000323880A03AE4700856E3363D301358319
:1032F0002324680A058BF2DA56587D18C2DA56582C
:10330000E31C08FE0A07518F336717010546630B5C
:10331000C7229305E7FFF59913861602E1C9B71591
:1033200000401383C50A85680568D4432320030140
:1033300036C4A246FD1636C4A246E5FE83A6850A1B
:10334000C843B3E6160123A4D50A2AC6B246FD1621
:1033500036C6B246E5FE7D1669FAB7170040096623
:1033600023A6C70A83A6070A1377F70F3A85D18EDB
:1033700023A0D70A83A6870AD18E23A4D70A29615E
:10338000828003A7870A3368070123A4070BD9BAF1
:1033900089672326F70A41B489662326D70A81BCA8
:1033A00089662326D70A29BCB7160040096623A6DA
:1033B000C60AA1B93717004089662326D70ADDBEA1
:1033C00089662326D70AE9B2371700408966232683
:1033D000D70A3DBBB7160040096823A6060BC5B146
:1033E000B7160040096623A6C60AADB903C89129DD
:1033F0006306080013762500631F0658A1C2B7159F
:103400000040938EC50A056E0563D04323A06E006D
:1034100032CC62467D1632CC624665FE03A6850A32
:1034200083A847003366C60123A4C50A46CE724668
:103430007D1632CE724665FEFD16E1FAB7160040E3
:10344000896823A6160B03A6060A3366160123A075
:10345000C60A63060804098939E1B715004023A6A6
:10346000160B130610021383C50A85680568D4433A
:103470002320030136C8C246FD1636C8C246E5FE03
:1034800083A6850AC843B3E6160123A4D50A2ACA2F
:10349000D246FD1636CAD246E5FE7D1669FAB71643
:1034A000004083A7860A09661377F70FD18F23A4FC
:1034B000F60A3A852961828003C8912963060800CB
:1034C000937725006396074A8DC237160040130391
:1034D000C60A856885652320B3008327860AFD1602
:1034E000B3E717012324F60AFDF6B71700408965F4
:1034F00023A6B70A83A6070ACD8E23A0D70A63079F
:103500000802098905E53716004023A6B70A930685
:1035100010021308C60A056585652320B8008327B5
:10352000860AFD16C98F2324F60AE5FAB71600406D
:1035300083A7860A09661377F70FD18F23A4F60AAB
:103540003A858280137725006302073237180040DE
:1035500093080002014E01439302C80A856F056F6C
:10356000D84323A0E201BACC66477D17BACC6647A0
:1035700065FF0327480A0326880A83AE4700358380
:103580003366F6012324C80A058BF6CE76467D16EF
:10359000B2CE764665FE135E1E001316F701FD18C7
:1035A0003A93336EC601E39D08FAD84337160040BC
:1035B00005682326060BBAC846477D17BAC8464792
:1035C00065FF371600400327460A0328860A83A8AA
:1035D0004700856E3368D80135832324060B058B9D
:1035E000C6CA56467D16B2CA564665FE3347E30044
:1035F000058B7D17659B210789C523A0C50183C65F
:103600008129A1C2B7150040138EC50A05638568DC
:10361000D04323201E01B2C426467D16B2C42646DE
:1036200065FE03A6850A03A847003366660023A447
:10363000C50AC2C636467D16B2C6364665FEFD16BA
:10364000E1FAB7160040896523A6B60A03A6060A62
:103650004D8E23A0C60A1375050819C123A401289D
:1036600003C6C12821C6B7150040B716004009653A
:1036700023A6A60A1383C50A85680568D4432320B8
:10368000030136D4A256FD1636D4A256E5FE83A613
:10369000850AC843B3E6160123A4D50A2AD6B25632
:1036A000FD1636D6B256E5FE7D1669FAB71600400D
:1036B00083A7860A09663A85D18F23A4F60A296171
:1036C000828093772500E5CB3717004093080002EE
:1036D00001460143130FC70A856E856223205F00F0
:1036E0008327470A0328870A0582B583858B3368B9
:1036F000D801139EF7012324070BFD181308870A2E
:103700003E933366CE00E39B08FC2320DF010327B2
:10371000470A8327080035833347E300058BB3EE60
:10372000D7017D17659B2320D801210781C590C152
:1037300083C681298DC2371600409308C60A0568E2
:10374000856523A0B8008327860AFD16B3E7070125
:103750002324F60AFDF6B7170040096623A6C70A18
:1037600083A6070AD18E23A0D70A1375050819C1AD
:1037700023A4012883C6C1288DC689653716004059
:10378000B717004023A6B70A1308C60A0565856562
:103790002320B8008327860AFD16C98F2324F60A42
:1037A000E5FAB716004083A7860A09663A85D18FE5
:1037B00023A4F60A82808DC2371700409308C70AF7
:1037C0000568056623A0C8008327870AFD16B3E7AE
:1037D00007012324F70AFDF6B7170040096823A65E
:1037E000070B03A7070A9306000201463367070188
:1037F00023A0E70A98418968856513781700630854
:10380000080403A8870AFD163A963368180123A412
:10381000070B23A6B70A03A8870A05833368B800F5
:1038200023A4070BF9FA058A6312061CB717004098
:10383000096723A6E70AB7170040056623A6C70A4B
:1038400083A6870A0547D18E23A4D70A39BF23A6AA
:10385000170B23A6B70A03A8870AFD163A96336802
:10386000B80023A4070B0583C9FA75BFA1C2371698
:103870000040130EC60A05638568D84323201E0145
:10388000BAC006477D17BAC0064765FF0327860AF8
:1038900003A84700336767002324E60AC2C216471D
:1038A0007D17BAC2164765FFFD16E1FA37170040CB
:1038B00089682326170B8326070A3716004013084A
:1038C0000002B3E616012320D70A98411303C60A63
:1038D0008145096E056F856E93761700D9C68326DC
:1038E000860AB3E6C6012324D60AD4432320D30193
:1038F00036DCE256FD1636DCE256E5FE8326860A05
:1039000083A84700B3E6E6012324D60A46DEF25632
:10391000FD1636DEF256E5FE7D18BA950583E31DE9
:1039200008FA8589DDE93717004089662326D70A1A
:10393000D843B7160040056623A6C60A3AD84257B0
:103940007D173AD8425765FFB716004003A7860A8D
:10395000D04385654D8F23A4E60A32DA52577D178E
:103960003ADA525765FF0547FDB12320C301B5BFC1
:10397000B715004013061002138EC50A056385684B
:1039800023201E0183A7850A7D16B3E7670023A4C1
:10399000F50A7DF615BEB718004093051002138F87
:1039A000C80A856E056ED0432320CF0132D002565F
:1039B0007D1632D0025665FE03A6880A03A347008F
:1039C0003366D60123A4C80A1AD212567D1632D203
:1039D000125665FEFD15E1F915B4B716004003A7B0
:1039E000860A0966518F23A4E60A99B73717004063
:1039F0008327870A8966D58F2324F70A2DBD0111F5
:103A000026CC22CE4ACA137EF503B28463140E007C
:103A1000130E000493770504E9CF3717004083277E
:103A2000870A8966D58F2324F70AF1731374050872
:103A30001383012837150040FD1311668562856FD9
:103A40001D49850583C8F5FFF2860148611E130FE5
:103A5000C50AB30ED94093F71800BDCB8327850A5A
:103A6000D18F2324F50A832743002320FF013EC67C
:103A7000B247FD173EC6B247E5FF8327450A032735
:103A8000850ABD83336757002324E50A13F717001F
:103A9000832743003EC4A247FD173EC4A247E5FF6B
:103AA00093177700135818003387DE00FD1693D85C
:103AB000180033E807016384C603D1FEB357E8005A
:103AC00019C02380F4007244E244524905618280A7
:103AD0008327850AB3F777002324F50A69B701E441
:103AE000E3110EF6CDB7238004018504E31B0EF429
:103AF000D9BFB7170040096723A6E70A3DB7B71734
:103B0000004003A7870A896613880128558F8326FA
:103B1000480023A4E70A0567397123A6E70A36CAD5
:103B2000D247FD173ECAD247E5FF3717004083272B
:103B3000870A832648000566D18F2324F70A36C8F2
:103B4000C247FD173EC8C247E5FF03274800B71725
:103B50000040896623A6D70A856623A6D70A3AC6F7
:103B6000B247FD173EC6B247E5FF3717004083272F
:103B7000870A832648000566D18F2324F70A36C4B6
:103B8000A247FD173EC4A247E5FF83274800371729
:103B9000004085662326D70A3EC29247FD173EC2E3
:103BA0009247E5FF371700408327870A832648009E
:103BB0000566D18F2324F70A36C08247FD173EC021
:103BC0008247E5FF03C7B12921C3B7160040938898
:103BD000C60A056585658327480023A0B8003ECE48
:103BE000F247FD173ECEF247E5FF83A7860A03267C
:103BF0004800C98F23A4F60A32CCE247FD173ECC19
:103C0000E247E5FF7D1761FB37160040FD450145A2
:103C1000930EC60A056E05638327480023A06E0035
:103C20003ED29257FD173ED29257E5FF0327460A30
:103C30008326860A832848009357F70033E7C60196
:103C40002324E60A46D013F717008257FD173ED00B
:103C50008257E5FF9317F701C98FFD1513D517009C
:103C6000C5FDB717004003A7870A096683264800E9
:103C7000518F23A4E70A056723A6E70A36DEF25729
:103C8000FD173EDEF257E5FF371700408327470A4E
:103C90008326870A032648008565CD8E2324D70A0C
:103CA000BD8313F7170032DCE257FD173EDCE25705
:103CB000E5FF832648009317F70105663717004094
:103CC0002326C70A5D8D36DAD257FD173EDAD25762
:103CD000E5FF371700408327870A832648000566DB
:103CE000D18F2324F70A36D8C257FD173ED8C257C2
:103CF000E5FF03274800B7170040896623A6D70AC7
:103D0000856623A6D70A3AD6B257FD173ED6B257D4
:103D1000E5FF371700408327870A8326480005669A
:103D2000D18F2324F70A36D4A257FD173ED4A257C9
:103D3000E5FF21618280B717004003A7870A096663
:103D400093860128518FD04223A4E70A0567597151
:103D500023A6E70A32CAD247FD173ECAD247E5FF7B
:103D6000371700408327870AD0428565CD8F2324EB
:103D7000F70A32C8C247FD173EC8C247E5FFD8421E
:103D8000B7170040096623A6C70A056623A6C70A17
:103D90003AC6B247FD173EC6B247E5FF37170040A7
:103DA0008327870AD0428565CD8F2324F70A32C442
:103DB000A247FD173EC4A247E5FFDC42371700408B
:103DC00005662326C70A3EC29247FD173EC29247A8
:103DD000E5FF371700408327870AD0428565CD8FDE
:103DE0002324F70A32C08247FD173EC08247E5FF11
:103DF00003C8B12942876300080437160040130E38
:103E0000C60A05638568DC4223201E013ECEF247C8
:103E1000FD173ECEF247E5FF8327860ACC42B3E783
:103E200067002324F60A2ECCE247FD173ECCE2477A
:103E3000E5FF7D1769FBB717004003A7870A717676
:103E40007D16718FD04223A4E70A056723A6E70AEF
:103E500032DAD257FD173EDAD257E5FF3717004066
:103E60008327870AD0428565CD8F2324F70A32D86D
:103E7000C257FD173ED8C257E5FFDC423717004056
:103E800005662326C70A3ED6B257FD173ED6B2575F
:103E9000E5FF371700408327870AD0428565CD8F1D
:103EA0002324F70A32D4A257FD173ED4A257E5FFC8
:103EB000DC423717004005662326C70A3ED29257D8
:103EC000FD173ED29257E5FF371700408327870A38
:103ED000D0428565CD8F2324F70A32D08257FD1753
:103EE0003ED08257E5FF37170040F17E7D46FD1E2C
:103EF000116F130EC70A05638568937715006383F6
:103F0000071A8327870AB3E7E7012324F70ADC426D
:103F100023201E013EDEF257FD173EDEF257E5FF7D
:103F20008327870ACC42B3E767002324F70A2EDCF5
:103F3000E257FD173EDCE257E5FF7D16058155FE91
:103F400003C7A1293307074185470589630CF71685
:103F500063110516B715004083A7850A71767D1693
:103F6000F18F23A4F50ADC4237160040856523262D
:103F7000B60ABEC29647FD17BEC29647E5FF371682
:103F800000408327860ACC420565C98F2324F60AA0
:103F9000AEC08647FD17BEC08647E5FF79171DCF27
:103FA000371600409308C60A05680565DC4223A061
:103FB000A800BEC6B647FD17BEC6B647E5FF8327B5
:103FC000860ACC42B3E707012324F60AAEC4A6470B
:103FD000FD17BEC4A647E5FF7D1769FBB717004074
:103FE00003A7870A8965D0424D8F23A4E70A056796
:103FF00023A6E70AB2CAD647FD17BECAD647E5FFD1
:10400000371700408327870AD0428565CD8F232448
:10401000F70AB2C8C647FD17BEC8C647E5FFDC426F
:104020003717004005662326C70ABED6B657FD17C8
:10403000BED6B657E5FF371700408327870AD04220
:104040008565CD8F2324F70AB2D4A657FD17BED4B9
:10405000A657E5FFD842B7170040096623A6C70A4E
:10406000056623A6C70ABAD29657FD17BED2965741
:10407000E5FF371700408327870AD4420566D18FB2
:104080002324F70AB6D08657FD17BED08657E5FF22
:10409000371700408327870A9166D58F2324F70AB4
:1040A000656182808327870AB3F7D7012324F70A43
:1040B000B9BD371600408327860A9165CD8F23242A
:1040C000F60A55B5B717004003A7870A0966518F4E
:1040D00023A4E70A03A7870A31E171767D16718F61
:1040E00023A4E70ADC423717004005662326C70AE7
:1040F000BECEF647FD17BECEF647E5FF37170040A8
:104100008327870AD0428565CD8F2324F70AB2CC56
:10411000E647FD17BECCE647E5FF11B71166518FA4
:1041200023A4E70AC1B703C7112893870128630FA7
:10413000071A371700408326870A89680566B3E6A1
:1041400016012324D70A2326C70A0328870A83C611
:10415000B129938586003368C8002324070B2326E2
:10416000C70A0328870A8605BE953368C80023243A
:10417000070B2326170B2326C70A0328870A83D594
:1041800045013368C8002324070B2326C70A0328E8
:10419000870A3366C8002324C70A0326870A1168E2
:1041A000336606012324C70A8DC137160040130366
:1041B000C60A85680568232003010327860AFD15C2
:1041C000336717012324E60AFDF53387D70003463A
:1041D000C7017D1631CEF17837170040FD1885658F
:1041E000116315A00328870A7D16058133686800CE
:1041F0002324070B2326B70A0328870A3368B8004D
:104200002324070B15C613781500E31D08FC0328AB
:10421000870A7D160581337818012324070B23268E
:10422000B70A0328870A3368B8002324070B61FE06
:10423000C1068606B69783D7470105896388073C80
:1042400063190546371600400327860AF176FD16E6
:10425000758F2324E60A3717004005662326C70A10
:104260008326870AFD17D18E2324D70A8326870A3F
:104270001166D18E2324D70A99CFB7160040138533
:10428000C60A8565056610C103A7860AFD174D8F0E
:1042900023A4E60AEDFBB717004083A6870A096747
:1042A0000566D98E23A4D70A23A6C70A03A7870ABF
:1042B000518F23A4E70AB7170040056723A6E70A32
:1042C00083A6870AD98E23A4D70A896623A6D70A8C
:1042D00023A6E70A83A6870A558F23A4E70A03A724
:1042E000870A9166558F23A4E70A8280371700401A
:1042F0008326870A8965D043CD8E2324D70A856615
:104300001D712326D70AB2C006477D17BAC00647DB
:1043100065FFB716004003A7860AD04385654D8F19
:1043200023A4E60AB2C216477D17BAC2164765FF34
:10433000D843B7160040056623A6C60ABAC4264766
:104340007D17BAC4264765FFB716004003A7860A43
:10435000D04385654D8F23A4E60AB2C636477D1744
:10436000BAC6364765FFD44337170040096623268F
:10437000C70A05662326C70AB6C846477D17BAC8C6
:10438000464765FFB716004003A7860AD0438565F8
:104390004D8F23A4E60AB2CA56477D17BACA5647BC
:1043A00065FFD843B7160040056623A6C60ABACCF7
:1043B00066477D17BACC664765FFB716004003A76E
:1043C000860AD04385654D8F23A4E60AB2CE764790
:1043D0007D17BACE764765FF83C6B129B715004071
:1043E0001387860003A6850A06073E9703574701F1
:1043F00011683366060123A4C50A15CF138EC50ABA
:1044000005638568D04323201E0132DC62567D1689
:1044100032DC625665FE03A6850A03A847003366B0
:10442000660023A4C50A42DE72567D1632DE72563D
:1044300065FE7D1761FB3387D7000346C7017D16F4
:1044400031CE3717004071787D18116F930EC70A6F
:10445000056E0563937515006385051E8325870A20
:10446000B3E5E5012324B70ACC4323A06E002ED880
:10447000C255FD152ED8C255E5FD8325870A83A8B0
:104480004700B3E5C5012324B70A46DAD255FD1526
:104490002EDAD255E5FD7D1605814DFEC106860654
:1044A000BE9603D7460105896304071A63110522E6
:1044B000B715004083A6850A71767D16F18E23A478
:1044C000D50AD4433716004085652326B60A36D46C
:1044D000A256FD1636D4A256E5FE371600408326B6
:1044E000860ACC430565C98E2324D60A2ED6B25639
:1044F000FD1636D6B256E5FE371600408326860AEC
:1045000091657D17CD8E2324D60A0DCF9308C60A58
:1045100005680565D44323A0A80036D08256FD1651
:1045200036D08256E5FE8326860ACC43B3E60601E2
:104530002324D60A2ED29256FD1636D29256E5FE86
:104540007D1769FB371700408326870A8965D043AA
:10455000CD8E2324D70A85662326D70A32CC62471C
:104560007D173ACC624765FFB716004003A7860A5D
:10457000D04385654D8F23A4E60A32CE72477D175E
:104580003ACE724765FFD843B7160040056623A6AA
:10459000C60A3AC002477D173AC0024765FFB71600
:1045A000004003A7860AD04385654D8F23A4E60A01
:1045B00032C212477D173AC2124765FFD4433717FC
:1045C000004009662326C70A05662326C70A36C4A3
:1045D00022477D173AC4224765FFB716004003A75C
:1045E000860AD0438567D98F23A4F60A32C6B2471C
:1045F000FD173EC6B247E5FF371700408327870AFD
:104600009166D58F2324F70A25618280B717004071
:1046100003A7870A8966558F23A4E70A03A7870A99
:1046200055E1F176FD16758F23A4E70AB717004010
:10463000856623A6D70A03A7870A558F23A4E70A0E
:104640009DB98325870AB3F505012324B70A29BD3F
:10465000371700408326870A0966D18E2324D70A9C
:104660008326870A31E171767D16F18E2324D70ADD
:10467000D843B7160040056623A6C60A3AC8424783
:104680007D173AC8424765FFB716004003A7860A60
:10469000D04385654D8F23A4E60A32CA52477D1761
:1046A0003ACA524765FFC5B51166D18E2324D70A91
:1046B000C1B7B716004003A7860A1166518F23A41D
:1046C000E60A51BE9166558F23A4E70A85B73716CF
:1046D00000408326860A9165CD8E2324D60AD5B361
:1046E00003C711286307071AB717004003A7870AF3
:1046F000896885663367170123A4E70A23A6D70ACA
:1047000003A6870A03C8B1294287558E23A4C70A86
:1047100023A6170B23A6D70A03A6870A558E23A420
:10472000C70A23A6D70A03A6870AD18E23A4D70ACD
:1047300063020802B71600401383C60A856805663F
:104740002320C30083A7860A7D17B3E7170123A49C
:10475000F60A7DF793571500858B63970748B716C0
:10476000004083A7860A71777D17F98F23A4F60A84
:10477000B7170040856823A6170B03A6470A83A630
:10478000870A135725003982B3E6160123A4D70AF6
:10479000058B937626006306076C03A7870A1166CC
:1047A000518F23A4E70AB7170040056323A6670AC1
:1047B00003A7470A83A8870A135635003D83B3E849
:1047C000680023A4170B058A058B6303066803A6FC
:1047D000870A91683366160123A4C70AB7170040F9
:1047E000856823A6170B03A6470A03A3870A054E6D
:1047F0003582118A33631301558E23A4670A598EBB
:10480000630AC65503A7870A8966558F23A4E70A5A
:1048100023A6170B03A7870AB368170123A4170B56
:10482000B7170040056723A6E70A83A6870A137512
:104830000508D98E23A4D70A896623A6D70A23A6FA
:10484000E70A83A6870A558F23A4E70A03A7870AE6
:104850009166558F23A4E70A19C123A4012883C7B1
:10486000C1281387F7FF9DC3B71600409388C60A77
:1048700005680565FD5523A0A80083A7860A7D1756
:10488000B3E7070123A4F60AE317B7FE1375F60F83
:104890008280371700408326870A9387012809689A
:1048A000D043B3E606012324D70A85667171232617
:1048B000D70A32CD6A477D173ACD6A4765FFB716EA
:1048C000004003A7860AD04305683367070123A485
:1048D000E60A32CF7A477D173ACF7A4765FFD4434D
:1048E0003717004009662326C70A05662326C70A2C
:1048F00036D10A577D173AD10A5765FFB7160040DF
:1049000003A7860AD04305683367070123A4E60A94
:1049100032D31A577D173AD31A5765FFD843B716C3
:104920000040056623A6C60A3AD52A577D173AD510
:104930002A5765FFB716004003A7860AD0430568CB
:104940003367070123A4E60A32D73A577D173AD7CF
:104950003A5765FF03C8B129C286630108043716B8
:104960000040930EC60A056E0563D84323A06E006F
:104970003AC94A477D173AC94A4765FF0327860A5D
:1049800083A847003367C7012324E60A46CB5A476A
:104990007D173ACB5A4765FFFD16E1FA135715000C
:1049A000058B6302074EB716004003A7860A1166FF
:1049B000518F23A4E60AD843B7160040056623A604
:1049C000C60ABADC66577D17BADC665765FFB716AC
:1049D000004003A7460A03A6860A83A8470005638A
:1049E000336666003D8323A4C60A058BC6DEF658EF
:1049F000FD18C6DEF656E5FE93562500858A131689
:104A0000170063880646B716004003A7860A916818
:104A10003367170123A4E60AD843B7160040856818
:104A200023A6160B3AC10A477D173AC10A4765FF0C
:104A3000371700408326470A8328870A03A34700C5
:104A4000056EB3E8C801BD822324170B858A1AC3FB
:104A50001A477D173AC31A4765FF13573500058B70
:104A6000630D073CB718004003A7880A116333673A
:104A7000670023A4E80AD843B7180040056323A6BB
:104A8000680A3AC52A477D173AC52A4765FFB7180D
:104A9000004003A7480A03A3880A03AE4700856EB7
:104AA0003363D3013D8323A4680A058B72C7BA48D8
:104AB000FD1846C7BA48E39C08FE0A07518FD98EF5
:104AC00005476380E614371700400326870A096804
:104AD000CC43336606012324C70A05662326C70A8A
:104AE000AED846577D17BAD8465765FF37160040EF
:104AF0000327860ACC430568336707012324E60AA7
:104B0000AEDA56577D17BADA565765FFD8433716CF
:104B1000004085652326B60A3AC842477D173AC841
:104B2000424765FF371600400327860ACC430568D5
:104B3000336707012324E60A2ECA52477D173ACA73
:104B4000524765FFD0433717004089652326B70ACF
:104B500085652326B70A32CC62477D173ACC624777
:104B600065FF371600400327860ACC430568336784
:104B700007012324E60A2ECE72477D173ACE7247EC
:104B800065FF371600400327860A916513750508EF
:104B90004D8F2324E60A19C123A4012803C7C12885
:104BA0001306F7FF39CBB71500401383C50A856894
:104BB0000568D843232003013AC422477D173AC42D
:104BC000224765FF03A7850AC8433367170123A45B
:104BD000E50A2AC632477D173AC6324765FF1307F2
:104BE000F6FF01CE3A86F1B7371700408327870AD0
:104BF0009166D58F2324F70AA5BE13F5F60F4D61F4
:104C0000828013772500631A07288C4137170040EC
:104C1000717EFD487D1E9162930FC70A056F856EF8
:104C200013F61500630C06460326870A3366560002
:104C30002324C70AD04323A0DF01B2C006467D1655
:104C4000B2C0064665FE0326870A03A34700336603
:104C5000E6012324C70A9AC216467D16B2C216463A
:104C600065FEFD188581E39D08FA03C7A129330875
:104C70000741054785896306E84A63910544B715EE
:104C8000004003A7850A71767D16718F23A4E50A7B
:104C9000D8433716004085652326B60A3ADC6257AA
:104CA0007D173ADC625765FF371600400327860AF6
:104CB000CC438568336717012324E60A2EDE72573A
:104CC0007D173ADE725765FF7918630108043716BD
:104CD0000040130EC60A05638568D84323201E01D1
:104CE0003AD842577D173AD8425765FF0327860ABC
:104CF000CC43336767002324E60A2EDA52577D1728
:104D00003ADA525765FF7D18E31908FC371700405F
:104D10000326870A0968CC43336606012324C70AA1
:104D200005662326C70A2ED422577D173AD4225768
:104D300065FF371600400327860ACC4305683367B2
:104D400007012324E60A2ED632577D173AD632576A
:104D500065FF6DBB937725006393072871739441BA
:104D60007D47B71700407D138565116E15A083A898
:104D7000870A7D178582B3E8C80123A4170B23A6F1
:104D8000B70A83A8870AB3E8B80023A4170B15C78E
:104D900093F81600E39D08FC83A8870A7D17858297
:104DA000B3F8680023A4170B23A6B70A83A8870AC1
:104DB000B3E8B80023A4170B61FF83C7A129338888
:104DC00007418547858A630BF83A6390062EB7162C
:104DD000004083A7860A71777D17F98F23A4F60A0E
:104DE000B7170040856623A6D70A03A7870A791854
:104DF000558F23A4E70A6301080237170040930880
:104E0000C70A856523A0D8008327870A7D18CD8F20
:104E10002324F70AE31808FEB717004083A6870A81
:104E200009678565D98E23A4D70A23A6B70A03A7E5
:104E3000870A4D8F23A4E70AE5B237130040032702
:104E4000830AF178FD18337717012324E30A25B18B
:104E500003A6870AF178FD183376160123A4C70A42
:104E6000B5BA03A7870A71767D16718F23A4E70A66
:104E70001DBAB718004003A7880AF176FD16758F92
:104E800023A4E80A51BE371600400327860AF176AC
:104E9000FD16758F2324E60A39BEB71800407D43FE
:104EA000014E9382C80A856F056FD84323A0E201A3
:104EB000BAD426567D16B2D4265765FF03A7480AF2
:104EC00003A6880A83AE47003D833366F60123A418
:104ED000C80A058BF6D636567D16B2D6365665FE0E
:104EE0007E073367C7017D13135E1700E31F03FAC4
:104EF00003C7A129330807410547630AE81CD843C3
:104F00003716004085682326160BBAD006577D1742
:104F1000BAD0065765FF371600400327460A832894
:104F2000860A03A34700856EB3E8D8013D83232496
:104F3000160B058B9AD216567D16B2D2165665FE02
:104F4000791863020804B7180040938FC80A056FE8
:104F5000856ED04323A0DF01B2CC66467D16B2CC6D
:104F6000664665FE03A6880A03A347003366E6018A
:104F700023A4C80A9ACE76467D16B2CE764665FE42
:104F80007D18E31808FC371600400328860A0963D9
:104F900083A84700336868002324060B056823268E
:104FA000060BC6C846467D16B2C8464665FE37188B
:104FB00000400326880A83A847000563336666001D
:104FC0002324C80AC6CA56467D16B2CA564665FE8E
:104FD000E38E05B27E073367C70198C105BE371758
:104FE0000040FD480143130EC70A056F856E23205C
:104FF000DE018327470A8326870AFD18BD83B3E6AF
:10500000E601FE07B3E767002324D70A930F870A58
:105010009306470A13D31700E39B08FC03C7A12993
:105020003308074185476306F8182320EE019C42A8
:1050300003A70F007918BD833367E70123A0EF00B2
:10504000858B63030802B7160040938EC60A056E6F
:10505000856823A01E0103A7860A7D183367C70150
:1050600023A4E60AE31708FE371700400328870A3F
:10507000896685683368D8002324070B2326170B1D
:105080008326870AB3E616012324D70A638A05F824
:10509000FE07B3E767009CC16FF08FF80326870A0D
:1050A0003376C6012324C70A71B637170040832719
:1050B000870A9166D58F2324F70A1DB3371600405F
:1050C0000327860A91654D8F2324E60AD1B6371748
:1050D00000400326870A896803A847003366160143
:1050E0002324C70A05662326C70AC2C426477D179C
:1050F000BAC4264765FF371600400327460A03282F
:10510000860A83A847000563336868003D8323242B
:10511000060B058BC6C636467D16B2C6364665FEFC
:1051200045BD371700400326870A09683366060124
:105130002324C70A0326870AD9CD91654D8E2324DF
:10514000C70AD8433716004085652326B60A3AD0E9
:1051500002577D173AD0025765FF371600400327E4
:10516000860ACC430568336707012324E60A2ED25A
:1051700012577D173AD2125765FF49BAB717004048
:1051800003A7870A89654D8F23A4E70A03A7870A27
:10519000A9CA9166558F23A4E70AB7170040856610
:1051A00023A6D70A03A7870A558F23A4E70A6FF01F
:1051B0002FE783A70F000967D98F23A0FF002320C3
:1051C000EE019C4203A70F00BD833367E701858B87
:1051D00023A0EF0065BDF175FD156D8E2324C70A70
:1051E0008DB7F176FD16758F23A4E70A7DB7834747
:1051F0000500416505052380F5008280FD5705C146
:1052000099CD0547637DC7001307F6FF798E01EA44
:10521000232005002322050018C54CC581473E8583
:105220008280011122CC26CA404104451C414AC853
:10523000269405044EC606CE1D8C2A89AE8963735A
:1052400086003284E58F85049D8C63739400A2846C
:105250000325C9002686CE853E95EF1080310325B3
:10526000C90033069440B3859900EF10803083273E
:1052700009002285F240A29762442320F900D2441B
:105280004249B24905618280411126C25C41044114
:105290004AC006C622C49D8C2A892E876373960055
:1052A000B28403248900E18F05041D8C63F384001C
:1052B00026848325C90022863A85BE95EF10602B8F
:1052C0008325C900338684402295EF10802AB2409E
:1052D000224426850249924441018280411122C420
:1052E00006C62A8455375C40B240AA975CC0224467
:1052F00041018280011126CA9304C0234EC6B30423
:1053000095029309F00856C2938A412C22CC4AC8D0
:1053100052C45AC006CE2A89B30935032E8A328B6D
:105320000144D69483C74417636CF400F24062448E
:10533000D2444249B249224A924A024B05618280D4
:10534000B3878900938787048A07D697DC43630372
:105350000B0289CFD84719CB83462B0083C787011F
:105360006396F6005A86D2854A850297050413741F
:10537000F40F4DBFE5DFDC47F5DB0146D2854A85FA
:105380008297EDB783C6550003C7450083C7250044
:10539000A206D98E41111397870113F8F67F06C62E
:1053A000AD8661878D8A1386412C6359070213F7F6
:1053B000F707B1473307F7029307C023B307F50296
:1053C0003E97B307E600239D0717A38CD716EF007F
:1053D0009075B24013351500410182803147B38783
:1053E000E7021307C0233307E502BA97B297239D5C
:1053F000071DA38CD71CE1BF9307C0233307F50219
:105400009387412CBA979847D4473297918E98C783
:10541000D4C73A8681EA03C7470109CB238A07002C
:1054200081460146930500086F10A00003D767006E
:1054300011CB8387070063D707008146014681456A
:105440006F10800B82805D71A2C4A6C2CAC04EDEFE
:1054500086C652DC56DA5AD85ED662D466D26AD094
:105460006ECE03CA0500130700022A8493770A064A
:10547000AE89B28436896389E75A13070004638DC5
:10548000E76299EB137A3A0085466300DA386307DE
:105490000A0089476309FA5281441DAE03C7190007
:1054A000A54783D52500E3E9E7FE1716000013069C
:1054B000663C93162700B2969C42B29782871307E8
:1054C000C0233307E5029C40238007009387412CCB
:1054D0003E970347E71101CB944003C706001367CB
:1054E00017002380E6001307C0233304E402A297C9
:1054F00083C7071281CB98408347070093E72700B3
:105500002300F7009C40A38007008947B9A2854784
:105510006393F5028D469387412C6311D7021307DD
:10552000C0233307E502BA972380B71283A78723E6
:10553000A545228582972320090099A11307C0233E
:105540003307E502A945BA972380071283A787236B
:10555000CDB79307C0233307F5029387412C93F50A
:10556000F50FBA97A38EB710EF00D059E9B793D7CC
:105570008500FD1793F7F70F3947E36FF7F017171B
:1055800000001307A7318A07BA979C43BA9782870E
:10559000EF0030599307C023B307F4021384412C62
:1055A0003E941C4C2301A4129C438297E30605EE13
:1055B0008347050089A09307C023B307F50213842E
:1055C000412C3E941C4C03452412DC438297E30596
:1055D00005EC8347350003472500A207D98F034711
:1055E00075001987058B230FE41003477500158795
:1055F000058BA30FE41088C08DA09307C023B307C9
:10560000F5021384412C93F9F50F1307E00E3E9435
:105610001C4C6397E900DC4BE38007E8884349BFF3
:10562000034524129C4BCE8582972A84E30605E627
:10563000639809029C4011472380E7009C400D4776
:10564000A380E7009C40034705002381E7009C40BE
:1056500003471500A381E70091472320F9000DA619
:10566000EF00907C42054181930715008607C20731
:10567000C18313070010E361F7E298408D462300D1
:10568000F7009840A300D700894601471316070189
:105690004182E374A6FC9040B305E40083C5050095
:1056A000369605072300B60090403696A300060004
:1056B0008906E9BF9307C023B307F5021384412C81
:1056C0003E941C4C03452412DC478297E30605DC1C
:1056D0008347350003472500A207D98F29BF9307C9
:1056E000C023B307F5021384412C3E941C4C9C53F9
:1056F000E38407DA8843DC43FDBD9307C023B30787
:10570000F5021384412C98403E948347C411230032
:10571000F700854799B793F7F50F938C412C91EBE0
:10572000130AC02333044503338A8C00230E0A1066
:1057300019B59307C023B307F50293F9F50F014B91
:10574000814A8144930BF00F130CF00F114D954DCE
:10575000E697984F03C52712584302972A8A0947AC
:1057600083470A00A1C383471A006383A7096384A0
:10577000B709639FE700834B5A00639B7901834A13
:105780003A0083472A00014BA20AB3EAFA00854493
:1057900083470A003E9A83470A003E9BE3625BFD13
:1057A000E3800AFC638F04269307C023B307F40247
:1057B00001469D452285BE9C238E3C11A3800C1280
:1057C000153E83A78C239D452285829723200900BF
:1057D000B6402644268506499644F259625AD25A62
:1057E000425BB25B225C925C025DF24D6161828041
:1057F000034C3A0071BFE39D79F9E31B0CF8D285A5
:1058000022854936AA84094761B71307C0233307A5
:10581000E5021386412C83DA250083DB4500330B38
:10582000E60083278B0103452B12DC4382978347D5
:10583000CB11E38307C603C71900994693F8FB0F02
:10584000630AD70863E8E600E31807C49C40238096
:1058500007004DB9A947630CF710AD47E31EF7C227
:1058600003D72900B3071B0103452B122382E71638
:1058700083278B0103CC490083CA2900DC43014AFA
:1058800081498297AA84130BF00F930BF00F814C80
:10589000114D954D094783C704006388071083C7DE
:1058A00014006381A70F6389B70F639AE70083C968
:1058B000340083C72400014AA209B3E9F90083C771
:1058C0000400BE9483C704003E9AE3663AFDE38475
:1058D00009FCE1A813D78A0093071002631FF7049D
:1058E0001308F00F01478147114613031002094EB8
:1058F00005A8834615006389C602638A6602639918
:10590000C6018347350003472500A207D98F014709
:105910002E958346050036976364F700E39E07B62D
:1059200083450500F9F58DBE03482500D5B7E39101
:1059300008FF88C0834705000DB393072002E31DCD
:10594000F7B483474B175A860147E307F7B483261A
:10595000461289CA83C58601639615019C4A9CC07C
:10596000DC4AE5B905071377F70F1106F9BF3306CF
:105970001B019440834746162380F60023204901EB
:105980008544B9B503CB240083CB3400E3196CF311
:10599000E3977AF3A68C25B7E3136CF3639D0A00B3
:1059A00083C524002285EF00F01D6686A14522856F
:1059B000EFF05F9449B6E3947AF1A6852285EFF083
:1059C0007F9C0947EDBD9307C0233307F5029387FA
:1059D000412CBA9783C7C711E38007AC83C719006E
:1059E00083C545006389D70291CB0D47E396E7AAAB
:1059F00083D729009DE7EF00901B35BE1306F10009
:105A0000EF00F0220347F1009C40E30207E4054762
:105A10002380E700C5BC83D7290081E7EF00101D74
:105A200085B7232009008DBC137A3A008547631A95
:105A3000FA049307C0233307F5029387412CBA97E2
:105A400003C647170147E309C7A483A647128DC6BB
:105A500003A806006302080283C5860183C64900C5
:105A6000639CD5002686CA86CE852285029813457A
:105A7000F5FF9354F501A9BB05071377F70F9107BD
:105A8000D9B78947E31AFAA09307C0233307F50271
:105A90009387412CBA9703C647170147E30EC79E69
:105AA00083A6471289C603A84600E31D08FA050726
:105AB0001377F70F9107DDB79307C023B307F502FC
:105AC0009386412CB68BB697984F5C4BB9C703C6EB
:105AD000150083C647006316D60603D745009146D6
