:040000006F109037B6
:100004000000000000000000900000209E0400207A
:10001400A9BDF9F518090020000000000000000047
:1000240018090020900000200000000000000000DB
:10003400900000200000000090000020000000005C
:1000440090000020900000209000002090000020EC
:10005400900000208C0D00205405002000000000BA
:100064009000002090000020AC00002076010020C9
:1000740058020020900000209000002090000020F2
:1000840090000020900000209000002090000020AC
:1000940001A0411106C6972000E0E78020EC9730CC
:1000A40000E0E780E096EF10E000F5B73737004056
:1000B400834747009946BD8B638FD702011122CE37
:1000C40026CC4ACA31476390E70237340040A14442
:1000D400174900001309498E8347A40093F7F70FCB
:1000E400B9CB8147B5A011476397E7048147B73679
:1000F4000040A14521A8834757007300203003C660
:10010400860038003E972300C700850703C7A60072
:1001140013F6F70F1377F70F11CFE392B7FE2146CB
:100124002C001745000013052589974000E0E7805F
:1001340060EB11A075F67244E24452490561730004
:1001440020308346840038003E972300D70085077B
:100154000347A40013F6F70F1377F70F19CBE392B5
:1001640097FE21462C004A85974000E0E78080E70F
:10017400A5B73DD2C5BF37370040834747409946AE
:10018400BD8B638FD702011122CE26CC4ACA3147D8
:100194006390E70237340040A14417490000130973
:1001A400A9828347A44093F7F70FB9CB8147B5A041
:1001B40011476397E7048147B7360040A14521A85A
:1001C400834757407300203003C6864038003E976B
:1001D4002300C700850703C7A64013F6F70F13775C
:1001E400F70F11CFE392B7FE21462C00173500001C
:1001F4001305857D974000E0E780C0DE11A075F609
:100204007244E244524905617300203083468440BD
:1002140038003E972300D70085070347A44013F610
:10022400F70F1377F70F19CBE39297FE21462C00B3
:100234004A85974000E0E780E0DAA5B73DD2C5BF24
:100244004111B7170040985F3AC6945F3247E39C68
:10025400E6FE324541018280B717004013070003D0
:100264002388E702854723A0F188730020304111D9
:10027400B7170040985F3AC6945F3247E39CE6FEA6
:10028400324541018280B7F707000111944B1307EF
:100294008008F337078093F787083EC20F100000E9
:1002A400B71700401308700523800705930580FAEB
:1002B4002380B7040F10000003C6B7041376F60DAD
:1002C400A385C704238007041246732606800F10F3
:1002D40000001376050255CEF336078093F68608A0
:1002E40036C40F100000238007052380B7040F10C5
:1002F4000000B70614007D89558D88C701000100F0
:100304000100010023800704A246F3A606800F1013
:10031400000073370780137787083AC60F10000070
:10032400238007052380B7040F1000000F1000007E
:100334003727004093061005A303D78023800704C2
:10034400B247F3A707800F10000093078008F3B7A4
:10035400078093F787083ECE0F100000B7170040C0
:10036400130770052380E704130780FA2380E7044A
:100374000F10000003C7B70413670708A385E70439
:1003840023800704F247F3A707800F1000000561DC
:1003940082801376050459C2733607801376860863
:1003A40032C80F100000238007052380B7040F1004
:1003B400000037061400130606047D89518D88C792
:1003C4000100010001000100238007044246732656
:1003D40006800F10000073370780137787083ACA26
:1003E4000F100000238007052380B7040F100000BE
:1003F400A54793F6F60F639EF600B7270040130750
:100404003005A383E780B717004023800704D24751
:100414000DBFB727004013072005E5B773370780E2
:10042400137787083ACC0F10000023800705238038
:10043400B7040F10000098471367070C98C7238070
:100444000704E247FDBD011181460146814511457E
:1004540006CEC12B93078008F3B7078093F787086C
:100464003EC60F100000B717004013077005238025
:10047400E704130780FA2380E7040F10000003C782
:100484006704136717002383E70423800704B24734
:10049400F3A707800F100000F2400561828041112C
:1004A4008146014681451145AD2B13078008F3377A
:1004B400078093F787083EC40F100000B717004069
:1004C400130670052380C704930680FA2380D7049B
:1004D4000F100000FD552396B70223800704A245A0
:1004E400F3A505800F100000733707801377870882
:1004F4003AC60F1000002380C7042380D7040F10CE
:10050400000003C76704136717002383E7042380ED
:100514000704B247F3A707800F10000001A0BD47EE
:100524003305F50201007D1575FD8280411122C459
:1005340026C206C6AA84014463179400B24022442A
:1005440092444101828005041305803E4204C13F68
:100554004180DDB70111A307010022CE26CC4ACA8F
:100564004EC8378400408347640093F7F70FA3070E
:10057400F1008347F100898B638007368347740059
:100584001307000393F707036389E70883447400A0
:1005940083477400BD8893F7070363880720130714
:1005A40000026397E70617490000130969AC6395D5
:1005B40004149747000083C7E7C39D83FDCF834797
:1005C400240293C707042301F4028347240293F708
:1005D400C70F93E727002301F40283274901174635
:1005E4000000034626A9637EF60A918F1747000090
:1005F400232AF7A8832789013E969747000023A55D
:10060400C7A8930500080145974000E0E780E07122
:10061400B787004009472383E700378400408347B6
:100624007400E207E18763D70706930720FC2301E0
:10063400F402974400009384A4A383A5840C214668
:1006440017450000130505BB979000E0E7802005DF
:100654008387441863CA07002300040283472402E3
:1006640093F7C70F2301F402378400408347240221
:1006740097450000938505B8014593F7370F93E735
:1006840087002301F402974000E0E780603D89473A
:100694002303F4007244E2445249C24905617300E1
:1006A4002030032689013E969747000023AEC79C5D
:1006B4009747000023A8079CA9B7174700000347E2
:1006C40077B39547631BF70083473400034709005A
:1006D40093F70708D98FA301F4008347240293F703
:1006E400C70F93E727002301F4028347240293F7FB
:1006F400370F2301F40229BF91476398F40083471D
:10070400240393C707042309F402154433D4840251
:10071400930700033304F402939724003E94B787AD
:100724000040938727023E948347040093F7C70F42
:1007340093E727002300F400E147B387F402CA9744
:10074400D84B03C64700944F6379E6048C4B118F52
:10075400B296B2958CCBD8CB94CF88476376E60219
:10076400979000E0E780A0F3E147B384F402854763
:10077400CA9403C75400630BF7008347040093F73C
:10078400C70F2300F40069B53A86D9BF8347040034
:1007940093F7C70F93E71700EDB73306D70090CF51
:1007A40023AA070093E50408B9BD154933D92403E6
:1007B400939724003309E9023E99930724023E9952
:1007C4008347090093F7370F93E787002300F90065
:1007D400B9EC83472402174900001309698993C7B8
:1007E40007082301F402834484008325890C03252C
:1007F400090D93F4F40F2686979000E0E78020EA31
:100804000326890D8145014526969747000023ADAF
:10081400C7928327490D858F174700002324F79239
:10082400974000E0E7800053E39404DE7DBD8347F6
:10083400740093F70704E38D07DC91476398F40091
:100844008347240393C707082309F402B7870040AA
:10085400614483C98700B3878402174400001304EA
:10086400248193F9F90F4E863E948325840C032545
:10087400040D979000E0E78080E28327040D0326AF
:10088400840D0347440CCE972328F40C8327440D8E
:100894004E96232CC40CB3873741232AF40C63E30C
:1008A400E90081EBA6850145974000E0E780804A96
:1008B40085B30347540C85476309F7008347090050
:1008C40093F7370F2300F900A1B38347090093F787
:1008D400370F93E74700FDB78347F100858B85C346
:1008E400A30104000145974000E0E780A01083477E
:1008F400240293F7370F2301F402854751BB834742
:10090400F100918B89C783475400914751B38347C2
:10091400F10093F7F70FADBB9305000273A0458078
:1009240082457390153492402242B2424243D243EC
:100934006244F244025592552256B2564257D25757
:100944006258F25806499649264AB64A464BD64B4F
:10095400664CF64C065D965D265EB65E465FD65FD7
:100964000961730020302303048015472303E480C6
:1009740001002302A480828083076480E3CE07FE03
:1009840023030480828083076480E3CE07FE03454B
:100994004480828083076480E3CE07FE2302A48020
:1009A4008280411126C44AC24EC006C61377F50B95
:1009B400AD47AA892E8995446306F7001945653722
:1009C400653F8D444E854537FD59FD1463983401C8
:1009D400B240A2441249824941018280135509015F
:1009E4001375F50F453F2209CDB7011126CC06CE6C
:1009F400B704080051371545BD37713769372AC622
:100A0400A53F32459377150089EB136515001375DF
:100A1400F50FF240E24405618280FD14E9FC0145D2
:100A2400CDBF397126DC4ADA4ED852D656D45AD2C2
:100A34005ED006DE62CE66CCB7E700E07D5783AABF
:100A4400070022C603AA470023A0E71823A2E71839
:100A5400B7170040130770052380E704130780FAD3
:100A64002380E70483C74704930B75FFB684E2072A
:100A740093FBFB0F8546AA892E8B328937240040CD
:100A8400E187015763FA76016308D50089461307A5
:100A940000026313D5000157D98F93F7F70FB71CE2
:100AA40000402382FC0411472303E4801305F00F64
:100AB4005D3D094CD135636D7C11B7050700DA95AE
:100AC40037870700795563F2E504B3879500636EB1
:100AD400F702370B0800A94733EB65016399F90660
:100AE40089E48144513D26850DA0DA850945553DAB
:100AF40005090345F9FFFD14050B693D81C493778E
:100B0400FB0FFDF7DD3569FD7D55B7170040130771
:100B140070052380E704130780FA2380E70403C7E2
:100B24004704418B2382E704F250B7E700E023A097
:100B3400571123A24711E25432445259C259325A2E
:100B4400A25A125B825B724CE24C21618280A547FF
:100B54006395F90685691309F00FB3069900B37418
:100B64002B01B6941349F9FFB3749900856B33795B
:100B74006901416B9387F9FFB3F7270199E363FC9C
:100B8400340193D94900C147E3E637FF99BF0569AA
:100B9400C1697D19D9B71305800D638869011305EF
:100BA40000026384790113051008CA85DD3B353DD5
:100BB40021DD4E99B3843441D9B7DA852D45D53337
:100BC400CA94E30099F205097D3BA30FA9FED5BFA2
:100BD4009387F9FF93F7F70F6361FC0C83C71C0439
:100BE40013073008631FF70437070800636BEB042F
:100BF400B3079B00B706100063F5D704334BEB0033
:100C040089476393F9068980D549E38C04ECDA8536
:100C14000945413B11090327C9FF91472320E4807B
:100C240003076480E34E07FE23033481FD17EDFBC5
:100C3400FD14110B81C49377FB0FE9FF7D3371F52C
:100C4400E1B5B717004003C75704B7070800137787
:100C5400070219E3B78707007955E378FBEA3307FE
:100C64009B00E3FFE7F855B58547E382F9F2DA859F
:100C74002D45053B9389F4FFE38504E6293393F777
:100C8400390091EB83260480032709009307490068
:100C9400E39AE6E43E89CE84F1BFB5476396F90052
:100CA4001305900BC93135BDB1471305B00AE38B69
:100CB400F9FE99476391F904B7050800B365BB00D1
:100CC4002D45C53181448D4BA14975396396740115
:100CD400832704802320F9008504E39834FF8327C5
:100CE400048013172B01635507002312F900D5BBA9
:100CF4002322F900FDB39D476399F9028145130549
:100D0400B0044531BD442320090023220900FD59C4
:100D14009D3993F77400CA9703C70700FD14398DF2
:100D24002380A700E39634FF6DBBA1476392F904C7
:100D34006D398144630D0B008D479304C003630830
:100D4400FB009304000563048B01930440041375B2
:100D5400C507E30895D81945393139390545213195
:100D640026850D3909453D314931E31C05D669BB5A
:100D740091476399F90013056006F536F53E1305AE
:100D840090090DB7E38F09D4F154A9BB197106C2B8
:100D940012C416C61AC81ECA22CC26CE2AD02ED2F7
:100DA40032D436D63AD83EDA42DC46DECAC0CEC2A7
:100DB400D2C4D6C6DAC8DECAE2CCE6CEEAD0EED2D7
:100DC400F2D4F6D6FAD8FEDA938581878841E70013
:100DD400050092402242B2424243D2436244F2446A
:100DE400025592552256B2564257D2576258F2587B
:100DF40006499649264AB64A464BD64B664CF64CAB
:100E0400065D965D265EB65E465FD65F0961730039
:100E14002030B7E700E09843B706200023A0D71896
:100E2400758F0F10000001C599C1814711E6B7E71E
:100E340000E023A0E7108280B386F50003C8060013
:100E4400B306F500850723800601E317F6FEC5B750
:100E540037E700E01C43B70620002320D718F58F9E
:100E64000F10000001C53307C50011E637E700E0A5
:100E74002320F71082800505A30FB5FEE31DE5FED0
:100E8400F5B737E700E01C43B70620002320D71846
:100E9400F58F0F10000001C599C1014711EA37E72A
:100EA40000E02320F710054582800507E309E6FEEC
:100EB4003308E500B386E5000348080083C606004E
:100EC400E305D8FE37E700E02320F71001458280D0
:100ED40037E700E01C43B70620002320D718F58F1E
:100EE4000F10000001C53307C50019E637E700E01D
:100EF4002320F7100145828005058346F5FFE3971B
:100F0400B6FEE31BE5FE37E700E02320F7100545B6
:100F140082807971973700009387C73322D4804346
:100F240006D626D24AD04ECE52CC56CA5AC85EC62F
:100F340069C037C9C901014B973900009389093148
:100F44001309F937173A0000130A0A31973A0000D7
:100F5400938A0A2B973400009384C4348357240063
:100F640095E35C44631D0B00173700002324F72E20
:100F7400832BC4002285EF00502F5E84A9A823266A
:100F8400FB00FDB783A7090082971C443307F54093
:100F94006375F500D8401D8F2A976361E908973778
:100FA400000023A707268355240003450400974027
:100FB40000E0E780C04D5C405844B9C70C44D040C1
:100FC400AE97BE8663E4B70063E4C700B386C74048
:100FD40014C4228B3A8459F0973700009387472230
:100FE4009C4B09476373F708F9171737000023214F
:100FF400F722B250225492540259F249624AD24A18
:10100400424BB24B4561828063170B009737000057
:1010140023A2E724B1BF2326EB0099BF03274A028A
:101024001DCF63E1A7043385A7408347040085E30C
:10103400173700000347B7235917B307A7003E85A6
:10104400D44063E4E70063E4D7003385D74083A743
:101054000A016376F5009737000023ABA71A228BA9
:10106400404495BFD840BA977DBF9737000023A16D
:10107400071A41B797370000938747229C4385C3DB
:10108400411106C682979737000083C7071C89E77A
:101094009737000023A40720B2404101828097378C
:1010A400000083C7871A91E79737000023A8071E1B
:1010B40082808280411122C4173400001304041773
:1010C4001C4006C626C24AC091C7829797370000C3
:1010D40023AE07149737000083C7D71E858B1739B3
:1010E40000001309E91D89CF83477900194763126A
:1010F400F71097370000A387071CF9295C448297EF
:101104001C4491C3829797340000938464149840DC
:10111400173600000346D60E9737000083C7470EE4
:1011240093961700BA9683D60600E5C29737000057
:1011340083C7070D63E5C70E973700002382070CAA
:101144001C40639E071497370000938727109C4325
:1011540063870714973700009387C714DC43173756
:1011640000002327F70A75339737000083C7F71564
:10117400639707129737000083C7171591CF8347EA
:10118400790093F7F70F89EB97370000A38E0712C6
:10119400975000E0E780C0E1973700009387C70BC2
:1011A400DC53638E070E97370000938767059C4BCB
:1011B400FDC78347790015476363F70E973700002F
:1011C40083C78715918BE1EF9737000083C7E70743
:1011D400F9E790409736000083C6960263C7D70CA0
:1011E4002244B240924402494101174300E067009F
:1011F4002351834779001D47E314F7F09737000024
:10120400A382070CD12E1C48DDBD850793F7F70F89
:10121400973600002386F6FEE3E0C7F001BF860799
:101224003E97835507002310070097370000239D3E
:10123400070097370000938727FF9C43173500006A
:10124400034505FC13172500BA979C4382979737EB
:10125400000083D767FF17370000034767FA93C777
:10126400F7FF7D8D9317170098403E97835707002B
:101274005D8D2310A7009737000083C767F891C7D7
:10128400850717370000230DF7F6173700000347CB
:1012940027F79737000083C7B7F6E37FF7E8B24034
:1012A40022449244024941018280139717003297E5
:1012B400035707006DF7850715B737C70040832626
:1012C400C720B707FCFFFD17F58F2326F720010081
:1012D4000100973700009387A7F2C84F832787261A
:1012E4002326D7206A0593C7F7FF99835D8D8280F3
:1012F400EFF05FD873000000000000009732000098
:101304009382A2F40383020023800200630F03008C
:10131400F32510342EC0970500009385A5FD739026
:101324001534EF00204E7300203086DCEF00804D32
:10133400E6508280000017370000130727F8144393
:10134400411122C49C5E4AC006C6998326C2858B7D
:101354003A841739000013092919D1CB93070006E1
:101364009CDE17370000034707F6930700089734FD
:1013740000009384E4F4631BF700832709009C4373
:1013840093F7070417370000230FF7F283C704000D
:1013940093F707049DC397370000938727EB9C437B
:1013A40082979737000023ABA7F283C7040093F713
:1013B400F70B173700002305F7F083C7440093F7B2
:1013C400070495E7854717370000A30DF7EE973715
:1013D4000000938767F19C433707020098C71307FF
:1013E40000FC97360000238FE6EC9848F8D31840A9
:1013F4001C5F9183858B8DC31C5F93E707011CDF02
:1014040097370000938747EE9C4323A2070685473E
:10141400173700002308F7EA83270900D843058318
:10142400058B19C7D843759BD8C3D843799BD8C3B8
:10143400B24022449244024941018280ED3D73004E
:1014440020309317D50063D30702973700009387A2
:10145400A7E99C437D57B8D797370000938747DAAD
:10146400DC4F850717370000232AF7DA93778500C6
:101474009DCB9737000083C7C7E493E7170017375E
:1014840000002300F7E4930700F817370000230B4C
:10149400F7E297370000938767E298435C57F19B24
:1014A40093E717005CD7937715008DC79737000033
:1014B40083C717E193E7170017370000A302F7E08B
:1014C40097370000938787DF98435C57F19B93E736
:1014D40017005CD79377650095CB93774500173752
:1014E40000001307E7DDCDCB8347070093E7170020
:1014F400173700002306F7DC97370000938707DCD3
:1015040098435C57F19B93E717005CD79317F5005A
:1015140063D40702173700000347C7F1418B97379D
:1015240000009387A7E951C383C7870793E707029E
:10153400173700002300F7F09317E50063D707027D
:101544009737000083C707D8E207E18763D707000E
:101554008547173700002307F7D69737000093878E
:10156400A7D89C433707020098C79317C50063D4D4
:101574000702173700000347F7EB058B9737000086
:101584009387C7E329C383C7970793E727001737D0
:101594000000A301F7EA82808347370093E717002E
:1015A40017370000A30FF7D081BF03C78707894609
:1015B4003D8B6308D70083C787070D47BD8BE39D29
:1015C400E7F69147B5B703C79707118B69D783C768
:1015D400970793E7870065BF973700009387C7D0C5
:1015E4009443973700009387A7CD03C70700058B63
:1015F40011CB97370000238707CC97370000A383CC
:1016040007CC828003C71700058B65F7F85271FF7A
:1016140083C75700DDB717370000130727CA03280D
:101624000700832788039583858BADEF11C6832735
:101634000803BD832300F6009DC61C43985B460740
:10164400935767016356070093E707C0C207C18336
:1016540003970600C207C18709C7BA970947B3C7EA
:10166400E7022390F6008DCD8345150095C9973781
:10167400000083C747C593F707041387950089457E
:1016840085C33A95834705000547994593F6F706C0
:101694006398E600E207E187814563D30700B94513
:1016A4002E8582808545EDBF411126C206C622C41F
:1016B40097340000938444C33DED9440AE87F852C0
:1016C4007DFF37F400E03E8597370000238B07BE8B
:1016D400832704D1B285ED9B2328F4D0832704D13A
:1016E40093E787022328F4D073005010974000E05A
:1016F400E780C07897370000938747BC9C43B706C0
:1017040080009843558F98C3D857719BD8D7973783
:101714000000A38907BA97370000A38307BA9C4047
:10172400094798C3832704D193E787002328F4D07B
:10173400730050100DA08D476315F5049737000012
:101744009387C7B79C43B70680009843558F98C3C7
:10175400D857719BD8D7944017370000130747B662
:1017640083472700858B89EB83473700858BC1CB63
:1017740097370000238807B4B240224492444101C1
:1017840082808547E319F5FCB7F700E003A707D18A
:101794006D9B23A8E7D003A707D11367870223A86B
:1017A400E7D07300501098408177FD175447F58FA8
:1017B4005CC70F1000009840B70702001CC79307CE
:1017C40000F817360000230FF6AE97370000938712
:1017D400E7AE9C439C439D83858B639FA70093073F
:1017E40060197CD354C737F700E0832707D193E708
:1017F40087002328F7D02DBF9307E01BDDB7FC52E9
:10180400A5F39DBF97370000938707AE9C43884795
:10181400D847798D09C988C79387018903A307002D
:10182400630303000283828017370000130707ACA9
:101834008346B7019737000083C717AE4C4BB69762
:10184400FD8B33D7F50097360000A381F6AA9736AF
:101854000000A383F6AC058B15EF17370000034790
:10186400F7ABB3F7E702814601471305000233D60D
:10187400E500058A1378F70F19CA6397D7009737DD
:101884000000A38507A78280850693F6F60F050757
:10189400E31FA7FC8280973700009387279B9C4314
:1018A400011122CC4AC806CE26CA4EC68297973763
:1018B40000009387A7A5804701496301A406BE845D
:1018C40063668506018D135455009737000083C75E
:1018D40087A31379F5016360F404973900009389B1
:1018E400699C993703A884009736000083C6A6A193
:1018F400139756004297158C3A8683A54900636472
:1019040007016364B7003306B7409737000023A389
:10191400C7A0E378D4FC160433692401F24062447E
:101924004A85D2444249B249056182809737000012
:1019340093874797DC4333848740229569B7973769
:1019440000009387679A98438967938707F47CD349
:10195400973700009387879E9C4383A607091396B5
:1019640056006358060083A607091396660063446D
:1019740006007453FDF282804111B7E700E022C4EF
:1019840080433707200006C6798C23A0E7180F1080
:10199400000011C199E5B7E700E023A087100145D5
:1019A4007DA893073500C207C183F19BC207C18399
:1019B400130740036369F702173700001307C79F33
:1019C4000843173700001307A79E14436392A60227
:1019D4001737000013074788185B55DFC207DD8DF2
:1019E400054502974DBF173700001307A79CC9BFD1
:1019F400035765002DEB035745006366F706B306EE
:101A0400F7402146637CD6020328050093868700AD
:101A14001D8FAA966117172600000356C67E2392CF
:101A2400E60023A006012393060014C12312F50047
:101A3400130786FF972600002397E67C2313B5003F
:101A44009725000083D5257CB387F5401727000030
:101A5400231BF77AB7E700E023A087102105B240E3
:101A6400224441018280084195B7B7E700E08C43E6
:101A74003707200023A0E718F98D0F10000001E5B7
:101A840023A0B7108280973700009387E79203A3BF
:101A94000700973700009387A79183A80700814622
:101AA4009A8763F2170D03A807006361F50C636F4F
:101AB400A80A138787006368E50A03D667002167CD
:101AC40005076317E60003C761890507238BE188CF
:101AD400172500001305C57203D647000357650098
:101AE40023930700329742074183172E0000231CDB
:101AF400EE70638C6702173300001303A38B032378
:101B040003006304F30203D366006310030283D764
:101B1400460023A0060121073E9621062392C60013
:101B2400972700002391E76EB6879843630D170348
:101B3400973600009386068894426306D70283563C
:101B4400670095E283D64700035647001843A10671
:101B5400B2962392D70098C383576500A10717272D
:101B640000002312F76AB7E700E019BFBE86C287F8
:041B74000DBF0000A1
:101B7800971100209381018717510020130101C894
:101B88001305400097E5FF1F93854547170600207A
:101B9800130606FE63FAC5008322050023A055003C
:101BA80011059105E3EAC5FE179500001305853870
:101BB800970500209385C5FB1386018363FAC5004A
:101BC8008322050023A0550011059105E3EAC5FE0F
:101BD8001385018397350020938505916377B500B8
:101BE800232005001105E36DB5FEFD42739002BC8C
:101BF8008D4273904280B72200009382828873A03E
:101C0800023097E2FF1F9382623F93E232007390A3
:101C18005230970200009382820B73901234730043
:101C280020303D432A876373C3029377F700BDEFE3
:101C3800ADE5937606FF3D8ABA960CC34CC30CC734
:101C48004CC74107E36BD7FE11E28280B306C3405D
:101C58008A069702000096966780A6002307B700B9
:101C6800A306B7002306B700A305B7002305B700EE
:101C7800A304B7002304B700A303B7002303B700E6
:101C8800A302B7002302B700A301B7002301B700DE
:101C9800A300B7002300B700828093F5F50F939651
:101CA8008500D58D93960501D58D61B7939627004C
:101CB8009702000096968682E78086FA9680C1177A
:101CC8001D8F3E96E374C3F8A5B74111054506C6B6
:101CD800EF2080041545EF10A0351305800497E028
:101CE800FF1FE780005AEF007044179500001305A6
:101CF800A5CEEF70103717960000130666D097959B
:101D080000009385A5D0179500001305E5D0EF7066
:101D1800B0231795000013056506EF7090341795EA
:101D280000001305A5D0EF70D033EF104008EF1076
:101D3800C020EF50F075EF0090451795000013058F
:101D480065D1EF7010328D2AEF00702497E0FF1FE5
:101D5800E780E033179500001305C5D782801795F3
:101D680000001305E5D282809147014563E9B70079
:101D78008A0597970000938767E4BE95884182801B
:101D88009D476391F504239C0182239B018223993B
:101D98000182239801822391018423900184239E48
:101DA8000182239D0182238A01828547238FF18244
:101DB80093060004171600201306866E8545014514
:101DC8006F30C043828083D7218485072391F184B3
:101DD80083D62184A147138721846394F600239135
:101DE800018483D7C1838507239EF18283D6A1838B
:101DF80083D7C183638AF602835707000357070016
:101E0800172600201306C68A9A0793161700172765
:101E180000201307E7A93697835607003E969305D7
:101E2800100801456F3000318547238FF182828089
:101E3800011132C606CEEF00303883D761833246AF
:101E4800139717009727002093878785BA972390C1
:101E5800C70083D761838507239BF18203D76183FA
:101E6800A1476314F700239B018283D70183850769
:101E78002398F18283D7018303D72183998FC207DF
:101E8800C18321476384E7029387618383D707006F
:101E9800F240171600201306A6609A07930600045E
:101EA8003E968545014505616F304035F2408547CE
:101EB800238AF182056182800111280006CEEF1085
:101EC8001060970600209386A6CA014797950000E0
:101ED800938585C121453C00BA9783C7070005074C
:101EE800890613D64700BD8B2E96AE97034606008B
:101EF80083C70700238FC6FEA38FF6FEE31DA7FC4A
:101F0800979500009385C5BA014597070020238956
:101F180007C6EF201066971500209385A556014542
:101F2800EF20B06A938541810145EF20706D93855C
:101F3800C1800145EF20D06C17060000130686E427
:101F4800B78500400145EF20F070F24005618280BE
:101F5800011103D7018306CE22CC26CA4AC883D7EB
:101F680021836308F70803D5818383D78183139777
:101F78001700971700209387A772BA9783C50700A1
:101F8800171400201304C4511A052295138981835C
:101F9800EF00F00A39CD8357090093842183850720
:101FA800239CF1828357090021476314F700239C7F
:101FB800018283D7040085072399F18283C741836F
:101FC8008DCB9387018383D7070003D70400998FAC
:101FD800C207C1832147638EE700238A018203D6A3
:101FE80061831A0693060004229685450145EF3061
:101FF800E02083D7A18303D7C183998FC207C18308
:102008001D476364F70803D50184171400201304DF
:10201800246A1A059305F100229593840184EF0040
:10202800700B25C503D704008346F10097270020CD
:102038009387078806073E972310D70003D7040025
:1020480005072390E18403D70400A1466394E600C2
:10205800239001841387A183035707000507239D55
:10206800E18203C7E18315C3238F018203D621844C
:1020780003D721840607BA9783D607001A06229643
:10208800930510080145EF30E00AF2406244D2445B
:10209800424905618280B7E700E03707400023A086
:1020A800E71082801387418403230700B287630EF9
:1020B80003020D476302E502C547630AF500854739
:1020C8006315F50281460146814501450283814633
:1020D800014681450545DDBF89E901CA83461600E9
:1020E8008385070009060945D5B78280797122D40E
:1020F800130600022A8481450A8506D697F0FF1F39
:10210800E780C0D4C1472300F100B74776719387B1
:1021180097123EC4B7575500938757553EC6970741
:102128000000938767F83EC89307B0BFA3008100FB
:10213800231EF100EF50805B0A85EF40B00819E5D7
:1021480023848184B2502254456182800545DDBFD5
:1021580023A2B184238401849307700263E3A70058
:1021680071B70945828003C78184631AA7004111AA
:1021780006C6EF50A057B2400145410182801307BF
:1021880070026363A7009DB7094582801DC99387C4
:10219800F5FF93F7F70F1307A00F6364F702011118
:1021A80022CC06CE2EC62A84EF50405422856244A3
:1021B800B245F2409306F00F1306F00F05616F4029
:1021C800701A09458280411106C6EF502052B2406C
:1021D8009306F00F1306F00F8145014541016F404A
:1021E800B03F938701869843011122CC06CE3E84E6
:1021F80021E32800EF10B02CEF10704BB787379E03
:102208009387979B3D8D23A0A18681479305100254
:102218002146B306B50238003E97034707008507F5
:1022280033C5E600E397C7FE6384E60223A0A186D0
:102238000840F24062449317D500A98F13D51701BF
:10224800A98F139557003D8D23A0A1860561828033
:10225800854723A0F186E9BF89476310F5049307F2
:102268008005639AF604411122C41715002013054E
:1022780025692E84B2851306800506C6EF70604175
:1022880023828186224485472384F186B24003C590
:102298000187914541016F30C01E09E5A14503C57D
:1022A8000187D5BF85476318F5000D46854503C5E9
:1022B80001876F3080268280011122CC26CA4AC845
:1022C800AE842A89328481451306400417150020FC
:1022D8001305C5693EC236C63AC442C006CEEFF001
:1022E8005F943746415022470248B2461306764566
:1022F8009717002023A2C766054697170020238F4B
:10230800C76497170020A38B276597170020238899
:10231800E76497170020A38407659717002023A177
:1023280097649717002023AF87629717002023AD83
:10233800D762924799CB630A08004286BE85171573
:1023480000201305A562EF70C034B7A71C81B7063B
:102358000001938757DC0147171500201305C55F57
:102368009386361913064005B305E50083C50500B5
:102378000507AD8FB387D702E318C7FEF240624462
:10238800171700202324F762D2444249056182804E
:10239800197193970501A2DC86DEA6DACAD8CED6D3
:1023A800C1872E8463D00702EF20F07319C1EF2094
:1023B800706E2165218DF6506654D6544659B6592B
:1023C8000961828093F705048DC3EF00500219E973
:1023D800EF00805E130600149305000403C501870F
:1023E800EF30A01313450404F9B793F7450063824F
:1023F800072083C78186638E07164800EF10F027F1
:1024080013068005971500209385854F2800EF70E7
:10241800402893874186124583C707002384018695
:10242800EF10B0272247B747415093877745631588
:10243800F7040347C10085476310F7048344F1009C
:102448009307000463EA97027646B7A71C81B7068C
:102458000001938757DC0147938636199305400599
:1024680028003A95034505000507A98FB387D702C9
:10247800E318B7FE6308F600894503C50187EF3006
:102488004000C5A8EF00A0769387C186631D050E9E
:102498009C430D47639EE7040347D1008947631AAD
:1024A800F70C138901854247832709006313F70C4A
:1024B8009384818552479440E247639CE60AD8405A
:1024C8006319F70A0345E10083C741856313F50AD9
:1024D8005939832509009040D440814703C7418575
:1024E80001480D45D13B954723A6F186854571B72F
:1024F80015476390E7080347D1009147631BF70628
:102508009387018542479C436315F7069384818529
:1025180052479440E247639EE604D840631BF704A1
:10252800C14503C50187EF30C0158547171700203F
:102538002305F7529387418583C707009040D4400D
:1025480017170020A30BF750971700209387875081
:1025580090C7D4C7D1230DE151299440D04083C5F9
:102568004185178500001305E56DEF70E01D23A672
:1025780001861345440081B5178500001305456F92
:10258800EF70202EEDB79843A54703C90187631F55
:10259800F7040347D1009947631AF70497170020F7
:1025A8009387474BD246904762476311D604DC476E
:1025B800639EE7029387C18442479C436318F702EE
:1025C80026866C08171500201305852FEF70600C00
:1025D800A38291868547930500024A852383F18665
:1025E80023A60186EF30E009C12E61B789454A85E7
:1025F80079B593F7150095C3930580051715002045
:1026080013058535613619C50D46854503C501870E
:10261800EF20B0701345140079BB93F7250081CFE4
:102628005D3619C50D46894503C50187EF20F06E53
:102638001345240049B393F785009DC39387C1864A
:1026480098439307D7FFF59B81C7A5476317F70002
:10265800894503C50187EF20D06213458400A1BBDB
:1026680093F705016383070A592321E59387C186F8
:10267800984395471389018593848185631EF702E2
:1026880003C54185CD349040D440832509000148D5
:10269800814703C741850D450531854503C5018738
:1026A800EF20305E1306000AC14503C50187EF20FD
:1026B800D0661345040101B37D34253623A8A184CF
:1026C8000D36930770023375F5020505238AA18438
:1026D800093EAA893936B36735019DC323ACA18465
:1026E80023AE31859040D44083250900814703C734
:1026F800418501480545C9368D4723A6F18671BF36
:102708000547814798C0DCC0F1BF93F70502014532
:10271800E38307CA9387C1869843A5476318F702DE
:1027280083C7718613871700A383E1861147636205
:10273800F702854503C50187EF20B0541306000A48
:102748009305000203C50187EF20305D134504029D
:102758009DB1971700209387272083C747011785C6
:1027680000001305A55217170020230BF714FD5777
:1027780017170020A306F7148947A382F186854717
:102788002383F18623A60186EF70A00DC1B74111FE
:1027980006C622C4A126170500001305A5BFEF3001
:1027A800401A2388A186A121814709C597170020CF
:1027B80083C7B72A97050000938545AA3E85EFF0A1
:1027C8003F9901C91785000013058540EF7060091E
:1027D80001A031291DCD971700209387A72703C78C
:1027E800770013848185238AE1849847DC4718C0E1
:1027F8005CC023A60186DD2A144050402244B24022
:1028080083C54185178500001305453E41016F606A
:10281800B0739305000403C50187EF209046C145B6
:1028280003C5018723A60186EF20B0452244B240A4
:10283800178500001305453E41016F7080020111A4
:1028480022CC06CE2AC62EC45D262A842DC913871B
:10285800C186184335EF03C761863DEBB247ADCB60
:10286800A2459306F0031387F5FF1377F70F63E18B
:10287800E6061387C18414433A858506B1C623A6A4
:10288800D184971600209386E61C90462E88D4465D
:102898000C4101471545EFF03FA2A3830186A547E8
:1028A800854503C5018723A6F186EF20903D1306D1
:1028B800000A9305000203C50187EF201046228510
:1028C800F240624405618280054723A6E18455BF32
:1028D8000144F5B783C76186B9C7814731C5A9C522
:1028E800011126CAAA84680006CE22CC4AC82E84C2
:1028F800EF10A05803C951864A8697150020938582
:1029080025FC2685EF60F0583245230024012383F7
:102918000186EF108058F24062448547D24442490C
:102928003E850561828081473E8582803717004059
:102938008327870A411106C693E707202324F70A4D
:102948008D4513050020EF10801F854513050010E5
:10295800EF10E01EEF10805E0145EF1040619545D5
:102968000545EF106062B240B7E700E0370700089E
:1029780023A0E71013060008971500209385450546
:10298800171500201305C50341016F108062371722
:1029980000408327C70C4111B706800006C6D58FB3
:1029A8002326F70C8D4537058000EF10A023B24091
:1029B800A388018641018280371700408327870C4E
:1029C8004111B706800006C6D58F2324F70CEF10F7
:1029D800004EB7C72D009387076C3E9523AAA186A2
:1029E800B2408547A388F1864101828037170040AD
:1029F8008327C70CB7068000D58F2326F70CA3883A
:102A08000186828083C711878DCB411106C6EF10DE
:102A1800004A938741879C431D8D634D05003717F6
:102A280000408327C70CB7068000D58F2326F70CF4
:102A3800A3880186B2404101828082806146814537
:102A480017150020130505016FF0AF9D3787B8ED06
:102A580013060501FD57130707326315C50013C593
:102A6800F7FF828005058346F5FFB58FA14693D50C
:102A78001700858BB307F040F98FFD16AD8FE5FA87
:102A8800E9BF144137474457130707156395E60410
:102A9800544141114166A20622C406C6A182050618
:102AA8002A8401476394C6028346750013066002B0
:102AB800FD1693F6F60F636BD60014455045D18E7C
:102AC80091C669371848098F13371700B240224456
:102AD8003A854101828001473A8582804111E14669
:102AE80017160020130606F781452D4506C697E000
:102AF800FF1FE780C0F219C591378947B2403E856C
:102B080041018280171500201305C5F49D3F8147B8
:102B180075F52D378547DDB7397126DA06DE22DCF3
:102B28009714002083C464F385476390F40C17144A
:102B38000020130424F28347740013076002FD1772
:102B480093F7F70F6363F70A1C445844D98FD1CF22
:102B58006146A2850A85EF60D033B747445793870B
:102B680007150A853EC023129100CD35B7F7070037
:102B78002AC803C70701A5476313F70001A09306F6
:102B8800001001468145254597E0FF1FE78020E9B1
:102B9800914731E5E1460A868145294597E0FF1FBF
:102BA800E780E0E7954705EDE146300881452D458A
:102BB80097E0FF1FE780A0E6894715E161468A850F
:102BC8002808EF60B02A994719E928085D3D994718
:102BD80019C561462C082285EF60B02B8147F25059
:102BE8006254D2543E85216182808D47CDBF17152E
:102BF8000020130525E671B511455DA54111939691
:102C08002500AA852D4506C697E0FF1FE78020E12D
:102C1800B240014541018280011122CC06CE371411
:102C2800004026CA4AC84EC652C483447405034AA3
:102C3800B4058349840503499405EF1000058347CB
:102C4800A40593F4F40F137AFA0F93E71700230DF2
:102C5800F40493F9F90F1379F90FB717004003C774
:102C6800A705058B6DFF03D5C705A38D4705238CE5
:102C78003705A38C2705A38B9704F2406244D244FE
:102C88004249B249224A0561828041119397050160
:102C980022C406C6C1872E8463DD0700EF20A06426
:102CA80019C1EF20205F2165218DB24022444101E6
:102CB8008280939725010145E3D907FEEF306052E2
:102CC800253F37F60200130606E0896503C5C1876C
:102CD800EF20B0040965C9BF2D71232A9110FD7436
:102CE800E98C232C811023282111232631112A84D1
:102CF800AE893289930600100A86A6852D45232EB3
:102D0800111097E0FF1FE78080D11315440151810E
:102D18000A0513962900CA850A9597E0FF1FE780E0
:102D2800000FA68585660146254597E0FF1FE780C9
:102D380000CF0A86A68593060010294597E0FF1F55
:102D4800E780E0CD8320C111032481118324411140
:102D5800032901118329C11015618280B7F7070083
:102D680003C70701411106C622C426C24AC0A547A7
:102D7800631AF7009537B24022449244024901454C
:102D88004101828013942500AA843289A286AA85EB
:102D98000146254597E0FF1FE78060C8A2864A865E
:102DA800A685294597E0FF1FE78060C7E9B71D7131
:102DB800494697850000938525EF17850000130580
:102DC800E5FB86CE97E0FF1FE780600B01E91785DA
:102DD80000001305A5EEEF60D02801A0B7F600E0CB
:102DE800795798CAFD57DCCA0567B7E700E023A002
:102DF800E7101306F00290C223A0E71801000100B3
:102E080017E7FF1F1307474F23ACE1864157A38AF3
:102E1800E740130600048145080897E0FF1FE78094
:102E2800E00297F7FF1F9387E7E53EC88967938716
:102E38000780231AF1009D673ECCB70701059387E9
:102E480007103ECEED472310F10285472301F1021A
:102E5800970700009387C7DABEC2970700009387D9
:102E680027F0BEC48567938757D12312F1029717BD
:102E78000000938707043ED8B7F5070097070000BE
:102E88009387C7D93EDC814697070000938707D709
:102E98003000E10519453EDE97E0FF1FE78020B8C6
:102EA80018088147994630003E9603460600850774
:102EB8000507A30BC700E398D7FEC24791C703577E
:102EC800410185676373F70001A08307410263D757
:102ED800070493078008F3B7078093F787083EC471
:102EE8000F100000B7170040130770052380E70490
:102EF800130780FA2380E7040F100000B847B706CD
:102F0800100013670718B8C79853558F98D32380B4
:102F18000704A247F3A707800F1000000808EF2056
:102F28001026AA8501C917850000130565DAEF6028
:102F3800B00101A0F640256182804111170500000B
:102F48001305E5D406C622C4EF20B01F1384C18739
:102F58002300A4001928034504002244B2401306A4
:102F68000032896541016F20405B797106D61307ED
:102F78008008F337078093F787083EC20F100000D8
:102F8800B7170040930570052380B704130680FA2D
:102F98002380C7040F10000083C6F70293F6A60F1C
:102FA800A387D702238007049246F3A606800F1052
:102FB800000073370780137787083AC40F100000A2
:102FC8002380B7042380C7040F10000003C7F7024B
:102FD80013672700A387E70223800704A247F3A704
:102FE80007800F10000005456928393181470147DE
:102FF8008146054685451305407ED9286800514617
:10300800814597E0FF1FE78060E4B707C0A83EC886
:10301800B787E803938707D03ECA680097D7FF1F92
:103028009387C7213EC6EF20703AB250456182802F
:10303800371700408347E7041205411193F7F70853
:10304800C98F93F7F70F93068008F3B6068093F6B7
:10305800860836C60F100000930670052300D704B3
:10306800930680FA2300D7040F1000002307F70403
:1030780023000704B247F3A707800F10000041019F
:103088008280B717004003C7E7020D894111137703
:10309800C70F498F93068008F3B6068093F6860813
:1030A80036C60F100000930670052380D7049306D8
:1030B80080FA2380D7040F1000002387E7022380BB
:1030C8000704B247F3A707800F1000004101828070
:1030D80041112A83014E930E407E130F0019930F5E
:1030E800400663E56E129308001913034006B3788F
:1030F8001503854E0D4FA14F337365020D891335A6
:10310800150063EFBE121308F6FF7946729842085D
:10311800135808013307C70213D61700BE073297A2
:103128006146B3F6C60213068070B386C6023697A8
:10313800A166F58F42075D8FB716004083C7F60278
:1031480093F70708A303F1000346710083C7F6024B
:1031580093F70708E394C7FE83477100B71600404A
:1031680093F7F70F6388071293078008F3B7078070
:1031780093F787083EC40F100000B7170040930666
:1031880070052380D704930680FA2380D7040F1094
:10319800000023AA070383C6170393E60608A3883B
:1031A800D70223800704A247F3A707800F10000067
:1031B8001166B71700407D16D45BC85F9385470337
:1031C800A98EF18EF5FA93068008F3B6068093F679
:1031D800860836C60F100000930670052380D704B2
:1031E800930680FA2380D7040F10000098C103C704
:1031F800170313670704A388E70223800704B2476D
:10320800F3A707800F100000410182807D13336807
:10321800E3039308E016630E08003368F30393088A
:10322800D016630808009378330093B81800938881
:10323800D81633081E01131E0801135E0E0155B57A
:103248006393E503054863860800014863030300A8
:103258002A8871087298FD15131E0801C205135EAD
:103268000E01C18179BD13F8150063F4BF00790818
:10327800D5B713381800E5BF83C7F60293F70708D8
:10328800A303F1000346710083C7F60293F707080A
:10329800E394C7FE8347710093F7F70FF1DFE9B5B1
:1032A80031714AD966CB06DF22DD26DB4ED752D5EF
:1032B80056D35AD15ECF62CD6AC96EC7AA8C02D8DE
:1032C800EF00B0372A8993078008F3B7078093F790
:1032D80087083EDA0F100000B71700401307700583
:1032E8002380E704130780FA2380E7040F10000007
:1032F80003C7F7021377770FA387E70203C7F7021D
:1033080013678700A387E70223800704D257F3A730
:1033180007800F1000000545AD33130780C1334700
:10332800E902116A93070AE893065002BD69930BF4
:10333800A004814A014B13048008930470057D1A88
:10334800B347F9023307D7023EC0FD873ECC9387C7
:1033580009A69309803E3347F7023AC27D873AC4EB
:10336800334739038549B399990193D93940B3064D
:10337800D702B30B7703B3C6F602B3CBFB0236C64C
:10338800FD8636C893D6FB4136CEB7460F009386E6
:1033980006243349D9028566938606FAB3969601C0
:1033A800B389E902130760553309D902930600105F
:1033B800B389E9023349D902B3C9F902931639002E
:1033C80036CA37190040FD8636D0930D090493D7C5
:1033D800F9413ED2F336048093F6860836DC0F10A6
:1033E8000000930770052380FD00930680FA238070
:1033F800DD000F1000008346390593F6860FA309F8
:10340800D9048346390593E61600A309D904238015
:103418000D00E256F3A606800F100000130C80FA88
:10342800116DF336048093F6860836DE0F1000001F
:10343800930770052380FD0023808D010F10000085
:1034480083463905216693E60602A309D904835603
:103458000905B3E6A6012318D90483560905D18EB8
:103468002318D90423800D00F256F3A606800F1006
:1034780000008346390593F60602638B0618034657
:103488003905218A6DDE0818EF00301F7336048075
:1034980013768608B2C20F10000023809D00238097
:1034A8008D010F100000B717004003C637051376CB
:1034B800F60DA389C70403C6370513660602A38958
:1034C800C704835609052166B3E6A6012318D90463
:1034D80083560905D18E2318D90423800D009646FA
:1034E800F3A606800F1000008346390593F60602FE
:1034F8006387061483463905A18AEDFE97D0FF1F1E
:10350800E780A0D6AA8636D497D0FF1FE780E0D5FB
:10351800A256E30AD5FE835609054255B3E6A6012D
:103528002318D904EF00701783463905A18AEDDE08
:10353800035609058346290582473376CA00B30630
:10354800DA0293D5F641B296B388F640E24733B82B
:10355800C6002E983308F840A247B3B616013308C0
:10356800D84063C70701631DF800924763FA170143
:10357800C247634DF80E63950701B24763E8F80E3A
:10358800894663E7660FF2469315180013D3F801CE
:103598005E8613951800B365B30042D646D4EF5043
:1035A800F0153258050B137BFB0F634700016312BC
:1035B8000838A258638F083613081500B336A800D8
:1035C800B69513D6F5013298B336C800AE9613589F
:1035D8001800FE06B3E606017336048013768608E3
:1035E800B2C60F10000023809D0023808D010F10AC
:1035F80000000356C902B296C206C1822316D90238
:1036080023800D00B646F3A606800F10000011BDFA
:10361800F336048093F68608B6C00F1000002380A6
:103628009D0023808D010F1000008346390593E625
:103638000602A309D90423800D0086463DB5F3365A
:10364800048093F68608B6C40F10000023809D00FE
:1036580023808D010F1000008346390593E606028A
:10366800A309D90423800D00A6469DBDE30D0BF0E8
:10367800F336048093F68608B6C80F100000930648
:1036880080FA23809D002380DD000F100000834610
:10369800390593F5FC0F93F6860FA309D9048346E1
:1036A8003905CD8EA309D90423800D00C646F3A69B
:1036B80006800F100000130580FA034639059306AB
:1036C80039051D8A63149629733604801376860893
:1036D800B2CC0F100000130680FA23809D002380CF
:1036E800CD000F10000003C606001376F60D2380E8
:1036F800C60003C60600136606022380C60083566A
:1037080009051166D18E2318D90483560905216647
:10371800D18E2318D90423800D00E646F3A606802F
:103728000F100000130680FA8346390593F6060247
:103738006388062483463905130C3905A18AFDDA06
:103748000818252FF336048093F68608B6D00F1094
:103758000000930680FA23809D002380DD000F106F
:10376800000083460C00116693F6F60D2300DC007A
:1037780083460C0093E606022300DC008356090505
:10378800D18E2318D904835609052166D18E2318B2
:10379800D90423800D008656F3A606800F1000007A
:1037A800130680FA8346390593F6060263850620D8
:1037B80083463905A18AEDFE97D0FF1FE780E0AA6E
:1037C8002A8C97D0FF1FE78040AAE30C85FF835619
:1037D800090511664255D18E2318D9047D2D8346DB
:1037E800390513063905A18AFDDAF336048093F604
:1037F8008608B6D40F100000930680FA23809D0037
:103808002380DD000F1000008346060093F6F60DB6
:103818002300D60023800D00A656F3A606800F10BD
:1038280000008356090503462905D247B376DA0016
:103838003306CA021305800C9355F6413696330DAC
:10384800F6408257333CD6002E9C3336A601330C03
:10385800FC40330CCC403308850392564E86B33572
:10386800A5033305A503C295EF504069634680015F
:10387800631E0C16630C0D16130615003335A600CF
:103888002E959356F5013696B335D600AA9593969C
:10389800F50105828585D18E6346B000639D051AC2
:1038A800638B061A0356C90215823305D6003336D0
:1038B800C500B2956348B000639105241306F00F64
:1038C800637DA622894663F3561593078008F3B7EC
:1038D800078093F78708BED60F10000037170040FF
:1038E800930770052300F704930780FA2300F70471
:1038F8000F1000008356C70289678117D58FC2074A
:10390800C1832316F70223000704B657F3A70780DD
:103918000F100000FA506A54DA544A59BA592A5A10
:103928009A5A0A5BFA4B6A4CDA4C4A4DBA4D2961ED
:1039380082801308F5FF3335A800FD152E95135620
:10394800F5013298B336C800AA9651B1F33604800F
:1039580093F68608B6CA0F10000023809D002380C6
:10396800AD000F10000083463905CD8EA309D90498
:1039780023800D00D646F3A606800F10000035BB45
:10398800F336048093F68608B6CE0F100000238025
:103998009D002380CD000F1000008346390593E673
:1039A8000602A309D90423800D00F646F3A6068073
:1039B8000F10000095BBF336048093F68608B6D244
:1039C8000F10000023809D002380CD000F10000001
:1039D8008346390593E60602A309D90423800D001E
:1039E8009656F3A606800F1000006DBB9306F5FFF0
:1039F80033B5A600FD152E959355F501AE96B3B5D2
:103A0800B600AA951396F501858269B5F336048048
:103A180093F68608B6D80F100000930680FA238024
:103A28009D002380DD000F1000008356C902056643
:103A3800011693F6F60FD18EC206C1822316D9025B
:103A480023800D00C656F3A606800F100000850AD5
:103A580093FAFA0F41B233E6B60045C20356C902DB
:103A68003305D0403338A000B305B040B3850541D5
:103A780015826345B000D1E16371A608894663F0F9
:103A8800560593078008F3B7078093F78708BEDACF
:103A98000F100000B7170040130770052380E704D4
:103AA800130780FA2380E7040F10000003D7C7022A
:103AB8007D8B2396E70223800704D65781BDF33612
:103AC800048093F68608B6DC0F100000930680FA8F
:103AD80023809D002380DD000F1000008356C9025B
:103AE8000566011693F6F60FD18EC206C18223161B
:103AF800D90223800D00E656B9B793078008F3B7BB
:103B0800078093F78708BEDE0F10000037170040C4
:103B1800930770052300F704930780FA2300F7043E
:103B28000F1000000356C70293975600B297C207BA
:103B3800C1832316F70223000704F657C1BB914738
:103B480063EEB702177700001307871A8A05BA953C
:103B58009C41BA978287B717004003A7470B1345C4
:103B6800F5FF698F23AAE70A03A7070B698F23A824
:103B7800E70A03A7070A798D23A0A70A8280B71747
:103B8800004083A6470B1347F5FFF98E23AAD70AEF
:103B980083A6070B558D23A8A70A83A6070A758F46
:103BA80023A0E70A8280B717004003A7470B498F75
:103BB80023AAE70A03A7070B1345F5FF45BFB71765
:103BC800004083A6470B1347F5FF758F23AAE70A22
:103BD80003A7070A598D4DB7B717004003A7470B2E
:103BE800498FEDB7914763EEB702177700001307C7
:103BF80067118A05BA959C41BA978287B717004022
:103C080003A7470D1345F5FF698F23AAE70C03A700
:103C1800070D698F23A8E70C03A7070C798D23A04C
:103C2800A70C8280B717004083A6470D1347F5FFFE
:103C3800F98E23AAD70C83A6070D558D23A8A70CA8
:103C480083A6070C758F23A0E70C8280B717004066
:103C580003A7470D498F23AAE70C03A7070D1345B0
:103C6800F5FF45BFB717004083A6470D1347F5FF7B
:103C7800758F23AAE70C03A7070C598D4DB7B71703
:103C8800004003A7470D498FEDB7B717004003C79A
:103C980077051377E70FA38BE704130700F8A38DC5
:103CA800E7043D47238CE70413075003A38CE7047C
:103CB80003C7A7051377D70F238DE7048280411127
:103CC800B7F5070022C481462A842A86E1051945EA
:103CD80006C697D0FF1FE78080D4834714000347A8
:103CE800040083462400A207D98F03473400B2405A
:103CF8002207558FBA97034754008346440022078A
:103D0800558FBA97C207C1832303F400A183A30385
:103D1800F400224441018280797122D43714004092
:103D280026D24AD0035924028354040206D64209F3
:103D3800C2044ECE52CC56CA13590901C1802DE196
:103D48001379F9F793F4F49F4209C204135909014E
:103D5800C18093078008F3B7078093F787083EC4AC
:103D68000F100000930770052300F404930780FAEE
:103D78002300F4040F1000002311240323109402DD
:103D880023000404A247F3A707800F100000B250D5
:103D9800225492540259F249624AD24A45618280B9
:103DA800B7F5070081463000B105194597D0FF1FC8
:103DB800E780E0C6A24713972701E34A07FC136987
:103DC800090893E4044093098008F3B7098093F73E
:103DD80087083EC00F100000930A700523005405A1
:103DE800130A80FA230044050F100000231124034E
:103DF80023109402230004048247F3A707800F10BE
:103E08000000294597C0FF1FE7802071F3B909809A
:103E180093F989084EC20F100000230054052300AF
:103E280044050F1000008357040293E7072023106E
:103E3800F402230004049247B9B7B7170040884733
:103E4800420541819377050491EB9377F501375546
:103E5800E801130505803345F50282809377050C48
:103E6800130700046397E7009377F50137459C1C17
:103E7800CDB72165130505D0828037E700E01C43E4
:103E88005443A183E206D58F1CC1FD572320F718A0
:103E98002322F7180F100000828013178500B7E758
:103EA80000E023A0E710618123A2A7108280B7F762
:103EB80000E08847CC478280814737370040A146D9
:103EC80063C4C700328582800345B740E38EA6FEEF
:103ED8003385F5000345050085072304A740CDB7C2
:103EE800938741829C43170700201307E75F3E959D
:103EF800636CE50017270020130747706366A70067
:103F080023A2A1823E858280FD57EDBF411122C4C4
:103F180006C62A841D372947B307E502B2408D83B8
:103F2800B3D7870222449507B3D7E7023737004053
:103F3800C207C1832316F740410182807165411190
:103F48001305052006C6D937B7370040130770F8A0
:103F58002381E7400D47A381E74013070004A380AE
:103F6800E74005472387E740B24041018280373761
:103F78000040834727401A0593F7F703C98F93F743
:103F8800F70F2301F7408280B737004003C7174077
:103F980019C9D98DA380B74003C7074013678700A5
:103FA8002380E740828093C5F5FFF98DA380B74051
:103FB8008280FD5705C199CD0547637DC70013076A
:103FC800F6FF798E01EA232005002322050018C593
:103FD8004CC581473E858280011122CC26CA4041CA
:103FE80004451C414AC8269405044EC606CE1D8CBD
:103FF8002A89AE89637386003284E58F85049D8C97
:1040080063739400A2840325C9002686CE853E9555
:10401800EF5020680325C90033069440B385990002
:10402800EF502067832709002285F240A297624457
:104038002320F900D2444249B24905618280011126
:1040480026CA9304C0234EC6B30495029309F00808
:1040580056C2970A0020938A6AA122CC4AC852C441
:104068005AC006CE2A89B30935032E8A328B0144F9
:10407800D69483C74417636CF400F2406244D24478
:104088004249B249224A924A024B05618280B3876B
:104098008900938787048A07D697DC4363030B025A
:1040A80089CFD84719CB83462B0083C787016396EE
:1040B800F6005A86D2854A85029705041374F40FD0
:1040C8004DBFE5DFDC47F5DB0146D2854A8582979F
:1040D800EDB783C6550003C7450083C72500A20670
:1040E800D98E41111397870113F8F67F06C6AD865E
:1040F80061878D8A170600201306469763590702C1
:1041080013F7F707B1473307F7029307C023B3073D
:10411800F5023E97B307E600239D0717A38CD71631
:10412800EF009070B240133515004101828031478D
:10413800B387E7021307C0233307E502BA97B2979C
:10414800239D071DA38CD71CE1BF9307C02333070A
:10415800F5029707002093876791BA979847D44745
:104168003297918E98C7D4C73A8681EA03C7470128
:1041780009CB238A070081460146930500086F0092
:10418800707B03D7670011CB8387070063D70700CD
:104198008146014681456F10600682805D71A2C428
:1041A800A6C2CAC04EDE86C652DC56DA5AD85ED6D9
:1041B80062D466D26AD06ECE03CA05001307000225
:1041C8002A8493770A06AE89B28436896381E75ECA
:1041D800130700046389E76699EB137A3A0085466A
:1041E8006304DA3A63070A008947630FFA54814483
:1041F800B9AE03C71900A54783D52500E3E9E7FE53
:1042080017760000130646B193162700B2969C4213
:10421800B29782871307C0233307E5029C402380A7
:10422800070097070020938767843E970347E711A5
:1042380001CB944003C70600136717002380E600EC
:104248001307C0233304E402A29783C7071281CB64
:1042580098408347070093E727002300F7009C4016
:10426800A380070089478DA285476395F5028D468F
:1042780097F7FF1F9387877F6311D7021307C02320
:104288003307E502BA972380B71283A78723A5458A
:104298002285829723200900ADA11307C023330785
:1042A800E502A945BA972380071283A78723CDB7CC
:1042B8009307C0233307F50297F7FF1F9387077B00
:1042C80093F5F50FBA97A38EB710EF00D053D9B76F
:1042D80093D78500FD1793F7F70F3947E369F7F090
:1042E800177700001307C7A58A07BA979C43BA97A0
:1042F8008287EF0030539307C023B307F40217F403
:10430800FF1F1304A4763E941C4C2301A4129C4363
:104318008297E30E05EC8347050099A09307C02315
:10432800B307F50217F4FF1F130444743E941C4CA2
:1043380003452412DC438297E30B05EA83473500E3
:1043480003472500A207D98F034775001987058BF6
:10435800230FE410034775001587058BA30FE4109E
:1043680088C09DA09307C023B307F50217F4FF1F69
:104378001304C46F93F9F50F1307E00E3E941C4C19
:104388006397E900DC4BE38407E6884369B7034594
:1043980024129C4BCE8582972A84E30A05E463980D
:1043A80009029C4011472380E7009C400D47A380E9
:1043B800E7009C40034705002381E7009C40034732
:1043C8001500A381E70091472320F9001DAEEF50A7
:1043D800E04942054181930715008607C207C1835A
:1043E80013070010E365F7E098408D462300F700B7
:1043F8009840A300D7008946014713160701418258
:10440800E374A6FC9040B305E40083C50500369626
:1044180005072300B60090403696A30006008906DB
:10442800E9BF9307C023B307F50217F4FF1F13046E
:10443800E4633E941C4C03452412DC478297E3084E
:1044480005DA8347350003472500A207D98F09BF3E
:104458009307C023B307F50217F4FF1F1304046181
:104468003E941C4C9C53E38407D88843DC43CDBD61
:104478009307C023B307F50217F4FF1F1304045F63
:1044880098403E948347C4112300F70085472DBF09
:1044980093F7F50F97FCFF1F938C4C5D91EB130A74
:1044A800C02333044503338A8C00230E0A10DDB37E
:1044B8009307C023B307F50293F9F50F014B814A1F
:1044C8008144930BF00F130CF00F114D954DE697A7
:1044D800984F03C52712584302972A8A09478347EA
:1044E8000A00A1C383471A006383A7096384B70935
:1044F800639FE700834B5A00639B7901834A3A0024
:1045080083472A00014BA20AB3EAFA00854483478D
:104518000A003E9A83470A003E9BE3625BFDE38004
:104528000AFC638304289307C023B307F4020146F7
:104538009D452285BE9C238E3C11A3800C1201361A
:1045480083A78C239D452285829723200900B640A6
:104558002644268506499644F259625AD25A425B45
:10456800B25B225C925C025DF24D61618280034C19
:104578003A0071BFE39D79F9E31B0CF8D2852285D7
:10458800893EAA84094761B71307C0233307E502A8
:1045980017F6FF1F1306864D83DA250083DB4500D7
:1045A800330BE60083278B0103452B12DC438297EC
:1045B8008347CB11E38D07C203C71900994693F8C7
:1045C800FB0F630AD70863E8E600E31207C29C40C2
:1045D8002380070069B1A947630CF710AD47E318BA
:1045E800F7C003D72900B3071B0103452B12238209
:1045F800E71683278B0103CC490083CA2900DC43D3
:10460800014A81498297AA84130BF00F930BF00F8C
:10461800814C114D954D094783C7040063880710E5
:1046280083C714006381A70F6389B70F639AE700F4
:1046380083C9340083C72400014AA209B3E9F900F9
:1046480083C70400BE9483C704003E9AE3663AFD1C
:10465800E38409FCE1A813D78A0093071002631FBB
:10466800F7041308F00F014781471146130310029E
:10467800094E05A8834615006389C602638A660247
:104688006399C6018347350003472500A207D98FE0
:1046980001472E958346050036976364F700E39833
:1046A80007B483450500F9F599B603482500D5B741
:1046B800E39108FF88C08347050039B393072002B8
:1046C800E317F7B283474B175A860147E301F7B25E
:1046D8008326461289CA83C58601639615019C4ABA
:1046E8009CC0DC4AD5B105071377F70F1106F9BF4F
:1046F80033061B019440834746162380F600232087
:1047080049018544A9B503CB240083CB3400E319C0
:104718006CF3E3977AF3A68C25B7E3136CF3639DE8
:104728000A0083C524002285EF00F0156686A1459E
:104738002285EFF0DF90B9BEE3947AF1A685228551
:10474800EFF03F990947EDBD9307C0233307F50202
:1047580097F7FF1F93878731BA9783C7C711E388F5
:1047680007A883C7190083C545006389D70291CB81
:104778000D47E39EE7A683D729009DE7EF00501376
:1047880011BE1306F100EF00B01A0347F1009C4078
:10479800E30007E405472380E700D1B483D7290065
:1047A80081E7EF00D014B1BF2320090089B4137A40
:1047B8003A008547631CFA049307C0233307F502C0
:1047C80097F7FF1F9387872ABA9703C647170147AA
:1047D800E30FC7A083A647128DC603A8060063028D
:1047E800080283C5860183C64900639CD5002686D6
:1047F800CA86CE85228502981345F5FF9354F501A4
:10480800B9B305071377F70F9107D9B78947E310AD
:10481800FA9E9307C0233307F50297F7FF1F938784
:10482800E724BA9703C647170147E302C79C83A644
:10483800471289C603A84600E31B08FA0507137741
:10484800F70F9107DDB79307C023B307F50297F673
:10485800FF1F9386A621B68BB697984F5C4BB9C7B6
:1048680003C6150083C647006316D60603D745005E
:104878009146630CD7009546E31BD79603D72500CE
:10488800DC470A07BA97984311A09847834717004F
:1048980083460700A207B69783462700C206B69745
:1048A80083463700E206B69798C039BE1C4F9DC3B1
:1048B80003C6150083C66700631ED60083D645006D
:1048C8001D47E396E69203D747009C439CC02320EC
:1048D800E90005BD504F59C203C7190083470600B8
:1048E800014A631EF70603D749008947E311F79089
:1048F80003476600834756008346260022075D8FDC
:1049080083477600A206C2075D8F83478600E207C9
:10491800D98F03471600D98E034736004207D98E30
:10492800034746006207558F41B7B3074B0193878A
:1049380087048A07DE97DC4389EB050A137AFA0FA6
:1049480083C74A17E363FAFE5DB09C47FDD7CA8662
:104958002686CE85228582976DF165B3014A930A32
:10496800C023B30A5403130BF008DE9A330B640315
:10497800C1BF35CA9307C023B307F50217F8FF1F55
:104988001308C80E411122C406C62A84B305F800CC
:104998009845D4453297918E98C5D4C595EE13871E
:1049A800C701938607014297A10798C5C2963306A7
:1049B800F800EFF0AFFE01E922852244B2409305EA
:1049C80000084101F5A522852244B24081460146EE
:1049D800930500084101B9AF2244B2403A868145A7
:1049E80041016F00B00182800111814506CE22CCC1
:1049F80026CA2A849304C0233925B307940297F45E
:104A0800FF1F9384A4062C00228523070100BE946F
:104A1800B7078000938777503EC4239E04109307FE
:104A28000004238104122316F100FD2B2C0022859B
:104A380023050100D52B228501468545EFF02FE09F
:104A480083A78423228585458297F2406244D24415
:104A58000561828001114AC81309C023330925035F
:104A680022CC17F4FF1F1304640026CA2146AA8427
:104A780006CE330724013A85EF40B04183566500DE
:104A8800930700102A8763F0D7028307050063CCD9
:104A98000700930500082685212DF2406244D24480
:104AA8004249056182809307C023B387F402130645
:104AB800C901229632C6A29790C7D4C794CB238A3D
:104AC800070089CA8387070063C6070081452685D2
:104AD8003527E1B793060901A2967000BA852685A5
:104AE800EFF0CFEB5DD59307C023B387F402A2970D
:104AF800984B83D667006373D700BA869307C023A1
:104B0800B387F40213070010A297D4C7E363D7F85A
:104B18008847B2476319F5029307C023B387F402A5
:104B28009305000826853E945444104421251C48CA
:104B380003576400E3F3E7F693F7F703B9FF8547F4
:104B4800230AF40099BF3346F5000D8A41C2E9D61D
:104B580013F73700631D07103E862A87B388D700EE
:104B68003D48B385C840636CB81013D6460093150A
:104B78004600AE973307B500C1553306B6023E85E9
:104B88000D48B296B388D7003A86B385A8406366C5
:104B9800B81613D62600F155131526003306B602AB
:104BA800B2960146E38AC6F6B305C5003388B70056
:104BB80003080800BA95050623800501E5B78507AF
:104BC8000387F7FF0505FD16A30FE5FE13773500EC
:104BD8003DCFF5F691B7032806004106C10523A885
:104BE80005FF032846FF23AA05FF032886FF23ACF9
:104BF80005FF0328C6FF23AE05FF3388C840E36CD2
:104C080007FD13D64600C155131746003306B602F2
:104C1800BA978D452A97B29601463385C64063EE0A
:104C2800A50213D62600F155131526003306B60241
:104C3800B2960146E382C6EEB305A6003388B700F4
:104C480003080800BA95050623800501E5B73E86E6
:104C5800AA85B388D7003D474DB73385C7000328D9
:104C680005003305C7001106232005017DB7850718
:104C78000387F7FF0505FD16A30FE5FEC9BD0C4226
:104C88004106410713D385002308B7FEA30867FE32
:104C980013D30501E181230967FEA309B7FE832524
:104CA80046FF13D38500230AB7FEA30A67FE13D372
:104CB8000501E181230B67FEA30BB7FE832586FF61
:104CC80013D38500230CB7FEA30C67FE13D305018D
:104CD800E181230D67FEA30DB7FE8325C6FF13D31D
:104CE8008500230EB7FEA30E67FE13D30501E181ED
:104CF800230F67FEA30FB7FEADB511058325C5FFCA
:104D0800110613D38500230EB6FEA30E66FE13D339
:104D18000501E181230F66FEA30FB6FEBDB531473D
:104D280093F7F507B387E7021307C0233307E502B4
:104D3800BA9717F7FF1F130767D3BA9703A3071884
:104D48006303030002838280314793F7F507B38733
:104D5800E7021307C0233307E502BA9717F7FF1FC7
:104D68001307C7D0BA9703A3071E63030300028380
:104D780082809307C0233305F50297F7FF1F9387B7
:104D8800E7CE411122C41306C0232E84814506C6EE
:104D9800AA973E85EFC0FFE8130700F8230CE51635
:104DA800230A0516230C051C00CD17F7FFFF130770
:104DB800073AB24022442320E518170700001307DA
:104DC80087BB2320E51E410182809307C023B307D8
:104DD800F5021306F00897F6FF1F938626C93305D8
:104DE800C502B69703C74717238CE5003A95130504
:104DF80085040A05369505074CC1238AE716828083
:104E080003C70500D04197F7FF1F938727C693165E
:104E18008701E18663D20602B1459376F707B38628
:104E2800B6029305C0233305B5023695AA97238C9D
:104E3800E71623A0C7188280B1469305C023B3069E
:104E4800D7023305B5023695AA97238CE71C23A011
:104E5800C71E828011C101A0411106C622C423A425
:104E6800B18897F7FF1F23AFC7E22D202A84014698
:104E7800AD450145EFF0AF9C97F7FF1F938707BF3C
:104E880083A787230145AD4582972285B2402244F6
:104E980041018280411106C697F7FF1F9387C71CFF
:104EA80097F6FF1F938646F094D397F6FF1F9386D5
:104EB800A6F794DF97F6FF1F938606FFB4CB97F605
:104EC800FF1F938666E6B4D797F6FF1F9386C6E161
:104ED80023A4D71297F6FF1F9386060523A0D708A9
:104EE80097F6FF1F9386460C17F7FF1F1307C7DBBC
:104EF80023ACD70897F8FF1F938808E717F8FF1F18
:104F0800130888EE17F5FF1F130505F697F5FF1F21
:104F1800938585FD17F6FF1F1306060597F6FF1FF5
:104F28009386860C17F3FF1F1303031098C723A457
:104F3800E70C23A0170F23AC070F23A8A71023A063
:104F4800B71423ACC71423A8670A23A8D716B787B2
:104F58000040238007001303C0FC23866700A38654
:104F6800670042071303F003238767004183C208E1
:104F78002398E70093D808014208239A1701135889
:104F880008014205239C07014181C205239EA70011
:104F9800C1814206239AB7044182C206239CC704F2
:104FA800C182239ED704A94669472381D702238358
:104FB800E7022385E7022387E7022389D7022383B1
:104FC800E7062385E7062387E706A381070013077B
:104FD80090022380E700B716004003D7A6011367A5
:104FE800070C239DE6007D572383E700130710F87D
:104FF800A380E7001D472381E700EFD0CF89B240A7
:1050080001454101828089E937870040834737009D
:1050180093F70708A301F70097F7FF1F2386B70444
:10502800014582800945828083C725007D5593F616
:10503800870713F7F7079DEA03C63500939687019C
:10504800E18603C545000D8A97F7FF1F9387C701BF
:1050580063DF0600E1463307D702BA970547238680
:10506800E7002382A700A382C70001458280E146AA
:105078003307D702BA9705472386E70C2382A70C84
:10508800A382C70CDDB713F7F507E1463307D7024C
:10509800E20597F7FF1F938727FDE185BA9763D647
:1050A800050023860700014582802386070CE5BF9B
:1050B80013F7F5079547B357F702930600030A0756
:1050C800E205E185B387D702BA973787004013070F
:1050D8002702BA9703C7070063C805001367C7000C
:1050E8002380E7000145828013673700D5BF13F797
:1050F800F5079547B357F702930600030A07E20539
:10510800E185B387D702BA9737870040130727028C
:10511800BA9703C7070063C80500137737072380CA
:10512800E700014582801377C70B13672700C5BFC7
:105138000145828013F7F50719E27D55DDEEE14759
:10514800B307F702011126CA97F4FF1F9384C4F12D
:1051580006CE22CC4AC84EC67955A69783C5C70045
:10516800B1C9937536007555B1E5154433548702B6
:105178009305000390CBD4CB23AC07003304B402CF
:10518800931527002E94B7850040938905029385CF
:105198002502A2992E9495E62380090003C757009B
:1051A80085476305F7048347040093F7C70F230077
:1051B800F4000145F2406244D2444249B2490561D3
:1051C800828003C9470063F326013689E147330724
:1051D800F702B2854A861379F90FBA948844EF40EA
:1051E800404B2380290103C754005DBF8347040057
:1051F80093F7C70F93E717005DBF828093F5F50714
:1052080019E27D55ADE26147B387E50217F7FF1F45
:10521800130787E579553E978347C70CA9C7937746
:1052280036007555A9E39547B3D7F502232AD70C5D
:10523800930600038A052328C70C232C070C034771
:10524800570CB387D702AE97B785004093852502E0
:10525800BE958547630AF70083C7050093F7370FA4
:105268002380F5000145828083C7050093F7370F37
:1052780093E74700F5B7184183A785FF6319B7007F
:105288001CC1FD5723AC05FE238FF5FE8280232C1D
:10529800F6FEC5BF411122C437E400E026C204402F
:1052A8003707200006C6F98C2320E4180F100000E9
:1052B80009E9232094101545B24022449244410143
:1052C80082800347E5FF9307F00F6306F70023206A
:1052D80094101145D5B797C0FF1FE780C0780145E6
:1052E80023209410D1BF0111B7E700E04AC803A9F1
:1052F80007004EC63707200006CE22CC26CAAA8948
:105308003379E90023A0E7180F10000097F7FF1F73
:10531800938747EE80438144014611E491E8A165F3
:105328004E85852605A08347E4FF6399370385CC1E
:10533800A68517F5FF1F1305E5EB353F6DD0A16571
:105348004E858122F2406244B7E700E023A027118E
:1053580026854249D244B2490561828091E022867D
:10536800032484FF5DBFA284E5BF97F7FF1F23A333
:1053780007E8828097F7FF1F938747ED9C4399E3DF
:105388003E85828003D727006316B70003C707004E
:10539800E308A7FEDC47E5B7A5C1011106CE22CC7C
:1053A80026CA8147C14633D7F540058B29C3120564
:1053B8003E9531473305E50217F7FF1F130747ED01
:1053C800044305443314F4002EC642044180AA94D1
:1053D8009C40C8408297B24523A0040023A2040041
:1053E800A18DF2406244D2442E85056182808507F2
:1053F800E39BD7FA0144EDB72E858280C9C1797144
:1054080022D406D626D24AD04ECE01444147B3D73D
:105418008540858BA5C31205314722953305E502E2
:1054280097F7FF1F9387C7E603A907008544B3943E
:105438008400C204C180BE892A990327090011C7C4
:10544800032549002EC60297B24531473304E402CA
:1054580083A709003E941C4489E7232009002322DE
:105468000900B2502254A58D02599254F2492E8552
:10547800456182800504E31CE4F88144DDB72E858C
:105488008280B7E700E09843B706200023A0D7182A
:10549800758F0F10000097F6FF1F83C6F6D563734C
:1054A800D50217F6FF1F130626DA931615000842D1
:1054B800369583560500D58D2310B50023A0E71037
:1054C8000145828023A0E7100D458280B7E700E000
:1054D8009843B706200023A0D718758F0F10000037
:1054E80097F6FF1F83C656D16375D50217F6FF1FBF
:1054F800130686D593161500084293C5F5FF369511
:1055080083560500F58D2310B50023A0E71001454B
:10551800828023A0E7100D45828079714AD037E94F
:1055280000E026D283240900B707200006D622D43B
:105538004ECE52CC56CA5AC85EC6FD8C2320F918E6
:105548000F10000097F7FF1F83C717CB637AF5008A
:1055580097F7FF1F938707CF83AB070063970B006D
:10556800B7E700E023A09710A9A017FBFF1F130BB4
:10557800EBD2832A4B00B74736FE938707C82E8A9B
:1055880097F5FF1F83D505D2BE9AB387C5022A8433
:10559800B2898146B3B5C50213850732B337F50022
:1055A80013060064BE95EF30F05263F0AA02232080
:1055B80099100145B250225492540259F249624A54
:1055C800D24A424BB24B45618280829B97F5FF1FBE
:1055D80083D545CDB38735032A89130600648146F0
:1055E800B3B5350313850732B337F500BE95EF30F1
:1055F800704EB30725013E8903274B0063E4A700DB
:1056080063E4E7003389E740D2852285A53309C9D9
:1056180023242501B7E700E023A09710054559BFCB
:10562800936504F0C205C181414597C0FF1FE7801B
:10563800603419E997F7FF1F938787C19C5B8DD367
:10564800A2851145829729BF97F7FF1F938707C047
:105658009C4385E797F7FF1F23AAA7BE8547232604
:105668000500232425012311450123008500A300FB
:10567800F5002322050079BFBA87D84775FFC8C748
:10568800F1BF0111B7E700E04AC803A9070022CC1F
:105698004EC63707200006CE26CAAA892E8433793B
:1056A800E90023A0E7180F100000E931AA8419C106
:1056B80023110500A2854E85113D97F7FF1F83C76B
:1056C800A7B3639B370197F7FF1F83D767B75D8C35
:1056D80097F7FF1F239687B6B7E700E023A02711A7
:1056E800014591E01945F2406244D2444249B24929
:1056F80005618280411122C426C217F4FF1F1304DA
:10570800E4B997F4FF1F938424AF9448584097F75F
:10571800FF1F938727B306C69C436392E6088297C8
:105728005440B74736FE938707C8B6973387A70014
:105738003A856364F7006364D7003305D74097F46C
:10574800FF1F938464B7DC5081CF97F7FF1F9387BF
:1057580067BE94433707CDFF7D179C46F98F9CC6DB
:1057680011E1484097F7FF1F938787AEDC53829774
:1057780011E5DC5085C3EF00D03D212DDC5099CBDD
:1057880097F7FF1F938707BB9843B70633001C475B
:10579800D58F1CC7B240224492444101828082972F
:1057A80094485840B387A6003E8563E4D700E3E8F1
:1057B800E7F83385E74061B7411106C697F7FF1F41
:1057C80023ACA7AC0295B24097F7FF1F23A2A7A46A
:1057D800014541018280994763E9B7008A0597F737
:1057E800FF1F938727A4BE9588C1828097F7FF1F64
:1057F80023A2A7AA11C5854717F7FF1F2303F7A4FC
:10580800828041117146814517F5FF1F130585A157
:1058180006C697F7FF1F23AB07A297F7FF1F23AD15
:1058280007A697F7FF1F23AF07A097F7FF1F238A45
:1058380007A097F7FF1F23AF07A497B0FF1FE780C4
:10584800E06013068002814517F5FF1F1305C59A0E
:1058580097B0FF1FE780805FEF30C03697F7FF1FD4
:105868009387079F03C5C70383C7D70385453E951D
:105878008D473305F50239051375F50F97F7FF1FA7
:10588800238DA79699473305F5021305052497C07C
:10589800FF1FE780200E17F7FF1F232BA79E59CD68
:1058A800994717F6FF1F034646953306F6028145CA
:1058B8001306062497B0FF1FE780405997F7FF1F8C
:1058C8009387079D9C439387072417F7FF1F232976
:1058D800F79417F7FF1F034747920A07BA9717F776
:1058E800FF1F2323F796EFF05FA8E52697F7FF1F22
:1058F80093870793944397F7FF1F83C7F78F1397EF
:105908002700369717060000130686AF10C31387C3
:1059180017001377F70F0A073697170600001306C4
:10592800E6A710C313873700890793F7F70F8A078D
:1059380097F5FF1FA382E58CB69790C3B24041014B
:10594800828097F7FF1F83C7378B17F7FF1F03471F
:10595800C78A63F3E70217F7FF1F1307678C18431B
:105968009386170017F6FF1FA308D688939627007B
:10597800369708C33E8582809307F00FE5BF1C4128
:105988006384071641777D8FB70600208947631E19
:10599800D71403574500630A0714411122C4194656
:1059A8002A849305F00F610506C697B0FF1FE780AC
:1059B800E05105478D476304E5121C4481CB5858D4
:1059C8009947630E0710185C630B07101306000451
:1059D800814517F5FF1F1305A58797B0FF1FE780BF
:1059E800E04613060004A28517F5FF1F1305458638
:1059F80097B0FF1FE780A04197F7FF1F83D707865F
:105A080017F7FF1F1307C78499E79307001097F646
:105A1800FF1F2395F68497F7FF1F83C7478491E7F5
:105A2800854797F6FF1F238CF68297F7FF1F83D7CA
:105A3800278391E7ED4797F6FF1F2393F68297F7A1
:105A4800FF1F83C7D78191E7954797F6FF1FA38864
:105A5800F68097F7FF1F83C7C78091E7854797F6BA
:105A6800FF1F2380F68097E7FF1F83C7977F99E77B
:105A78008347F70097E6FF1FA385F67E97E7FF1F8A
:105A880083C7577E81CF93F63700898317E6FF1FB8
:105A9800230ED67E97E6FF1FA38AF67E97E7FF1FA1
:105AA80083C7477C91E7D54797E6FF1F238CF67A93
:105AB8008347640199E79307C00397E6FF1F238490
:105AC800F67A1C5791C7829797E7FF1F239AA77208
